:100000000C9456030C949D030C949D030C94FC1BC0
:100010000C949D030C949D030C949D030C949D03E0
:100020000C949D030C949D030C942D2D0C94FF2D8A
:100030000C94EE270C949D030C949D030C949D034B
:100040000C949D030C949D030C949D030C949D03B0
:100050000C949D030C9463280C949D030C949D03B5
:100060000C949D030C949D030C949D030C949D0390
:100070000C949D030C949D030C949D030C949D0380
:100080000C949D030C949D030C949D030C949D0370
:100090000C949D030C949D030C949D030C949D0360
:1000A0000C949D030C949D030C949D0315151E1533
:1000B000231528152D15321537153C1541154615F4
:1000C0004B15501555155A155F15641569156E15A4
:1000D000731578157D15821587158C159115961554
:1000E0009B15A015431746174B17521757175C1748
:1000F000611766176B17701775177A177C177E17BD
:100100008017831783178317831783175C1F5C1F60
:100110008F1F8F1FB61FD320D320D320E01F752041
:10012000872087205021502162216221592162219C
:1001300062216221502150215E21622162215E21D3
:100140006C2E932E8B2F932E8B2FDF2E022F8B2F27
:10015000592F682F0102E30102E17A0103E1010353
:10016000E3000102E0790103E0000102E37A010308
:10017000E3000102E07A0103E0000102E3760103FB
:10018000E3000102E0760103E0000102E3780103ED
:10019000E3000102E0780103E0000102E3630103F0
:1001A000E3000102E0630103E00029001E001F00DC
:1001B0002000210022002B003400360037001300FD
:1001C0001C00E10004001200080018000C00E00010
:1001D000330014000D000E001B000000E300E200DD
:1001E00002512C0001533500270026002500240071
:1001F00023002E000F00150006000A0009002D0044
:100200001600110017000B00070038001D00190030
:100210001A001000050000004C002A0003512800BD
:10022000AE0029001E001F002000210022002B002C
:1002300014001A00080015001700E1000400160061
:10024000070009000A00E0001D001B00060019005D
:1002500005000000E300E20002512C00010035001F
:10026000270026002500240023002D001300120083
:100270000C0018001C002E0233000F000E000D00B1
:100280000B0031003800370036001000110000006C
:100290004C002A00035128000100005C3A003B009A
:1002A0003C003D003E00010001004B004E004600B6
:1002B0002C5D0100010031022F0030002B5D010098
:1002C0005000520051004F002D5D00000100010060
:1002D000010001002A5D440043004200410040004B
:1002E0003F00450001004E004B00010001004D00A1
:1002F0004F005100520050004A0031004F005100A1
:1003000052005000010000000100010004510100F2
:1003100001000100010001000100010001000100D5
:1003200001000100010001000100010001000100C5
:1003300001000100010001000100010001000100B5
:100340000100000001000100045101000100A600AD
:100350000000560055005400530000005700610093
:1003600060005F004600B20085005E005D005C003A
:100370004C00000067005B005A0059002A00000092
:1003800063006200010001000100A5000000000000
:10039000015C005CDF5C0000000000000000000069
:1003A0000000BD00A9000000000000000000BE0029
:1003B000AA00000000000000000000000100010091
:1003C0000100010000000000D25CD15CD05CCF5C79
:1003D000CE5C00000000D65CD55CD45CD35CCA5C0B
:1003E000C85CC65CCC5CC45CC35CCB5CC95CC75CF1
:1003F000CD5CC55C000000000100010001000100AF
:10040000000000000000000000002A2B280000006F
:1004100000000000000000000000000000290000B3
:1004200000002C1E3420212224342627252E362D90
:100430003738271E1F202122232425263333362E2A
:1004400037381F0405060708090A0B0C0D0E0F109C
:100450001112131415161718191A1B1C1D2F3130E1
:10046000232D350405060708090A0B0C0D0E0F1085
:100470001112131415161718191A1B1C1D2F3130C1
:10048000354C0000000000000000000000000000EB
:10049000000000000000000000000000000000005C
:1004A0000000000000007E0F00D4FFFFFFC7000027
:1004B00000780001010101010101010102020202B3
:1004C00002020202020303030303030303040404FE
:1004D00004040404050505050506060606060707C7
:1004E00007070708080808090909090A0A0A0B0B7F
:1004F0000B0C0C0C0D0D0D0E0E0E0F0F0F1010111E
:1005000011111212131314141515161617171818A3
:1005100019191A1A1B1B1C1D1D1E1E1F202021220B
:1005200022232424252626272829292A2B2C2D2D51
:100530002E2F30313232333435363738393A3B3C6E
:100540003D3E3F404142434445464748494A4C4D61
:100550004E4F50515354555658595A5B5D5E5F612A
:100560006264656668696B6C6D6F707273757778BD
:100570007A7B7D7E8082838587888A8C8E8F91931B
:100580009596989A9C9EA0A2A3A5A7A9ABADAFB142
:10059000B3B5B7BABCBEC0C2C4C6C9CBCDCFD1D427
:1005A000D6D8DBDDDFE2E4E7E9EBEEF0F3F5F8FACD
:1005B000FDFF1C034C0069006C0079003500380019
:1005C00047006C006F00770045006E00630000007C
:1005D00016034F00520056004900530045005600D4
:1005E00041004E00530000000403090409023B00CF
:1005F000020100A0FA090400000103010100092121
:10060000110100012240000705810308000A0904C6
:100610000100010300000009211101000122320044
:100620000705820320000A12011001000000085192
:10063000FC590000010102000105010980A10185AA
:100640000319012AB700150126B70095017510811D
:1006500000C0050C0901A101850419012AA0021599
:100660000126A002950175108100C005010906A1AF
:1006700001050719E029E715002501950875018195
:10068000029501750881010507190029FF1500264B
:10069000FF009506750881000508190129059505D3
:1006A00075019102950175039101C00011241FBECF
:1006B000CFEFDAE0DEBFCDBF04B603FE27C08091E6
:1006C000320590913305A0913405B09135058730FE
:1006D000904BA740B04BD1F41092320510923305E5
:1006E000109234051092350514BE84B7877F84BFFD
:1006F0000FB6F894A895809160008861809360009F
:10070000109260000FBEE0E0F8E3099512E0A0E06F
:10071000B1E0EEE1F2E602C005900D92AC3CB1070B
:10072000D9F725E0ACECB2E001C01D92A233B207CC
:10073000E1F70E94652A0C940D310C9400000C9492
:10074000C2030E94E2266093F7037093F80380933C
:10075000F9039093FA0308951092F7031092F803A7
:100760001092F9031092FA0380E081608093F703FE
:100770006091F7037091F8038091F9039091FA0367
:100780000C94E626FB012281222309F442C08B321D
:10079000FDE59F07F9F0B0F48A329D45D1F58091CF
:1007A000F703982F909590FB80F98093F703609161
:1007B000F7037091F8038091F9039091FA030E9476
:1007C000E62627C08C32FDE59F0771F08D329D45EE
:1007D000A9F01FC08091F70380FF03C082EA91E077
:1007E00016C08AE991E013C08091F70380FF03C02F
:1007F00082E991E00CC08AE891E009C08091F7039A
:1008000080FF03C082E891E002C08AE791E00E9485
:10081000AB0581E00895811115C08091F70366232F
:1008200049F080FF03C082E791E002C08AE691E0D0
:100830000C94AB0580FF03C082E691E0F9CF84E51C
:1008400091E0F6CF813039F4662311F089EA01C0D6
:100850008AEA0C94221F0895089581E0089508956E
:100860000C942F041F93CF93DF9300D000D01F92DE
:10087000CDB7DEB749835A836B8330917503898185
:100880009A81311114C0662359F0222349F00E9445
:10089000F425182F682F89819A810E949B2503C017
:1008A0000E94C725182F69817A81812F04C00E9478
:1008B000F42569817A810F900F900F900F900F901F
:1008C000DF91CF911F910C94BE05FC01262F408132
:1008D00051816281738184810C943204CF93DF93C0
:1008E000EC0160E00E946504BE01DF91CF910C94A1
:1008F00030040E94AB26811102C00E9451270E9441
:10090000F8150C949D070C949B0708950E943E21B6
:100910000E9485042FEF84E39CE0215080409040AA
:10092000E1F700C000000C94E7280F931F93CF93CA
:10093000DF93EC0161E00E9465048C01BE010E941E
:100940009F03882379F1BE01C8010E943F198823C3
:1009500049F1BE01C8010E949119882319F1BE0115
:10096000C8010E94BC1A8823E9F0BE01C8010E9498
:100970002C178823B9F08A81882369F001158CE54A
:10098000180731F00F3D1C4531F40E9451270AC071
:100990000E94860407C0CE01DF91CF911F910F9175
:1009A0000C942D0480E0DF91CF911F910F91089559
:1009B000DF92EF92FF920F931F93CF93DF93E82F75
:1009C000F0E0EE5FFB4FD490282F269526952695D4
:1009D00030E0F901EE55FB4F0491877010E0082ECE
:1009E00002C0159507950A94E2F701701127F901E5
:1009F000EE56FB4FE490F12C082E02C0F594E794DC
:100A00000A94E2F791E0E922FF24F901EE57FB4F47
:100A1000C491D0E002C0D595C7958A95E2F7C17020
:100A2000DD270115110519F081EE0E94911EE114D8
:100A3000F10419F086EE0E94911E8D2D0E94221F56
:100A4000EF2819F086EE0E94DF1E012B19F081EECF
:100A50000E94DF1ECD2B51F08CE2DF91CF911F91D0
:100A60000F91FF90EF90DF900C94221FDF91CF91B8
:100A70001F910F91FF90EF90DF900895EF92FF92FA
:100A80000F931F93CF93DF938C01F62E8AE0E82E0D
:100A9000F8018491882309F457C0813009F042C0DD
:100AA000E8012196FE018491813031F42196FE0106
:100AB00084910E94221F39C0823039F4E8012296C5
:100AC000FE0184910E94911E30C0833039F4E80108
:100AD0002296FE0184910E94DF1E27C0843029F5F2
:100AE000E8012296FE01249180E090E030E020535E
:100AF00031092A30310560F4E89EA001E99E500DCD
:100B00001124C901840F951F2196FE012491EECF77
:100B1000009759F0EFE9FFE03197F1F700C00000CE
:100B20000197F6CF0E94D804E8018E010F5F1F4F96
:100B30008F2D882309F4ACCFEFE9FFE03197F1F76F
:100B400000C000008150F5CFDF91CF911F910F9130
:100B5000FF90EF90089560E00C943E0508950C948A
:100B6000AE0581E008950C94B105CF93C82F0E9483
:100B7000AF058C2F0E94B305CF9108952CE3829F7F
:100B8000C0011124FC0126E0729FE00DF11D11242B
:100B9000E60FF11DEE0FFF1FE655FE4F8591949174
:100BA0000895CF93DF930E94BE050E94B206EC0128
:100BB000811521E5920780F5811540E5940708F03D
:100BC00073C08F3B910580F4883A910508F061C0AD
:100BD000853A910508F055C08430910508F0BEC0F3
:100BE000019709F4BBC0B8C0C11580E2D80760F412
:100BF000C11521E0D20708F0B1C0CE01805E910995
:100C0000089708F4ABC0A8C0C11540E4D40708F4A5
:100C1000A3C0DF70D06AA2C0C11584E5D80778F4FC
:100C2000C11523E5D20708F071C0C11542E5D4070C
:100C300008F056C0DC2FCC27C16FD06A8FC0C11519
:100C40008AE5D80778F4C11529E5D20708F074C001
:100C5000C11548E5D40708F47FC0DC2FCC27C06F4E
:100C6000D06A7CC0CE0190568115904208F074C0C5
:100C70008D2F8F710E944607DD27D0628F71D82B90
:100C80006DC0C55AD0E0C959DD4FC881D0E0D064ED
:100C900065C0C85AD0E0CC0FDD1FC75CDD4F09909E
:100CA000D881C02DD4645AC054E0969587955A9542
:100CB000E1F7282F23703C2F337081E090E002C0D1
:100CC000880F991F3A95E2F79C68922BCF70C695D2
:100CD000C69540E2C49FE0011124C82BD92B3EC029
:100CE000CE018370992721E030E002C0220F331F2C
:100CF0008A95E2F78C2F8695869540E2849FC00105
:100D00001124E901C82BD92BDC6828C0CE018370DF
:100D1000992721E030E002C0220F331F8A95E2F7C5
:100D20008C2F8695869540E2849FC0011124E901AD
:100D3000C82BD92BDA6812C08C2F8F700E944607FF
:100D400094E0D695C7959A95E1F7CF70D0E0DC2F67
:100D5000CC27D069C82B02C0C0E0D0E0CE01DF9123
:100D6000CF9108958238910569F1B0F481339105EE
:100D700009F46DC048F48932910509F463C08A32E0
:100D8000910509F469C008958533910509F455C0AA
:100D900089339105B9F00895833E910569F138F4DE
:100DA000803E9105B1F0823E910509F10895863E9D
:100DB0009105A9F1873E9105B9F1843E910509F0AD
:100DC00064C023C02091230520FD4FC021FD4DC0EC
:100DD00008958091230580FD44C08091240580FF03
:100DE00044C08091230584FD42C083EE4DC08091B4
:100DF000230582FF38C0F5CF8091230582FD33C0E3
:100E00008091240580FD31C0ECCF8091240581FFC5
:100E100032C08091230584FD2AC087EE35C08091C1
:100E2000230583FF26C0F5CF8091230583FD21C0D4
:100E30008091240581FD1FC0ECCF8091230585FDA5
:100E40001CC01DC08091230585FD19C016C080916E
:100E5000230586FD16C017C08091230586FD13C0AB
:100E600010C089E311C082EE0FC080EE0DC080E09B
:100E70000BC086EE09C084EE07C089E205C085E399
:100E800003C08AE201C081E390E0089590912305B8
:100E900092FF0DC0282F2871283019F4877F8460B5
:100EA00006C0282F2471243011F48B7F886093FFB3
:100EB0000DC0282F2871283119F4877E846106C05F
:100EC000282F2471243111F48B7E88612091240510
:100ED00020FF0DC0382F3871383019F4877F8160BA
:100EE00006C0382F3171313011F48E7F886021FFB8
:100EF0000DC0282F2871283119F4877E816106C022
:100F0000282F2171213111F48E7E886194FD877E16
:100F10000895E82FF0E0EB5FFB4F8081089508957E
:100F200080EA8A95F1F7089500C008950C9490071F
:100F300008950C9498070C9499070C942C04F89439
:100F4000E82FE295EF70F0E031A1282F2F7081E0BB
:100F500090E001C0880F2A95EAF7982F9095932387
:100F600091A392A1892B82A37894089508950F9359
:100F70001F93CF93DF930E944509809118028091BF
:100F80001802811102C095E001C090E09093100416
:100F900085E0891B80930F0486E60E949F0787E9FE
:100FA0000E949F0786EC0E949F0784E30E949F0790
:100FB00085E30E949F07CAE6D2E000E712E089912C
:100FC0000E949F070C171D07D1F7EBEFF3E0A5E098
:100FD000B4E011921D9284E0E530F807D1F785E086
:100FE0000E94EF080E947904DF91CF911F910F9129
:100FF0000C944F090F931F93CF93DF9300D000D031
:101000001F92CDB7DEB70E94260960911004882395
:1010100009F442C08E010F5F1F4F85E0F801119265
:101020008A95E9F7862F90E0B8018B5F9B4F0E946D
:10103000F91A811116C08091CE028F5F8093CE0283
:10104000863030F1E0910F04F0E0EB5FFB4FD80108
:10105000CE01069611921D92A817B907D9F711E093
:1010600018C01092CE02A0910F04B0E0AB5FBB4F4E
:10107000F8019E012A5F3F4F10E081919C919817E3
:1010800011F08C9311E01196E217F307B1F701C04C
:1010900010E00E9483040DC070E06B5F7B4F809175
:1010A0000F0490E08B5F9B4F0E94291B0E94B607A4
:1010B00010E0812F0F900F900F900F900F90DF9105
:1010C000CF911F910F9108958F929F92AF92BF92EF
:1010D000CF92DF92EF92FF920F931F93CF93DF9304
:1010E00080E7A82E82E0B82ECBEFD3E095E7E92E7B
:1010F00092E0F92E912C01E010E06501F50180816C
:10110000F894E82FE295EF70F0E021A18F70A8012C
:1011100002C0440F551F8A95E2F7CA01922F982BFF
:1011200091A392A18095892382A378940E94940729
:10113000EAE6F2E020E030E0812C4191A42FA29574
:10114000AF70B0E090968C9190E04F7002C0959592
:1011500087954A95E2F780FD07C0802F022E01C0D7
:10116000880F0A94EAF701C080E0882A2F5F3F4F7A
:101170002630310511F75FEFA51AB50AF601808117
:101180000E949F070E9496078881881619F088821E
:1011900081E001C080E0982A2196EA14FB0409F05E
:1011A000ACCF6091100470E06B5F7B4F292D45E060
:1011B0008BEF93E00E94F0080E94FA07992011F04B
:1011C00081E090E0DF91CF911F910F91FF90EF9020
:1011D000DF90CF90BF90AF909F908F90089508952B
:1011E000FF920F931F93CF93DF938C01F62ED72F8F
:1011F000C42F222349F081E08093D1020E9420284D
:101200009093D0028093CF028091D1028823C1F0C5
:101210008091CF029091D0020E943828069780F0EA
:10122000EF2DFD2FD8014C2F50E0CD01801B910BED
:10123000841795071CF48D918193F7CF1092D102FA
:10124000DF91CF911F910F91FF9008958091D2026D
:10125000811112C08091D80080618093D8008AE10A
:101260008A95F1F700C08091D90080FD02C082E02C
:1012700001C081E08093D20281E09091D20291304E
:1012800009F080E008950C9426090E944309809398
:1012900018020E94260981110C94ED1A08950E94EB
:1012A0002609811102C00C94F31A0895EF92FF925F
:1012B0000F931F93CF93DF938B01682F11110AC0F7
:1012C000442329F0E82FF0E0EE54FB4F6491762F91
:1012D000862F75C0212F30E0E82FF0E0442321F065
:1012E000EE54FB4FE491F0E046E0049FC00111246E
:1012F000CFEFD0E0BE010E94BF2F4BEA4603C001F2
:10130000479F900D1124800F911D800F911D982FE4
:10131000990F890FAE01421B530B4E9FD0014F9F77
:10132000B00D5E9FB00D11249B2F189FA0011124BA
:10133000452F55278E01041B150B0E9FA0010F9FF3
:10134000500D1E9F500D11247E01E81AF108E29EF7
:101350008001E39E100DF29E100D1124212F3327E2
:10136000C21BD30BCE9F9001CF9F300DDE9F300D5F
:10137000112462307105A9F048F46115710569F016
:1013800061307105C9F48B2F752F0DC06430710564
:1013900081F058F06630710579F47E2F8B2F932FF2
:1013A0000DC0832F7B2F9E2F09C08E2F7B2F952F53
:1013B00005C08E2F732F02C07E2F852F692FDF91DE
:1013C000CF911F910F91FF90EF90089541E00E94FF
:1013D0005609089520E030E0869F212D969F200D2C
:1013E000311D1124C9010895BC018230910508F412
:1013F0000895613E8EE1780748F49B0195E03695AB
:1014000027959A95E1F748E0420F01C04FEF91E030
:10141000242F30E0290F311D35952795229FF001AB
:10142000239FF00DF00D11246E177F0718F44FEF76
:10143000420F04C02F3F39F091E0920F491740F757
:101440008FEF890F08958FEF0895482F982F46FD4D
:101450009095E92FEF739F7046FD9F5FE295EF70C7
:10146000EE0FF0E0E658FD4F2181299F802D212DC0
:10147000112482958F702295207F822B3081982FA6
:10148000930F892F47FD819580580895E42FF0E050
:10149000EE0FFF1FE05CFE4F408134EE439F412D75
:1014A0001124E72FF0E050E0445E5F4FDA01A21B09
:1014B000B1099D01B7FF03C031952195310993E032
:1014C000220F331F9A95E1F7AF01421B530B9A018C
:1014D00057FF02C020E030E0279F212D1124722FFA
:1014E0000895E42FF0E0EE0FFF1FE05CFE4F408117
:1014F00034EE439F412D1124E82FF0E050E0445E8C
:101500005F4FDA01A21BB1099D01B7FF03C03195FE
:101510002195310993E0220F331F9A95E1F7AF012E
:10152000421B530B9A0157FF02C020E030E0582FB6
:10153000259F212D1124822F0895622F0895E42FD5
:10154000F0E0EE0FFF1FE05CFE4F6081621B08952C
:10155000E42FF0E0EE0FFF1FEC5FFE4F65AD621B66
:101560000895A22F50E0FA01EE0FFF1FEC5FFE4F2F
:1015700095AD905297FD9195440F551FFA01E05C8F
:10158000FE4F3081232F30E02A1B3109290F311DF6
:1015900097FD3A95620F0895EF920F931F9393E092
:1015A000099F80011124159507956E2D600F1F91DD
:1015B0000F91EF9008950F931F93522F10E0F801B1
:1015C000EE0FFF1FEC5FFE4FE5ADF0E0B0979F011F
:1015D0005203D001539FB00D1124000F111FF801C9
:1015E000E05CFE4F008110E00057110940039001BC
:1015F000419F300D11242A0F3B1F37FF02C0215895
:101600003F4F220F232F221F330B620F1F910F9189
:1016100008950F931F9310E0F801EE0FFF1FE05C99
:10162000FE4F9081905797FD9195000F111FF80183
:10163000EC5FFE4FE5ADF0E0B097DF01AA0FBB1FF6
:101640008D010E0F1F1F2003D001219FB00D11240B
:10165000E8E3F0E0E91BF10997FDF3959F01220F04
:10166000331F89010E0F1F1F40039001419F300D52
:1016700011242A0F3B1F37FF02C021583F4F220F72
:10168000232F221F330B620F1F910F91089522E821
:10169000241B08F420E0620F0895EF92FF920F934D
:1016A000970195E0099F200D311D11242F3F310531
:1016B00019F010F02FEF30E02095382F320F08F49A
:1016C0003FEF832F0F91FF90EF900895EF92FF92DD
:1016D0000F93972F093438F4B701601B71096F3FDE
:1016E000710519F010F06FEF70E0485F5F4F413106
:1016F000510540F0A901485F5F4F4131510510F09D
:101700006FEF70E06095482F460F08F44FEF842F7D
:1017100037FF02C02D5F3F4F3595279535952795AB
:1017200060911204620F792F0F91FF90EF9008954E
:10173000EF92FF920F939701201B31092F3F310544
:1017400019F010F02FEF30E0322F3095482F430F73
:1017500008F44FEF842F620F0F91FF90EF900895E0
:10176000EF92FF920F939701201B31092F3F310514
:1017700019F010F02FEF30E02095382F320F08F4D9
:101780003FEF832F0F91FF90EF900895FC019B0195
:10179000009721F477FF2BC080E80895AC0197FFF4
:1017A00004C044275527481B590BB901640F751F06
:1017B00037FD0CC0241B350BC901A5E0880F991F0C
:1017C000AA95E1F70E94D32F80E20CC0CB0165E01F
:1017D000880F991F6A95E1F7BA01621B730B0E948B
:1017E000D32F80E6861BF7FF03C08195089580E024
:1017F0000895FF920F931F93CF93DF93F62E172F29
:10180000D82FC901C72FC01BBA010E94C60B982F41
:10181000990F890F7C2F781B719F712D11246F2DCB
:101820008D2FDF91CF911F910F91FF900895FF921F
:101830000F931F93CF93DF93F62ED72F182FC90145
:10184000C12FC01BBA010E94C60B982F990F890F98
:10185000C81B2C2F219F212D1124822F6F2D7D2F0E
:10186000DF91CF911F910F91FF900895EF920F9309
:101870001F93CF93DF93D62F172FC82FC9010E19AF
:10188000070FBA010E94C60B702F781B719F712D34
:1018900011246D2F8C2FDF91CF911F910F91EF901D
:1018A0000895EF920F931F93CF93DF93D62FC72FF7
:1018B000182FC9010E19010FBA010E94C60B081B8F
:1018C000202F219F212D1124822F6D2F7C2FDF911E
:1018D000CF911F910F91EF9008950F93CF93DF93C6
:1018E000D72FC82FC901BA010E94C60B682F600FFD
:1018F0007D2F8C2FDF91CF910F910895EF920F9351
:10190000CF93DF93D72FC82FC9010E19BA010E94B8
:10191000C60B602F681B7D2F8C2FDF91CF910F910D
:10192000EF9008950E94E60908951F93CF93DF93E7
:101930005FEF580FA1E0A80F4FEF460F91E0960F11
:10194000C82FD0E0461780F426E02C9FF0012D9F91
:10195000F00D1124E050FD4FE40FF11D208130E126
:10196000230F08F42FEF2083262F30E076E07C9FB2
:10197000F0017D9FF00D1124E050FD4FEF01C20FEB
:10198000D31F788110E2710F08F47FEF78839630CF
:1019900040F4E90FF11D708110E1710F08F47FEF41
:1019A0007083AA3070F5B0E0461780F476E07A9F35
:1019B000F0017B9FF00D1124E050FD4FE40FF11D6D
:1019C00070811DE0710F08F47FEF708376E07A9FDD
:1019D000F0017B9FF00D1124E050FD4FDF01A20FBD
:1019E000B31F7C9110E1710F08F47FEF7C93963068
:1019F00040F4E90FF11D70811DE0710F08F47FEFD5
:101A00007083581778F5A52FB0E0461780F486E06C
:101A10008A9FF0018B9FF00D1124E050FD4FE40FE1
:101A2000F11D40815DE0450F08F44FEF408386E0F3
:101A30008A9FF0018B9FF00D1124E050FD4FDF01D4
:101A4000A20FB31F2C9130E1230F08F42FEF2C933A
:101A5000963040F4E90FF11D20813DE0230F08F49A
:101A60002FEF2083DF91CF911F91089545E050E043
:101A70006CE170E081E194E00C94933045E050E03B
:101A80006CE170E081E194E00C94B730E1E1F4E0C6
:101A900085E380838091360290913702A0913802CD
:101AA00081839283A3838FE784830C943E0D80E02F
:101AB00008950F931F93CF93DF93C82FD62F8A01DA
:101AC0000E94570D96E0C99FF0011124EC5FFE4F74
:101AD000ED0FF11D90819F3F29F0F801E80FF11DF6
:101AE00090838F5FDF91CF911F910F910895E091C7
:101AF0008802F09189020994E0918402F0918502B4
:101B000009944F925F926F927F928F929F92AF92C1
:101B1000BF92CF92DF92EF920F931F93CF93DF93F9
:101B20002C013B01FC01C0818FE0C89FC02D112416
:101B3000DFE0DC0FD93408F0D8E460911504669535
:101B400080911604909117040E94EA09182FCD176E
:101B500008F044C08C2E912CF401E053FE4F90818C
:101B6000F20181818923C1F1F401EE0FFF1FE05CD6
:101B7000FE4FC080D12CF0E7CF1AD108F401EE0F50
:101B8000FF1FEC5FFE4FA5ACB12C80E2A81AB10894
:101B9000CC9C9001CD9C300D300D1124AA9CC0012D
:101BA000AB9C900D900D1124820F931F0E94F4099D
:101BB000082F609112047091130480911404E12E97
:101BC0009501A601F30109950E94920C462F282F3A
:101BD000672FC4010E947C0DCF5FB9CF81E0D8345C
:101BE00008F080E0DF91CF911F910F91EF90DF908F
:101BF000CF90BF90AF909F908F907F906F905F90AD
:101C00004F90089566E37CE00C94810D61E57CE0E3
:101C10000C94810D6CEC7AE00C94810D6EE77CE005
:101C20000C94810DAF92BF92CF92DF92EF92FF9210
:101C30000F931F93CF93DF936C015B01FC01C08175
:101C40008FE0C89FC02D1124DFE0DC0FD93408F0ED
:101C5000D8E460911504669580911604909117045C
:101C60000E94EA09182FCD1778F5EC2EF12CF70118
:101C7000E053FE4F9081F6018181892319F1F7012C
:101C8000EE0FFF1FEC5FFE4F25AD30E02052310913
:101C9000F701EE0FFF1FE05CFE4F408150E0405720
:101CA0005109609112047091130480911404012F62
:101CB000F50109950E94920C462F282F672FC70126
:101CC0000E947C0DCF5FCFCF81E0D83408F080E058
:101CD000DF91CF911F910F91FF90EF90DF90CF9008
:101CE000BF90AF90089569EF7BE00C94120E67E10E
:101CF0007CE00C94120E6DE67CE00C94120EBF9208
:101D0000CF92DF92EF92FF920F931F93CF93DF93C7
:101D10008C017B01FC01C0818FE0C89FC02D112484
:101D2000DFE0DC0FD93408F0D8E460911504669543
:101D3000669580911604909117040E94EA09B82EC6
:101D4000CD17F0F4CC2ED12CF601E053FE4F90814C
:101D5000F8018181892391F060911204709113043C
:101D6000809114042B2D4C2FF70109950E94920CA1
:101D7000462F282F672FC6010E947C0DCF5FE0CF32
:101D800081E0D83408F080E0DF91CF911F910F916E
:101D9000FF90EF90DF90CF90BF90089566E47AE0D7
:101DA0000C947F0E61E77AE00C947F0E6DE97AE087
:101DB0000C947F0E6FE97AE00C947F0E68EA7AE06B
:101DC0000C947F0E61EB7AE00C947F0E7F928F92E1
:101DD0009F92AF92BF92CF92DF92EF92FF920F93BA
:101DE0001F93CF93DF936C015B01FC01C0818FE0F7
:101DF000C89FC02D1124DFE0DC0FD93408F0D8E4EF
:101E0000609115046695669580911604909117046B
:101E10000E94EA09182F80E4810F0E94250A90E8A9
:101E2000F92EF80E812F0E94250A20E8722E780ED6
:101E3000CD1700F58C2E912CF401E053FE4F9081CC
:101E4000F60181818923A1F060911204709113043D
:101E500080911404E12E0C2F272D4F2DF5010995AB
:101E60000E94920C462F282F672FC4010E947C0DE0
:101E7000CF5FDECF81E0D83408F080E0DF91CF91F2
:101E80001F910F91FF90EF90DF90CF90BF90AF9098
:101E90009F908F907F9008956BED7AE00C94E60E02
:101EA00069E07BE00C94E60EAF92BF92CF92DF9296
:101EB000EF92FF920F931F93CF93DF937C015B010F
:101EC000FC01C0818FE0C89FC02D1124DFE0DC0F32
:101ED000D93408F0D8E42091150430E040E050E017
:101EE0006FEF7FEF80E090E00E94E72F8901CD1730
:101EF000E8F5CC2ED12CF601E053FE4F9081F7018E
:101F00008181892389F190911A04915097FD15C020
:101F1000292F092E000C330BF901E65EFB4F818956
:101F2000C813F3CF220F331FF901E65EFB4F218D5B
:101F3000328D2017310748F701C0980160911504D0
:101F4000C9010E94EA09AC01609112047091130466
:101F500080911404F50109950E94920C462F282FB8
:101F6000672FC6010E947C0DCF5FC1CF81E0D834BE
:101F700008F080E0DF91CF911F910F91FF90EF90DB
:101F8000DF90CF90BF90AF90089567E47BE00C9412
:101F9000540F2F923F924F925F926F927F928F9247
:101FA0009F92AF92BF92CF92DF92EF92FF920F93E8
:101FB0001F93CF93DF93CDB7DEB729970FB6F89471
:101FC000DEBF0FBECDBF8B834B013A01DB011C91FD
:101FD0008FE0189F102D1124BFE0B10FB983B934E1
:101FE00010F0E8E4E983F0911A04FA838981181764
:101FF00008F07BC0A12EB12CF501E053FE4F90817B
:10200000D40111968C91892309F46DC0209012049B
:10201000309013044B80512CC501880F991FFC018F
:10202000E05CFE4FFD83EC83C501880F991F9C0186
:102030002F5B3E4F3F832E83FA814F1608F043C03B
:10204000E42CF12CAC81BD81BC91EB2FF0E0F98741
:10205000E887F701E65EFB4F818128853985281BDB
:10206000310939872887AE81BF81CC90D12C8185F9
:10207000C81AD108F901EE9F9001EF9F300D300D85
:102080001124CC9CC001CD9C900D900D1124820F89
:10209000931F0E94F409082FF701EE0FFF1FE65E61
:1020A000FB4F60911504818D928D0E94EA097C019D
:1020B000960148855985B101852DF30109951B01CC
:1020C0004394582EB9CF20911404352D329F312DD1
:1020D0001124832FB1010E94920C462F282F672FC5
:1020E000C5010E947C0D1F5F81CF81E099819834EA
:1020F00008F080E029960FB6F894DEBF0FBECDBF82
:10210000DF91CF911F910F91FF90EF90DF90CF90D3
:10211000BF90AF909F908F907F906F905F904F9007
:102120003F902F90089520911A0431E0231B08F46A
:1021300020E04DE45BE0BC01822F0C94C90F20919C
:102140001A0431E0231B08F420E046E65BE0BC0102
:10215000822F0C94C90F20911A0431E0231B08F43C
:1021600020E048E95BE0BC01822F0C94C90F20916C
:102170001A0431E0231B08F420E040EB5BE0BC01D3
:10218000822F0C94C90FDF92EF92FF920F931F934F
:10219000CF93DF938C01DC018C91CFE08C9FC02D1D
:1021A0001124DFE0DC0FD93408F0D8E46091120488
:1021B00070911304809114040E94920CF62EE72E65
:1021C000D82ECD1798F4EC2FF0E0DF01A053BE4FCE
:1021D0008C91D80111969C91982331F02D2D4F2D83
:1021E0006E2DCF010E947C0DCF5FEBCF81E0D83404
:1021F00008F080E0DF91CF911F910F91FF90EF9059
:10220000DF900895AF92BF92CF92DF92EF92FF924C
:102210000F931F93CF93DF938C01FC01C0818FE05C
:10222000C89FC02D1124DFE0DC0FD93408F0D8E4BA
:10223000E0901304F0901404D09012046D2D7E2DC4
:102240008F2D0E94920CC62EB72EA82E60911504D9
:102250006D0D7E2D8F2D0E94920CF62EE72ED82E1E
:10226000CD17B8F48C2F90E0FC01E053FE4F308185
:10227000F8012181232359F030FF04C02D2D4F2D6B
:102280006E2D03C02A2D4C2D6B2D0E947C0DCF5F2F
:10229000E7CF81E0D83408F080E0DF91CF911F9143
:1022A0000F91FF90EF90DF90CF90BF90AF90089587
:1022B000BF92CF92DF92EF92FF920F931F93CF9333
:1022C000DF936C01FC01C0818FE0C89FC02D1124F9
:1022D000DFE0DC0FD93408F0D8E400911304B090AB
:1022E00014042091150410E4129F112D1124CD1710
:1022F00018F5EC2EF12CF701E053FE4F9081F6011A
:1023000081818923B9F0F701EE0FFF1FEC5FFE4FCB
:1023100085AD82958F7060911204819F600D1124AC
:10232000702F8B2D0E94920C462F282F672FC701EC
:102330000E947C0DCF5FDBCF81E0D83408F080E0D5
:10234000DF91CF911F910F91FF90EF90DF90CF9091
:10235000BF900895BF92CF92DF92EF92FF920F93BA
:102360001F93CF93DF937C01FC01C0818FE0C89F56
:10237000C02D1124DFE0DC0FD93408F0D8E4C09080
:102380001304B09014042091150430E4D32E3D2D95
:10239000329F312D1124D32ECD1738F50C2F10E09C
:1023A000F801E053FE4F9081F70181818923D9F034
:1023B000F801EE0FFF1FE05CFE4F6081D69EB0017A
:1023C000112495E0759567959A95E1F7809112042F
:1023D000680F7C2D8B2D0E94920C462F282F672F83
:1023E000C8010E947C0DCF5FD7CF81E0D83408F0C0
:1023F00080E0DF91CF911F910F91FF90EF90DF90E0
:10240000CF90BF900895DF92EF92FF920F931F93AA
:10241000CF93DF938C01DC01CC918FE0C89FC02D5E
:102420001124DFE0DC0FD93408F0D8E4E090120486
:10243000F0901304D090140460911504669566958D
:10244000669580911604909117040E94EA090E94F3
:10245000250A805887FD8195880F282F3D2D239FC1
:10246000212D1124822FB7010E94920CF62EE72E07
:10247000D82ECD1798F4EC2FF0E0DF01A053BE4F1B
:102480008C91D80111969C91982331F02D2D4F2DD0
:102490006E2DCF010E947C0DCF5FEBCF81E0D83451
:1024A00008F080E0DF91CF911F910F91FF90EF90A6
:1024B000DF9008951F93CF93DF93FC01E053FE4F0D
:1024C00020816223A9F0EC010E947A30182F0E942B
:1024D0007A30612F782F809114040E94920C462F3D
:1024E000282F672FCE01DF91CF911F910C947C0D87
:1024F000DF91CF911F910895CF92DF92FF920F93BA
:102500001F93CF93DF938C01FC01C281C1111DC0C9
:102510006091150420E1620F08F46FEF80911604BA
:10252000909117040E94EA0965E070E00E94BF2FB5
:10253000892B59F50E947A3068E470E00E94D32F0D
:10254000F80161810E945A1220C0FC018081CFE015
:102550008C9FC02D11249FE0F92EFC0EF8E4FF158E
:1025600010F488E4F82ED0E0CF2CD12CCC15DD056A
:102570003CF4F8016181CE010E945A122196F6CFF7
:10258000C1E0F7E4FF1508F4C0E08C2FDF91CF9194
:102590001F910F91FF90DF90CF900895E0918602F8
:1025A000F091870209942F923F924F925F926F921F
:1025B0007F928F929F92AF92BF92CF92DF92EF92D3
:1025C000FF920F931F93CF93DF93CDB7DEB72B9777
:1025D0000FB6F894DEBF0FBECDBF5C01DC018C915D
:1025E0000FE0809F002D1124BFE0B00FB987BD33ED
:1025F00010F0ECE3E987D50112968C91882361F005
:1026000040E060E080E00E94CE128CE3E0E0F3E086
:10261000DF011D928A95E9F7F5018081811115C0CE
:1026200080913E0390913F030E94382821E0893138
:10263000910508F420E020933D03499730F00E9473
:10264000202890933F0380933E0310E09985892FC3
:1026500090E09B878A8786E0482EDE0111963D0137
:102660009AEA292E8A859B85081719070CF064C001
:10267000C8016AE070E00E94D32F7B014C01489EA4
:10268000F001499EF00D1124E050FD4FE60FF71FB9
:102690005080A3010E94590D382E63018C2D86199C
:1026A000831508F032C0D601EC91F0E0E053FE4F04
:1026B0009081F5018181892321F1252D35E5231BA9
:1026C00008F420E0622D621B70911304222D352D39
:1026D000230F08F42FEF3091140482E0289F200D7F
:1026E00011242E5F239F212D1124822F0E94920CF2
:1026F000462FD6019C91282F672F892F90E00E94AA
:102700007C0DBFEFCB1ADB0AC9CF80913D03882334
:1027100081F0252D31E0231B08F420E0489CC00106
:10272000499C900D112480509D4FFC01EE0DFF1D22
:1027300020830F5F1F4F96CF81E099859C3308F06F
:1027400080E02B960FB6F894DEBF0FBECDBFDF91B1
:10275000CF911F910F91FF90EF90DF90CF90BF909E
:10276000AF909F908F907F906F905F904F903F9031
:102770002F900895AF92BF92CF92DF92EF92FF9287
:102780000F931F93CF93DF93CDB7DEB728970FB684
:10279000F894DEBF0FBECDBFE82ED62E142F0E94B8
:1027A0002609882309F476C0112349F0AE014F5F52
:1027B0005F4F6D2D8E2D0E94590DF82E01C0F12C0A
:1027C000C090D3020F2D10E0C8018C0D911D099708
:1027D00064F188E090E05C01A01AB10AB8016C5283
:1027E0007D4FA50184ED92E00E948A30B8016452C9
:1027F0007D4FA5018CED92E00E948A30A501440F27
:10280000551FB801660F771F64517D4F8CEE92E023
:102810000E948A30B8016C517D4FA50184EE92E090
:102820000E948A30CA94C092D3021091D302DE0172
:10283000119640E0842F810FF41609F190E05D912C
:10284000252F30E0BC016D527D4FF901EE0FFF1FC7
:10285000E05CFE4F0081FB010183220F331FF90171
:10286000EC5FFE4F25ADFB012187518B880F991F2F
:10287000FC01ED52FD4F128E118E4F5FDBCF809326
:10288000D302809111048C7F883521F46D2D8E2D1B
:102890000E94950C28960FB6F894DEBF0FBECDBFF0
:1028A000DF91CF911F910F91FF90EF90DF90CF902C
:1028B000BF90AF90089508950C945B140E945C142F
:1028C0000C945B1408950C946214CF93DF93FC0175
:1028D000C081C1508FE0C89FC02D1124DFE0DC0F04
:1028E000D93408F0D8E46D2F8C2F0E9463146D2F1B
:1028F0008C2FDF91CF910C9462144F925F926F9264
:102900007F928F929F92AF92BF92CF92DF92EF927F
:10291000FF92CF936091FC027091FD028091FE02C4
:102920009091FF020E94CA286B017C010E94AF288F
:102930004B015C016093FC027093FD028093FE02E8
:102940009093FF02A091D302E3EDF2E08A2F90E092
:102950004FEF5FEF60E070E04C195D096E097F0991
:10296000A91799F0218D328D2901612C712C441504
:1029700055056605770510F4815004C02C0D3D1DEA
:10298000328F218F9F5F3296EBCF8093D30280915D
:102990003C03811108C0C09111048C2F837019F081
:1029A000C695C69501C0C0E0809119028130E9F05A
:1029B00038F0823009F4EDC0833009F4FAC00AC15E
:1029C00010921A028092160490921704A092180492
:1029D000B092190489E2E3EDF2E0AAE1B4E00190DB
:1029E0000D928A95E1F781E0DEC080911D02C81347
:1029F0000DC020911104237030E040911E0250E080
:102A000081E02417350719F480E001C081E081706E
:102A100080931C024C2F50E04C31510508F095C0BA
:102A2000FA01EA5AFF4F0C940630882309F48DC04E
:102A300040E060E080E00E94CE1287C08AE192E030
:102A40000E94C31083C08AE192E00E9402117EC0FE
:102A50008AE192E00E94581179C08AE192E00E94D6
:102A6000AA1174C08AE192E00E9403126FC08AE149
:102A700092E00E94CE0E6AC08AE192E00E94D20EDD
:102A800065C08AE192E00E94730E60C08AE192E024
:102A90000E94770E5BC08AE192E00E94020E56C04F
:102AA0008AE192E00E94060E51C08AE192E00E9403
:102AB000D60E4CC08AE192E00E94DA0E47C08AE14D
:102AC00092E00E94DE0E42C08AE192E00E94E20E95
:102AD0003DC08AE192E00E940A0E38C08AE192E08D
:102AE0000E947B0E33C08AE192E00E940E0E2EC03F
:102AF0008AE192E00E944C0F29C08AE192E00E9494
:102B0000500F24C08AE192E00E947C121FC08AE12B
:102B100092E00E94D3121AC08AE192E00E94C50F8F
:102B200015C08AE192E00E94931010C08AE192E001
:102B30000E949F100BC08AE192E00E94AB1006C079
:102B40008AE192E00E94B71001C080E090911A02E1
:102B50009F5F90931A02811129C082E0809319022D
:102B600080911C02811122C0CC23E1F00E945E14EE
:102B70008AE192E0CF91FF90EF90DF90CF90BF90ED
:102B8000AF909F908F907F906F905F904F900C943C
:102B90006514C0931D0280911104837080931E02FE
:102BA0000E94770D83E08093190214C0CC2391F02A
:102BB000DDCF6091160470911704809118049091F4
:102BC00019040E94CA28603171058105910510F031
:102BD00010921902CF91FF90EF90DF90CF90BF90AD
:102BE000AF909F908F907F906F905F904F900895DF
:102BF000E0918202F0918302099510921A04E3E3B6
:102C0000F4E08FEF9FEF8193919324E0E334F20798
:102C1000D1F71092D302ECEEF2E08FEF9FEF8193A9
:102C2000919322E0EC3FF207D1F70E94AB2681118D
:102C300004C00E9451270E94460D0E94360D8091CB
:102C400011048C7F11F40C94460D08952091110409
:102C500091E09227909311041092190281110C9423
:102C60003E0D089581E00C94261690911104937006
:102C700091F0811102C0946007C08C3110F09C6605
:102C800003C0880F880F982B90931104109219029B
:102C900061110C943E0D089561E00C943516682F77
:102CA00090911104969596959F5F9C3110F4892F11
:102CB00001C081E00C94351681E00C944F16682F0A
:102CC0009091110496959695915011F0892F01C01D
:102CD0008BE10C94351681E00C945F1690911104F1
:102CE000937061F08093120460931304493708F0E5
:102CF00048E74093140421110C943E0D0895A1E17E
:102D0000B4E01196EC911197F0E0282F13964C91B6
:102D1000139712966C91CF0108960C946E1681E071
:102D20000C947F16A1E1B4E01196EC911197F0E0BC
:102D3000282F13964C91139712966C91CF010897F8
:102D40000C946E1681E00C949216E1E1F4E062813D
:102D500028E0620F08F46FEF9181282F4381892FBB
:102D600090E00C946E1681E00C94A516E1E1F4E07D
:102D7000628128E0621B08F460E09181282F438182
:102D8000892F90E00C946E1681E00C94B616E1E168
:102D9000F4E0438128E0420F08F44FEF9181282F9F
:102DA0006281892F90E00C946E1681E00C94C71616
:102DB000E1E1F4E0438128E0421B08F440E0918126
:102DC000282F6281892F90E00C946E1681E00C947C
:102DD000D816209115043AE0230F08F42FEF209322
:102DE000150481110C943E0D089581E00C94E916B0
:102DF000209115043AE0231B08F420E020931504E9
:102E000081110C943E0D089581E00C94F8160895FC
:102E1000FC01EE0FFF1F8E0F9F1FFC01ED5BFB4FB0
:102E20006183408322830895E3E4F4E095E0EB318D
:102E3000F90729F08183608342833396F7CF0895A1
:102E400068E470E083E494E00C948817882311F020
:102E5000FA0101C0FB0109941F93CF93DF93FB019B
:102E60001281111150C0EC010E9483268272FE0172
:102E7000E35CFC45E431F10520F4EE58FF4F0C947F
:102E8000063011E040C00E9432163DC04BE656E1CC
:102E90006CE576E104C04CE556E16BE676E10E9414
:102EA000261731C042EA56E16FE876E1F8CF4FE8E5
:102EB00056E162EA76E1F3CF44EC56E163EB76E16A
:102EC000EECF43EB56E164EC76E1E9CF46EE56E116
:102ED00065ED76E1E4CF45ED56E166EE76E1DFCFD4
:102EE00044E057E165EF76E1DACF45EF56E164E083
:102EF00077E1D5CF81E005C085E003C08DE001C05A
:102F000081E10E944C16812FDF91CF911F9108958E
:102F1000539A2BB1277F3BB138604FB7F894FC012F
:102F2000CB01880F991F680F791F6E0F7F1FE6175F
:102F3000F70789F0819198E03BB9000000C087FF56
:102F40002BB9880F000000C000C000C02BB900C022
:102F50009A9591F7ECCF4FBF8FE594E00197F1F789
:102F600000C0000008950C940B048091180288237F
:102F700009F447C020912002A22FA295AF70B0E0C3
:102F800091963C9191972F7081E090E0AC01022ED8
:102F900001C0440F0A94EAF7542F509535239196B7
:102FA0003C93919792963C919297432B92964C9397
:102FB000929740911F02E42FE295EF70F0E031A16B
:102FC0004F70042E01C0880F0A94EAF7982F90954D
:102FD000932391A392A1892B82A390968C9190E048
:102FE00002C0959587952A95E2F7817020A130E07F
:102FF00002C0359527954A95E2F720FD09C090E07B
:1030000008C085EF8093200284E980931F02B2CF2D
:1030100092E0892B809345039091180281E09827D4
:1030200090934103891B809340030895CF93E091CF
:1030300045035E2F550F550F20912002E22FE29598
:10304000EF70F0E080A190E02F7002C09595879519
:103050002A95E2F78170992740911F02E42FE295AB
:10306000EF70F0E020A130E04F7002C03595279559
:103070004A95E2F7F901E170FF2720FF02C0E2E084
:10308000F0E0E82BF92BE52BE0934503C0914103D9
:10309000EF70F0E0E657FD4F908180914403890F77
:1030A0008093440384307CF0EC2F0C2E000CFF0B3B
:1030B000EE5BFC4F80818F5F808360E08C2F0E94ED
:1030C000B31721E001C020E0809144038D3F74F4E8
:1030D000EC2F0C2E000CFF0BEE5BFC4F808181501F
:1030E000808361E08C2F0E94B31721E0809144031C
:1030F000082E000C990B64E070E00E94D32F80939F
:103100004403822FCF910895E0914103F0E0EE5BFC
:10311000FC4F2081FC0120830895FF920F931F93A1
:10312000CF93DF93D09140030D2F10E00E5B1C4F27
:10313000FC01C081F8018081C81BFC2E80E01F14B7
:103140005CF4FA94F80180818F5F808360E08D2FBA
:103150000E94B31781E0F3CF9C2FC7FD90E0C91BFD
:10316000CC2359F0CF5FF80180818150808361E0EA
:103170008D2F0E94B31781E0F3CF882339F0DF91C0
:10318000CF911F910F91FF900C946A1DDF91CF9109
:103190001F910F91FF9008950F931F93CF93DF938B
:1031A000C42FD22FFC0182818823C9F040934803A9
:1031B0000E942028909347038093460380E28C0F5F
:1031C000883008F057C0C77081E001C0880FCA95E9
:1031D000EAF7DF91CF911F910F910C942B1F8091F3
:1031E0004803481330C080914603909147030E94E2
:1031F00038288436910538F510E21D0FCD17B9F047
:1032000080E28C0F883040F4C77081E001C0880FE5
:10321000CA95EAF70E94321F183028F581E09D2FE9
:10322000977001C0880F9A95EAF70E942B1F802F94
:103230000E94221F1830F0F4D77081E001C0880F7F
:10324000DA95EAF70AC080E28C0F883098F4C770EC
:1032500081E001C0880FCA95EAF7DF91CF911F91F5
:103260000F910C94321F802FDF91CF911F910F91FE
:103270000C94221FDF91CF911F910F9108950F930E
:103280009C01CB01243F4CE5340731F188F4293D02
:10329000FCE53F07D9F02A3D4CE5340779F1283D9C
:1032A0003C45A9F506E221EE41EE68ED7CE52BC038
:1032B000263FFCE53F07E1F0A8F0273F3C4539F504
:1032C00007E225EE46EE67EF7CE51DC007E225EE3E
:1032D00045EE69ED7CE517C006E221EE40EE64EFB5
:1032E0007CE511C007E225EE44EE65EF7CE50BC0FE
:1032F00006E221EE42EE66EF7CE505C008E221E041
:1033000045EE6AED7CE50E94CC1880E008C0FC0127
:103310008281882319F01092480301C081E00F9147
:103320000895CF93DF93EC01FB018281882309F498
:103330001FC1C230FCE5DF0708F41BC1C6319CE5A4
:10334000D90738F09E012B5F3C452930310508F044
:1033500010C10E94BE269093240580932305C0319E
:10336000ECE5DE0709F4C3C008F041C0C8308CE5C5
:10337000D80709F49AC0F0F4C430ECE5DE0709F48C
:1033800087C068F4C2308CE5D80709F477C0C33031
:10339000DC4509F0E3C080912305826076C0C63029
:1033A000ECE5DE0709F46EC008F07BC080912305D0
:1033B00088606BC0CC308CE5D80709F485C068F410
:1033C000CA30ECE5DE0709F474C008F079C00E9449
:1033D0003E2180912305806858C0CE308CE5D80707
:1033E00009F476C008F07FC0809123058BC0CC3FE4
:1033F000ECE5DE0709F44FC018F5C3318CE5D807BA
:1034000009F47DC078F4C131ECE5DE0709F473C03E
:10341000C231DC4509F0A2C00E943E218091230503
:103420008F7733C0C5318CE5D80709F472C008F432
:1034300086C0CB3FDC4509F091C0809124053EC099
:10344000C115FDE5DF0709F45FC058F4CE3F9CE5E8
:10345000D90709F444C008F43FC080912405826074
:103460002DC0C230FDE5DF0709F475C008F45DC06A
:10347000C330DD4509F072C080E06EC08091230545
:10348000816003C08091230580618093230566C01D
:103490008091230511C080912405826080932405CA
:1034A0005DC0809123058062F0CF80912305806408
:1034B000ECCF8091230588608460E7CF8160EECFF8
:1034C000809123058E7FE1CF809123058D7FDDCF15
:1034D00080912305877FD9CF8091240518C08091E2
:1034E00024058D7FDBCF809123058F7ECECF809109
:1034F00023058F7DCACF809123058F7BC6CF809116
:103500002305877F8B7FC1CF809124058D7F8E7FA0
:10351000C5CF8091230582FB222720F991E09227D5
:1035200090FB82F990FB83F9B0CF80912405982F0E
:10353000909591708E7F892B90FB81F9AFCF0E947F
:103540003E218091230587FB222720F991E09227D5
:1035500090FB87F99ACF81E00E9453278091230541
:10356000909124050E94CF260E943E2180E001C058
:1035700081E0DF91CF910895CF93DF9386319C4511
:1035800041F5EB010E948326982F8A812091290220
:1035900030912A02882379F09A7A81E009F480E058
:1035A00080934903911102C069E201C065E3C9013A
:1035B0000E948E270AC080914903811102C069E2EE
:1035C00001C065E3C9010E9490270E94642680E043
:1035D00001C081E0DF91CF91089561E070E081E268
:1035E00092E00C94AA1B61E070E081E292E00C94FE
:1035F000B31BCF93DF93D62FC72F80E090E00E94BC
:103600008C1C892B11F5ED2FFC2F80E090E0DC0164
:10361000A15BBC4F2C912193019685309105B9F7A0
:1036200084E593E00E948D180E94AF28DC01CB0155
:103630000296A11DB11D80934B0390934C03A09360
:103640004D03B0934E0381E001C080E0DF91CF9144
:103650000895CF93DF93D62FC72F60914B037091BE
:103660004C0380914D0390914E030E949228ED2FC0
:10367000FC2F80E090E02191DC01A15BBC4F2C93FA
:10368000019685309105B9F784E593E0DF91CF91FC
:103690000C9484188EE14A9B02C08150E1F74A9B4A
:1036A000FECF08955A9880E28A95F1F75A9A0895C4
:1036B000FC012AE02A95F1F790E020E080E031E07B
:1036C000261779F040E14A95F1F7880F4A9B02C02E
:1036D0008160932700C0000040E14A95F1F72F5F19
:1036E000EFCF20E12A95F1F729B100C0000030E1C9
:1036F0003A95F1F722FB222720F992272081920F99
:1037000090830895EF92FF920F931F93CF93DF93CF
:103710001F92CDB7DEB719828C017C01E60EF11C39
:103720000E151F0559F00E944A1B68E0CE01019654
:103730000E94581BF80181938F01F2CF81E099819B
:10374000911180E00F90DF91CF911F910F91FF9029
:10375000EF90089590935703809356036093550319
:10376000529A5A9A08959093570380935603609300
:10377000550352985A9AEA9AE9E6F0E080818F7CE4
:1037800080830895615091E001C0990F6A95EAF72E
:1037900020E031E0992361F0492F482319F05A9A2B
:1037A000232701C05A9840E24A95F1F79695F2CF47
:1037B000222311F05A9A01C05A9880E28A95F1F7B3
:1037C0005A980895FF920F931F93CF93DF93EC01C4
:1037D0008C01060F111DC017D10741F0F9900E940E
:1037E000521B68E08F2D0E94C21BF5CFDF91CF9155
:1037F0001F910F91FF9008951F920F920FB60F9295
:1038000011240F931F932F933F934F935F936F93C5
:103810007F938F939F93AF93BF93EF93FF93CF9338
:10382000DF931F92CDB7DEB719820E944A1B67E073
:10383000CE0101960E94581B382F36953695369545
:10384000932F96959570232F2570920F292F237013
:10385000969596958770920F891348C0898181113A
:1038600045C080915503831708F440C080E18A95D4
:10387000F1F75A9A529AA2E0AA95F1F700C0009186
:10388000560310915703B8E03B9F000D111D112402
:103890005A98F8016581662321F0868197810E94FC
:1038A000E21B0E94521BF0E1FA95F1F75A985298E8
:1038B0005A9A80E18A95F1F7D80112966C91129785
:1038C000662369F013968D919C9114970E94821B38
:1038D000D801ED91FC91811105C082E004C0D801AE
:1038E000ED91FC9188E080830E944A1B0F90DF914C
:1038F000CF91FF91EF91BF91AF919F918F917F9168
:103900006F915F914F913F912F911F910F910F9068
:103910000FBE0F901F9018950F931F93CF93DF93B7
:103920002091550330E0281739070CF471C09C0131
:1039300093E0220F331F9A95E1F7C0915603D0917F
:103940005703C20FD31FF894529A5A9845E04A95EC
:10395000F1F70000982F969595708570890F982F34
:10396000937086958695890F8901082B0E94521BBA
:1039700084E08A95F1F700C067E0802F0E94C21BA7
:1039800040E14A95F1F752985A9A4A9902C000C00C
:10399000FCCF87E090E04A9B0EC0019751F4529A09
:1039A0005A9AE881F98181E08083789481E090E0FF
:1039B00031C000C0F0CF6D81662381F08E819F8180
:1039C0000E94821B81110AC0529A5A9AE881F98199
:1039D00082E08083789482E090E01CC00E944A1BC1
:1039E00080E28A95F1F75A98529A40E14A95F1F7A8
:1039F0006A81662321F08B819C810E94E21B0E94D8
:103A0000521BE881F9811082789480E090E002C036
:103A100084E090E0DF91CF911F910F9108959093F2
:103A20005D0380935C030895E0915C03F0915D0376
:103A3000309721F00190F081E02D099480E0089505
:103A4000E0915C03F0915D03309721F00280F381F7
:103A5000E02D0994089520915A0330915B032817B3
:103A6000390771F090935B0380935A03E0915C03F4
:103A7000F0915D03309721F00680F781E02D0994E5
:103A8000089520915803309159032817390771F090
:103A90009093590380935803E0915C03F0915D0388
:103AA000309721F00084F185E02D099408950E945B
:103AB0002C28609371037093720380937303909327
:103AC000740360936D0370936E0380936F03909300
:103AD000700308950E942C28609371037093720301
:103AE00080937303909374036093690370936A03E4
:103AF00080936B0390936C03089585B7806885BFAE
:103B000085B7806885BF08950C94260908950C94A4
:103B1000861D0C94A1030C94861D0C948B1D0C9493
:103B2000861D0E947D1D89EA96E20E94F8280E9467
:103B30008F1D0C948D1D0E9417280E9489280E94B9
:103B4000B7070E94FD280E94B5170C94891D9F920B
:103B5000AF92BF92CF92DF92EF92FF920F931F939B
:103B6000CF93DF93CDB7DEB72A970FB6F894DEBFB9
:103B70000FBECDBF0E94871D0E94861D0E94640853
:103B800081110E94571D8FE5A82E83E0B82E00E01A
:103B900010E0902E802F0E948907D82EF501C19049
:103BA0005F01C826B1F40F5F1F4F0A30110589F776
:103BB0008FEF89838A831B820E9420288160782F5F
:103BC0009D838C8349815A816B818D810E94571E10
:103BD00038C08091E90381FD0E948F07F12CEE240B
:103BE000E3948C2D8E2139F10E94841DDE208823E0
:103BF00099F0FE829F8281E0D11001C080E0888729
:103C00000E9420288160782F9A8789874E815F8162
:103C100068858A850E94571EF801E15AFC4F808111
:103C2000E826E08241E0D11001C040E06F2D892DEF
:103C30000E94BA1306C0F394EE0CF6E0FF12D1CF47
:103C4000B2CF0E947D140E94161881110E946A1D35
:103C50000E94141D90915E038917B9F00E94141DF3
:103C600080935E032A960FB6F894DEBF0FBECDBFD9
:103C7000DF91CF911F910F91FF90EF90DF90CF9048
:103C8000BF90AF909F900C94B5052A960FB6F8940C
:103C9000DEBF0FBECDBFDF91CF911F910F91FF907F
:103CA000EF90DF90CF90BF90AF909F900895DF92FC
:103CB000EF92FF920F931F93CF93DF93CDB7DEB7B1
:103CC0002B970FB6F894DEBF0FBECDBFF42E052F95
:103CD000162FE72ED82E61110E94A326FE013196E1
:103CE00086E0DF011D928A95E9F77E2D4F2D502F3A
:103CF000612F8D2D9E810E94DD232B960FB6F894A7
:103D0000DEBF0FBECDBFDF91CF911F910F91FF900E
:103D1000EF90DF900895FC01808191810E9436260A
:103D20000895CF93882309F448C0C82F8CEF8C0FD7
:103D3000813AD0F46C2F8091290290912A020E943E
:103D40005827882349F06C2F8091290290912A02EC
:103D50000E9490270E9464266C2F809129029091E6
:103D60002A020E948E270CC080E28C0F883058F403
:103D7000C77081E001C0880FCA95EAF70E948626C5
:103D8000CF910C946426EBE5EC0FE33040F4F0E0C7
:103D9000E853FD4F808190E0CF910C942B1DC85AC1
:103DA000C73158F4EC2FF0E0EE0FFF1FE656FD4F41
:103DB00080819181CF910C94411DCF9108958823EA
:103DC00049F1682F8CEF860F813A38F480912902EF
:103DD00090912A020E9490270CC080E2860F8830C2
:103DE00050F4677081E001C0880F6A95EAF70E947D
:103DF0008C260C9464268BE5860F833020F480E0BB
:103E000090E00C942B1D685A673120F480E090E01C
:103E10000C94411D08951F93CF93DF93182FEB014E
:103E20000E94911E209741F08FE99FE00197F1F7E2
:103E300000C000002197F6CF812FDF91CF911F9115
:103E40000C94DF1E893319F06AE070E002C060E56F
:103E500070E00C940B1F882321F00E9486260C949E
:103E600064260895882321F00E948C260C946426F1
:103E70000895CF92DF92EF92FF920F931F93CF930B
:103E8000DF93DC01C62F972F12962C91129715966F
:103E90004C911597342F32953F70172F12951F7044
:103EA000C12ED12C8CE0C816D10408F07CC1F601DB
:103EB000EA57FF4F0C940630872F807F9F70D92FD1
:103EC000882311F0D295D07F222399F0DD2309F4C5
:103ED00051C180E28C0F883010F0C11104C08D2FC9
:103EE0000E94862603C08D2F0E9496260E9464267B
:103EF00041C18C2F0E94DF1EDD2309F454C180E2F2
:103F00008C0F883010F0C11104C08D2F0E948C26B8
:103F100003C08D2F0E949C260E94642644C1872FD7
:103F2000807F9F70803211F4892F03C0892F829582
:103F3000807FC13051F4222321F0363008F033C1A4
:103F40000DC0353008F02FC10EC0222351F03323AD
:103F500029F040FF0FC14F7015964C930E942B1F04
:103F600022C131110DC10E94321F1DC1872F8695BC
:103F70008695837019F0813091F015C1222319F0D4
:103F8000862F937002C080E090E0DF91CF911F9167
:103F90000F91FF90EF90DF90CF900C942B1D222378
:103FA00019F0862F937002C080E090E0DF91CF91EE
:103FB0001F910F91FF90EF90DF90CF900C94411DD7
:103FC000872F837009F045C02111F0C0862F82959C
:103FD00086958770880F880F462F4F7050E060E0FD
:103FE00070E0082E04C0440F551F661F771F0A9407
:103FF000D2F7C4FF10C00FE010E020E030E004C0B2
:10400000000F111F221F331F8A95D2F700951095BC
:104010002095309503C000E010E0980196959695A4
:10402000E92FE370CB01BA01602B712B822B932B0C
:10403000E23049F058F4E13019F00E94B124B6C0E2
:104040000E949F24B3C00E94C324B0C00E949D243C
:10405000ADC0222319F0872F817001C08695882377
:1040600009F4A4C08C2F829586958770880F880FDD
:104070004C2F4F7050E060E070E0082E04C0440FF9
:10408000551F661F771F0A94D2F7C4FF10C00FE0B8
:1040900010E020E030E004C0000F111F221F331F8A
:1040A0008A95D2F7009510952095309503C000E0D1
:1040B00010E0980196959695E92FE370CB01BA012F
:1040C000602B712B822B932BE23049F058F4E130B6
:1040D00019F00E9476256AC00E94642567C00E947C
:1040E000882564C00E94D72461C0D72FDF702223A7
:1040F00039F08D2F0E94FD248C2F0E942B1F56C05B
:10410000862F0E94321F8D2F0E941E254FC0613FB7
:10411000A9F018F4603F31F029C0623FB1F0633F6D
:10412000D9F024C0222339F03530E8F5892F8F717A
:104130000E94432538C03630B0F5F8CF222339F03D
:10414000892F8F710E94FD242EC02223C9F3892F4D
:104150008F710E941E2527C0222329F0872F8F717F
:104160000E94E82420C00E94E3241DC0222331F0D5
:10417000332331F38C2F0E94911E15C0332339F362
:10418000C93341F49FEF27EE83E0915020408040F7
:10419000E1F704C08FE39CE90197F1F700C000004C
:1041A0008C2F0E94DF1E1850143060F40E94141DE2
:1041B000DF91CF911F910F91FF90EF90DF90CF9003
:1041C0000C94B505DF91CF911F910F91FF90EF9067
:1041D000DF90CF9008950F931F93CF93DF93EC015F
:1041E000688179818A810E9441268C010E949A25EA
:1041F0000E948B24B801CE010E94391FDF91CF911C
:104200001F910F910895CF93DF93FC0190818181DD
:1042100023813481232B31F08F3F31F481E09F3FA4
:1042200019F403C081E001C080E080FD0EC0EF0101
:10423000CF010E949504882341F0CE010E94EB201B
:10424000CE01DF91CF910C946E04DF91CF91089550
:1042500080E090E00E942B1D80E090E00E94411DD4
:104260000E94A3260E94A6260C946426809129020F
:1042700090912A020E9492270C9428210E94932652
:104280000C943621E92FE295EF704E2F50E0FA01A1
:104290003297EE30F105B0F4EE56FF4F0C94063035
:1042A000803F91F018F4883E68F40EC0843F51F4CA
:1042B0000BC0883E48F0813F29F406C093FB882755
:1042C00080F9089580E0089581E008950E943626DF
:1042D0000E9442210895CF93DF9300D000D01F9217
:1042E000CDB7DEB70F900F900F900F900F90DF912A
:1042F000CF910895CF93DF9300D000D000D0CDB7F9
:10430000DEB726960FB6F894DEBF0FBECDBFDF91A5
:10431000CF9108951F93CF93DF93C091760316E05A
:1043200080917703C81799F0D0E01C9FF0011D9F82
:10433000F00D1124E858FC4F408151816281738156
:10434000848195810E947A212196C770E9CFDF91FF
:10435000CF911F9108954091A8035091A9036091B6
:10436000AA037091AB038091AC039091AD030C94C0
:104370007A210F931F93CF93DF938091AD038295A2
:104380008F7009F05DC08091AA03882309F458C09A
:1043900080917603109177036091A8037091A9032F
:1043A000C091AB03D091AC0391E06F3F09F090E076
:1043B000292F06E0811709F443C0209721F07F3FA1
:1043C00021F030E003C031E001C0322F90E030FD39
:1043D00034C0089FF001099FF00D1124DF01A85897
:1043E000BC4F11963C911197371327C03C9136135F
:1043F00024C012963C91129731111FC013964D9113
:104400005C9114974C1B5D0B44365105B0F48091C0
:10441000AD038F7080618093AD03E358FC4F8081C2
:104420008F708061808388EA93E00E940321DF918E
:10443000CF911F910F910C948A2101968770BACF6A
:10444000DF91CF911F910F9108959F92AF92BF92EC
:10445000CF92DF92EF92FF920F931F93CF93DF9350
:10446000CDB7DEB761970FB6F894DEBF0FBECDBFF4
:104470008C0185E0F801DE011D9601900D928A9570
:10448000E1F7F80140815181E2809091A8036091A9
:10449000A9032091AB033091AC032115310531F014
:1044A0006F3F31F481E09F3F19F403C081E001C008
:1044B00080E0F82FF1709F2E80FD2CC1F801A380C1
:1044C000B48088EAC82E83E0D82EF090AA03F501C4
:1044D000E21BF30BFF2009F4EBC08091AD03E4363F
:1044E000F10508F0A7C0282F207F09F052C056130D
:1044F00013C0491311C0FE2CE1100EC08F708061F3
:104500008093AD030E94AB21C6010E9403218091DC
:10451000AD03F80185833EC1AB2831F05F3F31F434
:1045200081E04F3F19F403C081E001C080E080FDCD
:1045300003C081E08E2502C080E090E0F82FF1708A
:10454000FF2E80FF1CC0809176032091770336E018
:10455000821709F4FDC090E0389FF001399FF00DFB
:104560001124E858FC4F6181561306C06081461340
:1045700003C06281E61203C001968770E9CFFE2C6A
:10458000EE2009F407C18091AD0381608093AD03F3
:1045900066C0561312C0491310C0E1100EC0F801D6
:1045A0008583C8010E94032186E0F801A8EAB3E0F0
:1045B00001900D928A95E1F7C8C04D875E878D8581
:1045C0009E850E946621882379F1EE2069F1209171
:1045D000AD03822F82958F7090E0029774F08091E6
:1045E000A8039091A90398878F831986BB86AA8612
:1045F0002C87CE0107960E94032186E0F801A8EAE5
:10460000B3E001900D928A95E1F70E94B9210E94D2
:10461000AB210DC0561729F14D875E878D859E858C
:104620000E94662181112CC0C8010E940321FF2431
:10463000F394B0C0282F207F69F77A2DB98AA88A11
:104640006E2D89890E946B2188EA93E00E940321E4
:1046500086E0F60111928A95E9F70E94AB21F12CD0
:1046600099C04913D9CFE110D7CFF8018583C8018C
:104670000E94032186E0F60111928A95E9F78AC02B
:10468000EE2091F22091AD03822F82958F7090E001
:1046900002970CF4B2CF8091A8039091A9039A835A
:1046A00089831B82BD82AC822E83CE010196A3CF6B
:1046B000E436F10510F5FE2CEE2009F4B5CF5613C3
:1046C0000BC0491309C086E0F801A8EAB3E00190E5
:1046D0000D928A95E1F75EC04D875E878D859E8538
:1046E0000E946621811189CF8091AD038160809302
:1046F000AD03C8010E9403214DC07A2DB98AA88A52
:104700006E2D89890E946B2186E0F60111928A95AF
:10471000E9F71BC0EE2009F487CF4D875E878D85B2
:104720009E850E946621F82E882309F47DCF86E0BD
:10473000F801A8EAB3E001900D928A95E1F788EAC2
:1047400093E00E948B1E0E94B9210E94AB2122C0DF
:104750004D875E878D859E850E943626292F22955E
:104760002F70223028F49F7039F0811105C00BC0E2
:10477000243028F49F7049F4805E883020F0C8010E
:104780000E9403219F2CF92C05C0F8019581907F90
:1047900099F7F9CF8F2D61960FB6F894DEBF0FBE53
:1047A000CDBFDF91CF911F910F91FF90EF90DF90E0
:1047B000CF90BF90AF909F9008951F93CF93DF93BA
:1047C000CDB7DEB72C970FB6F894DEBF0FBECDBFC6
:1047D0004F83588769877A878B879C87CE01079696
:1047E0000E9425228823D1F09F8188852A853B85D8
:1047F000232B31F08F3F31F481E09F3F19F403C048
:1048000081E001C080E080FD47C04F815885698507
:104810007A858B859C850E947A213EC086E0FE01C8
:104820003796DE01119601900D928A95E1F7FF818E
:10483000E8856A857B856115710531F0EF3F31F4BC
:1048400081E0FF3F19F403C081E001C080E080FDFA
:1048500023C02091770330E0C90101968770992722
:104860004091760350E084179507F1F1F983EA83CC
:104870007D836C8396E0929FD001939FB00D1124AD
:10488000A858BC4FFE01319601900D929A95E1F720
:10489000809377030E948A2116E08091760390919D
:1048A0007703891771F1189FC001112488589C4F14
:1048B0000E942522882329F1E09176031E9FF001B2
:1048C0001124E858FC4F40815181628173818481B9
:1048D00095810E947A218091760390E001968770FD
:1048E000992780937603D9CF0E943E2110927703B7
:1048F00010927603E8EAF3E086E0DF011D928A95E4
:10490000E9F72C960FB6F894DEBF0FBECDBFDF914E
:10491000CF911F910895089508950C948C240C94C0
:104920008D240E948F246093DA037093DB038093BD
:10493000DC039093DD030C9428210C9491240F93B5
:104940001F930091DA031091DB032091DC03309177
:10495000DD03602B712B822B932B1F910F910C94F5
:1049600091240F931F930091DA031091DB032091A0
:10497000DC033091DD0360237123822393231F9195
:104980000F910C9491240F931F930091DA031091CF
:10499000DB032091DC033091DD0360277127822740
:1049A00093271F910F910C9491240C948C240E94B6
:1049B000D5246093D6037093D7038093D803909344
:1049C000D9030C94282160E070E0CB010C94D7242B
:1049D0000F931F9341E050E060E070E08A019B017B
:1049E00004C0000F111F221F331F8A95D2F7C9017F
:1049F000B8011F910F910C94D7240F931F9341E09E
:104A000050E060E070E004C0440F551F661F771F40
:104A10008A95D2F78091D6039091D703A091D803BD
:104A2000B091D9038A019B01082B192B2A2B3B2B10
:104A3000C901B8011F910F910C94D7240F931F93B4
:104A400041E050E060E070E004C0440F551F661F75
:104A5000771F8A95D2F74095509560957095809113
:104A6000D6039091D703A091D803B091D9038A01BE
:104A70009B01082319232A233B23C901B8011F9155
:104A80000F910C94D7240F931F9341E050E060E006
:104A900070E004C0440F551F661F771F8A95D2F738
:104AA0008091D6039091D703A091D803B091D903F8
:104AB0008A019B01082719272A273B27C901B8012A
:104AC0001F910F910C94D7240F931F930091D6033D
:104AD0001091D7032091D8033091D903602B712B0B
:104AE000822B932B1F910F910C94D7240F931F931C
:104AF0000091D6031091D7032091D8033091D903A8
:104B000060237123822393231F910F910C94D72448
:104B10000F931F930091D6031091D7032091D803D0
:104B20003091D90360277127822793271F910F9116
:104B30000C94D7240895292F220F920F990F890FD3
:104B4000E82FE695E695E695877051E001C0550F90
:104B50008A95EAF785E0E89FF0011124E255FC4FC1
:104B600020E030E070E04081CB01022E02C096953B
:104B700087950A94E2F7817081958427852384279D
:104B800081932F5F3F4F2530310569F70895292F15
:104B9000220F920F990F890F682F6695669566957B
:104BA000982F977085E0689FB001112440E050E095
:104BB00080E0FB01E40FF51FE255FC4F208130E05F
:104BC000092E02C0369527950A94E2F72170332703
:104BD000042E01C0220F0A94EAF7822B4F5F5F4F29
:104BE0004530510531F70895BF92CF92DF92EF9291
:104BF000FF920F931F93CF93DF938C01C090D60346
:104C0000D090D703E090D803F090D9038091DA03D5
:104C10009091DB03A091DC03B091DD03C82AD92A6F
:104C2000EA2AFB2ACFE1D0E0D701C6010C2E04C04E
:104C3000B695A795979587950A94D2F780FD04C0FD
:104C4000219790F7B12C07C0BC2EB8018C2F0E9481
:104C5000D1050197A9F38B2DDF91CF911F910F9172
:104C6000FF90EF90DF90CF90BF900895CF93DF93A8
:104C7000EC010E94F425BE010E94D105DF91CF9185
:104C800008951F93CF93DF93EB01909175039923C0
:104C900021F0CB010E94362613C0882349F0CB01B6
:104CA0000E94F425182F682FCE010E949B2504C076
:104CB000CB010E94C725182FBE01812F0E94D1056C
:104CC000DF91CF911F910895E0912902F0912A027E
:104CD0008091E8038083E0912902F0912A0290817B
:104CE0008091E703892B8083E0912902F0912A02C9
:104CF00090818091E603892B808380912902909195
:104D00002A020C94201D8091E80308959091E803F5
:104D1000892B8093E803089580959091E803892377
:104D20008093E80308951092E80308959091E703B3
:104D3000892B8093E703089580959091E703892359
:104D40008093E70308951092E70308951092E60315
:104D5000089580E0089580E090E00E94B13021E065
:104D60008B3E9E4F09F020E0822F089582E090E074
:104D70000C94A33083E090E00C94A330CF9384E0B4
:104D800090E00E94A330C82F81E290E00E94A330FF
:104D90002C2F30E0A901582BCA01CF910895CF9351
:104DA000C92F682F84E090E00E94C7306C2F81E209
:104DB00090E0CF910C94C730AB01BC018FE090E044
:104DC0000C94D93083E190E00C94AB30AB01BC0182
:104DD00083E190E00C94D93060E070E0CB010E9458
:104DE000DC260C94AC036BEE7EEF80E090E00E943A
:104DF000E53060E082E090E00E94C73060E083E050
:104E000090E00E94C7301092DA031092DB031092F8
:104E1000DC031092DD0360E084E090E00E94C73084
:104E200060E081E290E00E94C73060E085E090E0C1
:104E30000E94C73060E086E090E00E94C7306FEFCC
:104E400087E090E00E94C73040E050E0BA0188E07F
:104E500090E00E94D93060E08DE090E00E94C73081
:104E600040E050E0BA0188E190E00E94D93060E073
:104E700087E190E00E94C73040E050E0BA018CE149
:104E800090E00E94D93060E080E290E00E94C7305C
:104E900040E050E0BA0188E190E00E94D9300C94E3
:104EA000EC260C94F326682F8EE090E00C94C7302B
:104EB000662349F0FC01329608962191621729F089
:104EC000E817F907D1F780E0089581E008959C0183
:104ED000FC0132969FEF80E04191461789F09F3F99
:104EE00019F4411101C0982F8F5F8630A9F79F3FB9
:104EF00039F0F901E90FF11D97FDFA9562830895E4
:104F000008959C012A5F3F4FFC014281461301C076
:104F10001282019682179307B9F708950C946727B8
:104F20000C948127029626E0FC0111922A95E9F75C
:104F3000089508950C9499270C949927CF930E9473
:104F40009C270E9464080E949A27C0E08C2F0E9430
:104F50008907811104C0CF5FCA30C1F701C081E069
:104F6000CF9108950C9499270C94B227809129052C
:104F7000843049F10E94B42780E00E94B505109268
:104F8000EA0320E488E190E00FB6F894A8958093B6
:104F900060000FBE2093600083B7817F846083BF71
:104FA00083B7816083BF7894889583B78E7F83BFF2
:104FB0000FB6F894A8958091600088618093600096
:104FC000109260000FBE08950C9499270E943E2114
:104FD0000E94141D0E94B5050C94E4271F920F92A5
:104FE0000FB60F9211248F939F93AF93BF9380912D
:104FF000EA03811113C080911B0590911C05A091BB
:105000001D05B0911E054196A11DB11D80931B0584
:1050100090931C05A0931D05B0931E05BF91AF9101
:105020009F918F910F900FBE0F901F90189582E067
:1050300084BD93E095BD9AEF97BD80936E0008956F
:105040002FB7F89480911B0590911C05A0911D0528
:10505000B0911E052FBF08952FB7F89460911B05DE
:1050600070911C0580911D0590911E052FBF08951C
:105070009C014FB7F89480911B0590911C05A0915D
:105080001D05B0911E054FBF821B930B0895CF9253
:10509000DF92EF92FF922FB7F894C0901B05D0904B
:1050A0001C05E0901D05F0901E052FBFA70196017D
:1050B000261B370B480B590BCA01B901FF90EF9023
:1050C000DF90CF90089578941F920F920FB60F92B1
:1050D00011248F939F93AF93BF9380911B05909161
:1050E0001C05A0911D05B0911E050196A11DB11DC5
:1050F00080931B0590931C05A0931D05B0931E057E
:10510000BF91AF919F918F910F900FBE0F901F9005
:10511000189510921F0510922005109221051092EB
:1051200022050895CF92DF92EF92FF926B017C01EE
:105130000E94260981110EC00E942C28C61AD70A87
:10514000E80AF90AC0921F05D0922005E0922105D5
:10515000F0922205FF90EF90DF90CF9008950F938B
:105160001F930E942609882321F01F910F910C9410
:105170002C280E942C2800911F05109120052091B9
:10518000210530912205600F711F821F931F1F910F
:105190000F910895CF92DF92EF92FF926B017C0105
:1051A0000E942609882341F0C701B601FF90EF90C5
:1051B000DF90CF900C9447280E94AF286C197D098E
:1051C0008E099F09FF90EF90DF90CF90089587E7B9
:1051D00097E790930108809300089AE088E10FB662
:1051E000F894A895809360000FBE90936000FFCF65
:1051F0009093CD028093CC0208950E94AB2681113A
:1052000002C00E9451270E94B6268093E9030E94A3
:10521000BE2690932405809323050E94BA26682F0A
:1052200070E080E090E00E949D246091D603709130
:10523000D7038091D8039091D9030C94D524809101
:10524000F30308950895CF93DF9300D01F92CDB755
:10525000DEB790912905943019F589837B836A83A1
:1052600082E08093E9008FEF9091E800815095FDF6
:1052700006C095ED9A95F1F700008111F5CF809168
:10528000E80085FF0DC040E050E063E070E0CE0133
:1052900001960E94212B8091E8008E778093E80090
:1052A0000F900F900F90DF91CF910895BC0184E093
:1052B0000C942329BC0183E00C942329CF93DF9322
:1052C00021E02093E9002FEF3091E800215035FDD7
:1052D00006C035ED3A95F1F700002111F5CF209188
:1052E000E80025FF14C0EC0140E050E068E070E009
:1052F0000E94212B8091E8008E778093E80088E05F
:10530000FE01ABEEB3E001900D928A95E1F7DF91DB
:10531000CF91089580912805811109C00E94B22C77
:105320000E940F2D8091E20084608093E200089536
:1053300010922805089508950895089542E061ECBB
:1053400081E00E942B2C42E261EC82E00C942B2C39
:1053500080912B05833009F460C030F4813071F006
:10536000823009F499C008958A3009F485C08B30E1
:1053700009F46BC0893009F0A7C020C080912A05CC
:10538000813A09F0A1C08091E800877F8093E8000E
:1053900080912E0590912F05892B21F468E08BEEEA
:1053A00093E003C060E080E090E070E00E946C2B2E
:1053B0008091E8008B778093E800089580912A051A
:1053C000813209F081C080912E0590912F050297BE
:1053D00008F07AC08091E800877F8093E800809190
:1053E000E80082FD05C0809129058111F8CF6CC0CD
:1053F0002091F3008091F20090E0922B029729F423
:105400008091F1008B7F813021F48091F1008093B5
:10541000F3038091E8008B7753C080912A05813A8D
:1054200009F052C080912E0590912F05892B09F02B
:105430004BC08091E800877F8093E8008091E8006E
:1054400080FFFCCF8091350236C080912A058132E1
:10545000D9F580912E0590912F05892BA9F5809182
:10546000E800877F8093E8000E94602C80912C05E3
:10547000809335020C943E2180912A05813221F5DA
:105480008091E800877F8093E8000E94602C8091E3
:105490002D058093F403089580912A05813AA1F4A3
:1054A0008091E800877F8093E8008091E80080FF8A
:1054B000FCCF8091F4038093F1008091E8008E7717
:1054C0008093E8000C94602C089584B7877F84BF94
:1054D0000FB6F894A8958091600088618093600071
:1054E000109260000FBE90E080E80FB6F8948093B1
:1054F0006100909361000FBE0E94911D0E94B22C2A
:105500000E940F2D8091E20084608093E2007894E5
:105510000E94A42F0E949B1D8BE292E00E940F1D0F
:10552000809129058530A9F480912905853079F489
:105530000E94B627809127058823B1F30E949E27F9
:10554000882391F30E940B2B0E943E21EDCF0E94F5
:10555000E6270E94A71D0E94871D0E94861DE0CF9E
:105560000C94B22A292F332723303105C9F060F477
:105570002130310581F02230310509F044C08BE340
:1055800090E02CEE35E043C021323105E1F02232CB
:10559000310549F138C082E190E027E236E037C0BA
:1055A00099278130910549F028F0029761F5E2EBE7
:1055B000F5E005C0E8EEF5E002C0E0EDF5E084912D
:1055C00090E09F0124C06115710541F061307105C3
:1055D000D1F489E090E027E136E019C089E090E05D
:1055E0002EEF35E014C06115710541F06130710591
:1055F00051F482E390E029E336E009C080E490E0D2
:105600002BE636E004C080E090E020E030E0FA01D4
:1056100031832083089580E189BD82E189BD09B489
:1056200000FEFDCF8091D8008F7D8093D8008091BF
:10563000E00082608093E0008091E00081FDFCCF7B
:105640000895CF92DF92EF92FF920F931F93CF9323
:10565000DF93EC018B017A010E947F2C811133C012
:10566000E114F10439F0F70180819181081B190BD5
:10567000C80FD91FC12CD12C0115110519F180912A
:10568000E80085FD16C08091E8008E778093E800E1
:10569000E114F10449F0F70180819181C80ED91E0F
:1056A000D182C08285E00FC00E947F2C882321F325
:1056B0000AC089918093F10001501109FFEFCF1AC0
:1056C000DF0ADACF80E0DF91CF911F910F91FF9039
:1056D000EF90DF90CF900895209130053091310503
:1056E0002617370748F06115710539F42091E80055
:1056F0002E772093E80001C0B901FC0120E061157C
:10570000710579F1809129058823F1F18530F1F156
:105710008091E80083FD3CC08091E80082FD2EC0AE
:105720008091E80080FFEBCF2091F3008091F200A0
:1057300090E0922B6115710551F08830910538F495
:1057400021912093F100615071090196F3CF21E07E
:10575000089709F020E08091E8008E778093E800B8
:10576000CECF2111CFCF0AC080912905882361F0C7
:10577000853061F08091E80083FD0AC08091E800E7
:1057800082FFF2CF80E0089582E0089583E00895DB
:1057900081E00895209130053091310526173707B3
:1057A00048F06115710539F42091E8002E772093B7
:1057B000E80001C0B901FC0120E06115710591F11B
:1057C00080912905882309F440C0853009F43FC041
:1057D0008091E80083FD3DC08091E80082FD2FC0EC
:1057E0008091E80080FFE9CF2091F3008091F200E2
:1057F00090E0922B6115710559F08830910540F4C5
:1058000024912093F1003196615071090196F2CFF5
:1058100021E0089709F020E08091E8008E778093DE
:10582000E800CBCF2111CCCF0AC080912905882375
:1058300061F0853061F08091E80083FD0AC08091BD
:10584000E80082FFF2CF80E0089582E0089583E0CF
:10585000089581E00895982F973068F59093E900B6
:10586000981739F07091EC002091ED005091F00004
:1058700003C0242F762F50E021FD02C09F5FECCFA4
:105880003091EB003E7F3093EB003091ED003D7F97
:105890003093ED003091EB0031603093EB0070936A
:1058A000EC002093ED005093F0002091EE0027FDD6
:1058B000E5CF80E008958F708093E90081E008953E
:1058C00080912A0587FF11C08091E80082FD05C004
:1058D000809129058111F8CF11C08091E8008B7764
:1058E0000BC080912905882349F08091E80080FF52
:1058F000F8CF8091E8008E778093E800089520919A
:10590000E4003091E50095E64091EC00842F817031
:1059100040FF23C08091E80080FD1DC080912905D3
:10592000882399F0853099F08091EB0085FD11C0B6
:105930004091E4005091E5002417350729F3915078
:1059400011F09A01E1CF84E0089582E0089583E0A8
:10595000089581E0089580E008954091E80042FFB5
:10596000DDCF08950E94202D0E94282DE0EEF0E06A
:10597000808181608083E8EDF0E080818F77808393
:1059800019BCA7EDB0E08C918E7F8C9380818F7EC7
:1059900080831092280508950F931F93CF93DF9370
:1059A0000E94202D0E94282DC8EDD0E088818F779D
:1059B000888388818068888388818F7D888319BCEB
:1059C00010922905109225051092270510922605A0
:1059D00000EE10E0F80180818B7F808388818160F8
:1059E000888342E060E080E00E942B2CE1EEF0E052
:1059F00080818E7F8083E2EEF0E080818160808311
:105A0000808188608083F80180818E7F8083888197
:105A100080618883DF91CF911F910F910895E8ED08
:105A2000F0E080818F7E8083E7EDF0E0808181600F
:105A3000808384E082BF81E0809328050C94CC2C85
:105A4000E8EDF0E080818E7F80831092E20008957F
:105A50001092DA001092E10008951F920F920FB693
:105A60000F9211242F933F934F935F936F937F93E4
:105A70008F939F93AF93BF93EF93FF938091E10038
:105A800082FF0BC08091E20082FF07C08091E1009D
:105A90008B7F8093E1000E94A32F8091DA0080FF2A
:105AA0001FC08091D80080FF1BC08091DA008E7FDC
:105AB0008093DA008091D90080FF0DC080E189BD1C
:105AC00082E189BD09B400FEFDCF81E08093290504
:105AD0000E948A2905C019BC109229050E949829A4
