:100000000C945F050C94A6050C94A6050C944C1D4D
:100010000C94A6050C94A6050C94A6050C94A605B4
:100020000C94A6050C94A6050C942B2E0C94FD2E76
:100030000C9499290C94A6050C94A6050C94A6057D
:100040000C94A6050C94A6050C94A6050C94A60584
:100050000C94A6050C940E2A0C94A6050C94A605E7
:100060000C94A6050C94A6050C94A6050C94A60564
:100070000C94A6050C94A6050C94A6050C94A60554
:100080000C94A6050C94A6050C94A6050C94A60544
:100090000C94A6050C94A6050C94A6050C94A60534
:1000A0000C94A6050C94A6050C94A605BC13C513C8
:1000B000CA13CF13D413D913DE13E313E813ED13CC
:1000C000F213F713FC13011406140B141014151477
:1000D0001A141F14241429142E14331438144D1513
:1000E000501555155C15611566156B157015751550
:1000F0007A157F158415861588158A158D158D1529
:100100008D158D158D155B205B208D208D20E321B5
:10011000E321E321E321DA20732184218421852254
:100120008522972297228E22972297229722852234
:10013000852293229722972293226A2F912F89302A
:10014000912F8930DD2F00308930573066302900FB
:100150001E001F002000210022002B00340036006A
:10016000370013001C00E100040012000800180012
:100170000C00E000330014000D000E001B00000016
:10018000E300E20002512C002F003500270026007A
:100190002500240023002E000F00150006000A0091
:1001A00009002D001600110017000B000700380091
:1001B0001D0019001A001000050000004C002A0064
:1001C00003512800300029001E001F0020002100DC
:1001D00022002B0014001A00080015001700E1008F
:1001E00004001600070009000A00E0001D001B00C3
:1001F0000600190005000000E300E20002512C0097
:1002000035003500270026002500240023002D009E
:10021000130012000C0018001C002E0233000F0007
:100220000E000D000B0031003800370036001000C2
:10023000110000004C002A00035128003500005C2A
:100240003A003B003C003D003E0035001B0124020B
:10025000260227021B010100060131022F00300097
:1002600006010100190131003600370019010000B4
:1002700001000100010001000100440043004200B0
:10028000410040003F00450001004E004B000100CE
:1002900001004D004F005100520050004A00310053
:1002A0004F00510052005000010000000100010009
:1002B00004510100010001000100010001000100E2
:1002C0000100010001000100010001000100010026
:1002D0000100010001000100010001000100010016
:1002E00001000100010000000100010004510100B3
:1002F00001000100010056005500540053000100A8
:100300005700610060005F004600B20085005E009B
:100310005D005C004C00010067005B005A00590062
:100320002A00000063006200010001000100A50036
:1003300000000000015C005CDE5C00520152000025
:10034000000000000000BD00A90000000000000047
:100350000000BE00AA000000000000000000000035
:10036000010001000100010000000000D15CD05C30
:10037000CF5CCE5CCD5C00000000D55CD45CD35C6F
:10038000D25CC95CC75CC55CCB5CC35CC25CCA5C4C
:10039000C85CC65CCC5CC45C0000000001000100CD
:1003A0000100010000000001010101010101010142
:1003B0000202020202020202020303030303030316
:1003C00003040404040404040505050505060606E3
:1003D0000606070707070708080808090909090AA0
:1003E0000A0A0B0B0B0C0C0C0D0D0D0E0E0E0F0F45
:1003F0000F101011111112121313141415151616D3
:100400001717181819191A1A1B1B1C1D1D1E1E1F41
:100410002020212222232424252626272829292A90
:100420002B2C2D2D2E2F30313232333435363738B8
:10043000393A3B3C3D3E3F404142434445464748B4
:10044000494A4C4D4E4F50515354555658595A5B8A
:100450005D5E5F616264656668696B6C6D6F70722A
:10046000737577787A7B7D7E8082838587888A8C96
:100470008E8F91939596989A9C9EA0A2A3A5A7A9CA
:10048000ABADAFB1B3B5B7BABCBEC0C2C4C6C9CBC1
:10049000CDCFD1D4D6D8DBDDDFE2E4E7E9EBEEF077
:1004A000F3F5F8FAFDFF00AE00AF00DA02818FD954
:1004B000F1DB40A4A62EAF00A0C000A1C800AED5BD
:1004C00080A81FD300408D14200000000000000011
:1004D0003E5B4F5B3E003E6B4F6B3E001C3E7C3EE6
:1004E0001C00183C7E3C18001C577D571C001C5EED
:1004F0007F5E1C0000183C180000FFE7C3E7FF0008
:10050000001824180000FFE7DBE7FF0030483A0638
:100510000E00262979292600407F05050700407F27
:1005200005253F005A3CE73C5A007F3E1C1C080052
:10053000081C1C3E7F0014227F2214005F5F005FB6
:100540005F0006097F017F00006689956A00606090
:100550006060600094A2FFA2940008047E0408007A
:1005600010207E20100008082A1C0800081C2A08F9
:1005700008001E10101010000C1E0C1E0C0030384D
:100580003E383000060E3E0E06000000000000005F
:1005900000005F000000000700070000147F147FC8
:1005A0001400242A7F2A12002313086462003649AB
:1005B00056205000000807030000001C22410000E4
:1005C0000041221C00002A1C7F1C2A0008083E084B
:1005D00008000080703000000808080808000000CB
:1005E000606000002010080402003E5149453E00B2
:1005F00000427F4000007249494946002141494D6F
:1006000033001814127F10002745454539003C4A35
:10061000494931004121110907003649494936004D
:10062000464949291E000000140000000040340023
:100630000000000814224100141414141400004196
:10064000221408000201590906003E415D594E007E
:100650007C1211127C007F49494936003E414141DC
:1006600022007F4141413E007F49494941007F09C5
:10067000090901003E41415173007F0808087F00CD
:1006800000417F4100002040413F01007F081422CB
:1006900041007F40404040007F021C027F007F04F9
:1006A00008107F003E4141413E007F0909090600D4
:1006B0003E4151215E007F091929460026494949DA
:1006C000320003017F0103003F4040403F001F20F4
:1006D00040201F003F4038403F006314081463006F
:1006E0000304780403006159494D4300007F4141F0
:1006F0004100020408102000004141417F00040233
:100700000102040040404040400000030708000090
:100710002054547840007F284444380038444444EE
:100720002800384444287F003854545418000008E6
:100730007E0902001824241C78007F080404780035
:1007400000447D4000002040403D00007F102844D0
:10075000000000417F4000007C04780478007C08A1
:10076000040478003844444438007C1824241800D9
:10077000182424187C007C080404080048545454AD
:10078000240004043F4424003C4040207C001C2002
:1007900040201C003C4030403C00442810284400CD
:1007A0004C9090907C004464544C440000083641C6
:1007B0000000000077000000004136080000020140
:1007C000020402003C2623263C00000000000080BA
:1007D000808080000000000080E070180C1830E07D
:1007E00080000010F8901030783010B8FC381000FD
:1007F0000000000000F8FCF800000000000000000D
:1008000000000000001C9C1C00000000F8FCF80028
:1008100000000000001CFCF8C00000000000008088
:10082000E0F87C1C000000F0FCFCFC1C1C1C1C1CE8
:100830001C1C1C000000000000C0F0F8381C1C1C30
:100840001C1C1C3CF8F0E000E0F0F0F0E0ECEEF7EF
:10085000F37020007C7C7C7E007E7E7E7F7F7F002C
:100860000080C0E07E5B4F5BFEC00000C000DCD7B4
:10087000DEDEDED7DC00C00000000000000000006B
:100880000000000000000000000000000000000F59
:10089000BCE0818181838382870C183060C00000B6
:1008A0001FFE90B9FFBB91983C1811133F11000037
:1008B0000000000000FFFFFF00000000000000003B
:1008C0000000000000FFFFFF00000000FFFFFF002E
:1008D00000000000000000030F7FF8E080F0FC3F04
:1008E0000F0100000000003F3F3F1C1C1C1C1C3C73
:1008F00078F8F0E08000000000C3E7FF7E3C387825
:10090000787070F8FFDF87000F1F3F7F7F7F7F7F4A
:100910003F1E0C001F1F1F3F003F3F3F7F7F7F0098
:10092000307B7F7830202030787F3B0003000F7FC2
:100930000F0F0F7F0F0003000000000000000000F9
:1009400000000000000000000000183C2466634125
:10095000C18180808080808081C14162386C4CC6BA
:100960008181808080808081C14362361C180000B4
:100970000000000000FFFFFFC0C0C0C0C0C0C0C07A
:10098000C0800000007FFF7F000000007FFFFFC0ED
:1009900080000000E0E0C0C0C0E0F97F1F07000059
:1009A0000000000000000070F0E0E0C0C0C0C0E047
:1009B000F0F87F3F0F0000000F3F7FF9E0E0C0C07C
:1009C000C0C0C0E0F97F3F1F000000000000000031
:1009D0000000000000000000000000000000000017
:1009E0000000000000000000000000000000000007
:1009F00000000000000000000000000000000000F7
:100A000000000000000000000000040330000000AF
:100A10001C034C0069006C00790035003800470069
:100A20006C006F00770045006E0063000000160345
:100A30004F00520056004900530045005600410047
:100A40004E005300000004030904090222000101C2
:100A500000A0FA09040000010301010009211101AD
:100A600000012240000705810308000A120110015D
:100A70000000000851FC58000001010203010501BB
:100A80000906A101050719E029E7150025019508C8
:100A9000750181029501750881010507190029FF7B
:100AA000150026FF00950675088100050819012923
:100AB00005950575019102950175039101C01124F9
:100AC0001FBECFEFDAE0DEBFCDBF04B603FE27C006
:100AD00080915D0790915E07A0915F07B0916007DC
:100AE0008730904BA740B04BD1F410925D07109225
:100AF0005E0710925F071092600714BE84B7877F6D
:100B000084BF0FB6F894A8958091600088618093A7
:100B10006000109260000FBEE0E0F8E3099513E07A
:100B2000A0E0B1E0EEE3FAE602C005900D92AC342D
:100B3000B107D9F727E0ACE4B3E001C01D92AD35B1
:100B4000B207E1F70E946D2B0C941D350C94000048
:100B50008091370490913804A0913904B0913A04FF
:100B600084309105A105B105E9F060F40097A10575
:100B7000B105A9F082309105A105B105E9F46AE655
:100B800072E012C088309105A105B10591F0803165
:100B90009105A105B10581F466E972E005C06CE537
:100BA00072E002C068E772E089E594E00E94693172
:100BB0001CC068E872E0F8CFBF93AF939F938F9308
:100BC00084EA92E09F938F931F9288E18F9389E547
:100BD00094E09F938F930E9470318DB79EB70A96D1
:100BE0000FB6F8949EBF0FBE8DBF89E594E00895BF
:100BF00084E091E00895CF938C33910520F4FC01BB
:100C0000E952FD4F09C09C012455310920313105BD
:100C100028F4F901EA53FD4FC08101C0C0E28F34CE
:100C2000910509F440C0D0F48C32910591F158F44B
:100C300088329105D0F18A32910538F18B329105D5
:100C400009F47CC032C08C34910529F18E349105B1
:100C500021F18B34910549F5C0E52BC0803E91050B
:100C600039F148F481359105E1F0C8F082359105FC
:100C7000E1F4CEE51EC0823E910549F008F45CC067
:100C8000833E910591F4C7E414C0C5E412C0C1E4E9
:100C900010C0C0E20EC0C4E40CC0C0E70AC0CCE380
:100CA00008C0C6E706C0CEE304C0803E910509F443
:100CB000C3E41F92CF939F938F93FB0180811F9278
:100CC0008F9381811F928F9385EB92E09F938F93F7
:100CD0001F9288E18F9383E693E09F938F930E9406
:100CE00070318DB79EB70E960FB6F8949EBF0FBEAB
:100CF0008DBF80914C0390914D03449779F0809182
:100D00004C0390914D03FC01E25BFC4FC0830196C4
:100D100090934D0380934C03CF91089510924D030F
:100D200010924C03EEE4F3E082E693E020E28E17AB
:100D30009F0729F32193FBCFC3E5BBCFC4E5B9CF10
:100D400083E693E008958EE493E008950C94E10621
:100D5000811109C0662319F08DE191E002C08CE198
:100D600091E00C944107813039F4662311F081E55C
:100D700001C082E50C94002008950895CF93C82FF8
:100D80000E943A0B882311F08C2F01C082E0CF9192
:100D900008950E943A0B882379F00E94A80560E02C
:100DA0000E9443180E94A00660E00E9443180E941F
:100DB000A30660E00C9443180E94F80560E00C94D0
:100DC0002718FB01228121110E94FB0581E0089573
:100DD0009C013A9521153F4138F5DC01AA27B270F4
:100DE000AC01442754709C012227387094FF0FC037
:100DF00090FF02C080E101C080E0AB2B09F080626F
:100E0000452B09F08064232B69F080680BC0892F83
:100E10008170AB2B09F08260452B09F08460232B95
:100E200009F08860FB0109940895CF93DF93EC01EA
:100E3000805E9109089710F0209719F463E170E241
:100E400002C067E572E2CE010E94E8068C2FDF91B6
:100E5000CF910C94A11FCF93DF93EC010E94D41F7C
:100E6000CE01805E9109089710F0209719F46AE18D
:100E700070E202C06EE572E2CE01DF91CF910C9478
:100E8000E806CF93DF93EC010E941507CE01DF91B6
:100E9000CF910C942B0781E0089508950C944D0791
:100EA0001F93CF93DF9300D000D01F92CDB7DEB752
:100EB00049835A836B833091D60389819A8131119A
:100EC00014C0662359F0222349F00E942927182FC5
:100ED000682F89819A810E94D02603C00E94FC2637
:100EE000182F69817A81812F04C00E942927698186
:100EF0007A810F900F900F900F900F90DF91CF910C
:100F00001F910C940E08FC01262F408151816281B3
:100F1000738184810C945007CF93DF93EC0160E0E0
:100F20000E948307BE01DF91CF910C944E070E946F
:100F30004E28811102C00E94EE280E946F140C946A
:100F4000E6090E946F130C94E40908950C94A50718
:100F500081E008950C94A807CF93C82F0E94A6079C
:100F60008C2F0E94AA07CF91089508950E947322A2
:100F70000E94B5072FEF84E39CE021508040904011
:100F8000E1F700C000000C94342A0F931F93CF9315
:100F9000DF93EC0161E00E9483078C01BE010E9497
:100FA00066138823A9F1BE01C8010E94A606882302
:100FB00079F1BE01C8010E94181A882349F1BE01C7
:100FC000C8010E94591A882319F1BE01C8010E9464
:100FD000841B8823E9F0BE01C8010E9436158823CE
:100FE000B9F08A81882369F001158CE5180731F082
:100FF0000E3D1C4531F40E94EE280AC00E94B6073F
:1010000007C0CE01DF91CF911F910F910C944B0738
:1010100080E0DF91CF911F910F9108952CE3829F83
:10102000C0011124FC0126E0729FE00DF11D112486
:10103000E60FF11DEE0FFF1FE25BFE4F85919491CD
:101040000895CF93DF930E940E080E94FF08EC01E1
:10105000811523E5920798F5811542E5940708F07C
:1010600094C0C11580E2D807C0F4C11521E0D207B1
:1010700008F0C1C0C53AD10548F4C430D10508F024
:10108000BAC0C130D10509F4B6C0B3C0CE01805E8C
:101090009109089708F4AFC0ACC0C11541E5D40769
:1010A00008F06EC0C11580E5D80708F04DC0C11525
:1010B00020E4D20708F49DC0DF70D06A9CC081157F
:1010C00046E5940700F5C11585E5D80708F077C017
:1010D000C11524E5D20708F06DC0CE0183709927B1
:1010E00021E030E002C0220F331F8A95E2F78C2FF7
:1010F0008695869540E2849FC0011124E901C82BA2
:10110000D92BDA6878C081154AE5940778F4C115BF
:1011100089E5D80708F05DC0C11528E5D20708F4B5
:1011200068C0DC2FCC27C06FD06A65C0905681158F
:10113000904208F05EC08D2F8F710E949309DD27C9
:10114000D0628F71D82B57C0CE0174E096958795E9
:101150007A95E1F783709C2F937021E030E002C014
:10116000220F331F9A95E2F73C68382BCF70C69553
:10117000C69580E2C89FE0011124C22BD32B3BC04F
:10118000DC2FCC27C16FD06A36C08370992721E04D
:1011900030E002C0220F331F8A95E2F78C2F86952C
:1011A000869540E2849FC0011124E901C82BD92B08
:1011B000DC6821C0DC2FCC27C46FD06A1CC08C2F08
:1011C0000E9493098F71C82FD0E0DC2FCC27D0620A
:1011D00012C08C2F8F700E94930994E0D695C7950A
:1011E0009A95E1F7CF70D0E0DC2FCC27D069C82BDF
:1011F00002C0C0E0D0E0CE01DF91CF9108958238E7
:10120000910569F1B0F48133910509F46DC048F49A
:101210008932910509F463C08A32910509F469C0E5
:1012200008958533910509F455C089339105B9F0C6
:101230000895833E910569F138F4803E9105B1F03F
:10124000823E910509F10895863E9105A9F1873EF8
:101250009105B9F1843E910509F064C023C0209145
:101260004E0720FD4FC021FD4DC0089580914E07CF
:1012700080FD44C080914F0780FF44C080914E079D
:1012800084FD42C083EE4DC080914E0782FF38C07E
:10129000F5CF80914E0782FD33C080914F0780FDCE
:1012A00031C0ECCF80914F0781FF32C080914E0753
:1012B00084FD2AC087EE35C080914E0783FF26C08B
:1012C000F5CF80914E0783FD21C080914F0781FDAE
:1012D0001FC0ECCF80914E0785FD1CC01DC08091C2
:1012E0004E0785FD19C016C080914E0786FD16C0B9
:1012F00017C080914E0786FD13C010C089E311C04E
:1013000082EE0FC080EE0DC080E00BC086EE09C0FB
:1013100084EE07C089E205C085E303C08AE201C00C
:1013200081E390E0089590914E0792FF0DC0282F21
:101330002871283019F4877F846006C0282F247113
:10134000243011F48B7F886093FF0DC0282F287103
:10135000283119F4877E846106C0282F2471243136
:1013600011F48B7E886120914F0720FF0DC0382F2C
:101370003871383019F4877F816006C0382F317199
:10138000313011F48E7F886021FF0DC0282F287125
:10139000283119F4877E816106C0282F21712131FF
:1013A00011F48E7E886194FD877E0895E82FF0E029
:1013B000E558FB4F80810895089580EA8A95F1F7FA
:1013C000089508950C94E1090C94E2090C94BD066B
:1013D0000895CF93DF930E94590B8091340280913E
:1013E0003402811102C095E001C090E09093860420
:1013F00085E0891B80938504A9E1B3E04EE153E0C9
:1014000061E070E08D91E82FE295EF70F0E021A1AE
:101410008F70EB0102C0CC0FDD1F8A95E2F7CE0181
:101420009C2F9095922391A392A1892B82A34A1776
:101430005B0741F7A3E1B3E049E153E061E070E00D
:101440008D91E82FE295EF70F0E021A18F70EB0114
:1014500002C0CC0FDD1F8A95E2F7CE019C2F90953C
:10146000922391A392A1892B82A34A175B0741F78C
:10147000E1E7F4E0ABE7B4E08BE794E011921D9272
:101480008E179F07D9F785E00E94030B0E949707EC
:10149000DF91CF910C94630B0E943A0B882309F1E2
:1014A0008091850490E085589B4F0E94760B8111B6
:1014B00014C080917B038F5F80937B03863078F02C
:1014C000E0918504F0E0E558FB4F80E090E0119258
:1014D000019685309105D9F702C010927B030C94D8
:1014E000A1078091860490E085589B4F0E94970B3E
:1014F0000C94E8096F927F928F929F92AF92BF9265
:10150000CF92DF92EF92FF920F931F93CF93DF93CF
:1015100089E1882E83E0982E01E714E096E7A92E52
:1015200094E0B92E712CCC24C394D12CF401819178
:101530004F01C82FC295CF70D0E099A18F7076016E
:1015400001C0EE0C8A95EAF7892F8E2989A38AA11A
:101550006E2C609486218AA30E94DD09E3E1F3E00A
:1015600040E050E020E03191A32FA295AF70B0E0B1
:1015700090968C9190E03F7002C0959587953A9532
:10158000E2F780FD07C08C2D042E01C0880F0A945D
:10159000EAF701C080E0282B4F5F5F4F46305105CE
:1015A00011F789A1682269A28AA1E82AEAA2F801B2
:1015B0008081281719F0208381E001C080E0782A1B
:1015C0000F5F1F4FA016B10609F0B0CF60918604DF
:1015D00070E065587B4F272D45E081E794E00E943D
:1015E000040B0E944C0A872DDF91CF911F910F9120
:1015F000FF90EF90DF90CF90BF90AF909F908F9033
:101600007F906F9008950895FF920F931F93CF934B
:10161000DF938C01F62ED72FC42F222349F081E0CF
:1016200080937E030E94CB2990937D0380937C035B
:1016300080917E038823C1F080917C0390917D038B
:101640000E94E329069780F0EF2DFD2FD8014C2F43
:1016500050E0CD01801B910B841795071CF48D91F0
:101660008193F7CF10927E03DF91CF911F910F915D
:10167000FF90089580917F03811112C08091D8005E
:1016800080618093D8008AE18A95F1F700C080914B
:10169000D90080FD02C082E001C081E080937F0319
:1016A00081E090917F03913009F080E008950C94DF
:1016B0003A0B0E94570B809334020E943A0B81111F
:1016C0000C946A0B08950E943A0B811102C00C948D
:1016D000700B089561E070E085E392E00C94FA1CD1
:1016E00061E070E085E392E00C94031DCF93DF93FB
:1016F000D82FC92F80E090E00E94DC1D892B99F43F
:10170000ED2FFC2F80E090E0DC01AF57BC4F2C9117
:101710002193019685309105B9F786E893E00E9400
:10172000911681E001C080E0DF91CF91089520E023
:1017300030E0FC014191CF01F901EF57FC4F4083AC
:101740002F5F3F4F25303105A1F786E893E00C94D9
:101750008816EF92FF920F931F93CF93DF93F62E8D
:10176000472FE82FF0E0711106C0EA55FC4F649155
:10177000762F862F72C0272F30E0EA55FC4FE49178
:101780000E2F10E056E0659FC0011124CFEFD0E08E
:10179000BE010E94C9305BEA5603C001579F900DFD
:1017A00011248F0D911D8F0D911D982F990F890F69
:1017B0007E01E21AF30AE09ED001E19EB00DF09E98
:1017C000B00D1124489FA0011124452F55277E01FB
:1017D000E41AF50AE09EA001E19E500DF09E500D26
:1017E00011247E01E81AF108E29EC001E39E900DEB
:1017F000F29E900D1124892F9927C81BD90BC09FE9
:10180000C001C19F900DD09F900D112462307105D1
:1018100091F048F461157105E1F061307105A9F4AA
:101820008B2F752F19C06430710561F038F0663068
:10183000710579F00AC0892F7B2F0EC08E2F7B2F68
:10184000E52F0AC08E2F792F02C0852F7E2FEB2F18
:1018500003C08B2F7E2FE92F6E2FDF91CF911F9129
:101860000F91FF90EF90089520E030E0869F212DAA
:10187000969F200D311D1124C9010895BC018230AD
:10188000910508F40895613E8EE1780748F49B01C4
:1018900095E0369527959A95E1F748E0420F01C00B
:1018A0004FEF91E0242F30E0290F311D359527951A
:1018B000229FF001239FF00DF00D11246E177F077A
:1018C00018F44FEF420F04C02F3F39F091E0920F10
:1018D000491740F78FEF890F08958FEF0895482F2C
:1018E000982F46FD9095E92FEF739F7046FD9F5FFF
:1018F000E295EF70EE0FF0E0ED5DFC4F2181299F46
:10190000802D212D112482958F702295207F822B8E
:101910003081982F930F892F47FD81958058089526
:10192000E42FF0E0EE0FFF1FE058FE4F408134EE51
:10193000439F412D1124E72FF0E050E0445E5F4FBC
:10194000DA01A21BB1099D01B7FF03C031952195B2
:10195000310993E0220F331F9A95E1F7AF01421B43
:10196000530B9A0157FF02C020E030E0279F212D42
:101970001124722F0895E42FF0E0EE0FFF1FE058BE
:10198000FE4F408134EE439F412D1124E82FF0E0BB
:1019900050E0445E5F4FDA01A21BB1099D01B7FF21
:1019A00003C031952195310993E0220F331F9A9599
:1019B000E1F7AF01421B530B9A0157FF02C020E031
:1019C00030E0582F259F212D1124822F0895622F5A
:1019D0000895E42FF0E0EE0FFF1FE058FE4F608106
:1019E000621B0895E42FF0E0EE0FFF1FEC5BFE4F4B
:1019F00065AD621B0895A22F50E0FA01EE0FFF1FA4
:101A0000EC5BFE4F95AD905297FD9195440F551F9D
:101A1000FA01E058FE4F3081232F30E02A1B3109B4
:101A2000290F311D97FD3A95620F0895EF920F939C
:101A30001F9393E0099F80011124159507956E2D42
:101A4000600F1F910F91EF9008950F93CF93DF9345
:101A5000D72FC82F47FD4195E8E3F0E0CF01841B65
:101A6000910947FD9395889FB001899F700D700D76
:101A70001124229FC001239F900D900D1124860FE9
:101A8000971F0E943E0C682F660F860F682F600F0D
:101A90007D2F8C2FDF91CF910F9108950F931F937E
:101AA000522F10E0F801EE0FFF1FEC5BFE4FE5AD8B
:101AB000F0E0B0979F015203D001539FB00D112465
:101AC000000F111FF801E058FE4F008110E0005791
:101AD000110940039001419F300D11242A0F3B1F33
:101AE00037FF02C021583F4F220F232F221F330BF5
:101AF000620F1F910F9108950F931F93522F10E0C3
:101B0000F801EE0FFF1FEC5BFE4FE5ADF0E0B09784
:101B1000EE0FFF1F9F015203D001539FB00D112400
:101B2000000F111FF801E058FE4F008110E0005730
:101B30001109000F111F40039001419F300D112426
:101B40002A0F3B1F37FF02C021583F4F220F232F80
:101B5000221F330B620F1F910F9108950F931F9354
:101B600010E0F801EE0FFF1FE058FE4F90819057F4
:101B700097FD9195000F111FF801EC5BFE4FE5AD4D
:101B8000F0E0B097DF01AA0FBB1F8D010E0F1F1FE2
:101B90002003D001219FB00D1124E8E3F0E0E91B00
:101BA000F10997FDF3959F01220F331F89010E0F55
:101BB0001F1F40039001419F300D11242A0F3B1F2E
:101BC00037FF02C021583F4F220F232F221F330B14
:101BD000620F1F910F910895FC019B01009721F462
:101BE00077FF2BC080E80895AC0197FF04C044271D
:101BF0005527481B590BB901640F751F37FD0CC0E1
:101C0000241B350BC901A5E0880F991FAA95E1F7A0
:101C10000E94DD3080E20CC0CB0165E0880F991F87
:101C20006A95E1F7BA01621B730B0E94DD3080E612
:101C3000861BF7FF03C08195089580E00895FF9209
:101C40000F931F93CF93DF93F62E172FD82FC90131
:101C5000C72FC01BBA010E94EC0D982F990F890F56
:101C60007C2F781B719F712D11246F2D8D2FDF918B
:101C7000CF911F910F91FF900895FF920F931F93A3
:101C8000CF93DF93F62ED72F182FC901C12FC01B7A
:101C9000BA010E94EC0D982F990F890FC81B2C2FA9
:101CA000219F212D1124822F6F2D7D2FDF91CF9128
:101CB0001F910F91FF900895EF920F931F93CF9371
:101CC000DF93D62F172FC82FC9010E19070FBA019E
:101CD0000E94EC0D702F781B719F712D11246D2FB8
:101CE0008C2FDF91CF911F910F91EF900895EF927C
:101CF0000F931F93CF93DF93D62FC72F182FC901B0
:101D00000E19010FBA010E94EC0D081B202F219F14
:101D1000212D1124822F6D2F7C2FDF91CF911F91C8
:101D20000F91EF9008950F93CF93DF93D72FC82F84
:101D3000C901BA010E94EC0D682F600F7D2F8C2F16
:101D4000DF91CF910F910895EF920F93CF93DF938F
:101D5000D72FC82FC9010E19BA010E94EC0D602FB0
:101D6000681B7D2F8C2FDF91CF910F91EF900895FD
:101D700045E050E06CE170E087E894E00C94313489
:101D800045E050E06CE170E087E894E00C944F345B
:101D9000E7E8F4E085E380838091590290915A024C
:101DA000A0915B0281839283A3838FE784830C9449
:101DB000C00EE0913103F09132030994E0912D03BC
:101DC000F0912E0309944F925F926F927F928F92BF
:101DD0009F92AF92BF92CF92DF92EF920F931F9399
:101DE000CF93DF932C013B01FC01C0818CE0C89FA5
:101DF000C02D1124DCE0DC0FDD3308F0DCE3609162
:101E00008B04669580918C0490918D040E94340C13
:101E1000182FCD1708F044C08C2E912CF401E850F7
:101E2000FE4F9081F20181818923C1F1F401EE0F0F
:101E3000FF1FE058FE4FC080D12CF0E7CF1AD10829
:101E4000F401EE0FFF1FEC5BFE4FA5ACB12C80E25E
:101E5000A81AB108CC9C9001CD9C300D300D1124F6
:101E6000AA9CC001AB9C900D900D1124820F931F72
:101E70000E943E0C082F6091880470918904809123
:101E80008A04E12E9501A601F30109950E94A90B90
:101E9000462F282F672FC4010E94DE0ECF5FB9CFD7
:101EA00081E0DC3308F080E0DF91CF911F910F914A
:101EB000EF90DF90CF90BF90AF909F908F907F90EA
:101EC0006F905F904F9008956CE57EE00C94E30E68
:101ED00067E77EE00C94E30E66E17DE00C94E30E90
:101EE00064EA7EE00C94E30EAF92BF92CF92DF9251
:101EF000EF92FF920F931F93CF93DF936C015B01DF
:101F0000FC01C0818CE0C89FC02D1124DCE0DC0FF7
:101F1000DD3308F0DCE360918B04669580918C04DE
:101F200090918D040E94340C182FCD1778F5EC2E6B
:101F3000F12CF701E850FE4F9081F6018181892351
:101F400019F1F701EE0FFF1FEC5BFE4F25AD30E0FE
:101F500020523109F701EE0FFF1FE058FE4F40817C
:101F600050E0405751096091880470918904809134
:101F70008A04012FF50109950E94A90B462F282FED
:101F8000672FC7010E94DE0ECF5FCFCF81E0DC3329
:101F900008F080E0DF91CF911F910F91FF90EF90BB
:101FA000DF90CF90BF90AF9008956FE17EE00C94EA
:101FB000740F6DE37EE00C94740F65E27DE00C9489
:101FC000740F63E97EE00C94740FBF92CF92DF929E
:101FD000EF92FF920F931F93CF93DF938C017B01BE
:101FE000FC01C0818CE0C89FC02D1124DCE0DC0F17
:101FF000DD3308F0DCE360918B0466956695809193
:102000008C0490918D040E94340CB82ECD17F0F4FE
:10201000CC2ED12CF601E850FE4F9081F801818141
:10202000892391F0609188047091890480918A04D9
:102030002B2D4C2FF70109950E94A90B462F282F15
:10204000672FC6010E94DE0ECF5FE0CF81E0DC3358
:1020500008F080E0DF91CF911F910F91FF90EF90FA
:10206000DF90CF90BF90089560E97CE00C94E50F7D
:102070006BEB7CE00C94E50F67EE7CE00C94E50FD5
:1020800069EE7CE00C94E50F62EF7CE00C94E50FC8
:102090006BEF7CE00C94E50F7F928F929F92AF9252
:1020A000BF92CF92DF92EF92FF920F931F93CF9345
:1020B000DF936C015B01FC01C0818CE0C89FC02DE7
:1020C0001124DCE0DC0FDD3308F0DCE360918B04ED
:1020D0006695669580918C0490918D040E94340CD5
:1020E000182F80E4810F0E946F0C90E8F92EF80EF3
:1020F000812F0E946F0C20E8722E780ECD1700F50C
:102100008C2E912CF401E850FE4F9081F6018181D4
:102110008923A1F0609188047091890480918A04D8
:10212000E12E0C2F272D4F2DF50109950E94A90BAB
:10213000462F282F672FC4010E94DE0ECF5FDECF0F
:1021400081E0DC3308F080E0DF91CF911F910F91A7
:10215000FF90EF90DF90CF90BF90AF909F908F90C7
:102160007F9008956EE47DE00C944C106CE77DE068
:102170000C944C106EEA7DE00C944C10DF92EF92C0
:10218000FF920F931F93CF93DF938C01DC018C910F
:10219000CCE08C9FC02D1124DCE0DC0FDD3308F097
:1021A000DCE3609188047091890480918A040E9424
:1021B000A90BF62EE72ED82ECD1798F4EC2FF0E0D1
:1021C000DF01A850BE4F8C91D80111969C919823A5
:1021D00031F02D2D4F2D6E2DCF010E94DE0ECF5FE1
:1021E000EBCF81E0DC3308F080E0DF91CF911F91ED
:1021F0000F91FF90EF90DF900895AF92BF92CF9232
:10220000DF92EF92FF920F931F93CF93DF938C0196
:10221000FC01C0818CE0C89FC02D1124DCE0DC0FE4
:10222000DD3308F0DCE3E0908904F0908A04D0907C
:1022300088046D2D7E2D8F2D0E94A90BC62EB72EE2
:10224000A82E60918B046D0D7E2D8F2D0E94A90B01
:10225000F62EE72ED82ECD17B8F48C2F90E0FC0187
:10226000E850FE4F3081F8012181232359F030FFDF
:1022700004C02D2D4F2D6E2D03C02A2D4C2D6B2DFE
:102280000E94DE0ECF5FE7CF81E0DC3308F080E014
:10229000DF91CF911F910F91FF90EF90DF90CF9042
:1022A000BF90AF900895BF92CF92DF92EF92FF92CE
:1022B0000F931F93CF93DF936C01FC01C0818CE0DF
:1022C000C89FC02D1124DCE0DC0FDD3308F0DCE317
:1022D00000918904B0908A0420918B0410E4129F2D
:1022E000112D1124CD1718F5EC2EF12CF701E85023
:1022F000FE4F9081F60181818923B9F0F701EE0F3D
:10230000FF1FEC5BFE4F85AD82958F706091880456
:10231000819F600D1124702F8B2D0E94A90B462FD9
:10232000282F672FC7010E94DE0ECF5FDBCF81E031
:10233000DC3308F080E0DF91CF911F910F91FF9087
:10234000EF90DF90CF90BF900895BF92CF92DF9231
:10235000EF92FF920F931F93CF93DF937C01FC01C9
:10236000C0818CE0C89FC02D1124DCE0DC0FDD3380
:1023700008F0DCE3C0908904B0908A0420918B04BB
:1023800030E4D32E3D2D329F312D1124D32ECD1785
:1023900038F50C2F10E0F801E850FE4F9081F7015E
:1023A00081818923D9F0F801EE0FFF1FE058FE4F1D
:1023B0006081D69EB001112495E0759567959A9538
:1023C000E1F780918804680F7C2D8B2D0E94A90B6A
:1023D000462F282F672FC8010E94DE0ECF5FD7CF70
:1023E00081E0DC3308F080E0DF91CF911F910F9105
:1023F000FF90EF90DF90CF90BF900895DF92EF9223
:10240000FF920F931F93CF93DF938C01DC01CC914C
:102410008CE0C89FC02D1124DCE0DC0FDD3308F018
:10242000DCE3E0908804F0908904D0908A04609105
:102430008B0466956695669580918C0490918D04C9
:102440000E94340C0E946F0C805887FD8195880F84
:10245000282F3D2D239F212D1124822FB7010E946B
:10246000A90BF62EE72ED82ECD1798F4EC2FF0E01E
:10247000DF01A850BE4F8C91D80111969C919823F2
:1024800031F02D2D4F2D6E2DCF010E94DE0ECF5F2E
:10249000EBCF81E0DC3308F080E0DF91CF911F913A
:1024A0000F91FF90EF90DF900895DF92EF92FF92EF
:1024B0000F931F93CF93DF93EC01FC01E850FE4F85
:1024C0009081692381F1D090890400918A04109150
:1024D0008804E12EF12C0E944331282FC7018C542F
:1024E0009F4F68E671E00E94DD308E199F0997FDCD
:1024F000039695958795959587952370612F289FCD
:10250000600D11247D2D802F0E94A90B462F282FAE
:10251000672FCE01DF91CF911F910F91FF90EF9028
:10252000DF900C94DE0EDF91CF911F910F91FF9001
:10253000EF90DF900895CF92DF92FF920F931F9359
:10254000CF93DF938C01FC01C281C1111DC060914A
:102550008B0420E1620F08F46FEF80918C0490915E
:102560008D040E94340C6AE070E00E94C930892B0F
:1025700059F50E9443316CE370E00E94DD30F801B0
:1025800061810E94551220C0FC018081CCE08C9FAB
:10259000C02D11249CE0F92EFC0EFCE3FF1510F475
:1025A0008CE3F82ED0E0CF2CD12CCC15DD053CF4FB
:1025B000F8016181CE010E9455122196F6CFC1E04B
:1025C000FBE3FF1508F4C0E08C2FDF91CF911F9142
:1025D0000F91FF90DF90CF9008951F93CF93DF93DB
:1025E000FC01E850FE4F20816223A9F0EC010E941B
:1025F0004331182F0E944331612F782F80918A0434
:102600000E94A90B462F282F672FCE01DF91CF9173
:102610001F910C94DE0EDF91CF911F910895CF9200
:10262000DF92FF920F931F93CF93DF938C01FC01F6
:10263000C281C1111DC060918B0420E1620F08F4BA
:102640006FEF80918C0490918D040E94340C65E0B2
:1026500070E00E94C930892B59F50E9443316CE328
:1026600070E00E94DD30F80161810E94ED1220C00F
:10267000FC018081CCE08C9FC02D11249CE0F92EC0
:10268000FC0EFCE3FF1510F48CE3F82ED0E0CF2C09
:10269000D12CCC15DD053CF4F8016181CE010E94FE
:1026A000ED122196F6CFC1E0FBE3FF1508F4C0E080
:1026B0008C2FDF91CF911F910F91FF90DF90CF90E2
:1026C0000895E0912F03F0913003099481E008957B
:1026D00008950C9468130E9469130C946813CF93A7
:1026E0000E94D7296093870370938803809389039E
:1026F00090938A0330918704232F237021F0C32FF6
:10270000C695C69501C0C0E020913D022130A1F0E0
:1027100038F0223009F4C3C0233009F4CCC0DCC047
:1027200010923E0260938C0470938D0480938E040B
:1027300090938F0481E0BCC090914102C9130DC0F9
:10274000832F837090E04091420250E021E0841793
:10275000950709F420E0822F01C081E08170809309
:1027600040024C2F50E04931510508F086C0FA0173
:10277000EA5AFF4F0C94F130882309F47EC040E000
:1027800060E080E00E94611378C08EE392E00E94D6
:10279000BE1074C08EE392E00E94FD106FC08EE305
:1027A00092E00E9453116AC08EE392E00E94A5114C
:1027B00065C08EE392E00E94FE1160C08EE392E05D
:1027C0000E9434105BC08EE392E00E94381056C025
:1027D0008EE392E00E94D50F51C08EE392E00E94FA
:1027E000D90F4CC08EE392E00E94640F47C08EE385
:1027F00092E00E94680F42C08EE392E00E943C107B
:102800003DC08EE392E00E94401038C08EE392E01B
:102810000E94441033C08EE392E00E9448102EC004
:102820008EE392E00E946C0F29C08EE392E00E943A
:10283000DD0F24C08EE392E00E94E10F1FC08EE303
:1028400092E00E94700F1AC08EE392E00E94B210D4
:1028500015C08EE392E00E94B61010C08EE392E0A5
:102860000E94BA100BC08EE392E00E949B1206C039
:102870008EE392E00E940F1301C080E090913E022F
:102880009F5F90933E02811127C082E080933D02BA
:1028900080914002811120C0CC2349F01DC0C0931B
:1028A0004102832F8370809342020E94D90E83E0FD
:1028B00080933D0211C060918C0470918D048091D1
:1028C0008E0490918F040E94F22960317105810578
:1028D000910510F010923D02CF910C946B13E09192
:1028E0002B03F0912C0309950E944E28811104C0FE
:1028F0000E94EE280E94C80E0E94B80E80918704A4
:102900008C7F11F40C94C80E0895E7E8F4E09081F0
:1029100081E08927808310923D020C94C00E909133
:102920008704892F869586958F5F8F739370893181
:1029300020F4880F880F892B02C0892F8460809330
:10294000870410923D020C94C00E90918704892F49
:1029500086958695815C8F739370882321F0880F0C
:10296000880F892B02C0892F80668093870410927C
:102970003D020C94C00EE7E8F4E08181885F81831A
:102980000C94C00EE7E8F4E08181885081830C94B8
:10299000C00EE7E8F4E0228130E1230F08F42FEFC6
:1029A00022830C94C00EE7E8F4E0228130E1231B7F
:1029B00008F420E022830C94C00EE7E8F4E02381C1
:1029C00030E1230F08F42FEF23830C94C00EE7E8C7
:1029D000F4E0238130E1231B08F420E023830C94EE
:1029E000C00EE7E8F4E0248130E1230F08F42FEF74
:1029F00024830C94C00EE7E8F4E0248130E1231B2B
:102A000008F420E024830C94C00EE7E8F4E0880F7B
:102A1000880F90819370892B808310923D020C94D3
:102A2000C00E0895FC01EE0FFF1F8E0F9F1FFC01CB
:102A3000E057FB4F6183408322830895E0E9F4E08F
:102A400095E0E434F90729F081836083428333966B
:102A5000F7CF08956CE370E080E994E00C94921550
:102A6000882311F0FA0101C0FB0109941F93CF9351
:102A7000DF93FB011281111150C0EC010E94AA27C3
:102A80008272FE01E25CFC45E431F10520F4E1597B
:102A9000FF4F0C94F13011E040C00E9485143DC0FE
:102AA00045EA54E16FE874E104C04FE854E165EA97
:102AB00074E10E94301531C042EC54E16BEB74E1DB
:102AC000F8CF4BEB54E162EC74E1F3CF43ED54E10A
:102AD00069EC74E1EECF49EC54E163ED74E1E9CFC8
:102AE00047EE54E16DED74E1E4CF4DED54E167EE56
:102AF00074E1DFCF4BEF54E161EF74E1DACF41EFE6
:102B000054E16BEF74E1D5CF81E005C085E003C0EF
:102B10008DE001C082E10E940515812FDF91CF91E8
:102B20001F910895539A2BB1277F3BB138604FB75F
:102B3000F894FC01CB01880F991F680F791F6E0F65
:102B40007F1FE617F70789F0819198E03BB90000F5
:102B500000C087FF2BB9880F000000C000C000C074
:102B60002BB900C09A9591F7ECCF4FBF8FE594E059
:102B70000197F1F700C0000008950C94A806809119
:102B80003402882309F447C020914402A22FA29561
:102B9000AF70B0E091963C9191972F7081E090E0FA
:102BA000AC01022E01C0440F0A94EAF7542F50954D
:102BB000352391963C93919792963C919297432B13
:102BC00092964C93929740914302E42FE295EF70D6
:102BD000F0E031A14F70042E01C0880F0A94EAF78B
:102BE000982F9095932391A392A1892B82A39096DD
:102BF0008C9190E002C0959587952A95E2F78170B7
:102C000020A130E002C0359527954A95E2F720FDD6
:102C100009C090E008C084E98093440285EF809366
:102C20004302B2CF92E0892B8093900390913402BB
:102C300081E0982790938C03891B80938B030895E0
:102C4000CF93E09190035E2F550F550F20914402D2
:102C5000E22FE295EF70F0E080A190E02F7002C0CB
:102C6000959587952A95E2F78170992740914302BF
:102C7000E42FE295EF70F0E020A130E04F7002C049
:102C8000359527954A95E2F7F901E170FF2720FF76
:102C900002C0E2E0F0E0E82BF92BE52BE093900393
:102CA000C0918C03EF70F0E0ED5CFC4F908180915F
:102CB0008F03890F80938F0384306CF0EC2F0C2EE0
:102CC000000CFF0BE357FC4F80818F5F808360E037
:102CD0008C2F0E94BD1580918F038D3F6CF4EC2FDB
:102CE0000C2E000CFF0BE357FC4F8081815080833A
:102CF00061E08C2F0E94BD1580918F03837887FF40
:102D000003C081508C6F8F5F80938F03CF910895A4
:102D1000E0918C03F0E0E357FC4F2081FC0120831D
:102D20000895FF920F931F93CF93DF93D0918B035E
:102D30000D2F10E003571C4FFC01C081F80180816A
:102D4000C81BFC2E1F1454F4FA94F80180818F5F85
:102D5000808360E08D2F0E94BD15F4CF8C2FC7FDBE
:102D600080E0C81BCC2351F0CF5FF80180818150F7
:102D7000808361E08D2F0E94BD15F4CFDF91CF914C
:102D80001F910F91FF900895EF92FF920F931F9361
:102D9000CF93DF93EC017B0164E670E088E70E944B
:102DA000BB1B8C01EC0EFD1ECE15DF0561F017FD7F
:102DB0000AC0FE01849164E670E00E94121C8C013E
:102DC0002196892B89F30E94961CC801DF91CF912F
:102DD0001F910F91FF90EF900895E4E4F5E080E0FB
:102DE00092E0DF019C011D9221503040E1F7F09309
:102DF0004907E09348078FEF9FEF9093BD038093BF
:102E0000BC0308950E94BE068093B80380FD02C0F3
:102E100080E801C080E28093B7030E94B51B6DE09B
:102E200070E08DEB94E00E94C416892B11F080E0D5
:102E300008958091B80363E070E081FD03C08AEBE0
:102E400094E002C087EB94E00E94C416892B79F7C6
:102E50006DE070E08AEA94E00E94C416892B39F78D
:102E60000E94D729DC01CB01805A9541AF4FBF4F5B
:102E70008093440790934507A0934607B093470774
:102E80000E94ED1681E08093BB038093BA031092F9
:102E9000B90308952091B70336E0839FC001112440
:102EA000629F800D911D1124811522E0920714F07C
:102EB00080E090E08C5B9A4F90934907809348079D
:102EC000089520914807309149072E53354040918D
:102ED000B703642F70E0C9010E94C930481B463017
:102EE00010F4240F311D211582E0380710F020E086
:102EF00030E02C5B3A4F3093490720934807089500
:102F0000CF93DF938A3011F481E003C08D3029F430
:102F100080E0DF91CF910C94F617C62F682F809137
:102F200048079091490726E0FC01A1E9B3E0019030
:102F30000D922A95E1F7603E30F026E0FC011192F7
:102F40002A95E9F70AC0F6E06F9FB0011124665395
:102F50007B4F46E050E00E945331C11135C0C09113
:102F60004807D091490746E050E0BE0181E993E06F
:102F70000E945C31892BB1F1C454D5409E0185E09B
:102F8000369527958A95E1F781E090E0AC0102C083
:102F9000440F551F2A95E2F72091BC033091BD03E1
:102FA000242B352B269645E0D695C7954A95E1F713
:102FB00002C0880F991FCA95E2F7822B932B90933A
:102FC000BD038093BC030EC0E0914807F091490710
:102FD0009F012A5F3F4F2E173F0709F2808180959E
:102FE0008193F9CFDF91CF910C946117CF93E82FA4
:102FF0002091480730914907245435404091B70348
:10300000642F70E0C9010E94C930481B842FEE2351
:1030100059F066E00E94BD30C82FC150B0F060E0AA
:1030200080E20E948017F9CFA901480F511D411578
:10303000524018F080E020E030E0280F311D2C5B7A
:103040003A4F3093490720934807CF910895FF9254
:103050000F931F93CF93DF93EC01F62EFC010190A9
:103060000020E9F78F0101501109C017D10728F49A
:103070006F2D89910E948017F8CFDF91CF911F911A
:103080000F91FF9008950E94271881E00C94F61785
:103090000E94D729DC01CB01805A9541AF4FBF4F29
:1030A0008093440790934507A0934607B093470742
:1030B0008091BA0381110BC062E070E088EA94E06D
:1030C0000E94C416892B19F481E08093BA03809181
:1030D000BA0308956F927F928F929F92AF92BF92A0
:1030E000CF92DF92EF92FF920F931F93CF93DF93D4
:1030F0002091BC033091BD032115310509F4D4C0E2
:103100008091B9038111D0C061E070E0082F10E018
:103110003B01082E02C0660C771C0A94E2F7A3015B
:1031200042235323452B11F48F5FF0CF9091B803C6
:10313000980165E0220F331F6A95E1F790FD12C0F8
:103140008295880F807680934702220F232F221FBB
:10315000330B319520934A02815E8093480210928E
:103160004B0212C045E0369527954A95E1F7220FAC
:10317000220F220F2093470210924A02295F2093C8
:10318000480283E080934B0224E630E047E050E0C1
:1031900065E472E088E70E94421C892B09F084C034
:1031A0008091B80380FD23C0A80195E0440F551F0E
:1031B0009A95E1F74C5B5A4F04E610E020E230E0CC
:1031C00060E488E70E94691C892B09F06DC00E94A9
:1031D0004818E301C095D0958091BC039091BD0340
:1031E000C823D923D093BD03C093BC035DC080E244
:1031F000E7E9F3E0DF011D928A95E9F785E0000F2A
:10320000111F8A95E1F7A7E4B3E043E453E0992462
:1032100093942D91EA018991AE01B801680F711D57
:103220006C5B7A4F30E029563C4FF90197E07F0103
:10323000E21AF30AA92C01C0AA0CEA94EAF77B016E
:10324000B12CE70189917E018A21892E8B18D82D16
:10325000D770CD2E0D2E000CDD08C82F01C0CC0F6D
:10326000DA95EAF7D194C194D108D7E0CD22DD24D4
:1032700001C08695CA94EAF78C2BD0808D29808373
:10328000B39488E0B812DDCF915031969F3F79F624
:10329000C3E0AB34BC0709F0BCCF04E610E020E289
:1032A00030E047E953E08CCFDF91CF911F910F9130
:1032B000FF90EF90DF90CF90BF90AF909F908F9056
:1032C0007F906F9008958091BA03882369F062E03F
:1032D00070E086EA94E00E94C416892B19F0809170
:1032E000BA0308951092BA039091BA0381E0892736
:1032F00008950F931F938091BB03882311F160E021
:1033000080E00E944A170E94C9060E946A188091B4
:10331000BA038823B1F00E94D72900914407109185
:1033200045072091460730914707DC01CB01801B00
:10333000910BA20BB30BB7FD04C01F910F910C941E
:1033400063191F910F9108950F931F93CF93DF93EC
:10335000C62FD42F122FFC0182818823C9F06093DD
:10336000C0030E94CB299093BF038093BE0380E2E9
:103370008C0F883008F057C0C77081E001C0880FFB
:10338000CA95EAF7DF91CF911F910F910C9413200A
:103390008091C003681330C08091BE039091BF0339
:1033A0000E94E3298436910538F500E20D0FCD1710
:1033B000B9F080E28C0F883040F4C77081E001C022
:1033C000880FCA95EAF70E941A20083028F581E094
:1033D0009D2F977001C0880F9A95EAF70E941320DD
:1033E000812F0E9400200830F0F4D77081E001C0E6
:1033F000880FDA95EAF70AC080E28C0F883098F4DB
:10340000C77081E001C0880FCA95EAF7DF91CF91BC
:103410001F910F910C941A20812FDF91CF911F9152
:103420000F910C940020DF91CF911F910F9108957F
:103430009C01CB01233F4CE53407F9F078F4283D9B
:10344000FCE53F07B9F0293D4CE5340711F1273D74
:103450003C4531F526E241EE61EE1EC0253FFCE51C
:103460003F0799F070F0263F3C45D1F427E245EE46
:1034700066EE12C027E245EE0EC026E241EE60EE97
:103480000BC027E245EE64EE07C026E241EE62EE95
:1034900003C028E241E065EE0E94A41980E008958F
:1034A000FC018281882319F01092C003089581E005
:1034B0000895CF93DF93EC01FB018281882309F407
:1034C0001FC1C230FCE5DF0708F41BC1C6319CE513
:1034D000D90738F09E012A5F3C452930310508F0B4
:1034E00010C10E94612890934F0780934E07C0310E
:1034F000ECE5DE0709F4C3C008F041C0C8308CE534
:10350000D80709F49AC0F0F4C430ECE5DE0709F4FA
:1035100087C068F4C2308CE5D80709F477C0C3309F
:10352000DC4509F0E3C080914E07826076C0C6306A
:10353000ECE5DE0709F46EC008F07BC080914E0711
:1035400088606BC0CC308CE5D80709F485C068F47E
:10355000CA30ECE5DE0709F474C008F079C00E94B7
:10356000732280914E07806858C0CE308CE5D80712
:1035700009F476C008F07FC080914E078BC0CB3F26
:10358000ECE5DE0709F44FC018F5C3318CE5D80728
:1035900009F47DC078F4C131ECE5DE0709F473C0AD
:1035A000C231DC4509F0A2C00E94732280914E070F
:1035B0008F7733C0C5318CE5D80709F472C008F4A1
:1035C00086C0CA3FDC4509F091C080914F073EC0DC
:1035D000CF3FFCE5DF0709F45FC058F4CD3F9CE521
:1035E000D90709F444C008F43FC080914F078260B6
:1035F0002DC0C130FDE5DF0709F475C008F45DC0DA
:10360000C230DD4509F072C080E06EC080914E0787
:10361000816003C080914E07806180934E0766C031
:1036200080914E0711C080914F07826080934F07B1
:103630005DC080914E078062F0CF80914E0780641C
:10364000ECCF80914E0788608460E7CF8160EECF39
:1036500080914E078E7FE1CF80914E078D7FDDCF29
:1036600080914E07877FD9CF80914F0718C08091F6
:103670004F078D7FDBCF80914E078F7ECECF80911D
:103680004E078F7DCACF80914E078F7BC6CF80912A
:103690004E07877F8B7FC1CF80914F078D7F8E7FB5
:1036A000C5CF80914E0782FB222720F991E0922717
:1036B00090FB82F990FB83F9B0CF80914F07982F50
:1036C000909591708E7F892B90FB81F9AFCF0E94EE
:1036D000732280914E0787FB222720F991E09227E1
:1036E00090FB87F99ACF81E00E94F02880914E07E5
:1036F00090914F070E9472280E94732280E001C0BF
:1037000081E0DF91CF910895CF93DF9386319C457F
:1037100041F5EB010E94AA27982F8A8120914C0243
:1037200030914D02882379F09A7A81E009F480E0A3
:103730008093C103911102C069E201C065E3C90130
:103740000E9437290AC08091C103811102C069E239
:1037500001C065E3C9010E9439290E94EB2780E07E
:1037600001C081E0DF91CF9108951092B9008CE003
:103770008093B8000895EF92FF920F931F93CF9319
:10378000DF93182FEB011092BC0084EA8093BC00F9
:103790000E94CB297C018091BC0087FD0EC0CF3FE9
:1037A0008FEFD807C1F30E94CB298E199F098C1780
:1037B0009D0788F38EEF9FEF2EC08091B900887F20
:1037C000883041F08091B900887F803119F08FEF07
:1037D0009FEF21C01093BB0084E88093BC000E943F
:1037E000CB298C018091BC0087FD0CC0CF3F8FEFAF
:1037F000D807C1F30E94CB29801B910B8C179D0722
:1038000088F3D8CF8091B900887F883111F0803457
:10381000F1F680E090E0DF91CF911F910F91FF9042
:10382000EF9008950F931F93CF93DF93EB01809355
:10383000BB0084E88093BC000E94CB298C0180915E
:10384000BC0087FD0EC0CF3F8FEFD807C1F30E94A9
:10385000CB29801B910B8C179D0788F38EEF9FEF70
:103860000CC02091B900287F81E090E0283211F44B
:1038700080E090E0919581959109DF91CF911F9122
:103880000F910895CF92DF92EF92FF920F931F93C3
:10389000CF93DF936B018A017901B9010E94BB1BB1
:1038A000E6010C0D1D1DC017D10761F424E920931A
:1038B000BC00DF91CF911F910F91FF90EF90DF90AF
:1038C000CF90089597FDF2CFB70189910E94121C05
:1038D000EACFCF92DF92EF92FF920F931F93CF9395
:1038E000DF93C62F6A017901B8010E94BB1B97FDC7
:1038F00011C0B8018C2F0E94121CE601EC0CFD1CBB
:10390000CE15DF0539F097FD05C0B80189910E94F9
:10391000121CF6CF24E92093BC00DF91CF911F91B8
:103920000F91FF90EF90DF90CF90089584E98093FE
:10393000BC0008958EE14A9B02C08150E1F74A9B8A
:10394000FECF08955A9880E28A95F1F75A9A089521
:10395000FC012AE02A95F1F790E020E080E031E0D8
:10396000261779F040E14A95F1F7880F4A9B02C08B
:103970008160932700C0000040E14A95F1F72F5F76
:10398000EFCF20E12A95F1F729B100C0000030E126
:103990003A95F1F722FB222720F992272081920FF6
:1039A00090830895EF92FF920F931F93CF93DF932D
:1039B0001F92CDB7DEB719828C017C01E60EF11C97
:1039C0000E151F0559F00E949A1C68E0CE01019661
:1039D0000E94A81CF80181938F01F2CF81E09981A8
:1039E000911180E00F90DF91CF911F910F91FF9087
:1039F000EF9008959093C4038093C3036093C20330
:103A0000529A5A9A08959093C4038093C303609383
:103A1000C20352985A9AEA9AE9E6F0E080818F7CD4
:103A200080830895615091E001C0990F6A95EAF78B
:103A300020E031E0992361F0492F482319F05A9A88
:103A4000232701C05A9840E24A95F1F79695F2CFA4
:103A5000222311F05A9A01C05A9880E28A95F1F710
:103A60005A980895FF920F931F93CF93DF93EC0121
:103A70008C01060F111DC017D10741F0F9900E946B
:103A8000A21C68E08F2D0E94121DF5CFDF91CF910F
:103A90001F910F91FF9008951F920F920FB60F92F2
:103AA00011240F931F932F933F934F935F936F9323
:103AB0007F938F939F93AF93BF93EF93FF93CF9396
:103AC000DF931F92CDB7DEB719820E949A1C67E080
:103AD000CE0101960E94A81C382F36953695369552
:103AE000932F96959570232F2570920F292F237071
:103AF000969596958770920F891348C08981811198
:103B000045C08091C203831708F440C080E18A95C4
:103B1000F1F75A9A529AA2E0AA95F1F700C00091E3
:103B2000C3031091C403B8E03B9F000D111D112485
:103B30005A98F8016581662321F0868197810E9459
:103B4000321D0E94A21CF0E1FA95F1F75A985298A2
:103B50005A9A80E18A95F1F7D80112966C911297E2
:103B6000662369F013968D919C9114970E94D21C44
:103B7000D801ED91FC91811105C082E004C0D8010B
:103B8000ED91FC9188E080830E949A1C0F90DF9158
:103B9000CF91FF91EF91BF91AF919F918F917F91C5
:103BA0006F915F914F913F912F911F910F910F90C6
:103BB0000FBE0F901F9018950F931F93CF93DF9315
:103BC0002091C20330E0281739070CF471C09C0122
:103BD00093E0220F331F9A95E1F7C091C303D09170
:103BE000C403C20FD31FF894529A5A9845E04A95DD
:103BF000F1F70000982F969595708570890F982F92
:103C0000937086958695890F8901082B0E94A21CC6
:103C100084E08A95F1F700C067E0802F0E94121DB2
:103C200040E14A95F1F752985A9A4A9902C000C069
:103C3000FCCF87E090E04A9B0EC0019751F4529A66
:103C40005A9AE881F98181E08083789481E090E05C
:103C500031C000C0F0CF6D81662381F08E819F81DD
:103C60000E94D21C81110AC0529A5A9AE881F981A5
:103C700082E08083789482E090E01CC00E949A1CCD
:103C800080E28A95F1F75A98529A40E14A95F1F705
:103C90006A81662321F08B819C810E94321D0E94E3
:103CA000A21CE881F9811082789480E090E002C043
:103CB00084E090E0DF91CF911F910F910895909350
:103CC000CA038093C9030895E091C903F091CA0320
:103CD000309721F00190F081E02D099480E0089563
:103CE000E091C903F091CA03309721F00280F3817B
:103CF000E02D099408952091C7033091C803281737
:103D0000390771F09093C8038093C703E091C9030A
:103D1000F091CA03309721F00680F781E02D0994D5
:103D200008952091C5033091C6032817390771F013
:103D30009093C6038093C503E091C903F091CA0331
:103D4000309721F00084F185E02D0994089585B71E
:103D5000806885BF85B7806885BF089508950C94F5
:103D6000AE1E0C94AF1E0C94AE1E0C94AE1E0E94A0
:103D7000A71E0E94B31E0C94B11E0C943A0B0E9415
:103D8000C2290E94E90980E00E9402170E94452A88
:103D90000E94BF150C94B51E9F92AF92BF92CF9216
:103DA000DF92EF92FF920F931F93CF93DF93CDB7E4
:103DB000DEB72A970FB6F894DEBF0FBECDBF0E94C4
:103DC0007A0AC82E0E94BD1E811111C08FEF89830F
:103DD0008A831B820E94CB298160782F9D838C83EC
:103DE00049815A816B818D810E946D1F40C08CEC8E
:103DF000A82E83E0B82E00E010E0902E802F0E94C5
:103E0000D609E82EF501D1905F01D82631F40F5F75
:103E10001F4F0A30110589F7D9CF80914C0481FDDD
:103E20000E94DC0980E0FF24F3949D2D9F21D1F0B6
:103E30008E839F82EF2081E009F480E088870E94D2
:103E4000CB298160782F9A8789874E815F81688529
:103E50008A850E946D1FF801E453FC4F8081F8268B
:103E6000F08205C08F5FFF0C8630F9F6D0CF0E943C
:103E700020160E947919C1100E9448180E94641EE1
:103E80009091CB038917B9F00E94641E8093CB03F5
:103E90002A960FB6F894DEBF0FBECDBFDF91CF914B
:103EA0001F910F91FF90EF90DF90CF90BF90AF9058
:103EB0009F900C94AC072A960FB6F894DEBF0FBE05
:103EC000CDBFDF91CF911F910F91FF90EF90DF90C9
:103ED000CF90BF90AF909F900895CF93DF93CDB7D1
:103EE000DEB72B970FB6F894DEBF0FBECDBF4F8362
:103EF000588769877A878B87DE01119686E0FD01F6
:103F000011928A95E9F785E0FE01379601900D92AE
:103F10008A95E1F749815A816B817C818D819E81EF
:103F20000E9412252B960FB6F894DEBF0FBECDBFB0
:103F3000DF91CF910895FC01808191810E946B27D0
:103F40000895CF93882371F1C82F8CEF8C0F813A9D
:103F5000D0F46C2F80914C0290914D020E94012967
:103F6000882349F06C2F80914C0290914D020E9461
:103F700039290E94EB276C2F80914C0290914D02C1
:103F80000E9437290CC080E28C0F883058F4C7702B
:103F900081E001C0880FCA95EAF70E94AD27CF9152
:103FA0000C94EB27CF910895882349F1682F8CEF6B
:103FB000860F813A38F480914C0290914D020E9414
:103FC00039290CC080E2860F883050F4677081E098
:103FD00001C0880F6A95EAF70E94B3270C94EB277B
:103FE0008BE5860F833020F480E090E00C947B1EFC
:103FF000685A673120F480E090E00C94911E089597
:10400000CF93C82F0E94A11FC93349F42FEF87EE29
:1040100093E0215080409040E1F700C000008C2FD9
:10402000CF910C94D41F882321F00E94AD270C94CB
:10403000EB270895882321F00E94B3270C94EB27E7
:104040000895CF92DF92EF92FF920F931F93CF9339
:10405000DF937C01D62FC72FFC01158112951F70AD
:10406000028101110E94CA270E94A327882399F088
:10407000002389F08C2F807F803421F080E28D0F27
:10408000883048F082E00E9435280E94A32791E002
:10409000D82ED92601C0D12CCC2EC2948FE0C822B4
:1040A0008C2D90E08C30910508F08DC1FC01ED570E
:1040B000FF4F0C94F1308C2F807FCF70882311F04C
:1040C000C295C07F002399F0CC2309F468C180E237
:1040D0008D0F883010F0D11104C08C2F0E94AD27B5
:1040E00003C08C2F0E94BD270E94EB2758C18D2F43
:1040F0000E94D41FCC2309F466C180E28D0F883062
:1041000010F0D11104C08C2F0E94B32703C08C2F54
:104110000E94C3270E94EB2756C18C2F807FCF704F
:10412000803211F0C295C07FDD2319F0D130C9F083
:1041300022C0002371F0112341F0113031F40E94AC
:10414000D0278C2B0E94D8273EC10E94D0278C2BD1
:104150001DC0112319F0113009F435C10E94E12767
:1041600025C0002321F0163008F02DC10EC01530F7
:1041700008F029C11BC0002361F0112331F0F701C1
:10418000858180FF0CC18F7085838C2F0E94132046
:104190001AC1112359F0D93309F012C1FFEF07EE0C
:1041A00013E0F15000401040E1F708C18C2F0E944D
:1041B0001A2009C18C2F837009F047C0011107C173
:1041C0002D2F229526952770220F220F6D2F6F70AD
:1041D000862F90E0A0E0B0E0022E04C0880F991F67
:1041E000AA1FBB1F0A94D2F7D4FF10C04FE050E0C3
:1041F00060E070E004C0440F551F661F771F2A95CA
:10420000D2F7409550956095709503C040E050E01E
:10421000BA01C695C695C3708A019B01082B192B5C
:104220002A2B3B2BC901B801C23049F058F4C130E8
:1042300019F00E94E625CBC00E94D425C8C00E9478
:10424000F825C5C00E94D225C2C0002319F08C2FCA
:10425000817001C08695882309F4B9C02D2F22955D
:1042600026952770220F220F6D2F6F70862F90E0FA
:10427000A0E0B0E0022E04C0880F991FAA1FBB1F48
:104280000A94D2F7D4FF10C04FE050E060E070E035
:1042900004C0440F551F661F771F2A95D2F740951B
:1042A00050956095709503C040E050E0BA01C69506
:1042B000C695C3708A019B01082B192B2A2B3B2B17
:1042C000C901B801C23049F058F4C13019F00E9458
:1042D000AB267DC00E9499267AC00E94BD2677C079
:1042E0000E940C2674C0CF70002339F08C2F0E94DE
:1042F00032268D2F0E9413206AC08D2F0E941A2013
:104300008C2F0E94532663C0D23F01F128F4D03F86
:1043100041F0D13FA1F03FC0D33FF9F0D43F39F194
:104320003AC0002341F0153008F04DC08C2F8F713A
:104330000E94782648C0163008F045C0F7CF002309
:1043400039F08C2F8F710E9432263DC00023C9F3B3
:104350008C2F8F710E94532636C0002329F08C2F9A
:104360008F710E941D262FC00E9418262CC000238A
:1043700049F0CF718C2F0E94322663E08C2F0E946F
:10438000202821C081E00E9435281230E0F082E030
:104390000E94352818C0002331F0112391F28D2F8F
:1043A0000E94A11F10C0112399F2D93349F41FEFC5
:1043B00027EE33E0115020403040E1F700C000000C
:1043C0008D2F0E94D41F88EF8C0D843020F40E9422
:1043D000641E0E94AC07DD20C9F00E949F2780FD6B
:1043E00015C0F70112820E9499270E943226C70148
:1043F0000E9427220E949927DF91CF911F910F9150
:10440000FF90EF90DF90CF900C945326DF91CF91E7
:104410001F910F91FF90EF90DF90CF9008950F9331
:104420001F93CF93DF93EC01688179818A810E9489
:1044300076278C010E94CF260E94C025B801CE01AC
:104440000E942120DF91CF911F910F910895CF936A
:10445000DF93EC01988189812B813C81232B31F002
:104460008F3F31F481E09F3F19F403C081E001C028
:1044700080E080FD19C0CE010E94C50781110CC0EB
:104480000E94A327882381F08A81882369F082E033
:10449000DF91CF910C943528CE010E940F22CE01DE
:1044A000DF91CF910C948C07DF91CF9108958823F1
:1044B00021F00E94BD270C94EB270895882321F05A
:1044C0000E94C3270C94EB2708950E94CA270E94DC
:1044D000CD270C94EB2780914C0290914D020E94C5
:1044E0003B290C9465220E94BA270C946B22E92F79
:1044F000E295EF704E2F50E0FA013297EE30F10561
:10450000B0F4E157FF4F0C94F130803F91F018F474
:10451000883E68F40EC0843F51F40BC0883E48F0DA
:10452000813F29F406C093FB882780F9089580E035
:10453000089581E008950E946B270E9477220895D4
:10454000CF93DF9300D000D01F92CDB7DEB70F908E
:104550000F900F900F900F90DF91CF910895CF9310
:10456000DF9300D000D000D0CDB7DEB726960FB6CF
:10457000F894DEBF0FBECDBFDF91CF9108951F939A
:10458000CF93DF93C091D70316E08091D803C8176B
:1045900099F0D0E01C9FF0011D9FF00D1124E7520F
:1045A000FC4F4081518162817381848195810E9499
:1045B000AF222196C770E9CFDF91CF911F91089567
:1045C0004091090450910A0460910B0470910C040D
:1045D00080910D0490910E040C94AF220F931F93C1
:1045E000CF93DF9380910E0482958F7009F05DC0A8
:1045F00080910B04882309F458C08091D70310914F
:10460000D8036091090470910A04C0910C04D09100
:104610000D0491E06F3F09F090E0292F06E081172B
:1046200009F443C0209721F07F3F21F030E003C020
:1046300031E001C0322F90E030FD34C0089FF0011E
:10464000099FF00D1124DF01A752BC4F11963C9138
:104650001197371327C03C91361324C012963C9112
:10466000129731111FC013964D915C9114974C1BFA
:104670005D0B44365105B0F480910E048F7080615B
:1046800080930E04E252FC4F80818F7080618083A2
:1046900089E094E00E942722DF91CF911F910F9132
:1046A0000C94BF2201968770BACFDF91CF911F91F2
:1046B0000F9108959F92AF92BF92CF92DF92EF92A7
:1046C000FF920F931F93CF93DF93CDB7DEB7619720
:1046D0000FB6F894DEBF0FBECDBF8C0185E0F801A8
:1046E000DE011D9601900D928A95E1F7F801408157
:1046F0005181E2809091090460910A0420910C0498
:1047000030910D042115310531F06F3F31F481E016
:104710009F3F19F403C081E001C080E0F82FF170E1
:104720009F2E80FD2CC1F801A380B48089E0C82EA3
:1047300084E0D82EF0900B04F501E21BF30BFF2070
:1047400009F4EBC080910E04E436F10508F0A7C02F
:10475000282F207F09F052C0561313C0491311C0EF
:10476000FE2CE1100EC08F70806180930E040E94B9
:10477000E022C6010E94272280910E04F801858361
:104780003EC1AB2831F05F3F31F481E04F3F19F477
:1047900003C081E001C080E080FD03C081E08E2580
:1047A00002C080E090E0F82FF170FF2E80FF1CC067
:1047B0008091D7032091D80336E0821709F4FDC019
:1047C00090E0389FF001399FF00D1124E752FC4F23
:1047D0006181561306C06081461303C06281E612F0
:1047E00003C001968770E9CFFE2CEE2009F407C1C3
:1047F00080910E04816080930E0466C0561312C02F
:10480000491310C0E1100EC0F8018583C8010E9451
:10481000272286E0F801A9E0B4E001900D928A9584
:10482000E1F7C8C04D875E878D859E850E949B22DB
:10483000882379F1EE2069F120910E04822F829570
:104840008F7090E0029774F08091090490910A04AF
:1048500098878F831986BB86AA862C87CE010796F8
:104860000E94272286E0F801A9E0B4E001900D92B1
:104870008A95E1F70E94EE220E94E0220DC05617B1
:1048800029F14D875E878D859E850E949B2281112F
:104890002CC0C8010E942722FF24F394B0C0282F07
:1048A000207F69F77A2DB98AA88A6E2D89890E949E
:1048B000A02289E094E00E94272286E0F60111926E
:1048C0008A95E9F70E94E022F12C99C04913D9CFCB
:1048D000E110D7CFF8018583C8010E94272286E026
:1048E000F60111928A95E9F78AC0EE2091F22091A3
:1048F0000E04822F82958F7090E002970CF4B2CF55
:104900008091090490910A049A8389831B82BD8255
:10491000AC822E83CE010196A3CFE436F10510F5CB
:10492000FE2CEE2009F4B5CF56130BC0491309C075
:1049300086E0F801A9E0B4E001900D928A95E1F7D4
:104940005EC04D875E878D859E850E949B2281116A
:1049500089CF80910E04816080930E04C8010E946B
:1049600027224DC07A2DB98AA88A6E2D89890E9486
:10497000A02286E0F60111928A95E9F71BC0EE208D
:1049800009F487CF4D875E878D859E850E949B2287
:10499000F82E882309F47DCF86E0F801A9E0B4E081
:1049A00001900D928A95E1F789E094E00E949B1FA7
:1049B0000E94EE220E94E02222C04D875E878D85F4
:1049C0009E850E946B27292F22952F70223028F474
:1049D0009F7039F0811105C00BC0243028F49F70FE
:1049E00049F4805E883020F0C8010E9427229F2C65
:1049F000F92C05C0F8019581907F99F7F9CF8F2D9B
:104A000061960FB6F894DEBF0FBECDBFDF91CF9198
:104A10001F910F91FF90EF90DF90CF90BF90AF90DC
:104A20009F9008951F93CF93DF93CDB7DEB72C9758
:104A30000FB6F894DEBF0FBECDBF4F83588769878E
:104A40007A878B879C87CE0107960E945A238823FA
:104A5000D1F09F8188852A853B85232B31F08F3FBC
:104A600031F481E09F3F19F403C081E001C080E090
:104A700080FD47C04F81588569857A858B859C85E7
:104A80000E94AF223EC086E0FE013796DE011196FD
:104A900001900D928A95E1F7FF81E8856A857B8513
:104AA0006115710531F0EF3F31F481E0FF3F19F4FA
:104AB00003C081E001C080E080FD23C02091D803C5
:104AC00030E0C9010196877099274091D70350E0E3
:104AD00084179507F1F1F983EA837D836C8396E06F
:104AE000929FD001939FB00D1124A752BC4FFE019D
:104AF000319601900D929A95E1F78093D8030E9428
:104B0000BF2216E08091D7039091D803891771F1E5
:104B1000189FC001112487529C4F0E945A2388235A
:104B200029F1E091D7031E9FF0011124E752FC4FB9
:104B30004081518162817381848195810E94AF227D
:104B40008091D70390E00196877099278093D703CF
:104B5000D9CF0E9473221092D8031092D703E9E0B4
:104B6000F4E086E0DF011D928A95E9F72C960FB6F6
:104B7000F894DEBF0FBECDBFDF91CF911F91089596
:104B8000089508950C94C1250C94C2250E94C42553
:104B900060933B0470933C0480933D0490933E04E7
:104BA0000C9465220C94C6250F931F9300913B042F
:104BB00010913C0420913D0430913E04602B712BF8
:104BC000822B932B1F910F910C94C6250F931F934B
:104BD00000913B0410913C0420913D0430913E042F
:104BE00060237123822393231F910F910C94C62578
:104BF0000F931F9300913B0410913C0420913D04BE
:104C000030913E0460277127822793271F910F91CF
:104C10000C94C6250C94C1250E940A266093370483
:104C2000709338048093390490933A040C9465226D
:104C300060E070E0CB010C940C260F931F9341E0D1
:104C400050E060E070E08A019B0104C0000F111F7A
:104C5000221F331F8A95D2F7C901B8011F910F9106
:104C60000C940C260F931F9341E050E060E070E03D
:104C700004C0440F551F661F771F8A95D2F7809195
:104C8000370490913804A0913904B0913A048A0114
:104C90009B01082B192B2A2B3B2BC901B8011F9113
:104CA0000F910C940C260F931F9341E050E060E0AD
:104CB00070E004C0440F551F661F771F8A95D2F716
:104CC0004095509560957095809137049091380487
:104CD000A0913904B0913A048A019B010823192359
:104CE0002A233B23C901B8011F910F910C940C2674
:104CF0000F931F9341E050E060E070E004C0440F68
:104D0000551F661F771F8A95D2F7809137049091BF
:104D10003804A0913904B0913A048A019B01082714
:104D200019272A273B27C901B8011F910F910C941D
:104D30000C260F931F930091370410913804209193
:104D4000390430913A04602B712B822B932B1F91E5
:104D50000F910C940C260F931F9300913704109120
:104D600038042091390430913A046023712382235E
:104D700093231F910F910C940C260F931F93009176
:104D80003704109138042091390430913A04602797
:104D90007127822793271F910F910C940C26089559
:104DA000292F220F920F990F890FE82FE695E6958C
:104DB000E695877051E001C0550F8A95EAF785E0C6
:104DC000E89FF0011124E15FFB4F20E030E070E04C
:104DD0004081CB01022E02C0969587950A94E2F796
:104DE0008170819584278523842781932F5F3F4F8E
:104DF0002530310569F70895292F220F920F990F59
:104E0000890F682F669566956695982F977085E04F
:104E1000689FB001112440E050E080E0FB01E40F06
:104E2000F51FE15FFB4F208130E0092E02C036956F
:104E300027950A94E2F721703327042E01C0220F30
:104E40000A94EAF7822B4F5F5F4F4530510531F7E7
:104E50000895BF92CF92DF92EF92FF920F931F932C
:104E6000CF93DF938C01C0903704D0903804E0904A
:104E70003904F0903A0480913B0490913C04A09155
:104E80003D04B0913E04C82AD92AEA2AFB2ACFE180
:104E9000D0E0D701C6010C2E04C0B695A795979512
:104EA00087950A94D2F780FD04C0219790F7B12C22
:104EB00007C0BC2EB8018C2F0E9421080197A9F3CE
:104EC0008B2DDF91CF911F910F91FF90EF90DF908D
:104ED000CF90BF900895CF93DF93EC010E942927D4
:104EE000BE010E942108DF91CF9108951F93CF93B7
:104EF000DF93EB019091D603992321F0CB010E941F
:104F00006B2713C0882349F0CB010E942927182F53
:104F1000682FCE010E94D02604C0CB010E94FC263F
:104F2000182FBE01812F0E942108DF91CF911F9180
:104F3000089580913F048595859585950895809184
:104F40003F048770089590913F04977081E009F4C1
:104F500080E0089580914B04089590914B04892B33
:104F600080934B040895809590914B0489238093FE
:104F70004B04089510924B04089590914A04892B94
:104F800080934A040895809590914A0489238093E0
:104F90004A04089510924A0408951092490408950D
:104FA00080914004089508950C94D3270C94D4273D
:104FB00090914004981721F0809340040C94D627D8
:104FC000089580914004882329F01092400480E0E5
:104FD0000C94D6270895E0914C02F0914D028091F7
:104FE0004B048083E0914C02F0914D0290818091BE
:104FF0004A04892B8083E0914C02F0914D0290810C
:1050000080914904892B808380914004882381F01A
:10501000E0914C02F0914D029081892B8083809128
:105020004C0290914D020E94F52881110E94E127C7
:1050300080914C0290914D020C94701E0C94D327D9
:1050400098E0899F90011124262B20933F040E9411
:10505000322680913F048595859585950C941E2870
:1050600010923F0480E00C941E2820913F0480950C
:10507000822380933F04982F977079F430E0482F73
:10508000082E000C550B2417350739F085958595AA
:1050900085950E9453260C943028089580E090E076
:1050A0000E94493421E08C3E9E4F09F020E0822F7F
:1050B000089582E090E00C94413483E090E00C94F9
:1050C0004134CF9384E090E00E944134C82F81E2C4
:1050D00090E00E9441342C2F30E0A901582BCA01E6
:1050E000CF910895CF93C92F682F84E090E00E945C
:1050F0005F346C2F81E290E0CF910C945F34AB0170
:10510000BC018FE090E00C947134AB01BC0183E1F1
:1051100090E00C94713460E070E0CB010C94852831
:1051200060E070E0CB010E947F280C948B286CEE2D
:105130007EEF80E090E00E947D3460E082E090E0CD
:105140000E945F3460E083E090E00E945F34109240
:105150003B0410923C0410923D0410923E0460E027
:1051600084E090E00E945F3460E081E290E00E9481
:105170005F3460E085E090E00E945F3460E086E0AC
:1051800090E00E945F346FEF87E090E00E945F3410
:1051900040E050E0BA0188E090E00E94713460E0A5
:1051A0008DE090E00E945F3440E050E0BA0188E179
:1051B00090E00E94713460E087E190E00E945F34EB
:1051C00040E050E0BA018CE190E00E94713460E070
:1051D00080E290E00E945F340C9490280C94972811
:1051E000682F8EE090E00C945F34FC01329697E0DB
:1051F00080E0915029F021912223D9F38F5FF9CFDC
:105200000895662349F0FC013296089621916217B1
:1052100029F0E817F907D1F780E0089581E00895B3
:105220009C01FC0132969FEF80E04191461789F086
:105230009F3F19F4411101C0982F8F5F8630A9F765
:105240009F3F39F0F901E90FF11D97FDFA9562834F
:10525000089508959C012A5F3F4FFC014281461347
:1052600001C01282019682179307B9F708950C9432
:1052700010290C942A29029626E0FC0111922A9505
:10528000E9F7089508950C9442290C944229CF938C
:105290000E9445290E947A0A0E944329C0E08C2F6F
:1052A0000E94D609811104C0CF5FCA30C1F701C086
:1052B00081E0CF9108950C9442290C945B290E94BF
:1052C0005D2980915407843049F110924D0420E407
:1052D00088E190E00FB6F894A895809360000FBE27
:1052E0002093600080E00E94AC070E945D2983B794
:1052F000817F846083BF83B7816083BF7894889502
:1053000083B78E7F83BF0FB6F894A8958091600015
:10531000886180936000109260000FBE08950C9425
:1053200042290E9473220E94641E0E94AC070C94C2
:105330008F291F920F920FB60F9211248F939F9374
:10534000AF93BF9380914D04811113C080914A07A0
:1053500090914B07A0914C07B0914D074196A11D2C
:10536000B11D80934A0790934B07A0934C07B093CD
:105370004D07BF91AF919F918F910F900FBE0F90EE
:105380001F90189582E084BD93E095BD9AEF97BD7C
:1053900080936E0008952FB7F89480914A079091FA
:1053A0004B07A0914C07B0914D072FBF08952FB721
:1053B000F89460914A0770914B0780914C07909147
:1053C0004D072FBF08959C014FB7F89480914A076D
:1053D00090914B07A0914C07B0914D074FBF821B96
:1053E000930B0895CF92DF92EF92FF922FB7F8942C
:1053F000C0904A07D0904B07E0904C07F0904D07C3
:105400002FBFA7019601261B370B480B590BCA016A
:10541000B901FF90EF90DF90CF90089578941F929C
:105420000F920FB60F9211248F939F93AF93BF9358
:1054300080914A0790914B07A0914C07B0914D077E
:105440000196A11DB11D80934A0790934B07A0932D
:105450004C07B0934D07BF91AF919F918F910F90E3
:105460000FBE0F901F90189587E797E7909301085C
:10547000809300089AE088E10FB6F894A89580938D
:1054800060000FBE90936000FFCF0E944E288111F4
:1054900002C00E94EE280E94592880934C040E946A
:1054A000612890934F0780934E070E945D28682FD4
:1054B00070E080E090E00C94D2258091560408952D
:1054C00008950895CF93DF93EC010E94022C82305F
:1054D00011F0843039F581E08093E9008FEF9091ED
:1054E000E800815095FD06C095ED9A95F1F7000012
:1054F0008111F5CF8091E80085FF14C040E050E0B5
:1055000068E070E0CE010E941F2C8091E8008E7749
:105510008093E80088E0FE01AEE4B4E001900D92D3
:105520008A95E1F7DF91CF9108950895809153070F
:10553000811109C00E94B02D0E940D2E8091E200C1
:1055400084608093E20008951092530708950895AF
:1055500008950C94912942E061EC81E00C94292D8E
:1055600080915607833009F460C030F4813071F0C7
:10557000823009F499C008958A3009F485C08B30CF
:1055800009F46BC0893009F0A7C020C0809155078D
:10559000813A09F0A1C08091E800877F8093E800FC
:1055A0008091590790915A07892B21F468E08EE485
:1055B00094E003C060E080E090E070E00E946A2C1C
:1055C0008091E8008B778093E800089580915507DB
:1055D000813209F081C08091590790915A07892B37
:1055E00009F07AC08091E800877F8093E80080917D
:1055F000E80082FD05C0809154078111F8CF6CC08E
:105600002091F3008091F20090E0922B029729F410
:105610008091F1008B7F813021F48091F1008093A3
:1056200056048091E8008B7753C080915507813AEA
:1056300009F052C08091590790915A07892B09F0BF
:105640004BC08091E800877F8093E8008091E8005C
:1056500080FFFCCF8091580236C08091550781327F
:10566000D9F58091590790915A07892BA9F5809116
:10567000E800877F8093E8000E945E2D80915707A5
:10568000809358020C94732280915507813221F542
:105690008091E800877F8093E8000E945E2D8091D2
:1056A000580780935704089580915507813AA1F4D3
:1056B0008091E800877F8093E8008091E80080FF78
:1056C000FCCF809157048093F1008091E8008E77A1
:1056D0008093E8000C945E2D089584B7877F84BF83
:1056E0000FB6F894A895809160008861809360005F
:1056F000109260000FBE90E080E80FB6F89480939F
:105700006100909361000FBE0E94B71E0E94B02DF1
:105710000E940D2E8091E20084608093E2007894D4
:105720000E94A2300E94BF1E8EE492E00E945F1E83
:1057300080915407853069F40E945F298091520757
:105740008823B1F30E944729882391F30E94092CF2
:10575000EFCF0E94CC1EECCF0C94AE2B292F332719
:1057600023303105C1F058F42130310579F0223071
:105770003105C1F582E290E02AE43AE037C02132F7
:10578000310511F12232310531F12CC082E190E076
:105790002CE63AE02BC099278130910561F040F06A
:1057A0008230910559F00397E9F4EAE0FAE008C085
:1057B000E6E4FAE005C0EEE2FAE002C0E0E1FAE079
:1057C000849190E09F0112C0672B61F489E090E022
:1057D0002CE53AE00BC0672B29F480E490E02EE73B
:1057E0003AE004C080E090E020E030E0FA0131834C
:1057F0002083089580915407843011F081E008954A
:1058000082E0089580915804811102C00C94FA2B13
:10581000089580E189BD82E189BD09B400FEFDCF14
:105820008091D8008F7D8093D8008091E0008260C5
:105830008093E0008091E00081FDFCCF0895CF923D
:10584000DF92EF92FF920F931F93CF93DF93EC01C0
:105850008B017A010E947D2D811133C0E114F10486
:1058600039F0F70180819181081B190BC80FD91FEE
:10587000C12CD12C0115110519F18091E80085FD8D
:1058800016C08091E8008E778093E800E114F1045F
:1058900049F0F70180819181C80ED91ED182C08262
:1058A00085E00FC00E947D2D882321F30AC08991D5
:1058B0008093F10001501109FFEFCF1ADF0ADACF10
:1058C00080E0DF91CF911F910F91FF90EF90DF90DB
:1058D000CF90089520915B0730915C07261737071A
:1058E00048F06115710539F42091E8002E77209376
:1058F000E80001C0B901FC0120E06115710579F1F2
:10590000809154078823F1F18530F1F18091E8000E
:1059100083FD3CC08091E80082FD2EC08091E800AC
:1059200080FFEBCF2091F3008091F20090E0922B6A
:105930006115710551F08830910538F4219120935B
:10594000F100615071090196F3CF21E0089709F049
:1059500020E08091E8008E778093E800CECF21117F
:10596000CFCF0AC080915407882361F0853061F061
:105970008091E80083FD0AC08091E80082FFF2CFA9
:1059800080E0089582E0089583E0089581E008951D
:1059900020915B0730915C072617370748F06115A7
:1059A000710539F42091E8002E772093E80001C0BA
:1059B000B901FC0120E06115710591F18091540756
:1059C000882309F440C0853009F43FC08091E80085
:1059D00083FD3DC08091E80082FD2FC08091E800EA
:1059E00080FFE9CF2091F3008091F20090E0922BAC
:1059F0006115710559F08830910540F42491209388
:105A0000F1003196615071090196F2CF21E00897BB
:105A100009F020E08091E8008E778093E800CBCFFA
:105A20002111CCCF0AC080915407882361F08530C2
:105A300061F08091E80083FD0AC08091E80082FF58
:105A4000F2CF80E0089582E0089583E0089581E038
:105A50000895982F973068F59093E900981739F0DA
:105A60007091EC002091ED005091F00003C0242FC4
:105A7000762F50E021FD02C09F5FECCF3091EB000C
:105A80003E7F3093EB003091ED003D7F3093ED0091
:105A90003091EB0031603093EB007093EC00209379
:105AA000ED005093F0002091EE0027FDE5CF80E05F
:105AB00008958F708093E90081E0089580915507E3
:105AC00087FF11C08091E80082FD05C080915407D6
:105AD0008111F8CF11C08091E8008B770BC08091C5
