:100000000C94CA050C9411060C9411060C94DA1B7E
:100010000C9411060C9411060C9411060C94110604
:100020000C9411060C9411060C94932C0C94652DD1
:100030000C941D280C9411060C9411060C941106B6
:100040000C9411060C9411060C9411060C941106D4
:100050000C9411060C9476280C9411060C9411063D
:100060000C9411060C9411060C9411060C941106B4
:100070000C9411060C9411060C9411060C941106A4
:100080000C9411060C9411060C9411060C94110694
:100090000C9411060C9411060C9411060C94110684
:1000A0000C9411060C9411060C941106C713CA1374
:1000B000CF13D613DB13E013E513EA13EF13F41396
:1000C000F913FE1300140314061409140C140F146E
:1000D00011141614ED1EED1E1F1F1F1F7520752015
:1000E000752075206C1F0520162016200921092176
:1000F0001B211B2112211B211B211B21092109214D
:1001000017211B211B211721D22DF92DF12EF92D9D
:10011000F12E452E682EF12EBF2ECE2E29001E0068
:100120001F002000210022002B0034003600370081
:1001300013001C00E10004001200080018000C006D
:10014000E000330014000D000E001B000000E3006F
:10015000E200025128002F0035002700260025006C
:10016000240023002E000F00150006000A000900DD
:100170002D001600110017000B00070038001D00AD
:1001800019001A001000050000004C002A0003515D
:100190002C00300029001E001F002000210022003A
:1001A0002B0014001A00080015001700E1000400DD
:1001B0001600070009000A00E0001D001B000600F1
:1001C000190005000000E300E20002512C00350098
:1001D0003500270026002500240023002D001300F1
:1001E00012000C0018001C002E0233000F000E003D
:1001F0000D000B00310038003700360010001100F0
:1002000000004C002A0003512800350001003A008C
:100210003B003C003D003E00350001002402260268
:1002200027022E00015C010031022F0030002D005A
:10023000005C01003100360037003800000001008A
:1002400001000100010001004400430042004100A0
:1002500040003F00450001004E004B00010001003E
:100260004D004F005100520050004A003100010083
:100270000100010001000100000001000100045123
:100280000100010001000100010001000100010066
:100290000100010001000100010001000100010056
:1002A0000100010001000100010001000100010046
:1002B00001000100000001000100045101000100E3
:1002C0000100010056005500540053000100570082
:1002D000610060005F004600B20085005E005D00C6
:1002E0005C004C00010067005B005A0059002A00C6
:1002F000000063006200010001000100A500000091
:100300000000015C005CDE5C005201520000000055
:1003100000000000BD00A9007B007C007D00000003
:10032000BE00AA0000007A00790000000000010071
:100330000100010001000000BE5CBB5CC15CC05C50
:10034000BF5C0000BD5CBC5C000000000000000061
:10035000C95CC75CC55CCB5CC35CC25CCA5CC85C86
:10036000C65CCC5CC45C0000000001000100010020
:100370000100000032190A00047F3F1F6432146438
:100380003214783C1E1E140A052223252628292A09
:100390002C2D2F3032333536383A3B3D3E404243E8
:1003A0004547494A4C4E5051535557595A5C5E6027
:1003B00062646668696B6D6F71737577797B7D7F39
:1003C00081838587898A8C8E90929496989A9C9E38
:1003D0009FA1A3A5A7A8AAACAEAFB1B3B4B6B8B954
:1003E000BBBCBEBFC1C2C3C5C6C7C9CACBCCCDCEBC
:1003F000D0D1D2D2D3D4D5D6D7D7D8D9D9DADADB9F
:10040000DBDBDCDCDCDCDCDDDDDDDDDCDCDCDCDC2A
:10041000DBDBDBDADAD9D9D8D7D7D6D5D4D3D2D269
:10042000D1D0CECDCCCBCAC9C7C6C5C3C2C1BFBE51
:10043000BCBBB9B8B6B4B3B1AFAEACAAA8A7A5A3BC
:10044000A19F9E9C9A98969492908E8C8A8987857B
:1004500083817F7D7B79777573716F6D6B6968665A
:100460006462605E5C5A5957555351504E4C4A492C
:1004700047454342403E3D3B3A3836353332302FD4
:100480002D2C2A292826252322FFAA7F554000014A
:100490000101010101010101020202020202020244
:1004A0000203030303030303030404040404040416
:1004B00005050505050606060606070707070708DA
:1004C000080808090909090A0A0A0B0B0B0C0C0C8D
:1004D0000D0D0D0E0E0E0F0F0F1010111111121227
:1004E00013131414151516161717181819191A1AA4
:1004F0001B1B1C1D1D1E1E1F202021222223242405
:10050000252626272829292A2B2C2D2D2E2F303140
:100510003232333435363738393A3B3C3D3E3F4052
:100520004142434445464748494A4C4D4E4F50513D
:100530005354555658595A5B5D5E5F6162646566F7
:1005400068696B6C6D6F7072737577787A7B7D7E7E
:100550008082838587888A8C8E8F91939596989ACE
:100560009C9EA0A2A3A5A7A9ABADAFB1B3B5B7BAE6
:10057000BCBEC0C2C4C6C9CBCDCFD1D4D6D8DBDDBA
:10058000DFE2E4E7E9EBEEF0F3F5F8FAFDFF00AEA9
:1005900000AF00DA02818FD9F1DB40A4A62EAF00B4
:1005A000A0C000A1C800AED580A81FD300408D1404
:1005B00020000000000000003E5B4F5B3E003E6BF1
:1005C0004F6B3E001C3E7C3E1C00183C7E3C1800DD
:1005D0001C577D571C001C5E7F5E1C0000183C18D9
:1005E0000000FFE7C3E7FF00001824180000FFE742
:1005F000DBE7FF0030483A060E002629792926005D
:10060000407F05050700407F05253F005A3CE73C39
:100610005A007F3E1C1C0800081C1C3E7F00142250
:100620007F2214005F5F005F5F0006097F017F008B
:10063000006689956A0060606060600094A2FFA215
:10064000940008047E04080010207E201000080892
:100650002A1C0800081C2A0808001E101010100090
:100660000C1E0C1E0C0030383E383000060E3E0EBC
:10067000060000000000000000005F00000000070E
:1006800000070000147F147F1400242A7F2A120020
:1006900023130864620036495620500000080703FF
:1006A0000000001C224100000041221C00002A1C06
:1006B0007F1C2A0008083E080800008070300000F7
:1006C0000808080808000000606000002010080406
:1006D00002003E5149453E0000427F400000724901
:1006E000494946002141494D33001814127F10003A
:1006F0002745454539003C4A494931004121110906
:100700000700364949493600464949291E0000007C
:1007100014000000004034000000000814224100D2
:100720001414141414000041221408000201590981
:1007300006003E415D594E007C1211127C007F493B
:10074000494936003E41414122007F4141413E003E
:100750007F49494941007F09090901003E41415152
:1007600073007F0808087F0000417F41000020409F
:10077000413F01007F08142241007F40404040007B
:100780007F021C027F007F0408107F003E41414130
:100790003E007F09090906003E4151215E007F09A4
:1007A0001929460026494949320003017F01030007
:1007B0003F4040403F001F2040201F003F40384046
:1007C0003F006314081463000304780403006159B4
:1007D000494D4300007F41414100020408102000C0
:1007E000004141417F0004020102040040404040BA
:1007F00040000003070800002054547840007F2880
:1008000044443800384444442800384444287F0095
:1008100038545454180000087E0902001824241C7F
:1008200078007F080404780000447D4000002040E8
:10083000403D00007F102844000000417F40000040
:100840007C04780478007C0804047800384444442C
:1008500038007C1824241800182424187C007C08F4
:100860000404080048545454240004043F44240061
:100870003C4040207C001C2040201C003C4030407C
:100880003C004428102844004C9090907C00446424
:10089000544C44000008364100000000770000007E
:1008A0000041360800000201020402003C26232613
:1008B0003C000000000000808080800000000000FC
:1008C00080E070180C1830E080000010F8901030B4
:1008D000783010B8FC3810000000000000F8FCF878
:1008E000000000000000000000000000001C9C1C34
:1008F00000000000F8FCF80000000000001CFCF8FC
:10090000C000000000000080E0F87C1C000000F047
:10091000FCFCFC1C1C1C1C1C1C1C1C000000000003
:1009200000C0F0F8381C1C1C1C1C1C3CF8F0E0003B
:10093000E0F0F0F0E0ECEEF7F37020007C7C7C7EE1
:10094000007E7E7E7F7F7F000080C0E07E5B4F5B0D
:10095000FEC00000C000DCD7DEDEDED7DC00C00059
:100960000000000000000000000000000000000087
:10097000000000000000000FBCE0818181838382C1
:10098000870C183060C000001FFE90B9FFBB919823
:100990003C1811133F1100000000000000FFFFFF92
:1009A00000000000000000000000000000FFFFFF4A
:1009B00000000000FFFFFF00000000000000000337
:1009C0000F7FF8E080F0FC3F0F0100000000003FC7
:1009D0003F3F1C1C1C1C1C3C78F8F0E08000000011
:1009E00000C3E7FF7E3C3878787070F8FFDF87003F
:1009F0000F1F3F7F7F7F7F7F3F1E0C001F1F1F3F0A
:100A0000003F3F3F7F7F7F00307B7F78302020306A
:100A1000787F3B0003000F7F0F0F0F7F0F00030055
:100A200000000000000000000000000000000000C6
:100A30000000183C24666341C181808080808080F2
:100A400081C14162386C4CC6818180808080808108
:100A5000C14362361C1800000000000000FFFFFFC9
:100A6000C0C0C0C0C0C0C0C0C0800000007FFF7F49
:100A7000000000007FFFFFC080000000E0E0C0C079
:100A8000C0E0F97F1F0700000000000000000070B8
:100A9000F0E0E0C0C0C0C0E0F0F87F3F0F00000011
:100AA0000F3F7FF9E0E0C0C0C0C0C0E0F97F3F1F4A
:100AB0000000000000000000000000000000000036
:100AC0000000000000000000000000000000000026
:100AD0000000000000000000000000000000000016
:100AE0000000000000000000000000000000000006
:100AF00000000403300000000E034C0069006C008D
:100B00007900350038000000120346005F005900EC
:100B10005500550043004800490000000403090443
:100B200009022200010100A0FA09040000010301EA
:100B3000010009211101000122400007058103087D
:100B4000000A120110010000000851FC58000001C9
:100B50000102030105010906A101050719E029E7C2
:100B6000150025019508750181029501750881011F
:100B70000507190029FF150026FF00950675088155
:100B80000005081901290595057501910295017562
:100B9000039101C011241FBECFEFDAE0DEBFCDBF4D
:100BA00004B603FE27C080910A0790910B07A0911D
:100BB0000C07B0910D078730904BA740B04BD1F494
:100BC00010920A0710920B0710920C0710920D0753
:100BD00014BE84B7877F84BF0FB6F894A895809120
:100BE0006000886180936000109260000FBEE0E0BA
:100BF000F8E3099512E0A0E0B1E0E0E3F7E602C017
:100C000005900D92A637B107D9F727E0A6E7B2E025
:100C100001C01D92AA30B207E1F70E94D5290C94B9
:100C200096330C94000080912E0490912F04A09193
:100C30003004B091310484309105A105B105E9F08B
:100C400060F40097A105B105A9F082309105A105D6
:100C5000B105E9F46BE871E012C088309105A10597
:100C6000B10591F080319105A105B10581F467EBE3
:100C700071E005C06DE771E002C069E971E080E5EF
:100C800094E00E94EC2F1CC069EA71E0F8CFBF939A
:100C9000AF939F938F9385EC91E09F938F931F92D7
:100CA00088E18F9380E594E09F938F930E94F32FC8
:100CB0008DB79EB70A960FB6F8949EBF0FBE8DBF34
:100CC00080E594E0089584E091E00895CF938C331B
:100CD000910528F4FC01E951FE4FC08101C0C0E23A
:100CE0001F92CF939F938F93FB0180811F928F93CD
:100CF00081811F928F9386ED91E09F938F931F9236
:100D000088E18F938DE892E09F938F930E94F32F59
:100D10008DB79EB70E960FB6F8949EBF0FBE8DBFCF
:100D20008091760290917702449779F080917602D3
:100D300090917702FC01E858FD4FC0830196909393
:100D4000770280937602CF910895109277021092E5
:100D50007602E8E7F2E080E292E0EC38F90731F35E
:100D60008193FACF8DE892E0089588E792E00895A4
:100D70000C94F806811106C0662311F089EA09C0B7
:100D80008AEA07C0813039F4662311F081E501C099
:100D900082E50C94921E089580918004869590E0DF
:100DA00090936904809368040895CF93C82F0E949C
:100DB000E40A882311F08C2F01C082E0CF910895BE
:100DC0000E94E40A882379F00E94130660E00E94E2
:100DD000D1160E94B20660E00E94D1160E94B506AC
:100DE00060E00C94D1160E94630660E00C94B51686
:100DF000FB01228121110E94660681E0089581E0B5
:100E0000089508950C9401071F93CF93DF9300D0AA
:100E100000D01F92CDB7DEB749835A836B833091E0
:100E2000CD0389819A81311114C0662359F02223A0
:100E300049F00E94AD25182F682F89819A810E9460
:100E4000542503C00E948025182F69817A81812F43
:100E500004C00E94AD2569817A810F900F900F9098
:100E60000F900F90DF91CF911F910C94B807FC0168
:100E7000262F408151816281738184810C94040703
:100E8000CF93DF93EC0160E00E943707BE01DF9152
:100E9000CF910C9402070E94D226811102C00E94B9
:100EA00072270C9490090C948E0908950C945507A0
:100EB00081E008950C945807CF93C82F0E945607DD
:100EC0008C2F0E945A07CF91089508950E94F72011
:100ED0000E9465072FEF84E39CE021508040904002
:100EE000E1F700C000000C949C280F931F93CF9350
:100EF000DF93EC0161E00E9437078C01BE010E9484
:100F0000B806882379F1BE01C8010E94A61888237B
:100F100049F1BE01C8010E94E718882319F1BE01FA
:100F2000C8010E94121A8823E9F0BE01C8010E947C
:100F3000B1138823B9F08A81882369F001158CE503
:100F4000180731F00E3D1C4531F40E9472270AC08B
:100F50000E94660707C0CE01DF91CF911F910F91CC
:100F60000C94FF0680E0DF91CF911F910F910895BF
:100F70002CE3829FC0011124FC0126E0729FE00D4A
:100F8000F11D1124E60FF11DEE0FFF1FE45EFE4F71
:100F9000859194910895CF93DF930E94B8070E94A2
:100FA000A908EC01811523E5920798F5811542E522
:100FB000940708F094C0C11580E2D807C0F4C115A9
:100FC00021E0D20708F0C1C0C53AD10548F4C430C9
:100FD000D10508F0BAC0C130D10509F4B6C0B3C01C
:100FE000CE01805E9109089708F4AFC0ACC0C1156E
:100FF00041E5D40708F06EC0C11580E5D80708F0B8
:101000004DC0C11520E4D20708F49DC0DF70D06A3E
:101010009CC0811546E5940700F5C11585E5D80704
:1010200008F077C0C11524E5D20708F06DC0CE01E5
:101030008370992721E030E002C0220F331F8A9588
:10104000E2F78C2F8695869540E2849FC00111249B
:10105000E901C82BD92BDA6878C081154AE59407D5
:1010600078F4C11589E5D80708F05DC0C11528E5F9
:10107000D20708F468C0DC2FCC27C06FD06A65C0E7
:1010800090568115904208F05EC08D2F8F710E949E
:101090003D09DD27D0628F71D82B57C0CE0174E097
:1010A000969587957A95E1F783709C2F937021E050
:1010B00030E002C0220F331F9A95E2F73C68382BCC
:1010C000CF70C695C69580E2C89FE0011124C22B5F
:1010D000D32B3BC0DC2FCC27C16FD06A36C08370C6
:1010E000992721E030E002C0220F331F8A95E2F7F2
:1010F0008C2F8695869540E2849FC0011124E901DA
:10110000C82BD92BDC6821C0DC2FCC27C46FD06A58
:101110001CC08C2F0E943D098F71C82FD0E0DC2F9E
:10112000CC27D06212C08C2F8F700E943D0994E0B2
:10113000D695C7959A95E1F7CF70D0E0DC2FCC27F4
:10114000D069C82B02C0C0E0D0E0CE01DF91CF91C2
:1011500008958238910569F1B0F48133910509F45D
:101160006DC048F48932910509F463C08A32910553
:1011700009F469C008958533910509F455C0893390
:101180009105B9F00895833E910569F138F4803EE8
:101190009105B1F0823E910509F10895863E9105D1
:1011A000A9F1873E9105B9F1843E910509F064C02B
:1011B00023C02091FB0620FD4FC021FD4DC00895A6
:1011C0008091FB0680FD44C08091FC0680FF44C0F6
:1011D0008091FB0684FD42C083EE4DC08091FB06EA
:1011E00082FF38C0F5CF8091FB0682FD33C080912D
:1011F000FC0680FD31C0ECCF8091FC0681FF32C03F
:101200008091FB0684FD2AC087EE35C08091FB06E5
:1012100083FF26C0F5CF8091FB0683FD21C080911E
:10122000FC0681FD1FC0ECCF8091FB0685FD1CC034
:101230001DC08091FB0685FD19C016C08091FB067C
:1012400086FD16C017C08091FB0686FD13C010C036
:1012500089E311C082EE0FC080EE0DC080E00BC0AC
:1012600086EE09C084EE07C089E205C085E303C0AD
:101270008AE201C081E390E008959091FB0692FF1D
:101280000DC0282F2871283019F4877F846006C08C
:10129000282F2471243011F48B7F886093FF0DC0B8
:1012A000282F2871283119F4877E846106C0282FE1
:1012B0002471243111F48B7E88612091FC0620FF7B
:1012C0000DC0382F3871383019F4877F816006C01F
:1012D000382F3171313011F48E7F886021FF0DC0BD
:1012E000282F2871283119F4877E816106C0282FA4
:1012F0002171213111F48E7E886194FD877E0895DD
:10130000E82FF0E0EC58FB4F80810895089580EAC3
:101310008A95F1F7089508950C948B090C948C0923
:101320000C94CC060895CF93DF930E94030B809119
:10133000440180914401811102C095E001C090E018
:1013400090937F0485E0891B80937E04A9E2B2E03C
:101350004EE252E061E070E08D91E82FE295EF708F
:10136000F0E021A18F70EB0102C0CC0FDD1F8A9548
:10137000E2F7CE019C2F9095922391A392A1892B05
:1013800082A34A175B0741F7A3E2B2E049E252E0C9
:1013900061E070E08D91E82FE295EF70F0E021A11F
:1013A0008F70EB0102C0CC0FDD1F8A95E2F7CE01F2
:1013B0009C2F9095922391A392A1892B82A34A17E7
:1013C0005B0741F7EAE6F4E0A4E7B4E084E794E0E1
:1013D00011921D928E179F07D9F785E00E94AD0AE2
:1013E0000E944B07DF91CF910C94170B0E94E40AE7
:1013F000882309F180917E0490E08C589B4F0E94D5
:10140000470B811114C08091A5028F5F8093A502C4
:10141000863078F0E0917E04F0E0EC58FB4F80E0FD
:1014200090E01192019685309105D9F702C0109293
:10143000A5020C94530780917F0490E08C589B4F39
:101440000E946A0B0C9492096F927F928F929F92E6
:10145000AF92BF92CF92DF92EF92FF920F931F93C2
:10146000CF93DF9389E2882E82E0982E0AE614E07B
:101470009FE6A92E94E0B92E712CCC24C394D12CD4
:10148000F40181914F01C82FC295CF70D0E099A18E
:101490008F70760101C0EE0C8A95EAF7892F8E29AC
:1014A00089A38AA16E2C609486218AA30E94870951
:1014B000E3E2F2E040E050E020E03191A32FA2957A
:1014C000AF70B0E090968C9190E03F7002C095951F
:1014D00087953A95E2F780FD07C08C2D042E01C058
:1014E000880F0A94EAF701C080E0282B4F5F5F4F16
:1014F0004630510511F789A1682269A28AA1E82A1C
:10150000EAA2F8018081281719F0208381E001C048
:1015100080E0782A0F5F1F4FA016B10609F0B0CF08
:1015200060917F0470E06C587B4F272D45E08AE680
:1015300094E00E94AE0A0E94F609872DDF91CF91B8
:101540001F910F91FF90EF90DF90CF90BF90AF90E1
:101550009F908F907F906F9008950895FF920F93C2
:101560001F93CF93DF938C01F62ED72FC42F222306
:1015700049F081E08093A8020E944F289093A7022F
:101580008093A6028091A8028823C1F08091A602D0
:101590009091A7020E946728069780F0EF2DFD2FFB
:1015A000D8014C2F50E0CD01801B910B841795077B
:1015B0001CF48D918193F7CF1092A802DF91CF9107
:1015C0001F910F91FF9008958091A902811112C07F
:1015D0008091D80080618093D8008AE18A95F1F7E4
:1015E00000C08091D90080FD02C082E001C081E08E
:1015F0008093A90281E09091A902913009F080E0E6
:1016000008950C94E40A0E94010B80934401809198
:10161000440164E2882311F080E001C084E20E946A
:101620000F0C0E94E40A81110C941E0B08950E9475
:10163000E40A811102C00C94240B089562E070E06A
:1016400085E491E00C94881B62E070E085E491E011
:101650000C94911B0E946F11882361F082EB92E041
:101660000E94751181E090E00E946A1C892B11F4A0
:101670000C94721108958091B102883039F460E0C1
:1016800082EB92E00E9450121092B1020895CF9323
:10169000DF93D82FC92F0E942A0B80E090E00E9490
:1016A0006A1C892B99F4ED2FFC2F80E090E0DC017F
:1016B000A555BD4F2C912193019685309105B9F721
:1016C00080EB92E00E941F1581E001C080E0DF9175
:1016D000CF910895CF93DF93D82FC92F0E943B0B52
:1016E000ED2FFC2F80E090E02191DC01A555BD4F4E
:1016F0002C93019685309105B9F780EB92E0DF914C
:10170000CF910C941615EF92FF920F931F93CF93E6
:10171000DF93F62E472FE82FF0E0711106C0E25755
:10172000FB4F6491762F862F72C0272F30E0E2574F
:10173000FB4FE4910E2F10E056E0659FC00111248D
:10174000CFEFD0E0BE010E943F2F5BEA5603C001FD
:10175000579F900D11248F0D911D8F0D911D982F66
:10176000990F890F7E01E21AF30AE09ED001E19EF3
:10177000B00DF09EB00D1124489FA0011124452FFB
:1017800055277E01E41AF50AE09EA001E19E500D66
:10179000F09E500D11247E01E81AF108E29EC0016E
:1017A000E39E900DF29E900D1124892F9927C81B5E
:1017B000D90BC09FC001C19F900DD09F900D1124E7
:1017C0006230710591F048F461157105E1F0613006
:1017D0007105A9F48B2F752F19C06430710561F064
:1017E00038F06630710579F00AC0892F7B2F0EC062
:1017F0008E2F7B2FE52F0AC08E2F792F02C0852FC9
:101800007E2FEB2F03C08B2F7E2FE92F6E2FDF91C2
:10181000CF911F910F91FF90EF9008950895E7E504
:10182000F1E0808361830895CF93DF93762FE90100
:10183000682F842F0E94830B798368838A83DF91CA
:10184000CF910895493708F048E70C94140C809123
:101850008004282F269530E02115310519F4817078
:10186000826005C02B32310524F08170846580933D
:10187000800480918304893718F088E7809383047B
:10188000089588E090E00C94BC32CF92DF92EF9202
:10189000FF926B017C010E94270CB701A60188E032
:1018A00090E0FF90EF90DF90CF900C94DA32E0E878
:1018B000F4E083E0808311828FEF828388E7838363
:1018C0001482AEE7B3E012968C9112978360129661
:1018D0008C9360817181828193810C94450C8091FD
:1018E000800480FF02C08695089580E0089580916D
:1018F0008404833018F48F5F8093840460918004A3
:101900007091810480918204909183040C94450C21
:1019100080918404882319F081508093840460911D
:1019200080047091810480918204909183040C94CE
:10193000450C21E030E001C0220F8A95EAF7809142
:101940008103282381E009F480E0089570E00C947D
:1019500020148F929F92AF92BF92CF92DF92EF921C
:10196000FF920F931F93CF93DF9300D000D01F926D
:10197000CDB7DEB79090580180918004982F917078
:1019800080FF08C0A0907503B0907603A114B10445
:10199000A9F423C08091590120915A01821790F730
:1019A000E82FF0E0AF01440F551FE40FF51FEB5790
:1019B000FB4F1182108212828F5FF0CF992369F062
:1019C000812C882D0E94990C882309F457C0F501B9
:1019D000C590D490C114D10401F58091570123E042
:1019E000829FC0011124692D8B579B4F0E94A60C2A
:1019F0000F900F900F900F900F90DF91CF911F914C
:101A00000F91FF90EF90DF90CF90BF90AF909F909D
:101A10008F90089535E0C30ED11C45E050E0B6012B
:101A2000CE0101960E94C92F09810F3F39F110E0C4
:101A30008A819801280F311DC9012532310514F022
:101A400084E290E07C01EE0CFF1C8E0D9F1D9C013A
:101A50002B573B4F7901C801880F991F080F191F99
:101A60000B571B4F0E151F05A8F698014D816C8171
:101A70008B810E94220C0D5F1F4FF4CF82E0A80ED5
:101A8000B11C839428E082129CCFA7CF9091800450
:101A900090FF16C09091590120915A01921770F44D
:101AA000E92FF0E0DF01AA0FBB1FEA0FFB1FEB5786
:101AB000FB4F8183608342839F5FF0CF0C94A90C1E
:101AC0000895CF93DF9300D01F92CDB7DEB79091EA
:101AD000800490FF0AC09E012F5F3F4F0E94220C9E
:101AE0004B8169818A810E94460D0F900F900F9063
:101AF000DF91CF910895CF93DF93EC01EC81F0E07B
:101B0000E757FC4F4491E0E8F4E0628181810E9454
:101B1000610D8C818F5F8C83DF91CF910895CF937E
:101B2000DF93EC01E0E8F4E0438162818C810E9464
:101B3000610D8C818F5F8C83DF91CF9108950F931E
:101B40001F93CF93DF9300D01F92CDB7DEB78C01E8
:101B50008091BB0281110AC09E012F5F3F4F48E771
:101B60006FEF0E94220C8A818093BB02F80184816E
:101B7000813051F028F0823061F44091BB020AC0FC
:101B80008091BB0240E007C06091BB0240E080E072
:101B900003C040E080E060E00E94460DF8018481CF
:101BA00090E0019663E070E00E94532F84830F90D1
:101BB0000F900F90DF91CF911F910F910895AF92E9
:101BC000BF92CF92DF92EF92FF920F931F93CF932A
:101BD000DF9300D01F92CDB7DEB7182FF62E042F5B
:101BE000E22E9091800490FF7EC0E92FE695AE2F03
:101BF000B0E0AD5CBD4F8C9180937E039E7F9230B0
:101C000061F49E012F5F3F4F812F0E94220C4B8178
:101C100069818A810E94460D43C0823019F4009187
:101C200083043EC0863019F41091810439C0893094
:101C3000D9F38931A9F5E9518E2F8170D82EE69517
:101C4000F0E0E757FB4FA590B490C12CBB24609106
:101C50005B01C61618F52C2D30E0A29EC001A39E94
:101C6000900DB29E900D112470E00E943F2F812FA5
:101C7000D11002C0860F01C0861B90915901290F17
:101C8000311DA901440F551F240F351F2B573B4F02
:101C9000402F6F2D0E94220CC394D9CF0E94A90C13
:101CA00080918104181308C080918204F81204C046
:101CB00080918304081729F08091800382608093CB
:101CC000800310938104F092820400938304EE2039
:101CD00051F0609180047091810480918204909110
:101CE00083040E94450C0F900F900F90DF91CF91CD
:101CF0001F910F91FF90EF90DF90CF90BF90AF902A
:101D00000895E0E8F4E09181282F438162818AE020
:101D1000890F0C94DF0D81E00C94810EE0E8F4E073
:101D20009181282F4381628186EF890F0C94DF0D0A
:101D300081E00C948E0EE0E8F4E0628121E1620F14
:101D400008F46FEF282F438181810C94DF0D81E02F
:101D50000C949B0EE0E8F4E0628121E1621B08F440
:101D600060E0282F438181810C94DF0D81E00C9489
:101D7000AA0EE0E8F4E0438121E1420F08F44FEFBE
:101D8000282F628181810C94DF0D81E00C94B90EC3
:101D9000E0E8F4E0438121E1421B08F440E0282F11
:101DA000628181810C94DF0D81E00C94C80E20E0EB
:101DB0000C94DF0DFF920F931F93CF93DF93EC01F1
:101DC000F12C0FEF10E060915B01F616F0F48091BA
:101DD00059012F2D30E0280F311DC901880F991F9F
:101DE000280F391F2B573B4F70E0C8010E94532F1B
:101DF000962F8C814091830460918204F99E800D1E
:101E000011240E94220CF394DECF0E94A90C9A8127
:101E10008C8190FF02C08F5F01C081508C83DF9165
:101E2000CF911F910F91FF9008958F929F92AF9243
:101E3000BF92CF92DF92EF92FF920F931F93CF93B7
:101E4000DF93EC018A8180FF03C0BB24BA9402C0F7
:101E5000BB24B3948C8181110DC081E0B81206C0FF
:101E600080915B0181508093BD0202C01092BD023F
:101E700081E08C83A12C44E2942E80915B01A81612
:101E800008F044C080915901CA2CD12C8601080F5A
:101E9000111DC801880F991F080F191F0B571B4FE1
:101EA000F80111821082128234E0E32EF12C812C91
:101EB0008091BD02880D85322CF0692D0E94312F52
:101EC000892F05C087FF03C090915B01890F082E01
:101ED000000C990BC816D90691F4809183048E9D4D
:101EE000A0018F9D500D1124559547955595479507
:101EF000980160918204809181040E94220C8B0CD5
:101F0000F1E0EF1AF108A1F6A394B7CF0E94A90C53
:101F10008091BD0291E0B9120EC0811107C080917D
:101F20005B0181508093BD021C820FC08150809361
:101F3000BD02BC820AC090E0019660915B0170E036
:101F40000E94532F8093BD028C83DF91CF911F910C
:101F50000F91FF90EF90DF90CF90BF90AF909F9048
:101F60008F9008951F93CF93DF93EC018C818111A3
:101F700009C081E08C831092BC0292E090935601DC
:101F8000809355018091590190915A01891770F4FD
:101F9000E82FF0E09F01220F331FE20FF31FEB57F2
:101FA000FB4F1182108212828F5FF0CF10E06091A0
:101FB0005B011617C0F5E12FF0E070E0CF010E9441
:101FC000532F20915901820F2091BC02022E000C48
:101FD000330B90E0E217F307CCF020915601022E6C
:101FE000000C330B2E173F078CF09C01220F331F80
:101FF000820F931F9C012B573B4F409183046091AC
:102000008204809181040E94220C0BC0FC01EE0F1F
:10201000FF1F8E0F9F1FFC01EB57FB4F1182108299
:1020200012821F5FC4CF0E94A90C8091550120919C
:10203000BC02280F2093BC0290915601980F9093F8
:10204000560119165CF4022E000C330B40915B0113
:1020500050E0415051092417350734F081958093A1
:102060005501813009F41C82DF91CF911F910895B1
:102070000F931F93CF93DF938C01FC018481958193
:1020800001968170992795838483C0E0D5E580917E
:102090005B01C81700F5809159012C2F30E0280F03
:1020A000311DC901880F991F280F391F2B573B4F2E
:1020B0004C2F4695F80184819581840F911D817084
:1020C00040918304609182048D9F802D11240E9491
:1020D000220CCF5FDCCFDF91CF911F910F910C9439
:1020E000A90C0F931F93CF93DF93EC0100E010E056
:1020F00080915B01282F30E00217130724F590919F
:1021000059019801290F311DA901440F551F240FB2
:10211000351F2B573B4F869590E04C8108171907C8
:102120001CF4442331F002C0411103C040918304E8
:1021300001C040E060918204809181040E94220CE1
:102140000F5F1F4FD5CF0E94A90C8C8190E00196A4
:10215000817099278C83DF91CF911F910F91089502
:102160008F929F92AF92BF92CF92DF92EF92FF92A7
:102170000F931F93CF93DF93FC01B280948081E093
:10218000848300E015E05BE4A52E88248394EE248C
:10219000EA94F12C7BE4C72ED12C80915B010817C7
:1021A00008F08FC0C02FD0E01C9FF0011D9FF00DE4
:1021B0001124EF53FD4F911003C01382128267C0A8
:1021C0002381222389F1215023833481332319F081
:1021D0009A2D921B01C0922F809183041C9FF001C5
:1021E0001D9FF00D1124EF53FD4F899FC001112455
:1021F000B6010E943F2F6283211104C0332311F0E6
:102200001482A38222E02B1508F441C01C9FF00128
:102210001D9FF00D1124EF53FD4F809181048083A9
:1022200080918204818333C00E94B92F8230914013
:1022300074F582E08B1530F40E94B92FB7010E942B
:10224000532F02C0809181041C9FF0011D9FF00D4F
:102250001124EF53FD4F808322E02B1558F40E9488
:10226000B92F209182042695622F70E00E94532F8F
:10227000820F02C0809182041C9FF0011D9FF00D0F
:102280001124EF53FD4F81831282A38284828091B7
:1022900059019E01280F311DC901880F991F280F70
:1022A000391F2B573B4F1C9FF0011D9FF00D112430
:1022B000EF53FD4F4281618180810E94220C0F5FAC
:1022C0006CCFDF91CF911F910F91FF90EF90DF9036
:1022D000CF90BF90AF909F908F900C94A90C80915D
:1022E0008003089510928003089525E0E0E8F4E06B
:1022F000DC0101900D922A95E1F740917E03509107
:102300007F036091800370918103FC0145835683B4
:1023100067837087089560918004669570E04BE054
:1023200050E08CE591E00E94D22F892B19F481E0D6
:1023300080937F030E944F289093780380937703C4
:10234000809180038460809380030895EEE7F3E03A
:10235000118282818460828308959091800490FF2D
:102360003AC09170811102C0926006C08B3210F0A9
:10237000946502C0880F982B90938004809180030D
:10238000816080938003662351F060918004709196
:10239000810480918204909183040E94450C609195
:1023A0008004669570E04BE050E08CE591E00E947F
:1023B000D22F892B19F00E94A61102C00E948B1106
:1023C00081E080937A03409183046091820480913C
:1023D00081040C94D70E0895682F909180049695EF
:1023E00081E0890F8B3208F081E00C94AD1181E01F
:1023F0000C94EC11682F9091800496958FEF890FC3
:1024000009F48AE20C94AD1181E00C94FA1161E0B8
:102410000C94AD11E0E8F4E08081816080838695C2
:102420000C94071260E00C94AD11E0E8F4E08081B8
:102430008E7F808360817181828193810E94450CAF
:102440000E94A611EEE7F3E08281816082832FEF84
:1024500080E792E0215080409040E1F700C000000A
:102460000C94A90C8091800480FD0C9415120C949E
:102470000A12E0E8F4E080818E7F80830E94A6113A
:10248000EEE7F3E08281816082832FEF80E792E0C4
:10249000215080409040E1F700C000000C94A90C4E
:1024A0001F93CF93DF93EC01162F8F8184FF03C01E
:1024B00098859093810380FF10C0888180FF0BC0B6
:1024C000809180048160809380048881612F86954B
:1024D0000E94AD1102C00E9439128F8181FF06C097
:1024E000212F4B816A8189810E94DF0D8F8182FFBC
:1024F00008C08E81882319F00E948B1102C00E94AF
:10250000A6118F8183FF03C081E080937A03DF915E
:10251000CF911F91089580917D03811133C00E9456
:10252000D226811104C00E9472270E94570C0E947B
:10253000410C609380047093810480938204909393
:102540008304809180038360809380036E7F61F4B5
:102550000E94570C0E94410C609380047093810488
:1025600080938204909383040E94270C0E94A611FA
:102570008091800480FF03C086950E94121281E042
:1025800080937D030895EF92FF920F931F93CF9353
:10259000DF9380917F03882309F4C1C080917E037B
:1025A000E0918004E695E81BE0937903823049F4DA
:1025B000F0E0EB57FC4FE491CE2FD0E00BE71DE0AD
:1025C00059C0863049F4F0E0EE57FC4FE491CE2F2D
:1025D000D0E00FE81DE04EC0893051F4E695F0E000
:1025E000E158FC4FE491CE2FD0E00AED1EE042C04E
:1025F0008F3051F4E695F0E0E458FC4FE491CE2F93
:10260000D0E005E11FE036C0853149F4F0E0E7583D
:10261000FC4FE491CE2FD0E002EB1FE02BC08831BD
:10262000D9F0833239F4E7E7F3E0C591D4910FE9AB
:102630001DE020C08432A9F08532C1F48E2F63E002
:102640000E94252FE92FF0E0EC58FC4FE491CE2FAB
:10265000D0E000EB10E10EC0C8EED3E008E310E1DB
:1026600009C0C4EFD1E001E710E104C0C0EDD7E03C
:102670000EE01CE080917A03882389F010927A039F
:102680000E944F289E0120953095820F931F9093B2
:1026900078038093770310927C0310927B038091E0
:1026A0007703909178030E9467288C179D07B8F1F3
:1026B0008091C0028823B1F01092C0028091BE02C6
:1026C0009091BF020E9467288033954758F00E947E
:1026D0004F289093BF028093BE0280918003886050
:1026E00080938003E0907B03F0907C03E09177037C
:1026F000F0917803CE0FDF1FD0937803C093770358
:1027000087E793E0F801099580917B0390917C0322
:10271000892B29F4EF2819F081E08093C002DF9122
:10272000CF911F910F91FF90EF900895882311F0A2
:10273000FA0101C0FB010994CF93DF93C82FD62F74
:102740000E946F0C8C1740F00E946F0C8D1720F4C4
:10275000DF91CF910C94F7118C2FDF91CF910C94D6
:1027600007121F93CF93DF93FB011281111163C0F6
:10277000EC010E942E268272FE01E25CFC45E431EF
:10278000F10508F057C0EA5AFF4F0C94672F0E94DA
:10279000321251C044E052E167EF71E104C047EFEB
:1027A00051E164E072E10E94961345C048E95EE0A1
:1027B0006BE87EE0F8CF4BE85EE068E97EE0F3CFBF
:1027C00046EB5EE067EA7EE0EECF47EA5EE066EB6E
:1027D0007EE0E9CF44ED5EE065EC7EE0E4CF45ECE1
:1027E0005EE064ED7EE0DFCF48E85CE067E77CE038
:1027F000DACF47E75CE068E87CE0D5CF81E017C03E
:1028000065E082E010C068E086E00DC06EE089E01F
:102810000AC064E18FE007C067E185E104C088E198
:1028200006C062E289E10E949C1305C083E20E9417
:10283000071201C011E0812FDF91CF911F91089500
:10284000539A2BB1277F3BB138604FB7F894FC0106
:10285000CB01880F991F680F791F6E0F7F1FE61736
:10286000F70789F0819198E03BB9000000C087FF2D
:102870002BB9880F000000C000C000C02BB900C0F9
:102880009A9591F7ECCF4FBF8FE594E00197F1F760
:1028900000C0000008950C94BA068091440188237A
:1028A00009F447C020916801A22FA295AF70B0E053
:1028B00091963C9191972F7081E090E0AC01022EAF
:1028C00001C0440F0A94EAF7542F5095352391968E
:1028D0003C93919792963C919297432B92964C936E
:1028E000929740916701E42FE295EF70F0E031A1FB
:1028F0004F70042E01C0880F0A94EAF7982F909524
:10290000932391A392A1892B82A390968C9190E01E
:1029100002C0959587952A95E2F7817020A130E055
:1029200002C0359527954A95E2F720FD09C090E051
:1029300008C084E98093680185EF80936701B2CF76
:1029400092E0892B809387039091440181E098273E
:1029500090938303891B809382030895CF93E09122
:1029600087035E2F550F550F20916801E22FE295E6
:10297000EF70F0E080A190E02F7002C095958795F0
:102980002A95E2F78170992740916701E42FE2953B
:10299000EF70F0E020A130E04F7002C03595279530
:1029A0004A95E2F7F901E170FF2720FF02C0E2E05B
:1029B000F0E0E82BF92BE52BE0938703C09183032C
:1029C000EF70F0E0E25AFD4F908180918603890F0D
:1029D0008093860384306CF0EC2F0C2E000CFF0BE0
:1029E000EC57FC4F80818F5F808360E08C2F0E94CA
:1029F0004B14809186038D3F6CF4EC2F0C2E000C51
:102A0000FF0BEC57FC4F80818150808361E08C2F5D
:102A10000E944B1480918603837887FF03C0815006
:102A20008C6F8F5F80938603CF910895E09183032D
:102A3000F0E0EC57FC4F2081FC0120830895FF92C9
:102A40000F931F93CF93DF93D09182030D2F10E04C
:102A50000C571C4FFC01C081F8018081C81BFC2E63
:102A60001F1454F4FA94F80180818F5F808360E032
:102A70008D2F0E944B14F4CF8C2FC7FD80E0C81B14
:102A8000CC2351F0CF5FF80180818150808361E0D9
:102A90008D2F0E944B14F4CFDF91CF911F910F9196
:102AA000FF900895EF92FF920F931F93CF93DF93C0
:102AB000EC017B0164E670E088E70E94491A8C0112
:102AC000EC0EFD1ECE15DF0561F017FD0AC0FE01FC
:102AD000849164E670E00E94A01A8C012196892BF3
:102AE00089F30E94241BC801DF91CF911F910F91A0
:102AF000FF90EF900895E1EFF4E080E092E0DF01D5
:102B00009C011D9221503040E1F7F093F606E093CE
:102B1000F5068FEF9FEF9093B4038093B30308956E
:102B20000E94D5068093AF0380FD02C080E801C0FB
:102B300080E28093AE030E94431A6DE070E085EA64
:102B400095E00E945215892B11F080E00895809144
:102B5000AF0363E070E081FD03C082EA95E002C04C
:102B60008FE995E00E945215892B79F76DE070E0AE
:102B700082E995E00E945215892B39F70E945B2863
:102B8000DC01CB01805A9541AF4FBF4F8093F106D6
:102B90009093F206A093F306B093F4060E947B157F
:102BA00081E08093B2038093B1031092B003089543
:102BB0002091AE0336E0839FC0011124629F800DF7
:102BC000911D1124811522E0920714F080E090E01D
:102BD0008F509B4F9093F6068093F50608952091B1
:102BE000F5063091F6062B5E34404091AE03642F1B
:102BF00070E0C9010E943F2F481B463010F4240F9B
:102C0000311D211582E0380710F020E030E02F5010
:102C10003B4F3093F6062093F5060895CF93DF934C
:102C20008A3011F481E003C08D3029F480E0DF9117
:102C3000CF910C948416C62F682F8091F506909141
:102C4000F60626E0FC01A8E8B3E001900D922A9573
:102C5000E1F7603E30F026E0FC0111922A95E9F799
:102C60000AC0F6E06F9FB00111246E547A4F46E01F
:102C700050E00E94C92FC11135C0C091F506D09116
:102C8000F60646E050E0BE0188E893E00E94DF2FA0
:102C9000892BB1F1C15FD4409E0185E0369527951F
:102CA0008A95E1F781E090E0AC0102C0440F551F26
:102CB0002A95E2F72091B3033091B403242B352BEE
:102CC000269645E0D695C7954A95E1F702C0880F4C
:102CD000991FCA95E2F7822B932B9093B4038093AC
:102CE000B3030EC0E091F506F091F6069F012A5F4E
:102CF0003F4F2E173F0709F2808180958193F9CFCE
:102D0000DF91CF910C94EF15CF93E82F2091F5062A
:102D10003091F606215F34404091AE03642F70E09D
:102D2000C9010E943F2F481B842FEE2359F066E013
:102D30000E94252FC82FC150B0F060E080E20E94B1
:102D40000E16F9CFA901480F511D4115524018F038
:102D500080E020E030E0280F311D2F503B4F3093B2
:102D6000F6062093F506CF910895FF920F931F93D7
:102D7000CF93DF93EC01F62EFC0101900020E9F7E0
:102D80008F0101501109C017D10728F46F2D8991C7
:102D90000E940E16F8CFDF91CF911F910F91FF90F7
:102DA00008950E94B51681E00C9484160E945B2859
:102DB000DC01CB01805A9541AF4FBF4F8093F106A4
:102DC0009093F206A093F306B093F4068091B103BA
:102DD00081110BC062E070E080E995E00E9452151D
:102DE000892B19F481E08093B1038091B103089598
:102DF0006F927F928F929F92AF92BF92CF92DF920B
:102E0000EF92FF920F931F93CF93DF932091B30321
:102E10003091B4032115310509F4D4C08091B00379
:102E20008111D0C061E070E0082F10E03B01082E56
:102E300002C0660C771C0A94E2F7A30142235323D5
:102E4000452B11F48F5FF0CF9091AF03980165E0AF
:102E5000220F331F6A95E1F790FD12C08295880F0B
:102E6000807680936B01220F232F221F330B319525
:102E700020936E01815E80936C0110926F0112C0ED
:102E800045E0369527954A95E1F7220F220F220F4C
:102E900020936B0110926E01295F20936C0183E0F7
:102EA00080936F0124E630E047E050E069E671E08E
:102EB00088E70E94D01A892B09F084C08091AF0363
:102EC00080FD23C0A80195E0440F551F9A95E1F7B6
:102ED0004F505B4F04E610E020E230E060E488E70A
:102EE0000E94F71A892B09F06DC00E94D616E301E3
:102EF000C095D0958091B3039091B403C823D92392
:102F0000D093B403C093B3035DC080E2EEE8F3E076
:102F1000DF011D928A95E9F785E0000F111F8A9560
:102F2000E1F7A2E7B2E04EE652E0992493942D91A6
:102F3000EA018991AE01B801680F711D6F507B4F96
:102F400030E022573C4FF90197E07F01E21AF30A83
:102F5000A92C01C0AA0CEA94EAF77B01B12CE70185
:102F600089917E018A21892E8B18D82DD770CD2E7C
:102F70000D2E000CDD08C82F01C0CC0FDA95EAF742
:102F8000D194C194D108D7E0CD22DD2401C086952B
:102F9000CA94EAF78C2BD0808D298083B39488E083
:102FA000B812DDCF915031969F3F79F6C2E0A63737
:102FB000BC0709F0BCCF04E610E020E230E04EE8A8
:102FC00053E08CCFDF91CF911F910F91FF90EF9045
:102FD000DF90CF90BF90AF909F908F907F906F9039
:102FE00008958091B103882369F062E070E08EE873
:102FF00095E00E945215892B19F08091B103089534
:103000001092B1039091B10381E0892708950F9345
:103010001F938091B203882311F160E080E00E9449
:10302000D8150E94E0060E94F8168091B10388230B
:10303000B1F00E945B280091F1061091F2062091F8
:10304000F3063091F406DC01CB01801B910BA20B3F
:10305000B30BB7FD04C01F910F910C94F1171F9192
:103060000F9108950F931F93CF93DF93C62FD42F03
:10307000122FFC0182818823C9F06093B7030E945C
:103080004F289093B6038093B50380E28C0F88306D
:1030900008F057C0C77081E001C0880FCA95EAF7F1
:1030A000DF91CF911F910F910C94A51E8091B703D2
:1030B000681330C08091B5039091B6030E946728D1
:1030C0008436910538F500E20D0FCD17B9F080E296
:1030D0008C0F883040F4C77081E001C0880FCA951A
:1030E000EAF70E94AC1E083028F581E09D2F97700A
:1030F00001C0880F9A95EAF70E94A51E812F0E94B1
:10310000921E0830F0F4D77081E001C0880FDA9584
:10311000EAF70AC080E28C0F883098F4C77081E02B
:1031200001C0880FCA95EAF7DF91CF911F910F91E7
:103130000C94AC1E812FDF91CF911F910F910C94B5
:10314000921EDF91CF911F910F9108959C01CB01A9
:10315000233F4CE53407F9F078F4283DFCE53F07C0
:10316000B9F0293D4CE5340711F1273D3C4531F5D7
:1031700026E241EE61EE1EC0253FFCE53F0799F0D7
:1031800070F0263F3C45D1F427E245EE66EE12C0D2
:1031900027E245EE0EC026E241EE60EE0BC027E2CC
:1031A00045EE64EE07C026E241EE62EE03C028E27F
:1031B00041E065EE0E94321880E00895FC018281B2
:1031C000882319F01092B703089581E00895CF93F2
:1031D000DF93EC01FB018281882309F41FC1C23017
:1031E000FCE5DF0708F41BC1C6319CE5D90738F0C0
:1031F0009E012A5F3C452930310508F010C10E942C
:10320000E5269093FC068093FB06C031ECE5DE07D3
:1032100009F4C3C008F041C0C8308CE5D80709F4F0
:103220009AC0F0F4C430ECE5DE0709F487C068F416
:10323000C2308CE5D80709F477C0C330DC4509F00B
:10324000E3C08091FB06826076C0C630ECE5DE0705
:1032500009F46EC008F07BC08091FB0688606BC0EB
:10326000CC308CE5D80709F485C068F4CA30ECE5A9
:10327000DE0709F474C008F079C00E94F72080913D
:10328000FB06806858C0CE308CE5D80709F476C0BC
:1032900008F07FC08091FB068BC0CB3FECE5DE07DA
:1032A00009F44FC018F5C3318CE5D80709F47DC087
:1032B00078F4C131ECE5DE0709F473C0C231DC45B6
:1032C00009F0A2C00E94F7208091FB068F7733C0DF
:1032D000C5318CE5D80709F472C008F486C0CA3F2E
:1032E000DC4509F091C08091FC063EC0CF3FFCE573
:1032F000DF0709F45FC058F4CD3F9CE5D90709F416
:1033000044C008F43FC08091FC0682602DC0C130EB
:10331000FDE5DF0709F475C008F45DC0C230DD4586
:1033200009F072C080E06EC08091FB06816003C02E
:103330008091FB0680618093FB0666C08091FB064E
:1033400011C08091FC0682608093FC065DC0809174
:10335000FB068062F0CF8091FB068064ECCF809109
:10336000FB0688608460E7CF8160EECF8091FB062A
:103370008E7FE1CF8091FB068D7FDDCF8091FB06B4
:10338000877FD9CF8091FC0618C08091FC068D7F85
:10339000DBCF8091FB068F7ECECF8091FB068F7DA9
:1033A000CACF8091FB068F7BC6CF8091FB06877FBB
:1033B0008B7FC1CF8091FC068D7F8E7FC5CF8091A2
:1033C000FB0682FB222720F991E0922790FB82F9ED
:1033D00090FB83F9B0CF8091FC06982F9095917067
:1033E0008E7F892B90FB81F9AFCF0E94F7208091CF
:1033F000FB0687FB222720F991E0922790FB87F9B3
:103400009ACF81E00E9474278091FB069091FC0680
:103410000E94F6260E94F72080E001C081E0DF9143
:10342000CF910895CF93DF9386319C4541F5EB0111
:103430000E942E26982F8A8120917001309171016F
:10344000882379F09A7A81E009F480E08093B803C8
:10345000911102C069E201C065E3C9010E94BB2766
:103460000AC08091B803811102C069E201C065E31E
:10347000C9010E94BD270E946F2680E001C081E043
:10348000DF91CF9108951092B9008CE08093B8003D
:103490000895EF92FF920F931F93CF93DF93182F0E
:1034A000EB011092BC0084EA8093BC000E944F287C
:1034B0007C018091BC0087FD0EC0CF3F8FEFD80705
:1034C000C1F30E944F288E199F098C179D0788F31E
:1034D0008EEF9FEF2EC08091B900887F883041F039
:1034E0008091B900887F803119F08FEF9FEF21C064
:1034F0001093BB0084E88093BC000E944F288C018D
:103500008091BC0087FD0CC0CF3F8FEFD807C1F37F
:103510000E944F28801B910B8C179D0788F3D8CFF2
:103520008091B900887F883111F08034F1F680E015
:1035300090E0DF91CF911F910F91FF90EF90089550
:103540000F931F93CF93DF93EB018093BB0084E82D
:103550008093BC000E944F288C018091BC0087FDA5
:103560000EC0CF3F8FEFD807C1F30E944F28801BBA
:10357000910B8C179D0788F38EEF9FEF0CC0209165
:10358000B900287F81E090E0283211F480E090E0DB
:10359000919581959109DF91CF911F910F91089598
:1035A000CF92DF92EF92FF920F931F93CF93DF930F
:1035B0006B018A017901B9010E94491AE6010C0DDB
:1035C0001D1DC017D10761F424E92093BC00DF91D1
:1035D000CF911F910F91FF90EF90DF90CF900895C2
:1035E00097FDF2CFB70189910E94A01AEACFCF923E
:1035F000DF92EF92FF920F931F93CF93DF93C62F2B
:103600006A017901B8010E94491A97FD11C0B801F9
:103610008C2F0E94A01AE601EC0CFD1CCE15DF05D4
:1036200039F097FD05C0B80189910E94A01AF6CF24
:1036300024E92093BC00DF91CF911F910F91FF905F
:10364000EF90DF90CF90089584E98093BC000895B7
:103650008EE14A9B02C08150E1F74A9BFECF08955C
:103660005A9880E28A95F1F75A9A0895FC012AE067
:103670002A95F1F790E020E080E031E0261779F01C
:1036800040E14A95F1F7880F4A9B02C08160932779
:1036900000C0000040E14A95F1F72F5FEFCF20E135
:1036A0002A95F1F729B100C0000030E13A95F1F711
:1036B00022FB222720F992272081920F90830895E0
:1036C000EF92FF920F931F93CF93DF931F92CDB78B
:1036D000DEB719828C017C01E60EF11C0E151F0568
:1036E00059F00E94281B68E0CE0101960E94361B0B
:1036F000F80181938F01F2CF81E09981911180E0EF
:103700000F90DF91CF911F910F91FF90EF9008954F
:103710009093BB038093BA036093B903529A5A9A69
:1037200008959093BB038093BA036093B9035298B2
:103730005A9AEA9AE9E6F0E080818F7C80830895C6
:10374000615091E001C0990F6A95EAF720E031E0FD
:10375000992361F0492F482319F05A9A232701C071
:103760005A9840E24A95F1F79695F2CF222311F04C
:103770005A9A01C05A9880E28A95F1F75A980895AA
:10378000FF920F931F93CF93DF93EC018C01060FF1
:10379000111DC017D10741F0F9900E94301B68E05D
:1037A0008F2D0E94A01BF5CFDF91CF911F910F911C
:1037B000FF9008951F920F920FB60F9211240F934E
:1037C0001F932F933F934F935F936F937F938F93A9
:1037D0009F93AF93BF93EF93FF93CF93DF931F928A
:1037E000CDB7DEB719820E94281B67E0CE01019693
:1037F0000E94361B382F369536953695932F969521
:103800009570232F2570920F292F237096959695EA
:103810008770920F891348C08981811145C08091BA
:10382000B903831708F440C080E18A95F1F75A9AEA
:10383000529AA2E0AA95F1F700C00091BA03109144
:10384000BB03B8E03B9F000D111D11245A98F801ED
:103850006581662321F0868197810E94C01B0E94AA
:10386000301BF0E1FA95F1F75A9852985A9A80E194
:103870008A95F1F7D80112966C911297662369F038
:1038800013968D919C9114970E94601BD801ED9125
:10389000FC91811105C082E004C0D801ED91FC913A
:1038A00088E080830E94281B0F90DF91CF91FF91C9
:1038B000EF91BF91AF919F918F917F916F915F91A8
:1038C0004F913F912F911F910F910F900FBE0F902D
:1038D0001F9018950F931F93CF93DF932091B903F7
:1038E00030E0281739070CF471C09C0193E0220FD7
:1038F000331F9A95E1F7C091BA03D091BB03C20F71
:10390000D31FF894529A5A9845E04A95F1F700006F
:10391000982F969595708570890F982F937086953E
:103920008695890F8901082B0E94301B84E08A95B7
:10393000F1F700C067E0802F0E94A01B40E14A958C
:10394000F1F752985A9A4A9902C000C0FCCF87E01A
:1039500090E04A9B0EC0019751F4529A5A9AE8811E
:10396000F98181E08083789481E090E031C000C0EB
:10397000F0CF6D81662381F08E819F810E94601B54
:1039800081110AC0529A5A9AE881F98182E08083B3
:10399000789482E090E01CC00E94281B80E28A9507
:1039A000F1F75A98529A40E14A95F1F76A816623F5
:1039B00021F08B819C810E94C01B0E94301BE881FA
:1039C000F9811082789480E090E002C084E090E079
:1039D000DF91CF911F910F9108959093C103809330
:1039E000C0030895E091C003F091C103309721F026
:1039F0000190F081E02D099480E00895E091C003EA
:103A0000F091C103309721F00280F381E02D0994F9
:103A100008952091BE033091BF032817390771F034
:103A20009093BF038093BE03E091C003F091C10364
:103A3000309721F00680F781E02D099408952091B8
:103A4000BC033091BD032817390771F09093BD0373
:103A50008093BC03E091C003F091C103309721F043
:103A60000084F185E02D0994089585B7806885BFAD
:103A700085B7806885BF089508950C943C1D0C940B
:103A80003D1D0C943C1D0C943C1D0E94351D0E9454
:103A9000411D0C943F1D0C94E40A0E9446280E948C
:103AA000930980E00E9490150E94AD280E948B121D
:103AB0000E944D140C94431D9F92AF92BF92CF92DF
:103AC000DF92EF92FF920F931F93CF93DF93CDB7C7
:103AD000DEB72A970FB6F894DEBF0FBECDBF0E94A7
:103AE000240AC82E0E944B1D811111C08FEF8983BB
:103AF0008A831B820E944F288160782F9D838C834C
:103B000049815A816B818D810E94FF1D40C083ECE9
:103B1000A82E83E0B82E00E010E0902E802F0E94A7
:103B20008009E82EF501D1905F01D82631F40F5FAE
:103B30001F4F0A30110589F7D9CF8091430481FDC9
:103B40000E94860980E0FF24F3949D2D9F21D1F0EF
:103B50008E839F82EF2081E009F480E088870E94B5
:103B60004F288160782F9A8789874E815F81688589
:103B70008A850E94FF1DF801ED53FC4F8081F826D5
:103B8000F08205C08F5FFF0C8630F9F6D0CF0E941F
:103B9000C3120E94AE140E940718C1100E94D616CC
:103BA0000E94F21C9091C2038917B9F00E94F21C86
:103BB0008093C2032A960FB6F894DEBF0FBECDBF26
:103BC000DF91CF911F910F91FF90EF90DF90CF90F9
:103BD000BF90AF909F900C945C072A960FB6F89414
:103BE000DEBF0FBECDBFDF91CF911F910F91FF9030
:103BF000EF90DF90CF90BF90AF909F900895CF93BC
:103C0000DF93CDB7DEB72B970FB6F894DEBF0FBEAC
:103C1000CDBF4F83588769877A878B87DE011196DE
:103C200086E0FD0111928A95E9F785E0FE0137965D
:103C300001900D928A95E1F749815A816B817C81CF
:103C40008D819E810E9496232B960FB6F894DEBF3D
:103C50000FBECDBFDF91CF910895FC01808191818E
:103C60000E94EF250895CF93882371F1C82F8CEF20
:103C70008C0F813AD0F46C2F80917001909171017A
:103C80000E948527882349F06C2F809170019091C4
:103C900071010E94BD270E946F266C2F80917001D8
:103CA000909171010E94BB270CC080E28C0F88307C
:103CB00058F4C77081E001C0880FCA95EAF70E94E6
:103CC0003126CF910C946F26CF910895882349F126
:103CD000682F8CEF860F813A38F4809170019091B3
:103CE00071010E94BD270CC080E2860F883050F41D
:103CF000677081E001C0880F6A95EAF70E94372655
:103D00000C946F268BE5860F833020F480E090E0E2
:103D10000C94091D685A673120F480E090E00C94FF
:103D20001F1D0895CF93C82F0E94331EC93349F435
:103D30002FEF87EE93E0215080409040E1F700C0E4
:103D400000008C2FCF910C94661E882321F00E94D6
:103D500031260C946F260895882321F00E9437267F
:103D60000C946F260895CF92DF92EF92FF920F93FB
:103D70001F93CF93DF937C01D62FC72FFC011581B2
:103D800012951F70028101110E944E260E94272663
:103D9000882399F0002389F08C2F807F803421F0D4
:103DA00080E28D0F883048F082E00E94B9260E94A0
:103DB000272691E0D82ED92601C0D12CCC2EC29432
:103DC0008FE0C8228C2D90E08C30910508F08DC1D9
:103DD000FC01E659FF4F0C94672F8C2F807FCF702A
:103DE000882311F0C295C07F002399F0CC2309F4F9
:103DF00068C180E28D0F883010F0D11104C08C2F83
:103E00000E94312603C08C2F0E9441260E946F26FB
:103E100058C18D2F0E94661ECC2309F466C180E232
:103E20008D0F883010F0D11104C08C2F0E943726DE
:103E300003C08C2F0E9447260E946F2656C18C2FEC
:103E4000807FCF70803211F0C295C07FDD2319F0E2
:103E5000D130C9F022C0002371F0112341F011309C
:103E600031F40E9454268C2B0E945C263EC10E9495
:103E700054268C2B1DC0112319F0113009F435C1C3
:103E80000E94652625C0002321F0163008F02DC1C0
:103E90000EC0153008F029C11BC0002361F01123AA
:103EA00031F0F701858180FF0CC18F7085838C2FE5
:103EB0000E94A51E1AC1112359F0D93309F012C16D
:103EC000FFEF07EE13E0F15000401040E1F708C1AA
:103ED0008C2F0E94AC1E09C18C2F837009F047C043
:103EE000011107C12D2F229526952770220F220F31
:103EF0006D2F6F70862F90E0A0E0B0E0022E04C01E
:103F0000880F991FAA1FBB1F0A94D2F7D4FF10C0B5
:103F10004FE050E060E070E004C0440F551F661FA2
:103F2000771F2A95D2F7409550956095709503C0FC
:103F300040E050E0BA01C695C695C3708A019B0166
:103F4000082B192B2A2B3B2BC901B801C23049F091
:103F500058F4C13019F00E946A24CBC00E94582442
:103F6000C8C00E947C24C5C00E945624C2C0002341
:103F700019F08C2F817001C08695882309F4B9C08F
:103F80002D2F229526952770220F220F6D2F6F70EF
:103F9000862F90E0A0E0B0E0022E04C0880F991FA9
:103FA000AA1FBB1F0A94D2F7D4FF10C04FE050E005
:103FB00060E070E004C0440F551F661F771F2A950C
:103FC000D2F7409550956095709503C040E050E061
:103FD000BA01C695C695C3708A019B01082B192B9F
:103FE0002A2B3B2BC901B801C23049F058F4C1302B
:103FF00019F00E942F257DC00E941D257AC00E94C5
:10400000412577C00E94902474C0CF70002339F0FE
:104010008C2F0E94B6248D2F0E94A51E6AC08D2F62
:104020000E94AC1E8C2F0E94D72463C0D23F01F1A6
:1040300028F4D03F41F0D13FA1F03FC0D33FF9F089
:10404000D43F39F13AC0002341F0153008F04DC09B
:104050008C2F8F710E94FC2448C0163008F045C098
:10406000F7CF002339F08C2F8F710E94B6243DC00A
:104070000023C9F38C2F8F710E94D72436C00023F0
:1040800029F08C2F8F710E94A1242FC00E949C24A4
:104090002CC0002349F0CF718C2F0E94B62463E01E
:1040A0008C2F0E94A42621C081E00E94B9261230E4
:1040B000E0F082E00E94B92618C0002331F01123FD
:1040C00091F28D2F0E94331E10C0112399F2D93323
:1040D00049F41FEF27EE33E0115020403040E1F764
:1040E00000C000008D2F0E94661E88EF8C0D84306A
:1040F00020F40E94F21C0E945C07DD20C9F00E949F
:10410000232680FD15C0F70112820E941D260E9401
:10411000B624C7010E94B9200E941D26DF91CF91CD
:104120001F910F91FF90EF90DF90CF900C94D724C8
:10413000DF91CF911F910F91FF90EF90DF90CF9083
:1041400008950F931F93CF93DF93EC0168817981DA
:104150008A810E94FA258C010E9453250E944424E2
:10416000B801CE010E94B31EDF91CF911F910F9134
:104170000895CF93DF93EC01988189812B813C8155
:10418000232B31F08F3F31F481E09F3F19F403C0BE
:1041900081E001C080E080FD19C0CE010E9475075A
:1041A00081110CC00E942726882381F08A818823F0
:1041B00069F082E0DF91CF910C94B926CE010E9484
:1041C000A120CE01DF91CF910C944007DF91CF91D8
:1041D00008950E944E260E9451260C946F268091CD
:1041E0007001909171010E94BF270C94E9200E94F8
:1041F0003E260C94EF20E92FE295EF704E2F50E011
:10420000FA013297EE30F105B0F4EA58FF4F0C9402
:10421000672F803F91F018F4883E68F40EC0843F09
:1042200051F40BC0883E48F0813F29F406C093FB4F
:10423000882780F9089580E0089581E008950E941C
:10424000EF250E94FB200895CF93DF9300D000D08C
:104250001F92CDB7DEB70F900F900F900F900F9079
:10426000DF91CF910895CF93DF9300D000D000D09D
:10427000CDB7DEB726960FB6F894DEBF0FBECDBF22
:10428000DF91CF9108951F93CF93DF93C091CE0319
:1042900016E08091CF03C81799F0D0E01C9FF00181
:1042A0001D9FF00D1124E053FC4F4081518162812C
:1042B0007381848195810E9433212196C770E9CF53
:1042C000DF91CF911F910895409100045091010416
:1042D000609102047091030480910404909105049C
:1042E0000C9433210F931F93CF93DF938091050498
:1042F00082958F7009F05DC080910204882309F4D3
:1043000058C08091CE031091CF036091000470914A
:104310000104C0910304D091040491E06F3F09F0BF
:1043200090E0292F06E0811709F443C0209721F07F
:104330007F3F21F030E003C031E001C0322F90E038
:1043400030FD34C0089FF001099FF00D1124DF01FA
:10435000A053BC4F11963C911197371327C03C9145
:10436000361324C012963C91129731111FC0139638
:104370004D915C9114974C1B5D0B44365105B0F484
:10438000809105048F70806180930504EB52FC4F8F
:1043900080818F708061808380E094E00E94B920EA
:1043A000DF91CF911F910F910C944321019687705B
:1043B000BACFDF91CF911F910F9108959F92AF9245
:1043C000BF92CF92DF92EF92FF920F931F93CF9302
:1043D000DF93CDB7DEB761970FB6F894DEBF0FBE9F
:1043E000CDBF8C0185E0F801DE011D9601900D9294
:1043F0008A95E1F7F80140815181E28090910004B3
:1044000060910104209103043091040421153105C9
:1044100031F06F3F31F481E09F3F19F403C081E038
:1044200001C080E0F82FF1709F2E80FD2CC1F801B3
:10443000A380B48080E0C82E84E0D82EF0900204DF
:10444000F501E21BF30BFF2009F4EBC0809105049A
:10445000E436F10508F0A7C0282F207F09F052C0EC
:10446000561313C0491311C0FE2CE1100EC08F70FB
:104470008061809305040E946421C6010E94B920D6
:1044800080910504F80185833EC1AB2831F05F3F80
:1044900031F481E04F3F19F403C081E001C080E0B6
:1044A00080FD03C081E08E2502C080E090E0F82FFF
:1044B000F170FF2E80FF1CC08091CE032091CF03AE
:1044C00036E0821709F4FDC090E0389FF001399F73
:1044D000F00D1124E053FC4F6181561306C060813A
:1044E000461303C06281E61203C001968770E9CFCC
:1044F000FE2CEE2009F407C18091050481608093B1
:10450000050466C0561312C0491310C0E1100EC056
:10451000F8018583C8010E94B92086E0F801A0E077
:10452000B4E001900D928A95E1F7C8C04D875E878F
:104530008D859E850E941F21882379F1EE2069F1E7
:1045400020910504822F82958F7090E0029774F07D
:10455000809100049091010498878F831986BB860F
:10456000AA862C87CE0107960E94B92086E0F80122
:10457000A0E0B4E001900D928A95E1F70E947221CB
:104580000E9464210DC0561729F14D875E878D85E5
:104590009E850E941F2181112CC0C8010E94B92054
:1045A000FF24F394B0C0282F207F69F77A2DB98AB1
:1045B000A88A6E2D89890E94242180E094E00E94BF
:1045C000B92086E0F60111928A95E9F70E946421EC
:1045D000F12C99C04913D9CFE110D7CFF8018583C9
:1045E000C8010E94B92086E0F60111928A95E9F788
:1045F0008AC0EE2091F220910504822F82958F705F
:1046000090E002970CF4B2CF8091000490910104E5
:104610009A8389831B82BD82AC822E83CE01019650
:10462000A3CFE436F10510F5FE2CEE2009F4B5CF4A
:1046300056130BC0491309C086E0F801A0E0B4E0AE
:1046400001900D928A95E1F75EC04D875E878D855A
:104650009E850E941F21811189CF80910504816070
:1046600080930504C8010E94B9204DC07A2DB98AF3
:10467000A88A6E2D89890E94242186E0F601119274
:104680008A95E9F71BC0EE2009F487CF4D875E8736
:104690008D859E850E941F21F82E882309F47DCFE9
:1046A00086E0F801A0E0B4E001900D928A95E1F770
:1046B00080E094E00E942D1E0E9472210E946421DD
:1046C00022C04D875E878D859E850E94EF25292F0C
:1046D00022952F70223028F49F7039F0811105C087
:1046E0000BC0243028F49F7049F4805E883020F09D
:1046F000C8010E94B9209F2CF92C05C0F8019581B2
:10470000907F99F7F9CF8F2D61960FB6F894DEBFA1
:104710000FBECDBFDF91CF911F910F91FF90EF9012
:10472000DF90CF90BF90AF909F9008951F93CF934D
:10473000DF93CDB7DEB72C970FB6F894DEBF0FBE70
:10474000CDBF4F83588769877A878B879C87CE0137
:1047500007960E94DE218823D1F09F8188852A85D3
:104760003B85232B31F08F3F31F481E09F3F19F4DB
:1047700003C081E001C080E080FD47C04F815885C3
:1047800069857A858B859C850E9433213EC086E0B1
:10479000FE013796DE01119601900D928A95E1F7A0
:1047A000FF81E8856A857B856115710531F0EF3FF2
:1047B00031F481E0FF3F19F403C081E001C080E0E3
:1047C00080FD23C02091CF0330E0C901019687709E
:1047D00099274091CE0350E084179507F1F1F983B2
:1047E000EA837D836C8396E0929FD001939FB00D06
:1047F0001124A053BC4FFE01319601900D929A9561
:10480000E1F78093CF030E94432116E08091CE030D
:104810009091CF03891771F1189FC0011124805323
:104820009C4F0E94DE21882329F1E091CE031E9F38
:10483000F0011124E053FC4F40815181628173816A
:10484000848195810E9433218091CE0390E001966E
:10485000877099278093CE03D9CF0E94F7201092BA
:10486000CF031092CE03E0E0F4E086E0DF011D927A
:104870008A95E9F72C960FB6F894DEBF0FBECDBF30
:10488000DF91CF911F910895089508950C944524C8
:104890000C9446240E94482460933204709333049D
:1048A00080933404909335040C94E9200C944A24AA
:1048B0000F931F930091320410913304209134041C
:1048C00030913504602B712B822B932B1F910F910C
:1048D0000C944A240F931F930091320410913304D7
:1048E0002091340430913504602371238223932373
:1048F0001F910F910C944A240F931F93009132043F
:1049000010913304209134043091350460277127CD
:10491000822793271F910F910C944A240C944524CD
:104920000E948E2460932E0470932F048093300491
:10493000909331040C94E92060E070E0CB010C947A
:1049400090240F931F9341E050E060E070E08A01F3
:104950009B0104C0000F111F221F331F8A95D2F73D
:10496000C901B8011F910F910C9490240F931F93CC
:1049700041E050E060E070E004C0440F551F661F46
:10498000771F8A95D2F780912E0490912F04A091E1
:104990003004B09131048A019B01082B192B2A2B7A
:1049A0003B2BC901B8011F910F910C9490240F93D8
:1049B0001F9341E050E060E070E004C0440F551FD9
:1049C000661F771F8A95D2F7409550956095709530
:1049D00080912E0490912F04A0913004B091310465
:1049E0008A019B01082319232A233B23C901B8010B
:1049F0001F910F910C9490240F931F9341E050E06E
:104A000060E070E004C0440F551F661F771F8A9551
:104A1000D2F780912E0490912F04A0913004B09190
:104A200031048A019B01082719272A273B27C9013E
:104A3000B8011F910F910C9490240F931F93009134
:104A40002E0410912F042091300430913104602BFA
:104A5000712B822B932B1F910F910C9490240F9309
:104A60001F9300912E0410912F0420913004309157
:104A7000310460237123822393231F910F910C949F
:104A800090240F931F9300912E0410912F042091D6
:104A900030043091310460277127822793271F91BA
:104AA0000F910C9490240895292F220F920F990FA3
:104AB000890FE82FE695E695E695877051E001C0ED
:104AC000550F8A95EAF785E0E89FF0011124EA5F27
:104AD000FB4F20E030E070E04081CB01022E02C0AD
:104AE000969587950A94E2F78170819584278523AE
:104AF000842781932F5F3F4F2530310569F7089553
:104B0000292F220F920F990F890F682F66956695AE
:104B10006695982F977085E0689FB001112440E05A
:104B200050E080E0FB01E40FF51FEA5FFB4F2081BE
:104B300030E0092E02C0369527950A94E2F72170DD
:104B40003327042E01C0220F0A94EAF7822B4F5F0D
:104B50005F4F4530510531F70895BF92CF92DF92F4
:104B6000EF92FF920F931F93CF93DF938C01C0902E
:104B70002E04D0902F04E0903004F0903104809106
:104B8000320490913304A0913404B0913504C82AC2
:104B9000D92AEA2AFB2ACFE1D0E0D701C6010C2EA0
:104BA00004C0B695A795979587950A94D2F780FD8E
:104BB00004C0219790F7B12C07C0BC2EB8018C2FF0
:104BC0000E94CB070197A9F38B2DDF91CF911F9105
:104BD0000F91FF90EF90DF90CF90BF900895CF930B
:104BE000DF93EC010E94AD25BE010E94CB07DF914F
:104BF000CF9108951F93CF93DF93EB019091CD0355
:104C0000992321F0CB010E94EF2513C0882349F09E
:104C1000CB010E94AD25182F682FCE010E9454258C
:104C200004C0CB010E948025182FBE01812F0E9455
:104C3000CB07DF91CF911F91089580913604859520
:104C40008595859508958091360487700895909193
:104C50003604977081E009F480E008958091420461
:104C6000089590914204892B809342040895809581
:104C70009091420489238093420408951092420443
:104C8000089590914104892B809341040895809563
:104C90009091410489238093410408951092410426
:104CA000089510924004089580913704089508955E
:104CB0000C9457260C94582690913704981721F09D
:104CC000809337040C945A260895809137048823E2
:104CD00029F01092370480E00C945A260895E09150
:104CE0007001F0917101809142048083E091700124
:104CF000F0917101908180914104892B8083E09132
:104D00007001F0917101908180914004892B808322
:104D100080913704882381F0E0917001F091710156
:104D20009081892B808380917001909171010E9404
:104D3000792781110E9465268091700190917101FF
:104D40000C94FE1C0C94572698E0899F9001112426
:104D5000262B209336040E94B62480913604859534
:104D6000859585950C94A2261092360480E00C94CB
:104D7000A226209136048095822380933604982FB2
:104D8000977079F430E0482F082E000C550B24174B
:104D9000350739F08595859585950E94D7240C9423
:104DA000B426089580E090E00E94C23221E08C3E5B
:104DB0009E4F09F020E0822F089582E090E00C944D
:104DC000B43283E090E00C94B432CF9384E090E06E
:104DD0000E94B432C82F81E290E00E94B4322C2F9E
:104DE00030E0A901582BCA01CF910895CF93C92F64
:104DF000682F84E090E00E94C8326C2F81E290E03E
:104E0000CF910C94C832AB01BC018FE090E00C94C0
:104E1000DA32AB01BC0183E190E00C94DA3260E05D
:104E200070E0CB010C94092760E070E0CB010E9498
:104E300003270C940F276CEE7EEF80E090E00E9439
:104E4000E63260E082E090E00E94C83260E083E0F9
:104E500090E00E94C83210923204109233041092F3
:104E600034041092350460E084E090E00E94C8327F
:104E700060E081E290E00E94C83260E085E090E06E
:104E80000E94C83260E086E090E00E94C8326FEF76
:104E900087E090E00E94C83240E050E0BA0188E02C
:104EA00090E00E94DA3260E08DE090E00E94C8322B
:104EB00040E050E0BA0188E190E00E94DA3260E020
:104EC00087E190E00E94C83240E050E0BA018CE1F6
:104ED00090E00E94DA3260E080E290E00E94C83206
:104EE0000C9414270C941B27682F8EE090E00C94F0
:104EF000C832FC01329697E080E0915029F0219170
:104F00002223D9F38F5FF9CF0895662349F0FC017E
:104F1000329608962191621729F0E817F907D1F720
:104F200080E0089581E008959C01FC0132969FEF96
:104F300080E04191461789F09F3F19F4411101C06B
:104F4000982F8F5F8630A9F79F3F39F0F901E90F5D
:104F5000F11D97FDFA956283089508959C012A5FDB
:104F60003F4FFC014281461301C012820196821715
:104F70009307B9F708950C9494270C94AE270296E2
:104F800026E0FC0111922A95E9F7089508950C9402
:104F9000C6270C94C627CF930E94C9270E94240AD3
:104FA0000E94C727C0E08C2F0E948009811104C095
:104FB000CF5FCA30C1F701C081E0CF9108950C9452
:104FC000C6270C94DF270E94E127809101078430D7
:104FD00049F11092440420E488E190E00FB6F8947F
:104FE000A895809360000FBE2093600080E00E942F
:104FF0005C070E94E12783B7817F846083BF83B70A
:10500000816083BF7894889583B78E7F83BF0FB606
:10501000F894A89580916000886180936000109258
:1050200060000FBE08950C94C6270E94F7200E94CE
:10503000F21C0E945C070C9413281F920F920FB66B
:105040000F9211248F939F93AF93BF938091440449
:10505000811113C08091F7069091F806A091F9068E
:10506000B091FA064196A11DB11D8093F706909369
:10507000F806A093F906B093FA06BF91AF919F91FD
:105080008F910F900FBE0F901F90189582E084BDF6
:1050900093E095BD9AEF97BD80936E0008952FB76A
:1050A000F8948091F7069091F806A091F906B091D6
:1050B000FA062FBF08952FB7F8946091F706709104
:1050C000F8068091F9069091FA062FBF08959C0189
:1050D0004FB7F8948091F7069091F806A091F906E1
:1050E000B091FA064FBF821B930B089578941F92DC
:1050F0000F920FB60F9211248F939F93AF93BF938C
:105100008091F7069091F806A091F906B091FA0601
:105110000196A11DB11D8093F7069093F806A09308
:10512000F906B093FA06BF91AF919F918F910F90BE
:105130000FBE0F901F90189587E797E7909301088F
:10514000809300089AE088E10FB6F894A8958093C0
:1051500060000FBE90936000FFCF0E94D2268111A5
:1051600002C00E9472270E94DD26809343040E94A1
:10517000E5269093FC068093FB060E94E126682FAB
:1051800070E080E090E00C94562480914D040895E6
:1051900008950895CF93DF93EC010E946A2A82302C
:1051A00011F0843039F581E08093E9008FEF909120
:1051B000E800815095FD06C095ED9A95F1F7000045
:1051C0008111F5CF8091E80085FF14C040E050E0E8
:1051D00068E070E0CE010E94872A8091E8008E7717
:1051E0008093E80088E0FE01A5E4B4E001900D9210
:1051F0008A95E1F7DF91CF91089508958091000796
:10520000811109C00E94182C0E94752C8091E20027
:1052100084608093E2000895109200070895089535
:1052200008950C94152842E061EC81E00C94912BD8
:1052300080910307833009F460C030F4813071F04D
:10524000823009F499C008958A3009F485C08B3002
:1052500009F46BC0893009F0A7C020C08091020713
:10526000813A09F0A1C08091E800877F8093E8002F
:105270008091060790910707892B21F468E085E467
:1052800094E003C060E080E090E070E00E94D22AE9
:105290008091E8008B778093E80008958091020761
:1052A000813209F081C08091060790910707892B10
:1052B00009F07AC08091E800877F8093E8008091B0
:1052C000E80082FD05C0809101078111F8CF6CC014
:1052D0002091F3008091F20090E0922B029729F444
:1052E0008091F1008B7F813021F48091F1008093D7
:1052F0004D048091E8008B7753C080910207813A7A
:1053000009F052C08091060790910707892B09F098
:105310004BC08091E800877F8093E8008091E8008F
:1053200080FFFCCF80917C0136C0809102078132E2
:10533000D9F58091060790910707892BA9F58091EF
:10534000E800877F8093E8000E94C62B80910407C5
:1053500080937C010C94F72080910207813221F523
:105360008091E800877F8093E8000E94C62B80919F
:10537000050780934E04089580910207813AA1F4B5
:105380008091E800877F8093E8008091E80080FFAB
:10539000FCCF80914E048093F1008091E8008E77DD
:1053A0008093E8000C94C62B089584B7877F84BF50
:1053B0000FB6F894A8958091600088618093600092
:1053C000109260000FBE90E080E80FB6F8948093D2
:1053D0006100909361000FBE0E94451D0E94182C31
:1053E0000E94752C8091E20084608093E2007894A2
:1053F0000E940A2F0E944D1D82E791E00E94ED1C41
:1054000080910107853069F40E94E3278091FF06AF
:105410008823B1F30E94CB27882391F30E94712A3D
:10542000EFCF0E945C1DECCF0C94162A292F332756
:1054300023303105C1F058F42130310579F02230A4
:105440003105C1F582E290E020E23BE037C0213235
:10545000310511F12232310531F12CC082E190E0A9
:1054600022E43BE02BC099278130910561F040F0A8
:105470008230910559F00397E9F4E2EFFAE008C0B1
:10548000ECE1FBE005C0E8E0FBE002C0E8EFFAE099
:10549000849190E09F0112C0672B61F489E090E055
:1054A00022E33BE00BC0672B29F480E490E024E585
:1054B0003BE004C080E090E020E030E0FA0131837E
:1054C0002083089580910107843011F081E00895D0
:1054D00082E0089580914F04811102C00C94622AE9
:1054E000089580E189BD82E189BD09B400FEFDCF48
:1054F0008091D8008F7D8093D8008091E0008260F9
:105500008093E0008091E00081FDFCCF0895CF9270
:10551000DF92EF92FF920F931F93CF93DF93EC01F3
:105520008B017A010E94E52B811133C0E114F10453
:1055300039F0F70180819181081B190BC80FD91F21
:10554000C12CD12C0115110519F18091E80085FDC0
:1055500016C08091E8008E778093E800E114F10492
:1055600049F0F70180819181C80ED91ED182C08295
:1055700085E00FC00E94E52B882321F30AC08991A2
:105580008093F10001501109FFEFCF1ADF0ADACF43
:1055900080E0DF91CF911F910F91FF90EF90DF900E
:1055A000CF900895209108073091090726173707F3
:1055B00048F06115710539F42091E8002E772093A9
:1055C000E80001C0B901FC0120E06115710579F125
:1055D000809101078823F1F18530F1F18091E80095
:1055E00083FD3CC08091E80082FD2EC08091E800E0
:1055F00080FFEBCF2091F3008091F20090E0922B9E
:105600006115710551F08830910538F4219120938E
:10561000F100615071090196F3CF21E0089709F07C
:1056200020E08091E8008E778093E800CECF2111B2
:10563000CFCF0AC080910107882361F0853061F0E7
:105640008091E80083FD0AC08091E80082FFF2CFDC
:1056500080E0089582E0089583E0089581E0089550
:1056600020910807309109072617370748F0611580
:10567000710539F42091E8002E772093E80001C0ED
:10568000B901FC0120E06115710591F180910107DC
:10569000882309F440C0853009F43FC08091E800B8
:1056A00083FD3DC08091E80082FD2FC08091E8001D
:1056B00080FFE9CF2091F3008091F20090E0922BDF
:1056C0006115710559F08830910540F424912093BB
:1056D000F1003196615071090196F2CF21E00897EF
:1056E00009F020E08091E8008E778093E800CBCF2E
:1056F0002111CCCF0AC080910107882361F0853049
:1057000061F08091E80083FD0AC08091E80082FF8B
:10571000F2CF80E0089582E0089583E0089581E06B
:105720000895982F973068F59093E900981739F00D
:105730007091EC002091ED005091F00003C0242FF7
:10574000762F50E021FD02C09F5FECCF3091EB003F
:105750003E7F3093EB003091ED003D7F3093ED00C4
:105760003091EB0031603093EB007093EC002093AC
:10577000ED005093F0002091EE0027FDE5CF80E092
:1057800008958F708093E90081E008958091020769
:1057900087FF11C08091E80082FD05C0809101075C
:1057A0008111F8CF11C08091E8008B770BC08091F8
:1057B0000107882349F08091E80080FFF8CF8091AD
:1057C000E8008E778093E80008952091E4003091FE
:1057D000E50095E64091EC00842F817040FF23C0E6
:1057E0008091E80080FD1DC080910107882399F019
:1057F000853099F08091EB0085FD11C04091E40067
:105800005091E5002417350729F3915011F09A01C2
:10581000E1CF84E0089582E0089583E0089581E077
:10582000089580E008954091E80042FFDDCF08959B
:105830000E94862C0E948E2CE0EEF0E08081816038
:105840008083E8EDF0E080818F77808319BCA7ED3D
:10585000B0E08C918E7F8C9380818F7E80831092BC
:10586000000708950F931F93CF93DF930E94862C18
:105870000E948E2CC8EDD0E088818F778883888144
:105880008068888388818F7D888319BC1092010786
:105890001092FD061092FF061092FE0600EE10E038
:1058A000F80180818B7F808388818160888342E0DA
:1058B00060E080E00E94912BE1EEF0E080818E7F3D
:1058C0008083E2EEF0E08081816080838081886067
:1058D0008083F80180818E7F8083888180618883C6
:1058E000DF91CF911F910F910895E8EDF0E0808155
:1058F0008F7E8083E7EDF0E080818160808384E0AB
:1059000082BF81E0809300070C94322CE8EDF0E038
:1059100080818E7F80831092E20008951092DA00D9
:105920001092E10008951F920F920FB60F9211246A
:105930002F933F934F935F936F937F938F939F9397
:10594000AF93BF93EF93FF938091E10082FF0BC071
:105950008091E20082FF07C08091E1008B7F8093FD
:10596000E1000E94092F8091DA0080FF1FC0809122
:10597000D80080FF1BC08091DA008E7F8093DA0010
:105980008091D90080FF0DC080E189BD82E189BD91
:1059900009B400FEFDCF81E0809301070E94FE283C
:1059A00005C019BC109201070E940C298091E100EA
:1059B00080FF19C08091E20080FF15C08091E20055
:1059C0008E7F8093E2008091E20080618093E2000C
:1059D0008091D80080628093D80019BC85E08093C4
:1059E00001070E9410298091E10084FF30C080915E
:1059F000E20084FF2CC080E189BD82E189BD09B449
:105A000000FEFDCF8091D8008F7D8093D8008091DB
:105A1000E1008F7E8093E1008091E2008F7E809391
:105A2000E2008091E20081608093E2008091FD06B7
:105A3000882311F084E007C08091E30087FD02C055
:105A400081E001C083E0809301070E9411298091C9
:105A5000E10083FF29C08091E20083FF25C080918F
:105A6000E100877F8093E10082E08093010710923C
:105A7000FD068091E1008E7F8093E1008091E2003D
:105A80008E7F8093E2008091E20080618093E2004B
:105A900042E060E080E00E94912B8091F0008860FD
:105AA0008093F0000E940F29FF91EF91BF91AF9179
:105AB0009F918F917F916F915F914F913F912F9126
:105AC0000F900FBE0F901F9018951F920F920FB658
:105AD0000F9211242F933F934F935F936F937F9374
