:100000000C9426030C946D030C946D030C94FF293F
:100010000C946D030C946D030C946D030C946D03A0
:100020000C946D030C946D030C947A310C944C3247
:100030000C94C82C0C946D030C946D030C946D03FC
:100040000C946D030C946D030C946D030C946D0370
:100050000C946D030C943D2D0C946D030C946D0366
:100060000C946D030C946D030C946D030C946D0350
:100070000C946D030C946D030C946D030C946D0340
:100080000C946D030C946D030C946D030C946D0330
:100090000C946D030C946D030C946D030C946D0320
:1000A0000C946D030C946D030C946D03AC06AC06BC
:1000B000DF06DF0606072308230823083007C507E5
:1000C000D707D707A008A008B208B208A908B20845
:1000D000B208B208A008A008AE08B208B208AE087C
:1000E000B932E032D833E032D8332C334F33D833FF
:1000F000A633B5330102E30102E17A0103E1010312
:10010000E3000102E0790103E0000102E37A010368
:10011000E3000102E07A0103E0000102E37601035B
:10012000E3000102E0760103E0000102E37801034D
:10013000E3000102E0780103E0000102E363010350
:10014000E3000102E0630103E00029001E001F003C
:100150002000210022002B0034003600370013005D
:100160001C00E10004001200080018000C00E00070
:10017000330014000D000E001B000000E300E2003D
:1001800002512C00015335002700260025002400D1
:1001900023002E000F00150006000A0009002D00A4
:1001A0001600110017000B00070038001D00190091
:1001B0001A001000050000004C002A00035128001E
:1001C000AE0029001E001F002000210022002B008D
:1001D00014001A00080015001700E10004001600C2
:1001E000070009000A00E0001D001B0006001900BE
:1001F00005000000E300E20002512C000100350080
:10020000270026002500240023002D0013001200E3
:100210000C0018001C002E0233000F000E000D0011
:100220000B003100380037003600100011000000CC
:100230004C002A00035128000100005C3A003B00FA
:100240003C003D003E00010001004B004E00460016
:10025000665D0100010031022F003000655D010084
:100260005000520051004F00675D00000100010086
:1002700001000100645D4400430042004100400071
:100280003F00450001004E004B00010001004D0001
:100290004F005100520050004A0031004F00510001
:1002A0005200500001000000010001000451010053
:1002B0000100010001000100010001000100010036
:1002C0000100010001000100010001000100010026
:1002D0000100010001000100010001000100010016
:1002E0000100000001000100045101000100A6000E
:1002F00000005600550054005300000057006100F4
:1003000060005F004600B20085005E005D005C009A
:100310004C00000067005B005A0059002A000000F2
:1003200063006200010001000100A5000000000060
:10033000015C005CDF5C00000000000000000000C9
:100340000000BD00A9000000000000000000BE0089
:10035000AA000000000000000000000001000100F1
:100360000100010000000000D25CD15CD05CCF5CD9
:10037000CE5C00000000D65CD55CD45CD35CCA5C6B
:10038000C85CC65CCC5CC45CC35CCB5CC95CC75C51
:10039000CD5CC55C0000000001000100010001000F
:1003A000000000000000000000002A2B28000000D0
:1003B0000000000000000000000000000029000014
:1003C00000002C1E3420212224342627252E362DF1
:1003D0003738271E1F202122232425263333362E8B
:1003E00037381F0405060708090A0B0C0D0E0F10FD
:1003F0001112131415161718191A1B1C1D2F313042
:10040000232D350405060708090A0B0C0D0E0F10E5
:100410001112131415161718191A1B1C1D2F313021
:10042000354C00000000000000000000000000004B
:1004300000000000000000000000000000000000BC
:100440000000000000007E0F00D4FFFFFFC7000087
:100450000078000101010101010101010202020213
:10046000020202020203030303030303030404045E
:100470000404040405050505050606060606070727
:1004800007070708080808090909090A0A0A0B0BDF
:100490000B0C0C0C0D0D0D0E0E0E0F0F0F1010117E
:1004A0001111121213131414151516161717181804
:1004B00019191A1A1B1B1C1D1D1E1E1F202021226C
:1004C00022232424252626272829292A2B2C2D2DB2
:1004D0002E2F30313232333435363738393A3B3CCF
:1004E0003D3E3F404142434445464748494A4C4DC2
:1004F0004E4F50515354555658595A5B5D5E5F618B
:100500006264656668696B6C6D6F7072737577781D
:100510007A7B7D7E8082838587888A8C8E8F91937B
:100520009596989A9C9EA0A2A3A5A7A9ABADAFB1A2
:10053000B3B5B7BABCBEC0C2C4C6C9CBCDCFD1D487
:10054000D6D8DBDDDFE2E4E7E9EBEEF0F3F5F8FA2D
:10055000FDFF1C034C0069006C0079003500380079
:1005600047006C006F00770045006E0063000000DC
:1005700016034F0052005600490053004500560034
:1005800041004E00530000000403090409023B002F
:10059000020100A0FA090400000103010100092181
:1005A000110100012240000705810308000A090427
:1005B00001000103000000092111010001223200A5
:1005C0000705820320000A12010002000000085102
:1005D000FC590000010102000105010980A101850B
:1005E0000319012AB700150126B70095017510817E
:1005F00000C0050C0901A101850419012AA00215FA
:100600000126A002950175108100C005010906A10F
:1006100001050719E029E7150025019508750181F5
:10062000029501750881010507190029FF150026AB
:10063000FF00950675088100050819012905950533
:1006400075019102950175039101C00011241FBE2F
:10065000CFEFDAE0DEBFCDBF04B603FE27C0809146
:100660007A0590917B05A0917C05B0917D0587303E
:10067000904BA740B04BD1F410927A0510927B05B5
:1006800010927C0510927D0514BE84B7877F84BFCD
:100690000FB6F894A89580916000886180936000FF
:1006A000109260000FBEE0E0F8E3099512E0A0E0D0
:1006B000B1E0E6EFFAE602C005900D92A83FB1075F
:1006C000D9F725E0A8EFB2E001C01D92AA37B20722
:1006D000E1F70E94F1150C9479350C9400000E940A
:1006E000270E60933D0470933E0480933F049093E3
:1006F0004004089510923D0410923E0410923F046D
:100700001092400480E0816080933D0460913D043C
:1007100070913E0480913F04909140040C942B0E04
:10072000FB012281222309F442C08536FDE59F07A3
:10073000F9F0B0F484369D45D1F580913D04982FB1
:10074000909590FB80F980933D0460913D047091F9
:100750003E0480913F04909140040E942B0E27C0DC
:100760008636FDE59F0771F087369D45A9F01FC0CD
:1007700080913D0480FF03C082E491E016C08AE3CB
:1007800091E013C080913D0480FF03C082E391E0BB
:100790000CC08AE291E009C080913D0480FF03C053
:1007A00082E291E002C08AE191E00E947D0581E051
:1007B0000895811116C080913D04662341F080FFA9
:1007C00003C082E191E00AC08AE091E007C080FFA7
:1007D00003C082E091E002C084EF90E00E947D05BA
:1007E00009C0813039F4662311F089EA01C08AEA30
:1007F0000E94720680E00895089581E008950C94A7
:10080000900308950C9401041F93CF93DF9300D0BD
:1008100000D01F92CDB7DEB749835A836B833091E6
:10082000FA0289819A81311114C0662359F022237A
:1008300049F00E94460A182F682F89819A810E94E8
:10084000ED0903C00E94190A182F69817A81812F4E
:1008500004C00E94460A69817A810F900F900F9020
:100860000F900F90DF91CF911F910C948A10FC0193
:10087000262F408151816281738184810C9404040C
:1008800081E00895CF93DF93EC0160E00E9437048C
:10089000BE01DF91CF910C9402040E947C110E9452
:1008A00087050E94E7230C94B4110C94B2110895AB
:1008B0000E948E080E9457042FEF84E39CE0215091
:1008C00080409040E1F700C000000C94632D0F932E
:1008D0001F93CF93DF93EC0161E00E9437048C01FA
:1008E000BE010E94FF03882379F1BE01C8010E9466
:1008F000A727882349F1BE01C8010E94F927882350
:1009000019F1BE01C8010E942B298823E9F0BE011C
:10091000C8010E943F258823B9F08A81882369F0A5
:1009200001158CE5180731F00F3D1C4531F40E948C
:10093000970E0AC00E94580407C0CE01DF91CF91E4
:100940001F910F910C94FD0380E0DF91CF911F91D7
:100950000F910895DF92EF92FF920F931F93CF9321
:10096000DF93E82FF0E0EE55FC4FD490282F26952A
:100970002695269530E0F901EE5BFB4F04918770D8
:1009800010E0082E02C0159507950A94E2F7017051
:100990001127F901EE5CFB4FE490F12C082E02C008
:1009A000F594E7940A94E2F791E0E922FF24F90133
:1009B000EE5DFB4FC491D0E002C0D595C7958A95F6
:1009C000E2F7C170DD270115110519F081EE0E94D3
:1009D000E105E114F10419F086EE0E94E1058D2D88
:1009E0000E947206EF2819F086EE0E942F06012B56
:1009F00019F081EE0E942F06CD2B51F08CE2DF9191
:100A0000CF911F910F91FF90EF90DF900C947206A1
:100A1000DF91CF911F910F91FF90EF90DF9008959C
:100A2000EF92FF920F931F93CF93DF938C01F62EDB
:100A30008AE0E82EF8018491882309F457C08130B8
:100A400009F042C0E8012196FE018491813031F421
:100A50002196FE0184910E94720639C0823039F4D9
:100A6000E8012296FE0184910E94E10530C08330A6
:100A700039F4E8012296FE0184910E942F0627C0D6
:100A8000843029F5E8012296FE01249180E090E06F
:100A900030E0205331092A30310560F4E89EA0018E
:100AA000E99E500D1124C901840F951F2196FE0166
:100AB0002491EECF009759F0EFE9FFE03197F1F77D
:100AC00000C000000197F6CF0E94AA04E8018E0141
:100AD0000F5F1F4F8F2D882309F4ACCFEFE9FFE0A4
:100AE0003197F1F700C000008150F5CFDF91CF9131
:100AF0001F910F91FF90EF90089560E00C94100506
:100B000008950C94800581E008950C948305089560
:100B1000CF93C82F0E9481058C2F0E948505CF910D
:100B20000895CF93DF93CDB7DEB72B970FB6F89428
:100B3000DEBF0FBECDBF4F83588769877A878B870B
:100B400061110E94EA0D9E012F5F3F4F86E0F9017F
:100B500011928A95E9F785E0FE013796D901019057
:100B60000D928A95E1F789819A814C815D81452BAF
:100B700031F09F3F31F491E08F3F19F403C091E0D1
:100B800001C090E090FF09C049815A816B817C814E
:100B90008D819E810E94FD0C05C0C9010E94400408
:100BA0008111F2CF2B960FB6F894DEBF0FBECDBFEA
:100BB000DF91CF910895FC01808191810E94880A84
:100BC0000895CF93882309F448C0C82F8CEF8C0F69
:100BD000813AD0F46C2F80911802909119020E94F2
:100BE000CD2B882349F06C2F809118029091190227
:100BF0000E94052C0E94AB0D6C2F809118029091E1
:100C000019020E94032C0CC080E28C0F883058F42B
:100C1000C77081E001C0880FCA95EAF70E94CD0D28
:100C2000CF910C94AB0DEBE5EC0FE33040F4F0E02A
:100C3000EF56FD4F808190E0CF910C94A12BC85AC4
:100C4000C73158F4EC2FF0E0EE0FFF1FED59FD4FC8
:100C500080819181CF910C94B72BCF9108958823F7
:100C600049F1682F8CEF860F813A38F48091180291
:100C7000909119020E94052C0CC080E2860F8830EA
:100C800050F4677081E001C0880F6A95EAF70E940E
:100C9000D30D0C94AB0D8BE5860F833020F480E0F0
:100CA00090E00C94A12B685A673120F480E090E02A
:100CB0000C94B72B08951F93CF93DF93182FEB015C
:100CC0000E94E105209741F08FE99FE00197F1F73D
:100CD00000C000002197F6CF812FDF91CF911F91A7
:100CE0000C942F06893319F06AE070E002C060E5C9
:100CF00070E00C945B06882321F00E94CD0D0C94CB
:100D0000AB0D0895882321F00E94D30D0C94AB0DF8
:100D10000895CF92DF92EF92FF920F931F93CF939C
:100D2000DF93DC01C62F972F12962C911297159600
:100D30004C911597342F32953F70172F12951F70D5
:100D4000C12ED12C8CE0C816D10408F07CC1F6016C
:100D5000EA5AFF4F0C946534872F807F9F70D92FFC
:100D6000882311F0D295D07F222399F0DD2309F456
:100D700051C180E28C0F883010F0C11104C08D2F5A
:100D80000E94CD0D03C08D2F0E94DD0D0E94AB0D82
:100D900041C18C2F0E942F06DD2309F454C180E24B
:100DA0008C0F883010F0C11104C08D2F0E94D30D1C
:100DB00003C08D2F0E94E30D0E94AB0D44C1872F0D
:100DC000807F9F70803211F4892F03C0892F829514
:100DD000807FC13051F4222321F0363008F033C136
:100DE0000DC0353008F02FC10EC0222351F033233F
:100DF00029F040FF0FC14F7015964C930E947B065F
:100E000022C131110DC10E9482061DC1872F869516
:100E10008695837019F0813091F015C1222319F065
:100E2000862F937002C080E090E0DF91CF911F91F8
:100E30000F91FF90EF90DF90CF900C94A12B222385
:100E400019F0862F937002C080E090E0DF91CF917F
:100E50001F910F91FF90EF90DF90CF900C94B72BE4
:100E6000872F837009F045C02111F0C0862F82952D
:100E700086958770880F880F462F4F7050E060E08E
:100E800070E0082E04C0440F551F661F771F0A9498
:100E9000D2F7C4FF10C00FE010E020E030E004C043
:100EA000000F111F221F331F8A95D2F7009510954E
:100EB0002095309503C000E010E098019695969536
:100EC000E92FE370CB01BA01602B712B822B932B9E
:100ED000E23049F058F4E13019F00E940309B6C03D
:100EE0000E94F108B3C00E941509B0C00E94EF082B
:100EF000ADC0222319F0872F817001C08695882309
:100F000009F4A4C08C2F829586958770880F880F6E
:100F10004C2F4F7050E060E070E0082E04C0440F8A
:100F2000551F661F771F0A94D2F7C4FF10C00FE049
:100F300010E020E030E004C0000F111F221F331F1B
:100F40008A95D2F7009510952095309503C000E062
:100F500010E0980196959695E92FE370CB01BA01C0
:100F6000602B712B822B932BE23049F058F4E13047
:100F700019F00E94C8096AC00E94B60967C00E94A1
:100F8000DA0964C00E94290961C0D72FDF702223CB
:100F900039F08D2F0E944F098C2F0E947B0656C07E
:100FA000862F0E9482068D2F0E9470094FC0613FDC
:100FB000A9F018F4603F31F029C0623FB1F0633FFF
:100FC000D9F024C0222339F03530E8F5892F8F710C
:100FD0000E94950938C03630B0F5F8CF222339F099
:100FE000892F8F710E944F092EC02223C9F3892FA8
:100FF0008F710E94700927C0222329F0872F8F71DB
:101000000E943A0920C00E9435091DC0222331F0F8
:10101000332331F38C2F0E94E10515C0332339F3BC
:10102000C93341F49FEF27EE83E091502040804088
:10103000E1F704C08FE39CE90197F1F700C00000DD
:101040008C2F0E942F061850143060F40E94832BBE
:10105000DF91CF911F910F91FF90EF90DF90CF9094
:101060000C948805DF91CF911F910F91FF90EF9025
:10107000DF90CF9008950F931F93CF93DF93EC01F0
:10108000688179818A810E94930A8C010E94EC090F
:101090000E94DD08B801CE010E948906DF91CF9140
:1010A0001F910F910895CF93DF93FC01908181816F
:1010B00023813481232B31F08F3F31F481E09F3F36
:1010C00019F403C081E001C080E080FD0EC0EF0193
:1010D000CF010E946704882341F0CE010E943B08A3
:1010E000CE01DF91CF910C944204DF91CF9108950E
:1010F00080E090E00E94A12B80E090E00E94B72B5E
:101100000E94EA0D0E94ED0D0C94AB0D8091180227
:10111000909119020E94072C0C9478080E94DA0D15
:101120000C948608E92FE295EF704E2F50E0FA01FB
:101130003297EE30F105B0F4EE59FF4F0C94653460
:10114000803F91F018F4883E68F40EC0843F51F45B
:101150000BC0883E48F0813F29F406C093FB8827E6
:1011600080F9089580E0089581E00895FC01808170
:1011700091810E94880A0E9492080895CF93DF937C
:1011800000D000D01F92CDB7DEB70F900F900F9018
:101190000F900F90DF91CF910895CF93DF9300D000
:1011A00000D000D0CDB7DEB726960FB6F894DEBFDC
:1011B0000FBECDBFDF91CF910895089508950C948F
:1011C000DE080C94DF080E94E10860932703709307
:1011D00028038093290390932A030C9478080C9495
:1011E000E3080F931F930091270310912803209188
:1011F000290330912A03602B712B822B932B1F9193
:101200000F910C94E3080F931F9300912703109103
:1012100028032091290330912A036023712382231C
:1012200093231F910F910C94E3080F931F93009148
:101230002703109128032091290330912A03602766
:101240007127822793271F910F910C94E3080C9428
:10125000DE080E9427096093230370932403809380
:101260002503909326030C94780860E070E0CB018E
:101270000C9429090F931F9341E050E060E070E067
:101280008A019B0104C0000F111F221F331F8A9582
:10129000D2F7C901B8011F910F910C9429090F933E
:1012A0001F9341E050E060E070E004C0440F551F20
:1012B000661F771F8A95D2F78091230390912403AC
:1012C000A0912503B09126038A019B01082B192BBD
:1012D0002A2B3B2BC901B8011F910F910C942909AE
:1012E0000F931F9341E050E060E070E004C0440FB2
:1012F000551F661F771F8A95D2F7409550956095C8
:1013000070958091230390912403A0912503B091BF
:1013100026038A019B01082319232A233B23C901A1
:10132000B8011F910F910C9429090F931F9341E06D
:1013300050E060E070E004C0440F551F661F771F47
:101340008A95D2F78091230390912403A0912503DD
:10135000B09126038A019B01082719272A273B27DA
:10136000C901B8011F910F910C9429090F931F9384
:10137000009123031091240320912503309126032B
:10138000602B712B822B932B1F910F910C942909A9
:101390000F931F93009123031091240320912503A1
:1013A0003091260360237123822393231F910F9191
:1013B0000C9429090F931F93009123031091240388
:1013C00020912503309126036027712782279327D8
:1013D0001F910F910C9429090895292F220F920F24
:1013E000990F890FE82FE695E695E695877051E00D
:1013F00001C0550F8A95EAF785E0E89FF0011124B6
:10140000E550FD4F20E030E070E04081CB01022E3E
:1014100002C0969587950A94E2F78170819584279A
:101420008523842781932F5F3F4F2530310569F74E
:101430000895292F220F920F990F890F682F669513
:1014400066956695982F977085E0689FB001112486
:1014500040E050E080E0FB01E40FF51FE550FD4F58
:10146000208130E0092E02C0369527950A94E2F7D4
:1014700021703327042E01C0220F0A94EAF7822B31
:101480004F5F5F4F4530510531F70895BF92CF92BE
:10149000DF92EF92FF920F931F93CF93DF938C0114
:1014A000C0902303D0902403E0902503F0902603FE
:1014B0008091270390912803A0912903B0912A03DA
:1014C000C82AD92AEA2AFB2ACFE1D0E0D701C601EF
:1014D0000C2E04C0B695A795979587950A94D2F7D8
:1014E00080FD04C0219790F7B12C07C0BC2EB80135
:1014F0008C2F0E949D100197A9F38B2DDF91CF9126
:101500001F910F91FF90EF90DF90CF90BF900895C3
:10151000CF93DF93EC010E94460ABE010E949D100A
:10152000DF91CF9108951F93CF93DF93EB019091BB
:10153000FA02992321F0CB010E94880A13C0882364
:1015400049F0CB010E94460A182F682FCE010E9455
:10155000ED0904C0CB010E94190A182FBE01812F8A
:101560000E949D10DF91CF911F9108951F93CF93FB
:10157000DF93C0912B0316E080912C03C81799F0DC
:10158000D0E01C9FF0011D9FF00D1124E35DFC4F86
:101590004081518162817381848195810E94CD084F
:1015A0002196C770E9CFDF91CF911F9108954091A7
:1015B0005D0350915E0360915F03709160038091C1
:1015C0006103909162030C94CD080F931F93CF9306
:1015D000DF938091620382958F7009F05DC08091E6
:1015E0005F03882309F458C080912B0310912C03CA
:1015F00060915D0370915E03C0916003D0916103BF
:1016000091E06F3F09F090E0292F06E0811709F47F
:1016100043C0209721F07F3F21F030E003C031E04C
:1016200001C0322F90E030FD34C0089FF001099FC7
:10163000F00D1124DF01A35DBC4F11963C91119771
:10164000371327C03C91361324C012963C91129751
:1016500031111FC013964D915C9114974C1B5D0B7B
:1016600044365105B0F4809162038F70806180939D
:101670006203EE5CFC4F80818F70806180838DE51A
:1016800093E00E945308DF91CF911F910F910C942A
:10169000B60A01968770BACFDF91CF911F910F9153
:1016A00008959F92AF92BF92CF92DF92EF92FF92F6
:1016B0000F931F93CF93DF93CDB7DEB761970FB62C
:1016C000F894DEBF0FBECDBF8C0185E0F801DE01CE
:1016D0001D9601900D928A95E1F7F801E2809091B4
:1016E0005D0360915E0320916003309161032115D9
:1016F000310531F06F3F31F481E09F3F19F403C0B1
:1017000081E001C080E0F82FF1709F2E80FD25C19F
:10171000F80140815181A380B4808DE5C82E83E01B
:10172000D82EF0905F03F501E21BF30BFF2009F4C4
:10173000E5C080916203E436F10508F0A1C0282FCE
:10174000207F09F052C0561313C0491311C0FE2C5C
:10175000E1100EC08F708061809362030E94D70AEF
:10176000C6010E94530880916203F801858332C14B
:10177000AB2831F05F3F31F481E04F3F19F403C0F3
:1017800081E001C080E080FD03C081E08E2502C0C1
:1017900080E090E0F82FF170FF2E80FF1CC0809158
:1017A0002B0320912C0336E0821709F4F1C090E05E
:1017B000389FF001399FF00D1124E35DFC4F6181EA
:1017C000561306C06081461303C06281E61203C04F
:1017D00001968770E9CFFE2CEE2009F4FBC08091C2
:1017E000620381608093620360C0561312C0491384
:1017F00010C0E1100EC0F8018583C8010E94530893
:1018000086E0F801ADE5B3E001900D928A95E1F72D
:10181000BCC0C8010E94B608882361F1EE2051F1D6
:1018200020916203822F82958F7090E0029774F06E
:1018300080915D0390915E0398878F831986BB86A4
:10184000AA862C87CE0107960E94530886E0F801ED
:10185000ADE5B3E001900D928A95E1F70E94E50AAB
:101860000E94D70A0AC0561711F1C8010E94B60893
:1018700081112CC0C8010E945308FF24F394AAC010
:10188000282F207F81F77A2DB98AA88A6E2D898921
:101890000E94BE088DE593E00E94530886E0F601A1
:1018A00011928A95E9F70E94D70AF12C93C0491347
:1018B000DCCFE110DACFF8018583C8010E9453081C
:1018C00086E0F60111928A95E9F784C0EE2091F244
:1018D00020916203822F82958F7090E002970CF422
:1018E000B5CF80915D0390915E039A8389831B82BB
:1018F000BD82AC822E83CE010196A6CFE436F105DF
:10190000F8F4FE2CEE2009F4B5CF56130BC04913A2
:1019100009C086E0F801ADE5B3E001900D928A952B
:10192000E1F758C0C8010E94B60881118FCF80919D
:101930006203816080936203C8010E9453084AC019
:101940007A2DB98AA88A6E2D89890E94BE0886E000
:10195000F60111928A95E9F718C0EE2009F48ACFB2
:10196000C8010E94B608F82E882309F483CF86E0C8
:10197000F801ADE5B3E001900D928A95E1F78DE5B0
:1019800093E00E94DB050E94E50A0E94D70A22C06C
:101990004D875E878D859E850E94880A292F229516
:1019A0002F70223028F49F7039F0811105C00BC0D0
:1019B000243028F49F7049F4805E883020F0C801FC
:1019C0000E9453089F2CF92C05C0F8019581907F47
:1019D00099F7F9CF8F2D61960FB6F894DEBF0FBE41
:1019E000CDBFDF91CF911F910F91FF90EF90DF90CE
:1019F000CF90BF90AF909F9008951F93CF93DF93A8
:101A0000CDB7DEB72C970FB6F894DEBF0FBECDBFB3
:101A10004F83588769877A878B879C87CE01079683
:101A20000E94510B8823D1F09F8188852A853B85B0
:101A3000232B31F08F3F31F481E09F3F19F403C035
:101A400081E001C080E080FD47C04F8158856985F5
:101A50007A858B859C850E94CD083EC086E0FE017C
:101A60003796DE01119601900D928A95E1F7FF817C
:101A7000E8856A857B856115710531F0EF3F31F4AA
:101A800081E0FF3F19F403C081E001C080E080FDE8
:101A900023C020912C0330E0C9010196877099275B
:101AA00040912B0350E084179507F1F1F983EA8305
:101AB0007D836C8396E0929FD001939FB00D11249B
:101AC000A35DBC4FFE01319601900D929A95E1F70E
:101AD00080932C030E94B60A16E080912B0390910C
:101AE0002C03891771F1189FC0011124835D9C4F4D
:101AF0000E94510B882329F1E0912B031E9FF001D6
:101B00001124E35DFC4F40815181628173818481A6
:101B100095810E94CD0880912B0390E001968770FB
:101B2000992780932B03D9CF0E948E0810922C0303
:101B300010922B03EDE5F3E086E0DF011D928A951C
:101B4000E9F72C960FB6F894DEBF0FBECDBFDF913C
:101B5000CF911F910895E0911802F09119028091A0
:101B60006D038083E0911802F091190290818091B9
:101B70006C03892B8083E0911802F0911902908107
:101B800080916B03892B80838091180290911902B8
:101B90000C94962B80916D03089590916D03892B81
:101BA00080936D030895809590916D0389238093B0
:101BB0006D03089510926D03089590916C03892B25
:101BC00080936C030895809590916C038923809392
:101BD0006C03089510926C03089510926B0308959E
:101BE00080E090E00E941D3521E0893E9E4F09F083
:101BF00020E0822F089582E090E00C940F3583E07E
:101C000090E00C940F35CF9384E090E00E940F3564
:101C1000C82F82E290E00E940F352C2F30E0A901FE
:101C2000582BCA01CF910895CF93C92F682F84E014
:101C300090E00E9433356C2F82E290E0CF910C94BB
:101C40003335AB01BC018FE090E00C94453583E166
:101C500090E00C941735AB01BC0183E190E00C944B
:101C6000453560E070E0CB010E94210E0C947A03B0
:101C700069EE7EEF80E090E00E94513560E082E006
:101C800090E00E94333560E083E090E00E943335BD
:101C900010922703109228031092290310922A030E
:101CA00060E084E090E00E94333560E082E290E002
:101CB0000E94333560E085E090E00E94333560E0BB
:101CC00086E090E00E9433356FEF87E090E00E945D
:101CD000333540E050E0BA0188E090E00E9445359D
:101CE00060E08DE090E00E94333540E050E0BA01C2
:101CF00088E190E00E94453560E087E190E00E9435
:101D0000333540E050E0BA018CE190E00E94453567
:101D100060E070E080E290E00E94513540E050E0E9
:101D2000BA0188E190E00E9445350C94310E0C9484
:101D3000380E682F8EE090E00C9433350E94062D0B
:101D40006093810370938203809383039093840351
:101D500060937D0370937E0380937F039093800351
:101D600008950E94062D60938103709382038093EF
:101D70008303909384036093790370937A03809331
:101D80007B0390937C03089585B7806885BF85B7F2
:101D9000806885BF08950C945F1308950C94CD0E50
:101DA0000C946F030C94CD0E0C94D20E0C94CD0EAB
:101DB0000E94C40E89E791E10E94742D0E94D60E04
:101DC0000C94D40E0E94CE0E0C94CD0E0E94F12CD9
:101DD0000E940E2C0E945A120E941C270E94092663
:101DE0000C94D00E9F92AF92BF92CF92DF92EF925F
:101DF000FF920F931F93CF93DF93CDB7DEB72A9750
:101E00000FB6F894DEBF0FBECDBF0E94D412811171
:101E10000E949E0E8FE6A82E83E0B82E00E010E010
:101E2000902E802F0E94A011D82EF501C1905F0145
:101E3000C826B1F40F5F1F4F0A30110589F78FEFE5
:101E400089838A831B820E94FA2C8160782F9D836C
:101E50008C8349815A816B818D810E94910538C0A4
:101E60008091850381FD0E94A611F12CEE24E3945C
:101E70008C2D8E2139F10E94CB0EDE20882399F023
:101E8000FE829F8281E0D11001C080E088870E949D
:101E9000FA2C8160782F9A8789874E815F816885C7
:101EA0008A850E949105F801E159FC4F8081E8265E
:101EB000E08241E0D11001C040E06F2D892D0E94E9
:101EC0000D2106C0F394EE0CF6E0FF12D1CFB2CF95
:101ED0000E9426230E946A2681110E94B10E0E9450
:101EE000832B90916E038917B9F00E94832B809306
:101EF0006E032A960FB6F894DEBF0FBECDBFDF91FA
:101F0000CF911F910F91FF90EF90DF90CF90BF90F6
:101F1000AF909F900C9488052A960FB6F894DEBF78
:101F20000FBECDBFDF91CF911F910F91FF90EF902A
:101F3000DF90CF90BF90AF909F900895CF93DF93A5
:101F40000E94A210EC01811521E5920790F5811500
:101F500030E5930708F07BC08F3B910590F4883AF9
:101F6000910508F068C0853A910508F05AC08430A0
:101F7000910508F0CBC0019709F0C5C081E090E061
:101F8000C6C0811540E2940758F4811551E09507C9
:101F900008F0BCC0805E9109089708F4B7C0B3C0D0
:101FA000C11580E4D80708F4AEC0DF70CE01906A96
:101FB000AEC0811524E5920780F4811533E59307BF
:101FC00008F07AC0811542E5940708F060C0D82F68
:101FD000CC27CE01816F906A9AC081155AE595078A
:101FE00080F4C11589E5D80708F07BC0C11528E544
:101FF000D20708F488C0DC2FCC27CE01806F906A0E
:1020000086C090568115904208F07DC08D2F8F714B
:102010000E943611DD27D0628F71AE01582BCA01A4
:1020200076C0C55AD0E0CE53DD4F8881C82FD0E0AE
:10203000CE0190646CC0C85AD0E0CC0FDD1FCC56E6
:10204000DD4F0990D881C02DCE01946460C054E06A
:10205000969587955A95E1F7282F23703C2F33707A
:1020600081E090E002C0880F991F3A95E2F79C68E2
:10207000AC01522B9A019C2F9F709695969550E239
:10208000959FE0011124C9018C2B9D2B40C08370CA
:10209000992721E030E002C0220F331F8A95E2F732
:1020A0009C2F9695969580E2989FE0011124C22B73
:1020B000D32BCE019C682BC08370992721E030E0A0
:1020C00002C0220F331F8A95E2F79C2F96959695B2
:1020D00040E2949FE0011124C22BD32BCE019A68D9
:1020E00016C08C2F8F700E94361194E0D695C7953C
:1020F0009A95E1F7CF70D0E0DC2FCC27D0699E0114
:10210000282BC90104C080E090E001C0CE01DF911E
:10211000CF9108952CE3829FC0011124FC0126E099
:10212000729FE00DF11D1124E60FF11DEE0FFF1F50
:10213000E65BFE4F8591949108950E948A100E945B
:102140009E0F08958238910569F1B0F481339105AD
:1021500009F46DC048F48932910509F463C08A32EC
:10216000910509F469C008958533910509F455C0B6
:1021700089339105B9F00895833E910569F138F4EA
:10218000803E9105B1F0823E910509F10895863EA9
:102190009105A9F1873E9105B9F1843E910509F0B9
:1021A00064C023C02091410420FD4FC021FD4DC0DB
:1021B00008958091410480FD44C08091420480FFD5
:1021C00044C08091410484FD42C083EE4DC08091A3
:1021D000410482FF38C0F5CF8091410482FD33C0B5
:1021E0008091420480FD31C0ECCF8091420481FF98
:1021F00032C08091410484FD2AC087EE35C08091B1
:10220000410483FF26C0F5CF8091410483FD21C0A6
:102210008091420481FD1FC0ECCF8091410485FD77
:102220001CC01DC08091410485FD19C016C080915D
:10223000410486FD16C017C08091410486FD13C07D
:1022400010C089E311C082EE0FC080EE0DC080E0A7
:102250000BC086EE09C084EE07C089E205C085E3A5
:1022600003C08AE201C081E390E0089590914104A7
:1022700092FF0DC0282F2871283019F4877F8460C1
:1022800006C0282F2471243011F48B7F886093FFBF
:102290000DC0282F2871283119F4877E846106C06B
:1022A000282F2471243111F48B7E886120914204FF
:1022B00020FF0DC0382F3871383019F4877F8160C6
:1022C00006C0382F3171313011F48E7F886021FFC4
:1022D0000DC0282F2871283119F4877E816106C02E
:1022E000282F2171213111F48E7E886194FD877E23
:1022F000089580E0089508950E94F00D811102C0B4
:102300000E94970E0E94FB0D809385030E94030E8E
:1023100090934204809341040E947B110E94FF0D20
:10232000682F70E080E090E00E94EF086091230346
:102330007091240380912503909126030C94270922
:10234000E82FF0E0E35BFB4F80810895089580EA79
:102350008A95F1F7089500C008950C94A711089587
:102360000C94AF110C94B0110C94FC03F894E82F6A
:10237000E295EF70F0E031A1282F2F7081E090E01E
:1023800001C0880F2A95EAF7982F9095932391A37F
:1023900092A1892B82A37894089508950C94CD116D
:1023A0000F931F93CF93DF93CBECD2E089918F3FB4
:1023B00011F00E94B61182E0C03DD807B9F7C5EC14
:1023C000D2E00BEC12E089918F3F11F00E94B61120
:1023D0000C171D07C1F7DF91CF911F910F91089541
:1023E000CF92DF92EF92FF920F931F93CF93DF93E1
:1023F0008C01C62FD0E0CE0185539D4F7C01FC019E
:1024000090819F3F09F44DC0D62EF894E92FE295B4
:10241000EF70F0E081A19F7021E030E001C0220F59
:102420009A95EAF7822B81A382A12095282322A3E3
:1024300078940E94AB11E5ECF2E020E030E0C12C92
:1024400051E041914F3FB1F0A42FA295AF70B0E0A1
:1024500090968C9190E04F7002C0959587954A9523
:10246000E2F780FD07C0852F022E01C0880F0A9475
:10247000EAF701C080E0C82A2F5F3F4F26303105C0
:1024800001F7F70180818F3F11F00E94B61161E0E2
:10249000C11001C060E08D2D0E94AD11C00FD11F91
:1024A000C882DF91CF911F910F91FF90EF90DF9045
:1024B000CF9008950E94791380911A0280911A0298
:1024C000811102C095E001C090E09093580485E02E
:1024D000891B809357040E94D011E3E4F4E0ADE43B
:1024E000B4E011921D9284E0ED34F807D1F785E055
:1024F0000E9428130E944D040C9483130F931F9382
:10250000CF93DF9300D000D01F92CDB7DEB70E94EB
:102510005F1360915804882379F18E010F5F1F4F7C
:1025200085E0F80111928A95E9F7862F90E0B801CD
:10253000835B9B4F0E949113E09157049E012A5F99
:102540003F4FF0E0E35BFB4FD801882361F010E0E0
:102550008D919081981711F0808311E03196A21728
:10256000B307B1F706C011921D92A217B307D9F7AE
:1025700011E00E9455040DC070E0635B7B4F8091B9
:10258000570490E0835B9B4F0E9421140E94CE1160
:1025900010E0812F0F900F900F900F900F90DF9110
:1025A000CF911F910F910895EF92FF920F931F9378
:1025B000CF93DF93CDB7DEB72A970FB6F894DEBF7F
:1025C0000FBECDBF8E010F5F1F4F8AE0F801119241
:1025D0008A95E9F7F12C6F2DC8010E94F011F39450
:1025E000F5E0FF12F8CF4AE050E0B80183E494E050
:1025F0000E94E9347C0121E0892B09F420E0E114F8
:10260000F10441F08AE0F801A3E4B4E001900D92F6
:102610008A95E1F76091580470E0635B7B4F45E079
:1026200083E494E00E942913EF2819F40E947E129B
:1026300002C081E090E02A960FB6F894DEBF0FBE8C
:10264000CDBFDF91CF911F910F91FF90EF90089533
:102650000895FF920F931F93CF93DF938C01F62E73
:10266000D72FC42F222349F081E0809388030E9452
:10267000FA2C9093870380938603809188038823A4
:10268000C1F080918603909187030E94122D0597D7
:1026900080F0EF2DFD2FD8014C2F50E0CD01801B95
:1026A000910B841795071CF48D918193F7CF1092AD
:1026B0008803DF91CF911F910F91FF900895809132
:1026C0008B0381110DC00E941134811102C082E080
:1026D00001C081E080938B03823011F40E940C349E
:1026E00081E090918B03913009F080E008950C9483
:1026F0005F130E94771380931A020E945F13811167
:102700000C94C91308950E945F13811102C00C94A8
:10271000CB13089581E090918C039A3008F080E00B
:1027200008950F931F93CF93DF93EC018B0180915A
:102730008C038A3038F4B801CE010E941F14811135
:102740001DC00AC08091890390918A030E94122DB6
:10275000843F914080F715C080918C038F3F19F022
:102760008F5F80938C0380918C038A3060F00E948D
:10277000FA2C90938A038093890303C010928C03F0
:1027800002C080E001C081E0DF91CF911F910F91E5
:1027900008950C94B9290C94BC29EF92FF920F93E1
:1027A0001F93CF93DF937901C82F880FDD0B41155D
:1027B0005105A9F08AE08C9FF0018D9FF00D112446
:1027C000E55EFD4F8381948183579C4F228130E0E9
:1027D0004217530708F49A01A9010E94F634CE016A
:1027E0000E94C62A892B09F50115110501F18AE01D
:1027F0008C9FF0018D9FF00D1124E55EFD4F45810A
:1028000050E00417150708F4A8018AE08C9FF00136
:102810008D9FF00D1124E55EFD4F66817781635732
:102820007C4FC7010E94F63402C080E001C081E005
:10283000DF91CF911F910F91FF90EF9008950C942D
:102840007D150C94A1150F931F93CF93DF9300D0A8
:1028500000D0CDB7DEB76091AA037091AB03809131
:10286000AC039091AD030E94212D64367105810562
:10287000910528F10E94342CDC01CB010296A11DA8
:10288000B11D89839A83AB83BC8300E010E020E014
:1028900030E044E050E0BE016F5F7F4F84E00E9473
:1028A000CD13182F882361F00E94062D6093AA0390
:1028B0007093AB038093AC039093AD0301C011E020
:1028C000812F0F900F900F900F90DF91CF911F915C
:1028D0000F9108957F928F929F92AF92BF92CF9265
:1028E000DF92EF92FF920F931F93CF93DF931F928C
:1028F000CDB7DEB7762E4A015901680101E010E03C
:102900009E012F5F3F4F40E050E060E070E00E948A
:10291000CD13182F882379F1F401608171818281B0
:1029200093810E94212D6436710581059105E0F0A7
:102930008701950140E050E060E070E0872D0E9443
:10294000CD13182FB701C6010E941D2791E02981E0
:10295000281390E01923A1F00E94062DF401608352
:102960007183828393830CC0B701C6010E941D2727
:1029700099818913DDCFA701B601C5010E94F63404
:10298000812F0F90DF91CF911F910F91FF90EF90CA
:10299000DF90CF90BF90AF909F908F907F900895E1
:1029A000EF92FF920F931F93CF93DF931F92CDB7B8
:1029B000DEB70091D5021091D602095F1F4FEE24B9
:1029C000E394F12C9E012F5F3F4F46EA53E063E012
:1029D00082E00E946A14182F882321F0CE0101960C
:1029E0000E94DD26812F0F90DF91CF911F910F91D3
:1029F000FF90EF900895CF92DF92EF92FF920F93A6
:102A00001F93CF93DF9300D000D01F92CDB7DEB7D6
:102A10006B010091D5021091D6020F5F1F4F85E028
:102A2000E82EF12C9E012F5F3F4F42EA53E061E018
:102A300080E00E946A14882349F095E0FE013196F7
:102A4000ADE9B3E001900D929A95E1F795E0EDE9DB
:102A5000F3E0D60101900D929A95E1F70F900F9057
:102A60000F900F900F90DF91CF911F910F91FF90DA
:102A7000EF90DF90CF900895AF92BF92CF92DF9208
:102A8000EF92FF920F931F93CF93DF937C015B0133
:102A90006A010E948A13811103C001E010E002C0A4
:102AA0000AE010E0C1E0D0E0F894B501C701F601FA
:102AB00009957894811115C021960C171D0794F083
:102AC000CC9F9001CD9F300D300D112480E090E01F
:102AD00045E34A95F1F70000019682179307C1F785
:102AE000E3CF81E0DF91CF911F910F91FF90EF90A5
:102AF000DF90CF90BF90AF9008950F931F93CF9327
:102B0000DF93EC018B014BEF54E10E943C158823CD
:102B100091F040ED54E1B801CE010E943C158823AC
:102B200051F043E254E1B801CE01DF91CF911F9102
:102B30000F910C943C1580E0DF91CF911F910F9184
:102B400008950F931F93CF93DF931F92CDB7DEB7F6
:102B5000F8940091D5021091D602C801019625E0A3
:102B6000FB01DC0101900D922A95E1F765E070E030
:102B70000E941D27F80180837894F894CE01019675
:102B80000E94D4268981F801878361E070E0CE013C
:102B900001960E941D27F80186837894F894608539
:102BA0007185828593850091990310919A032091F4
:102BB0009B0330919C03601771078207930751F0C4
:102BC0006093990370939A0380939B0390939C0363
:102BD0000E94172C78940F90DF91CF911F910F9145
:102BE00008950E946C2C0E94B72E0E94D02E0E9445
:102BF000E22E0E94E20EFBCFEF92FF920F931F9303
:102C0000CF93DF938B01682F11110AC0442329F061
:102C1000E82FF0E0EE5AFB4F6491762F862F75C0B7
:102C2000212F30E0E82FF0E0442321F0EE5AFB4F53
:102C3000E491F0E046E0049FC0011124CFEFD0E022
:102C4000BE010E941E344BEA4603C001479F900D0F
:102C50001124800F911D800F911D982F990F890FBE
:102C6000AE01421B530B4E9FD0014F9FB00D5E9F94
:102C7000B00D11249B2F189FA0011124452F55271B
:102C80008E01041B150B0E9FA0010F9F500D1E9F60
:102C9000500D11247E01E81AF108E29E8001E39EA6
:102CA000100DF29E100D1124212F3327C21BD30BC0
:102CB000CE9F9001CF9F300DDE9F300D11246230EA
:102CC0007105A9F048F46115710569F0613071056D
:102CD000C9F48B2F752F0DC06430710581F058F049
:102CE0006630710579F47E2F8B2F932F0DC0832FC3
:102CF0007B2F9E2F09C08E2F7B2F952F05C08E2FE7
:102D0000732F02C07E2F852F692FDF91CF911F91E6
:102D10000F91FF90EF90089541E00E94FC150895F7
:102D200020E030E0869F212D969F200D311D11243B
:102D3000C9010895BC018230910508F40895613EEF
:102D40008EE1780748F49B0195E0369527959A9592
:102D5000E1F748E0420F01C04FEF91E0242F30E04F
:102D6000290F311D35952795229FF001239FF00DE6
:102D7000F00D11246E177F0718F44FEF420F04C0B7
:102D80002F3F39F091E0920F491740F78FEF890FED
:102D900008958FEF0895482F982F46FD9095E92FBD
:102DA000EF739F7046FD9F5FE295EF70EE0FF0E0CE
:102DB000E952FD4F2181299F802D212D11248295DB
:102DC0008F702295207F822B3081982F930F892F2F
:102DD00047FD819580580895E42FF0E0EE0FFF1F26
:102DE000E05CFE4F408134EE439F412D1124E72FDC
:102DF000F0E050E0445E5F4FDA01A21BB1099D0193
:102E0000B7FF03C031952195310993E0220F331F9D
:102E10009A95E1F7AF01421B530B9A0157FF02C08D
:102E200020E030E0279F212D1124722F0895E42FF8
:102E3000F0E0EE0FFF1FE05CFE4F408134EE439F59
:102E4000412D1124E82FF0E050E0445E5F4FDA019D
:102E5000A21BB1099D01B7FF03C03195219531092E
:102E600093E0220F331F9A95E1F7AF01421B530BFA
:102E70009A0157FF02C020E030E0582F259F212DF6
:102E80001124822F0895622F0895E42FF0E0EE0FB1
:102E9000FF1FE05CFE4F6081621B0895E42FF0E0AD
:102EA000EE0FFF1FEC5FFE4F65AD621B0895A22F72
:102EB00050E0FA01EE0FFF1FEC5FFE4F95AD905210
:102EC00097FD9195440F551FFA01E05CFE4F30814C
:102ED000232F30E02A1B3109290F311D97FD3A9528
:102EE000620F0895EF920F931F9393E0099F800163
:102EF0001124159507956E2D600F1F910F91EF907E
:102F000008950F931F93522F10E0F801EE0FFF1F4B
:102F1000EC5FFE4FE5ADF0E0B0979F015203D001AA
:102F2000539FB00D1124000F111FF801E05CFE4FFC
:102F3000008110E00057110940039001419F300DBE
:102F400011242A0F3B1F37FF02C021583F4F220F89
:102F5000232F221F330B620F1F910F9108950F93A0
:102F60001F9310E0F801EE0FFF1FE05CFE4F908111
:102F7000905797FD9195000F111FF801EC5FFE4FE0
:102F8000E5ADF0E0B097DF01AA0FBB1F8D010E0F7A
:102F90001F1F2003D001219FB00D1124E8E3F0E0B2
:102FA000E91BF10997FDF3959F01220F331F89015A
:102FB0000E0F1F1F40039001419F300D11242A0F57
:102FC0003B1F37FF02C021583F4F220F232F221FE4
:102FD000330B620F1F910F9108950F931F93CF939F
:102FE000DF93D62F072F182FC42F822F0E94CB16C6
:102FF000EC2FF0E0EE0FFF1FE05CFE4F9081905849
:10300000890F87FD8195880F682F2CE0629F612DC5
:1030100011246D0F702F812FDF91CF911F910F9190
:103020000895E42FF0E0EE0FFF1FE05CFE4F90816B
:10303000921B97FD9195292F38E1239F212D112473
:10304000620F089522E8241B08F420E0620F08951F
:10305000EF92FF920F93970195E0099F200D311D8C
:1030600011242F3F310519F010F02FEF30E020959B
:10307000382F320F08F43FEF832F0F91FF90EF901E
:103080000895EF92FF920F93972F093438F4B70108
:10309000601B71096F3F710519F010F06FEF70E060
:1030A000485F5F4F4131510540F0A901485F5F4FD4
:1030B0004131510510F06FEF70E06095482F460FD9
:1030C00008F44FEF842F37FF02C02D5F3F4F359537
:1030D00027953595279560915B04620F792F0F91A5
:1030E000FF90EF900895EF92FF920F939701201BAE
:1030F00031092F3F310519F010F02FEF30E0322F5A
:103100003095482F430F08F44FEF842F620F0F9133
:10311000FF90EF900895EF92FF920F939701201B7D
:1031200031092F3F310519F010F02FEF30E02095D5
:10313000382F320F08F43FEF832F0F91FF90EF905D
:103140000895FC019B01009721F477FF2BC080E8D4
:103150000895AC0197FF04C044275527481B590B1D
:10316000B901640F751F37FD0CC0241B350BC90155
:10317000A5E0880F991FAA95E1F70E94323480E2FA
:103180000CC0CB0165E0880F991F6A95E1F7BA0181
:10319000621B730B0E94323480E6861BF7FF03C06C
:1031A0008195089580E00895FF920F931F93CF9328
:1031B000DF93F62E172FD82FC901C72FC01BBA01D6
:1031C0000E94A118982F990F890F7C2F781B719F4F
:1031D000712D11246F2D8D2FDF91CF911F910F91A4
:1031E000FF900895FF920F931F93CF93DF93F62ED6
:1031F000D72F182FC901C12FC01BBA010E94A118D7
:10320000982F990F890FC81B2C2F219F212D112436
:10321000822F6F2D7D2FDF91CF911F910F91FF9006
:103220000895EF920F931F93CF93DF93D62F172F0D
:10323000C82FC9010E19070FBA010E94A118702FDB
:10324000781B719F712D11246D2F8C2FDF91CF91E1
:103250001F910F91EF900895EF920F931F93CF93CB
:10326000DF93D62FC72F182FC9010E19010FBA01EE
:103270000E94A118081B202F219F212D1124822F8D
:103280006D2F7C2FDF91CF911F910F91EF900895BB
:103290000F93CF93DF93D72FC82FC901BA010E9494
:1032A000A118682F600F7D2F8C2FDF91CF910F9188
:1032B0000895EF920F93CF93DF93D72FC82FC901B3
:1032C0000E19BA010E94A118602F681B7D2F8C2F48
:1032D000DF91CF910F91EF9008950E948C16089581
:1032E0001F93CF93DF935FEF580FA1E0A80F4FEF2D
:1032F000460F91E0960FC82FD0E0461780F426E0E5
:103300002C9FF0012D9FF00D1124E352FC4FE40F90
:10331000F11D208130E1230F08F42FEF2083262FA9
:1033200030E076E07C9FF0017D9FF00D1124E352A8
:10333000FC4FEF01C20FD31F788110E2710F08F428
:103340007FEF7883963040F4E90FF11D708110E132
:10335000710F08F47FEF7083AA3070F5B0E0461764
:1033600080F476E07A9FF0017B9FF00D1124E35208
:10337000FC4FE40FF11D70811DE0710F08F47FEF29
:10338000708376E07A9FF0017B9FF00D1124E35269
:10339000FC4FDF01A20FB31F7C9110E1710F08F405
:1033A0007FEF7C93963040F4E90FF11D70811DE0B2
:1033B000710F08F47FEF7083581778F5A52FB0E0F0
:1033C000461780F486E08A9FF0018B9FF00D112450
:1033D000E352FC4FE40FF11D40815DE0450F08F41E
:1033E0004FEF408386E08A9FF0018B9FF00D112400
:1033F000E352FC4FDF01A20FB31F2C9130E1230FEA
:1034000008F42FEF2C93963040F4E90FF11D208142
:103410003DE0230F08F42FEF2083DF91CF911F9120
:10342000089546E050E06CE170E08AE594E00C9489
:10343000FF3446E050E06CE170E08AE594E00C94E3
:103440002335EAE5F4E085E3808380916002909182
:103450006102A091620281839283A3838FE78483B8
:103460008FEF85830C94191A80E008950F931F93B2
:10347000CF93DF93C82FD62F8A010E94341A96E08B
:10348000C99FF0011124EC5FFE4FED0FF11D9081FB
:103490009F3F29F0F801E80FF11D90838F5FDF91C6
:1034A000CF911F910F910895E091E502F091E6020E
:1034B0000994E091E102F091E20209944F925F9247
:1034C0006F927F928F929F92AF92BF92CF92DF9234
:1034D000EF920F931F93CF93DF932C013B01FC01DD
:1034E000C0818FE0C89FC02D1124DFE0DC0FD934EC
:1034F00008F0D8E460915E04669580916004909134
:1035000061040E949016182FCD1708F044C08C2E2D
:10351000912CF401E053FE4F9081F20181818923C7
:10352000C1F1F401EE0FFF1FE05CFE4FC080D12C13
:10353000F0E7CF1AD108F401EE0FFF1FEC5FFE4F4A
:10354000A5ACB12C80E2A81AB108CC9C9001CD9C0E
:10355000300D300D1124AA9CC001AB9C900D900D34
:103560001124820F931F0E949A16082F60915B040A
:1035700070915C0480915D04E12E9501A601F30138
:1035800009950E946D19462F282F672FC4010E94AC
:10359000591ACF5FB9CF81E0D83408F080E0DF91CD
:1035A000CF911F910F91EF90DF90CF90BF90AF9090
:1035B0009F908F907F906F905F904F90089561E102
:1035C00079E10C945E1A6CE279E10C945E1A62E780
:1035D00077E10C945E1A69E579E10C945E1AAF927A
:1035E000BF92CF92DF92EF92FF920F931F93CF93F0
:1035F000DF936C015B01FC01C0818FE0C89FC02D8F
:103600001124DFE0DC0FD93408F0D8E460915E04C7
:10361000669580916004909161040E949016182F25
:10362000CD1778F5EC2EF12CF701E053FE4F908189
:10363000F6018181892319F1F701EE0FFF1FEC5F7D
:10364000FE4F25AD30E020523109F701EE0FFF1F8C
:10365000E05CFE4F408150E04057510960915B04AF
:1036600070915C0480915D04012FF50109950E9421
:103670006D19462F282F672FC7010E94591ACF5F57
:10368000CFCF81E0D83408F080E0DF91CF911F9157
:103690000F91FF90EF90DF90CF90BF90AF90089583
:1036A00064ED78E10C94EF1A62EF78E10C94EF1A74
:1036B00068E479E10C94EF1ABF92CF92DF92EF9217
:1036C000FF920F931F93CF93DF938C017B01FC013B
:1036D000C0818FE0C89FC02D1124DFE0DC0FD934FA
:1036E00008F0D8E460915E046695669521E0620F6B
:1036F00008F46FEF80916004909161040E9490162D
:10370000B82ECD17F0F4CC2ED12CF601E053FE4F9D
:103710009081F8018181892391F060915B0470911F
:103720005C0480915D042B2D4C2FF70109950E94BC
:103730006D19462F282F672FC6010E94591ACF5F97
:10374000E0CF81E0D83408F080E0DF91CF911F9185
:103750000F91FF90EF90DF90CF90BF9008956CEEA7
:1037600076E10C945C1B67E177E10C945C1B63E4ED
:1037700077E10C945C1B65E477E10C945C1B6EE4D0
:1037800077E10C945C1B67E577E10C945C1B6DEEB4
:1037900077E10C945C1B61E178E10C945C1B7F92F7
:1037A0008F929F92AF92BF92CF92DF92EF92FF9251
:1037B0000F931F93CF93DF936C015B01FC01C081DA
:1037C0008FE0C89FC02D1124DFE0DC0FD93408F052
:1037D000D8E460915E04669566958091600490914E
:1037E00061040E949016182F80E4810F0E94CB166E
:1037F00090E8F92EF80E812F0E94CB1620E8722E49
:10380000780ECD1700F58C2E912CF401E053FE4F6D
:103810009081F60181818923A1F060915B04709110
:103820005C0480915D04E12E0C2F272D4F2DF501B6
:1038300009950E946D19462F282F672FC4010E94F9
:10384000591ACF5FDECF81E0D83408F080E0DF91F5
:10385000CF911F910F91FF90EF90DF90CF90BF908D
:10386000AF909F908F907F90089561E877E10C94DE
:10387000CF1B6FEA77E10C94CF1BAF92BF92CF9230
:10388000DF92EF92FF920F931F93CF93DF938C0100
:103890007B01FC01C0818FE0C89FC02D1124DFE0B7
:1038A000DC0FD93408F0D8E420915E0431E0230F16
:1038B00008F42FEF30E040E050E06FEF7FEF80E062
:1038C00090E00E9446346901CD1708F041C0AC2E4B
:1038D000B12CF501E053FE4F9081F80181818923DD
:1038E000A9F190916404915097FD15C0292F092EDC
:1038F000000C330BF901EC59FB4F8189C813F3CF4E
:10390000220F331FF901EC59FB4F218D328D2C15FD
:103910003D0548F701C0960160915E0441E0640FE7
:1039200008F46FEFC9010E949016AC0160915B042E
:1039300070915C0480915D04F70109950E946D19F6
:10394000462F282F672FC5010E94591ACF5FBCCF81
:1039500081E0D83408F080E0DF91CF911F910F9182
:10396000FF90EF90DF90CF90BF90AF90089562E20C
:1039700078E10C943D1C2F923F924F925F926F9290
:103980007F928F929F92AF92BF92CF92DF92EF92EF
:10399000FF920F931F93CF93DF93CDB7DEB7299795
:1039A0000FB6F894DEBF0FBECDBF8B834B013A013B
:1039B000DB011C918FE0189F102D1124BFE0B10F87
:1039C000B983B93410F0E8E4E983F0916404FA8330
:1039D0008981181708F07FC0A12EB12CF501E053A2
:1039E000FE4F9081D40111968C91892309F471C006
:1039F00020905B0430905C044B80512CC501880FF3
:103A0000991FFC01E05CFE4FFD83EC83C501880F2C
:103A1000991F9C012F5B3E4F3F832E83FA814F16E7
:103A200008F047C0E42CF12CAC81BD81BC91EB2F98
:103A3000F0E0F987E887F701EC59FB4F8181288591
:103A40003985281B310939872887AE81BF81CC9001
:103A5000D12C8185C81AD108F901EE9F9001EF9F02
:103A6000300D300D1124CC9CC001CD9C900D900DDB
:103A70001124820F931F0E949A16082F60915E04F2
:103A800021E0620F08F46FEFF701EE0FFF1FEC5912
:103A9000FB4F818D928D0E9490167C019601488586
:103AA0005985B101852DF30109951B014394582EC9
:103AB000B5CF20915D04352D329F312D1124832FF8
:103AC000B1010E946D19462F282F672FC5010E9452
:103AD000591A1F5F7DCF81E09981983408F080E00A
:103AE00029960FB6F894DEBF0FBECDBFDF91CF9100
:103AF0001F910F91FF90EF90DF90CF90BF90AF900C
:103B00009F908F907F906F905F904F903F902F90FD
:103B100008952091640431E0231B08F420E048E27A
:103B200058E1BC01822F0C94BB1C2091640431E04D
:103B3000231B08F420E041E458E1BC01822F0C94DF
:103B4000BB1C2091640431E0231B08F420E043E710
:103B500058E1BC01822F0C94BB1C2091640431E01D
:103B6000231B08F420E04BE858E1BC01822F0C94A1
:103B7000BB1CDF92EF92FF920F931F93CF93DF93C3
:103B80008C01DC018C91CFE08C9FC02D1124DFE0F3
:103B9000DC0FD93408F0D8E460915B0470915C04C8
:103BA00080915D040E946D19F62EE72ED82ECD1758
:103BB00098F4EC2FF0E0DF01A053BE4F8C91D801B8
:103BC00011969C91982331F02D2D4F2D6E2DCF0104
:103BD0000E94591ACF5FEBCF81E0D83408F080E023
:103BE000DF91CF911F910F91FF90EF90DF9008959B
:103BF000AF92BF92CF92DF92EF92FF920F931F93FB
:103C0000CF93DF938C01FC01C0818FE0C89FC02D52
:103C10001124DFE0DC0FD93408F0D8E4E0905C0434
:103C2000F0905D04D0905B046D2D7E2D8F2D0E9451
:103C30006D19C62EB72EA82E60915E046D0D7E2DD7
:103C40008F2D0E946D19F62EE72ED82ECD17B8F4C1
:103C50008C2F90E0FC01E053FE4F3081F801218170
:103C6000232359F030FF04C02D2D4F2D6E2D03C09E
:103C70002A2D4C2D6B2D0E94591ACF5FE7CF81E082
:103C8000D83408F080E0DF91CF911F910F91FF9021
:103C9000EF90DF90CF90BF90AF900895BF92CF92FA
:103CA000DF92EF92FF920F931F93CF93DF936C01FC
:103CB000FC01C0818FE0C89FC02D1124DFE0DC0F24
:103CC000D93408F0D8E400915C04B0905D042091F0
:103CD0005E0410E4129F112D1124CD1718F5EC2E5F
:103CE000F12CF701E053FE4F9081F6018181892389
:103CF000B9F0F701EE0FFF1FEC5FFE4F85AD829527
:103D00008F7060915B04819F600D1124702F8B2D4B
:103D10000E946D19462F282F672FC7010E94591A3C
:103D2000CF5FDBCF81E0D83408F080E0DF91CF9126
:103D30001F910F91FF90EF90DF90CF90BF9008956B
:103D4000BF92CF92DF92EF92FF920F931F93CF9388
:103D5000DF937C01FC01C0818FE0C89FC02D11243E
:103D6000DFE0DC0FD93408F0D8E4C0905C04B090F8
:103D70005D0420915E0430E4D32E3D2D329F312D21
:103D80001124D32ECD1738F50C2F10E0F801E05395
:103D9000FE4F9081F70181818923D9F0F801EE0F60
:103DA000FF1FE05CFE4F6081D69EB001112495E0BC
:103DB000759567959A95E1F780915B04680F7C2D66
:103DC0008B2D0E946D19462F282F672FC8010E9446
:103DD000591ACF5FD7CF81E0D83408F080E0DF9167
:103DE000CF911F910F91FF90EF90DF90CF90BF90F8
:103DF0000895DF92EF92FF920F931F93CF93DF937B
:103E00008C01DC01CC918FE0C89FC02D1124DFE034
:103E1000DC0FD93408F0D8E4E0905B04F0905C0447
:103E2000D0905D0460915E0466956695669580917C
:103E30006004909161040E9490160E94CB168058F5
:103E400087FD8195880F282F3D2D239F212D11243B
:103E5000822FB7010E946D19F62EE72ED82ECD17AE
:103E600098F4EC2FF0E0DF01A053BE4F8C91D80105
:103E700011969C91982331F02D2D4F2D6E2DCF0151
:103E80000E94591ACF5FEBCF81E0D83408F080E070
:103E9000DF91CF911F910F91FF90EF90DF900895E8
:103EA0001F93CF93DF93FC01E053FE4F20816223E9
:103EB000D1F0EC010E94D934182F0E94D9348F77A9
:103EC000782F20E8720F08F47FEF612F80915D0456
:103ED0000E946D19462F282F672FCE01DF91CF91B9
:103EE0001F910C94591ADF91CF911F910895CF9291
:103EF000DF92FF920F931F93CF93DF938C01FC010E
:103F0000C281C1111DC060915E0420E1620F08F4FE
:103F10006FEF80916004909161040E94901665E0BB
:103F200070E00E941E34892B59F50E94D93468E450
:103F300070E00E943234F80161810E94501F20C05D
:103F4000FC018081CFE08C9FC02D11249FE0F92ED1
:103F5000FC0EF8E4FF1510F488E4F82ED0E0CF2C26
:103F6000D12CCC15DD053CF4F8016181CE010E9415
:103F7000501F2196F6CFC1E0F7E4FF1508F4C0E02A
:103F80008C2FDF91CF911F910F91FF90DF90CF90F9
:103F90000895DF92EF92FF920F931F93CF93DF93D9
:103FA0008C01DC01CC918FE0C89FC02D1124DFE093
:103FB000DC0FD93408F0D8E4E0905C04F0905D04A4
:103FC000D0905B0460915E046695669566958091DD
:103FD0006004909161040E9490160E94CB16805854
:103FE00087FD8195880F682F2CE0629F612D112439
:103FF0006D0D7E2D8F2D0E948C16F62EE72ED82E5D
:10400000CD1798F4EC2FF0E0DF01A053BE4F8C9158
:10401000D80111969C91982331F02D2D4F2D6E2DA6
:10402000CF010E94591ACF5FEBCF81E0D83408F05E
:1040300080E0DF91CF911F910F91FF90EF90DF9083
:104040000895E091E302F091E40209942F923F92E7
:104050004F925F926F927F928F929F92AF92BF9298
:10406000CF92DF92EF92FF920F931F93CF93DF9344
:10407000CDB7DEB72B970FB6F894DEBF0FBECDBF1E
:104080005C01DC018C910FE0809F002D1124BFE0CA
:10409000B00FB987BD3310F0ECE3E987D501129674
:1040A0008C91882361F040E060E080E00E94212054
:1040B0008CE3EDEDF3E0DF011D928A95E9F7F50160
:1040C0008081811115C080911A0490911B040E9477
:1040D000122D21E08931910508F420E02093190484
:1040E000499730F00E94FA2C90931B0480931A0495
:1040F00010E09985892F90E09B878A8786E0482E7B
:10410000DE0111963D019AEA292E8A859B850817C2
:1041100019070CF064C0C8016AE070E00E943234F4
:104120007B014C01489EF001499EF00D1124E352A1
:10413000FC4FE60FF71F5080A3010E94361A382E5D
:1041400063018C2D8619831508F032C0D601EC91DD
:10415000F0E0E053FE4F9081F5018181892321F148
:10416000252D35E5231B08F420E0622D621B70919C
:104170005C04222D352D230F08F42FEF30915D04C0
:1041800082E0289F200D11242E5F239F212D1124D2
:10419000822F0E946D19462FD6019C91282F672FE0
:1041A000892F90E00E94591ABFEFCB1ADB0AC9CFC2
:1041B00080911904882381F0252D31E0231B08F418
:1041C00020E0489CC001499C900D112483529C4FD3
:1041D000FC01EE0DFF1D20830F5F1F4F96CF81E086
:1041E00099859C3308F080E02B960FB6F894DEBFDB
:1041F0000FBECDBFDF91CF911F910F91FF90EF9038
:10420000DF90CF90BF90AF909F908F907F906F90F6
:104210005F904F903F902F900895AF92BF92DF92A2
:10422000EF92FF920F931F93CF93DF93CDB7DEB73B
:1042300028970FB6F894DEBF0FBECDBFE82ED62E5E
:10424000142F0E945F13882309F478C0112349F0CA
:10425000AE014F5F5F4F6D2D8E2D0E94361AF82EE6
:1042600001C0F12C0F2D10E08091AE039801280FB2
:10427000311D293031056CF188E090E05C01A01A15
:10428000B10AB80161557C4FA5018FEA93E00E9405
:10429000F634B80169547C4FA50187EB93E00E9486
:1042A000F634A501440F551FB801660F771F6953F7
:1042B0007C4F87EC93E00E94F634B80161547C4F48
:1042C000A5018FEB93E00E94F63488E08F1980936C
:1042D000AE031091AE03DE01119640E0842F810FF2
:1042E000F41609F190E05D91252F30E0BC01625594
:1042F0007C4FF901EE0FFF1FE05CFE4F0081FB01D8
:104300000183220F331FF901EC5FFE4F25ADFB0146
:104310002187518B880F991FFC01E255FC4F128EAB
:10432000118E4F5FDBCF8093AE0380915A048C7F58
:10433000843621F46D2D8E2D0E94701928960FB6AB
:10434000F894DEBF0FBECDBFDF91CF911F910F91CB
:10435000FF90EF90DF90BF90AF9008958091600440
:1043600090916104A0916204B091630488279C70CD
:10437000AA27BB272AE0B695A795979587952A95F2
:10438000D1F782309105A105B10571F08330910517
:10439000A105B10569F040E00197A105B10511F053
:1043A00060E008C064E102C044E160E080E003C076
:1043B00044E164E184E10C942120CF93C82F8091E3
:1043C00051028C130DC020915A04237030E04091AB
:1043D000520250E081E02417350719F480E001C053
:1043E00081E081708093500280915F0490914F0230
:1043F000981739F080934F0240E060E080E00E941F
:104400002120CF3011F58EE492E00E94C31B09C039
:10441000C43008F040C0C13059F58EE492E00E94EB
:10442000B91D90914E029F5F90934E028111EAC098
:1044300082E080934D02809150028111E3C0C1114E
:10444000E1C083E080934D02DDC0C03108F065C05B
:10445000C73029F48EE492E00E94B31BE2CFC8304B
:1044600068F5C330A9F68EE492E00E944E1ED9CFC3
:10447000C23050F480915002882359F040E060E04F
:1044800080E00E94212005C08EE492E00E94F81D89
:10449000C8CF80E0C6CFC53029F48EE492E00E94F8
:1044A000F91EBFCFC63028F48EE492E00E94A01E11
:1044B000B8CF8EE492E00E94AF1BB3CFCB3029F48B
:1044C0008EE492E00E94E31AACCFCC3098F4C9306D
:1044D00029F48EE492E00E94541BA3CFCA3028F442
:1044E0008EE492E00E94501B9CCF8EE492E00E94EA
:1044F000DF1A97CFCD3029F48EE492E00E94BB1BE7
:1045000090CFCE3028F48EE492E00E94B71B89CF82
:104510008EE492E00E94BF1B84CFC73129F48EE461
:1045200092E00E94C71B7DCFC83178F5C33129F4D2
:104530008EE492E00E94351C74CFC43198F4C131EE
:1045400029F48EE492E00E94581B6BCFC23128F40C
:104550008EE492E00E94E71A64CF8EE492E00E941B
:10456000EB1A5FCFC53129F48EE492E00E94771FE9
:1045700058CFC63128F48EE492E00E94391C51CF06
:104580008EE492E00E94C91F4CCFCB3129F48EE417
:1045900092E00E94891D45CFCC3198F4C93129F4AD
:1045A0008EE492E00E9426203CCFCA3128F48EE4AB
:1045B00092E00E94CB1B35CF8EE492E00E94B71CA4
:1045C00030CFCD3129F48EE492E00E94A11D29CF95
:1045D000CD3128F48EE492E00E94951D22CFCE3199
:1045E00029F48EE492E00E94AD1D1BCFCF3F21F451
:1045F0000E94AE2182E026CF80914E028F5F809391
:104600004E0216CFCF91089508950C9404230E9472
:1046100005230C94042308950C940B23CF93DF936C
:10462000FC01C081C1508FE0C89FC02D1124DFE084
:10463000DC0FD93408F0D8E46D2F8C2F0E940C23A6
:104640006D2F8C2FDF91CF910C940B234F925F92A3
:104650006F927F928F929F92AF92BF92CF92DF9292
:10466000EF92FF92CF936091D7037091D80380911E
:10467000D9039091DA030E944F2C6B017C010E94B8
:10468000342C4B015C016093D7037093D803809363
:10469000D9039093DA03A091AE03EEEAF3E08A2FF8
:1046A00090E04FEF5FEF60E070E04C195D096E093C
:1046B0007F09A91799F0218D328D2901612C712C68
:1046C000441555056605770510F4815004C02C0D7E
:1046D0003D1D328F218F9F5F3296EBCF8093AE03CB
:1046E0008091DC03811108C0C0915A048C2F837023
:1046F00019F0C695C69501C0C0E080914D02813089
:10470000D9F028F0823081F18330D9F152C0109273
:104710004E028092600490926104A0926204B09272
:10472000630489E2EEEAF3E0A4E6B4E001900D92BE
:104730008A95E1F781E022C08C2F0E94DD21CC23F5
:10474000C1F10E9407238EE492E0CF91FF90EF9099
:10475000DF90CF90BF90AF909F908F907F906F90A1
:104760005F904F900C940E23C093510280915A0495
:104770008370809352020E94541A83E080934D020A
:1047800018C08091DB0381110E94191A1092DB037B
:10479000609160047091610480916204909163045F
:1047A0000E944F2C603171058105910510F0109227
:1047B0004D02CF91FF90EF90DF90CF90BF90AF90E0
:1047C0009F908F907F906F905F904F900895E091B1
:1047D000DF02F091E002099510926404EDE7F4E045
:1047E0008FEF9FEF8193919324E0ED38F207D1F79B
:1047F0001092AE03E7ECF3E08FEF9FEF819391937C
:1048000023E0E73DF207D1F70E94F00D811104C0CB
:104810000E94970E0E94211A0E94111A80915A0438
:104820008C7F11F40C94211A0895CF93C82F8823FC
:1048300091F08091DC0381110EC00E94DD21109265
:10484000510280915A048370809352020E94541A3C
:1048500083E080934D02C093DC03CF910895EAE595
:10486000F4E0208191E09227908310924D02909184
:10487000DB03892B8093DB03089581E00C942F24C4
:1048800090915A049370A1F0811102C0946007C006
:104890008F3110F0986703C0880F880F982B909382
:1048A0005A0410924D028091DB03682B6093DB0366
:1048B000089561E00C944024682F90915A049695D5
:1048C00096959F5F9F3110F4892F01C081E00C9471
:1048D000402481E00C945C24682F90915A049695B2
:1048E0009695915011F0892F01C08EE10C944024CF
:1048F00081E00C946C2490915A04937071F0809331
:104900005B0460935C04493708F048E740935D041A
:104910008091DB03282B2093DB030895AAE5B4E004
:104920001196EC911197F0E0282F13964C91139764
:1049300012966C91CF0108960C947B2481E00C9424
:104940008E24AAE5B4E01196EC911197F0E0282F9F
:1049500013964C91139712966C91CF0108970C9473
:104960007B2481E00C94A124EAE5F4E0628128E054
:10497000620F08F46FEF9181282F4381892F90E017
:104980000C947B2481E00C94B424EAE5F4E0628189
:1049900028E0621B08F460E09181282F4381892F71
:1049A00090E00C947B2481E00C94C524EAE5F4E0CB
:1049B000438128E0420F08F44FEF9181282F628154
:1049C000892F90E00C947B2481E00C94D624EAE5B6
:1049D000F4E0438128E0421B08F440E09181282F55
:1049E0006281892F90E00C947B2481E00C94E72471
:1049F00080935E048091DB03682B6093DB03089552
:104A000020915E043AE0230F08F42FEF682F822FE5
:104A10000C94F82481E00C94002520915E043AE087
:104A2000231B08F420E0682F822F0C94F82481E0E7
:104A30000C940D250895FC01EE0FFF1F8E0F9F1F94
:104A4000FC01E357FB4F6183408322830895EDE827
:104A5000F4E095E0E536F90729F08183608342832D
:104A60003396F7CF089568E470E08DE894E00C94F5
:104A7000DC25882311F0FA0101C0FB0109941F9382
:104A8000CF93DF93FB011281111191C0EC010E94C1
:104A9000CA0D8272CB3CFCE5DF0709F472C010F549
:104AA000C63CECE5DE0709F453C058F4C43C9CE571
:104AB000D90709F441C008F044C0C33CDC45C9F142
:104AC00036C0C83C9CE5D90709F44CC008F445C081
:104AD000C93CFCE5DF0709F44AC0CA3CDC4509F4DF
:104AE0004BC025C0C03DECE5DE0709F45DC088F48D
:104AF000CD3C9CE5D90709F44EC008F447C0CE3C34
:104B0000FCE5DF0709F44CC0CF3CDC4509F44AC0A2
:104B10000EC0C73D9CE5D90730F4C23DDC4508F026
:104B200046C081E142C0CE35DD4509F440C011E008
:104B30003EC00E943D243BC048E754E269E674E26F
:104B400004C049E654E268E774E20E9439252FC0A8
:104B500041EB54E26EE974E2F8CF4EE954E261EBC6
:104B600074E2F3CF43ED54E262EC74E2EECF42EC38
:104B700054E263ED74E2E9CF45EF54E264EE74E28F
:104B8000E4CF44EE54E265EF74E2DFCF47E155E253
:104B90006AE075E2DACF4AE055E267E175E2D5CF27
:104BA00081E003C085E001C08DE00E945924812F7F
:104BB000DF91CF911F910895539A2BB1277F3BB17D
:104BC00038604FB7F894FC01CB01880F991F680F2C
:104BD000791F6E0F7F1FE617F70789F0819198E024
:104BE0003BB9000000C087FF2BB9880F000000C050
:104BF00000C000C02BB900C09A9591F7ECCF4FBF11
:104C00008FE594E00197F1F700C0000008950C943F
:104C1000D90380911A02882309F447C020915402D5
:104C2000A22FA295AF70B0E091963C9191972F7012
:104C300081E090E0AC01022E01C0440F0A94EAF733
:104C4000542F5095352391963C93919792963C9191
:104C50009297432B92964C93929740915302E42F54
:104C6000E295EF70F0E031A14F70042E01C0880F83
:104C70000A94EAF7982F9095932391A392A1892BF8
:104C800082A390968C9190E002C0959587952A9585
:104C9000E2F7817020A130E002C0359527954A9552
:104CA000E2F720FD09C090E008C085EF8093540230
:104CB00084E980935302B2CF92E0892B8093210440
:104CC00090911A0281E0982790931D04891B80938C
:104CD0001C040895CF93E09121045E2F550F550FCA
:104CE00020915402E22FE295EF70F0E080A190E075
:104CF0002F7002C0959587952A95E2F781709927C4
:104D000040915302E42FE295EF70F0E020A130E0F3
:104D10004F7002C0359527954A95E2F7F901E17089
:104D2000FF2720FF02C0E2E0F0E0E82BF92BE52BA3
:104D3000E0932104C0911D04EF70F0E0E951FD4FB4
:104D4000908180912004890F8093200484306CF03E
:104D5000EC2FF0E0E25EFB4F80818F5F808360E0AC
:104D60008C2F0E94072621E001C020E080912004C2
:104D70008D3F64F4EC2FF0E0E25EFB4F80818150C8
:104D8000808361E08C2F0E94072621E0809120041F
:104D9000082E000C990B64E070E00E94323480937E
:104DA0002004822FCF910895E0911D04F0E0E25E8F
:104DB000FB4F2081FC0120830895FF920F931F93E6
:104DC000CF93DF93D0911C040D2F10E0025E1B4F98
:104DD000FC01C081F8018081C81BFC2E80E01F14FB
:104DE0005CF4FA94F80180818F5F808360E08D2FFE
:104DF0000E94072681E0F3CF9C2FC7FD90E0C91BDE
:104E0000CC2359F0CF5FF80180818150808361E02D
:104E10008D2F0E94072681E0F3CF882339F0DF91A0
:104E2000CF911F910F91FF900C94B10EDF91CF9114
:104E30001F910F91FF9008950895FC01680F791F4D
:104E40008FEF91E3E617F70771F02191822728E0B1
:104E500030E087FF03C0880F892701C0880F2150E9
:104E60003109B9F7EFCF08950F931F93CF93DF93D5
:104E7000C42FD22FFC0182818823C9F040932404DF
:104E80000E94FA2C909323048093220480E28C0FDA
:104E9000883008F057C0C77081E001C0880FCA95FC
:104EA000EAF7DF91CF911F910F910C947B068091CF
:104EB0002404481330C080912204909123040E945E
:104EC000122D8436910538F510E21D0FCD17B9F07B
:104ED00080E28C0F883040F4C77081E001C0880FF9
:104EE000CA95EAF70E948206183028F581E09D2FC6
:104EF000977001C0880F9A95EAF70E947B06802F71
:104F00000E9472061830F0F4D77081E001C0880F5B
:104F1000DA95EAF70AC080E28C0F883098F4C770FF
:104F200081E001C0880FCA95EAF7DF91CF911F9108
:104F30000F910C948206802FDF91CF911F910F91DA
:104F40000C947206DF91CF911F910F9108950F93EA
:104F50009C01CB01243F4CE5340731F188F4293D15
:104F6000FCE53F07D9F02A3D4CE5340779F1283DAF
:104F70003C45A9F506E221EE41EE68ED7CE52BC04B
:104F8000263FFCE53F07E1F0A8F0273F3C4539F517
:104F900007E225EE46EE67EF7CE51DC007E225EE51
:104FA00045EE69ED7CE517C006E221EE40EE64EFC8
:104FB0007CE511C007E225EE44EE65EF7CE50BC011
:104FC00006E221EE42EE66EF7CE505C008E221E054
:104FD00045EE6AED7CE50E94342780E008C0FC01C4
:104FE0008281882319F01092240401C081E00F917E
:104FF0000895CF93DF93EC01FB018281882309F4AC
:1050000026C1C430FDE5DF0760F4CB3F9CE5D9073E
:1050100068F49E0122503C452431310508F018C146
:1050200005C0C236EDE5DE0709F012C10E94030E8D
:105030009093420480934104C031FCE5DF0709F4FA
:10504000CAC008F041C0C8309CE5D90709F4A4C023
:10505000F0F4C430FCE5DF0709F48CC068F4C2301A
:105060009CE5D90709F482C0C330DC4509F0E5C0EE
:10507000809141048260DFC0C630FCE5DF0709F49F
:1050800083C008F085C0809141048860D4C0CC30D2
:105090009CE5D90709F490C068F4CA30FCE5DF0745
:1050A00009F47EC008F084C00E948E0880914104FB
:1050B0008068C1C0CE309CE5D90709F481C008F0F2
:1050C00086C08091410494C0CD3FFCE5DF0709F420
:1050D0007BC038F5C4319CE5D90709F49AC058F46F
:1050E000C231FCE5DF0709F47AC008F07EC0809188
:1050F00041048F7BA0C0CB3F9CE5D907F1F108F0BC
:105100003FC0C531DC4509F098C08091410482FB65
:10511000222720F991E0922790FB82F990FB83F9F6
:105120008AC0C1308DE5D80709F467C050F480917A
:105130004204CF3FECE5DE07C1F108F05BC08D7F94
:1051400065C0C3308DE5D80709F471C008F46DC09F
:10515000C236DD4509F071C08091410484FB2227ED
:1051600020F991E0922790FB84F965C08091410479
:10517000816061C08091410416C08091420416C0D4
:1051800080914204826042C080914104806153C09A
:105190008091410480624FC08091410480644BC083
:1051A000809141048860846046C0826081602EC026
:1051B000809141048E7F3FC0809141048D7F3BC030
:1051C00080914104877F37C08091420414C0809150
:1051D00041048F7E30C0809141048F7D2CC00E949D
:1051E0008E08809141048F7726C080914104877F8B
:1051F0008B7F21C08D7F8E7F09C080914204982FC4
:10520000909591708E7F892B90FB81F98093420459
:1052100014C00E948E088091410487FB222720F948
:1052200091E0922790FB87F906C081E001C080E001
:105230000E94990E02C08093410480914104909194
:1052400042040E94140E0E948E0880E001C081E09A
:10525000DF91CF910895CF93DF9386319C4541F53F
:10526000EB010E94CA0D982F8A812091180230917B
:105270001902882379F09A7A81E009F480E080931A
:105280002504911102C069E201C065E3C9010E94D1
:10529000032C0AC080912504811102C069E201C07B
:1052A00065E3C9010E94052C0E94AB0D80E001C09E
:1052B00081E0DF91CF9108958EE14A9B02C0815039
:1052C000E1F74A9BFECF08955A9880E28A95F1F75C
:1052D0005A9A0895FC012AE02A95F1F728E090E017
:1052E00080E031E040E14A95F1F7880F4A9B02C027
:1052F0008160932700C0000040E14A95F1F72150FA
:1053000089F720E12A95F1F729B100C0000030E1CA
:105310003A95F1F722FB222720F992272081920F5C
:1053200090830895EF92FF920F931F93CF93DF9393
:105330001F92CDB7DEB719828C017C01E60EF11CFD
:105340000E151F0551F00E945C29CE0101960E94A6
:105350006A29F80181938F01F3CF81E0998191113E
:1053600080E00F90DF91CF911F910F91FF90EF9010
:105370000895529A5A9A089552985A9AEA9AE9E6E2
:10538000F0E080818F7C80830895615091E001C0BE
:10539000990F6A95EAF720E031E0992361F0492FEF
:1053A000482319F05A9A232701C05A9840E24A9597
:1053B000F1F79695F2CF222311F05A9A01C05A982C
:1053C00080E28A95F1F75A980895FF920F931F9300
:1053D000CF93DF93EC018C01060F111DC017D1078D
:1053E00041F0F9900E94642968E08F2D0E94C52940
:1053F000F5CFDF91CF911F910F91FF9008951F92EC
:105400000F920FB60F921124EF92FF920F931F93FA
:105410002F933F934F935F936F937F938F939F93BC
:10542000AF93BF93EF93FF93CF93DF931F92CDB7CB
:10543000DEB719820E945C29CE0101960E946A297A
:10544000A82FA695A695A6959A2F969595702A2F82
:105450002570920F292F237096959695920F87703D
:1054600089137CC08981811179C0A63008F076C08B
:1054700080E18A95F1F75A9A529AB2E0BA95F1F71B
:1054800000C05A98EA2EF12CEAE0AE9FD001112418
:10549000A55EBD4F1896ED91FC9119973097B1F02C
:1054A0006091D5027091D60216962D913C91179776
:1054B000260F371F13968D919C911497680F791FB3
:1054C00015964C91159712968C9109958AE08E9DB0
:1054D000F0018F9DF00D1124E55EFD4F658166237F
:1054E00051F08091D5029091D60226813781820FAA
:1054F000931F0E94E5290E946429F0E1FA95F1F7D3
:105500005A9852985A9A80E18A95F1F78AE08E9DCE
:1055100080018F9D100D1124055E1D4FD80112963C
:105520006C911297662399F08091D5029091D602E2
:1055300013962D913C911497820F931F0E949229EC
:10554000D801ED91FC91811105C082E004C0D80121
:10555000ED91FC9188E080830E945C290F90DF919F
:10556000CF91FF91EF91BF91AF919F918F917F91DB
:105570006F915F914F913F912F911F910F91FF90EC
:10558000EF900F900FBE0F901F9018950F931F93E1
:10559000CF93DF93863091050CF0A9C02AE0289FB5
:1055A000F001299FF00D1124E55EFD4F208131812E
:1055B000232B09F49CC0EC01F894529A5A9885E088
:1055C0008A95F1F700008C2F869585709C2F957039
:1055D000890F982F9370869586958E0123E0000F92
:1055E000111F2A95E1F7890F082B0E946429A4E076
:1055F000AA95F1F700C068E0802F0E94C529B0E1AC
:10560000BA95F1F752985A9A4A9902C000C0FCCF55
:1056100087E090E04A9B17C0019799F4529A5A9AF2
:105620008AE08C9FF0018D9FF00D1124E55EFD4F07
:105630000190F081E02D81E08083789481E090E01A
:1056400058C000C0E7CF8AE08C9F80018D9F100D6D
:105650001124055E1D4FF80165816623B9F0809124
:10566000D5029091D60226813781820F931F0E9426
:10567000922981110BC0529A5A9AD801ED91FC914E
:1056800082E08083789482E090E033C00E945C29BD
:10569000B0E2BA95F1F75A98529AE0E1EA95F1F73B
:1056A0008AE08C9FF0018D9FF00D1124E55EFD4F87
:1056B0006281662351F08091D5029091D6022381B8
:1056C0003481820F931F0E94E5290E9464298AE099
:1056D0008C9FF0018D9FF00D1124E55EFD4F019030
:1056E000F081E02D1082789480E090E002C084E0A8
:1056F00090E0DF91CF911F910F91089590932C042A
:1057000080932B0408950E945F13811103C0809140
:1057100026040895E0912B04F0912C04309721F099
:105720000190F081E02D099480E00895E0912B0430
:10573000F0912C04309721F00280F381E02D099440
:1057400008952091290430912A042817390771F00F
:1057500090932A0480932904E0912B04F0912C0467
:10576000309721F00680F781E02D0994089520916B
:105770002704309128042817390771F090932804E2
:1057800080932704E0912B04F0912C04309721F0B2
:105790000084F185E02D09940895662349F0FC0109
:1057A000329608962191621729F0E817F907D1F788
:1057B00080E0089581E008959C01FC0132969FEFFE
:1057C00080E04191461789F09F3F19F4411101C0D3
:1057D000982F8F5F8630A9F79F3F39F0F901E90FC5
:1057E000F11D97FDFA956283089508959C012A5F43
:1057F0003F4FFC014281461301C01282019682177D
:105800009307B9F708950C94DC2B0C94F62B0296B1
:1058100026E0FC0111922A95E9F70895109265059A
:105820001092660510926705109268050895CF9250
:10583000DF92EF92FF926B017C010E945F13811156
:105840000EC00E94062DC61AD70AE80AF90AC092AD
:105850006505D0926605E0926705F0926805FF90B5
:10586000EF90DF90CF9008950F931F930E945F13E6
:10587000882321F01F910F910C94062D0E94062D74
:1058800000916505109166052091670530916805C6
:10589000600F711F821F931F1F910F910895CF9268
:1058A000DF92EF92FF926B017C010E945F138823CD
:1058B00041F0C701B601FF90EF90DF90CF900C94BC
:1058C000212D0E94342C6C197D098E099F09FF90AF
:1058D000EF90DF90CF900895089508950C946D2C6B
:1058E0000C946D2CCF930E94702C0E94D4120E94B5
:1058F0006E2CC0E08C2F0E94A011811104C0CF5FDC
:10590000CA30C1F701C081E0CF9108950C946D2C8D
:105910000C94862C80917105843061F10E94882C52
:1059200080E00E94880581E00E94152410922D04D9
:1059300020E488E190E00FB6F894A8958093600089
:105940000FBE2093600083B7817F846083BF83B7DD
:10595000816083BF7894889583B78E7F83BF0FB6AD
:10596000F894A895809160008861809360001092FF
:1059700060000FBE08950C946D2C0E948E080E944A
:10598000832B0E94880580E00E9415240C94BB2C78
:105990001F920F920FB60F9211248F939F93AF9384
:1059A000BF9380912D04811113C08091690590915E
:1059B0006A05A0916B05B0916C054196A11DB11DC2
:1059C0008093690590936A05A0936B05B0936C056D
:1059D000BF91AF919F918F910F900FBE0F901F902D
:1059E000189582E084BD93E095BD9AEF97BD8093B2
:1059F0006E0008952FB7F8948091690590916A051B
:105A0000A0916B05B0916C052FBF08952FB7F89446
:105A10006091690570916A0580916B0590916C05A4
:105A20002FBF08959C014FB7F8948091690590911C
:105A30006A05A0916B05B0916C054FBF821B930B5B
:105A40000895CF92DF92EF92FF922FB7F894C09013
:105A50006905D0906A05E0906B05F0906C052FBF4A
:105A6000A7019601261B370B480B590BCA01B90138
:105A7000FF90EF90DF90CF90089578941F920F924F
:105A80000FB60F9211248F939F93AF93BF93809182
:105A9000690590916A05A0916B05B0916C0501961E
:105AA000A11DB11D8093690590936A05A0936B05B4
:105AB000B0936C05BF91AF919F918F910F900FBEE6
:105AC0000F901F90189587E797E7909301088093B0
:105AD00000089AE088E10FB6F894A89580936000DA
