:100000000C9460050C94A7050C94A7050C9459203A
:100010000C94A7050C94A7050C94A7050C94A705B0
:100020000C94A7050C94A7050C944F300C94213127
:100030000C94BD2B0C94A7050C94A7050C94A70554
:100040000C94A7050C94A7050C94A7050C94A70580
:100050000C94A7050C94322C0C94A7050C94A705BE
:100060000C94A7050C94A7050C94A7050C94A70560
:100070000C94A7050C94A7050C94A7050C94A70550
:100080000C94A7050C94A7050C94A7050C94A70540
:100090000C94A7050C94A7050C94A7050C94A70530
:1000A0000C94A7050C94A7050C94A7058716901629
:1000B00095169A169F16A416A916AE16B316B8165C
:1000C000BD16C216C716CC16D116D616DB16E0160C
:1000D000E516EA16EF16F416F916FE1603170817BA
:1000E0005A185D18621869186E18731878187D18F8
:1000F000821887188C1891189318951897189A18C1
:100100009A189A189A189A184F234F2381238123FB
:10011000A324A324A324A324B2234B245C245C247F
:1001200025252525372537252E253725372537251C
:100130002525252533253725372533258E31B5311E
:10014000AD32B531AD3201322432AD327B328A323A
:1001500029001E001F002000210022002B00340077
:100160003600370013001C00E100040012000800F4
:1001700018000C00E000330014000D000E001B00FE
:100180000000E300E20002512C002F0035002700A0
:1001900026002500240023002E000F001500060075
:1001A0000A0009002D001600110017000B000700BF
:1001B00038001D0019001A001000050000004C0056
:1001C0002A0003512800300029001E001F002000D3
:1001D000210022002B0014001A000800150017004F
:1001E000E10004001600070009000A00E0001D00FD
:1001F0001B000600190005000000E300E2000251A8
:100200002C0035003500270026002500240023009F
:100210002D00130012000C0018001C002E023300E9
:100220000F000E000D000B003100380037003600C3
:100230001000110000004C002A0003512800350076
:10024000005C3A003B003C003D003E0035001B01D5
:100250002402260227021B010100060131022F00A1
:100260003000060101001901310036003700190184
:1002700000000100010001000100010044004300F2
:100280004200410040003F00450001004E004B008D
:10029000010001004D004F005100520050004A0083
:1002A00031004F00510052005000010000000100D9
:1002B00001000451010001000100010001000100E2
:1002C0000100010001000100010001000100010026
:1002D0000100010001000100010001000100010016
:1002E00001000100010001000000010001000451B3
:1002F00001000100010001005600550054005300A8
:1003000001005700610060005F004600B2008500F8
:100310005E005D005C004C00010067005B005A005D
:1003200059002A0000006300620001000100010082
:10033000A50000000000015C005CDE5C0052015280
:100340000000000000000000BD00A9000000000047
:1003500000000000BE00AA00000000000000000035
:100360000000010001000100010000000000D15C5C
:10037000D05CCF5CCE5CCD5C00000000D55CD45C72
:10038000D35CD25CC95CC75CC55CCB5CC35CC25C43
:10039000CA5CC85CC65CCC5CC45C000000000100A8
:1003A0000100010001000000000101010101010143
:1003B000010102020202020202020203030303031A
:1003C00003030304040404040404050505050506E9
:1003D00006060606070707070708080808090909A7
:1003E000090A0A0A0B0B0B0C0C0C0D0D0D0E0E0E50
:1003F0000F0F0F10101111111212131314141515E1
:1004000016161717181819191A1A1B1B1C1D1D1E52
:100410001E1F2020212222232424252626272829A6
:10042000292A2B2C2D2D2E2F3031323233343536D4
:100430003738393A3B3C3D3E3F40414243444546D4
:100440004748494A4C4D4E4F5051535455565859B0
:100450005A5B5D5E5F616264656668696B6C6D6F57
:100460007072737577787A7B7D7E808283858788CA
:100470008A8C8E8F91939596989A9C9EA0A2A3A504
:10048000A7A9ABADAFB1B3B5B7BABCBEC0C2C4C605
:10049000C9CBCDCFD1D4D6D8DBDDDFE2E4E7E9EBC1
:1004A000EEF0F3F5F8FAFDFF00AE00AF00DA0281DE
:1004B0008FD9F1DB40A4A62EAF00A0C000A1C800D8
:1004C000AED580A81FD300408D142000000000008E
:1004D00000003E5B4F5B3E003E6B4F6B3E001C3EA0
:1004E0007C3E1C00183C7E3C18001C577D571C00AD
:1004F0001C5E7F5E1C0000183C180000FFE7C3E78D
:10050000FF00001824180000FFE7DBE7FF00304879
:100510003A060E00262979292600407F05050700A6
:10052000407F05253F005A3CE73C5A007F3E1C1C9B
:100530000800081C1C3E7F0014227F2214005F5F0D
:10054000005F5F0006097F017F00006689956A00F1
:1005500060606060600094A2FFA2940008047E04C2
:10056000080010207E20100008082A1C0800081C23
:100570002A0808001E10101010000C1E0C1E0C0083
:1005800030383E383000060E3E0E060000000000F7
:10059000000000005F000000000700070000147F5B
:1005A000147F1400242A7F2A120023130864620097
:1005B000364956205000000807030000001C224165
:1005C00000000041221C00002A1C7F1C2A00080891
:1005D0003E08080000807030000008080808080085
:1005E0000000606000002010080402003E514945F0
:1005F0003E0000427F4000007249494946002141C7
:10060000494D33001814127F100027454545390025
:100610003C4A4949310041211109070036494949FD
:100620003600464949291E00000014000000004021
:1006300034000000000814224100141414141400A3
:100640000041221408000201590906003E415D598B
:100650004E007C1211127C007F49494936003E4110
:10066000414122007F4141413E007F4949494100CB
:100670007F09090901003E41415173007F080808C4
:100680007F0000417F4100002040413F01007F0882
:10069000142241007F40404040007F021C027F0046
:1006A0007F0408107F003E4141413E007F09090957
:1006B00006003E4151215E007F0919294600264966
:1006C0004949320003017F0103003F4040403F00A1
:1006D0001F2040201F003F4038403F006314081493
:1006E00063000304780403006159494D4300007F0F
:1006F00041414100020408102000004141417F00B7
:10070000040201020400404040404000000307088A
:1007100000002054547840007F2844443800384476
:1007200044442800384444287F0038545454180066
:1007300000087E0902001824241C78007F080404A5
:10074000780000447D4000002040403D00007F10C4
:100750002844000000417F4000007C0478047800B9
:100760007C08040478003844444438007C1824246D
:100770001800182424187C007C080404080048543D
:100780005454240004043F4424003C4040207C0096
:100790001C2040201C003C4030403C0044281028D5
:1007A00044004C9090907C004464544C44000008F9
:1007B00036410000000077000000004136080000CC
:1007C0000201020402003C2623263C000000000037
:1007D0000080808080000000000080E070180C180D
:1007E00030E080000010F8901030783010B8FC38FD
:1007F00010000000000000F8FCF8000000000000FD
:10080000000000000000001C9C1C00000000F8FC20
:10081000F80000000000001CFCF8C0000000000010
:100820000080E0F87C1C000000F0FCFCFC1C1C1CA0
:100830001C1C1C1C1C000000000000C0F0F8381C30
:100840001C1C1C1C1C3CF8F0E000E0F0F0F0E0EC9C
:10085000EEF7F37020007C7C7C7E007E7E7E7F7FC6
:100860007F000080C0E07E5B4F5BFEC00000C000E8
:10087000DCD7DEDEDED7DC00C000000000000000B8
:100880000000000000000000000000000000000068
:10089000000FBCE0818181838382870C183060C0A7
:1008A00000001FFE90B9FFBB91983C1811133F1137
:1008B00000000000000000FFFFFF0000000000003B
:1008C00000000000000000FFFFFF00000000FFFF2D
:1008D000FF0000000000000000030F7FF8E080F040
:1008E000FC3F0F0100000000003F3F3F1C1C1C1C90
:1008F0001C3C78F8F0E08000000000C3E7FF7E3C7D
:100900003878787070F8FFDF87000F1F3F7F7F7F98
:100910007F7F3F1E0C001F1F1F3F003F3F3F7F7F19
:100920007F00307B7F7830202030787F3B000300D1
:100930000F7F0F0F0F7F0F0003000000000000006B
:10094000000000000000000000000000183C2466C9
:100950006341C18180808080808081C14162386C28
:100960004CC68181808080808081C14362361C18A2
:1009700000000000000000FFFFFFC0C0C0C0C0C0FA
:10098000C0C0C0800000007FFF7F000000007FFF2C
:10099000FFC080000000E0E0C0C0C0E0F97F1F079A
:1009A00000000000000000000070F0E0E0C0C0C0E7
:1009B000C0E0F0F87F3F0F0000000F3F7FF9E0E05C
:1009C000C0C0C0C0C0E0F97F3F1F000000000000B1
:1009D0000000000000000000000000000000000017
:1009E0000000000000000000000000000000000007
:1009F00000000000000000000000000000000000F7
:100A000000000000000000000000000004033000AF
:100A100000001C034C0069006C00790035003800B0
:100A200047006C006F00770045006E006300000017
:100A300016034F005200560049005300450056006F
:100A400041004E0053000000040309040902220083
:100A5000010100A0FA0904000001030101000921BD
:100A6000110100012240000705810308000A12015C
:100A700010010000000851FC5800000101020301B0
:100A800005010906A101050719E029E7150025015F
:100A90009508750181029501750881010507190006
:100AA00029FF150026FF0095067508810005081925
:100AB000012905950575019102950175039101C004
:100AC00011241FBECFEFDAE0DEBFCDBF04B603FEB8
:100AD00027C08091560790915707A0915807B09171
:100AE00059078730904BA740B04BD1F4109256076E
:100AF00010925707109258071092590714BE84B7E6
:100B0000877F84BF0FB6F894A895809160008861B4
:100B100080936000109260000FBEE0E0F8E309955A
:100B200013E0A0E0B1E0ECE9FDE602C005900D9213
:100B3000A030B107D9F727E0A0E0B3E001C01D92D3
:100B4000A635B207E1F70E94912D0C94CC360C9497
:100B500000008091510490915204A0915304B091EF
:100B6000540484309105A105B105E9F060F40097C3
:100B7000A105B105A9F082309105A105B105E9F4FF
:100B80006EE172E012C088309105A105B10591F0C7
:100B900080319105A105B10581F46AE472E005C0D8
:100BA00060E172E002C06CE272E081E794E00E94D2
:100BB0007B331CC06CE372E0F8CFBF93AF939F937D
:100BC0008F9388E592E09F938F931F9288E18F9394
:100BD00081E794E09F938F930E9482338DB79EB7F5
:100BE0000A960FB6F8949EBF0FBE8DBF81E794E0C2
:100BF000089580E091E00895CF938C33910520F41F
:100C0000FC01E557FD4F09C09C01245531092031F5
:100C1000310528F4F901E658FD4FC08101C0C0E25A
:100C20008F34910509F440C0D0F48C32910591F1D4
:100C300058F488329105D0F18A32910538F18B321F
:100C4000910509F47CC032C08C34910529F18E34B1
:100C5000910521F18B34910549F5C0E52BC0803E0B
:100C6000910539F148F481359105E1F0C8F08235FC
:100C70009105E1F4CEE51EC0823E910549F008F4ED
:100C80005CC0833E910591F4C7E414C0C5E412C072
:100C9000C1E410C0C0E20EC0C4E40CC0C0E70AC08A
:100CA000CCE308C0C6E706C0CEE304C0803E910591
:100CB00009F4C3E41F92CF939F938F93FB0180812C
:100CC0001F928F9381811F928F9389E692E09F9369
:100CD0008F931F9288E18F9387E193E09F938F9387
:100CE0000E9482338DB79EB70E960FB6F8949EBFC2
:100CF0000FBE8DBF8091000390910103449779F05E
:100D00008091000390910103FC01EE5FFC4FC083D2
:100D100001969093010380930003CF910895109260
:100D2000010310920003E2E0F3E086E193E020E2A9
:100D30008E179F0729F32193FBCFC3E5BBCFC4E5F3
:100D4000B9CF87E193E0089582E093E008950C9491
:100D5000E206811109C0662319F08DE191E002C01D
:100D60008CE191E00C944207813039F4662311F054
:100D700081E501C082E50C940D2308950895CF9379
:100D8000C82F0E94240B882311F08C2F01C082E011
:100D9000CF9108950E94240B882379F00E94A90521
:100DA00060E00E94501B0E94A10660E00E94501B60
:100DB0000E94A40660E00C94501B0E94F90560E0BC
:100DC0000C94341BFB01228121110E94FC0581E05F
:100DD00008959C013A9521153F4138F5DC01AA2779
:100DE000B270AC01442754709C012227387094FFE4
:100DF0000FC090FF02C080E101C080E0AB2B09F082
:100E00008062452B09F08064232B69F080680BC059
:100E1000892F8170AB2B09F08260452B09F084602B
:100E2000232B09F08860FB0109940895CF93DF9389
:100E3000EC01805E9109089710F0209719F460E2A8
:100E400073E202C067EF74E2CE010E94E9068C2FC4
:100E5000DF91CF910C94AE22CF93DF93EC010E94EF
:100E6000E122CE01805E9109089710F0209719F4D5
:100E700067E273E202C06EEF74E2CE01DF91CF91C0
:100E80000C94E906CF93DF93EC010E941607CE0184
:100E9000DF91CF910C942C0781E0089508950C9474
:100EA0004E071F93CF93DF9300D000D01F92CDB792
:100EB000DEB749835A836B833091F00389819A812D
:100EC000311114C0662359F0222349F00E94C92928
:100ED000182F682F89819A810E94702903C00E946F
:100EE0009C29182F69817A81812F04C00E94C92909
:100EF00069817A810F900F900F900F900F90DF9182
:100F0000CF911F910C940F08FC01262F4081518135
:100F10006281738184810C945107CF93DF93EC013C
:100F200060E00E948407BE01DF91CF910C944F07CF
:100F30000E947E2A811102C00E941E2B0E945E1711
:100F40000C94D0090E94EE150C94CE0908950C94CF
:100F5000A60781E008950C94A907CF93C82F0E949B
:100F6000A7078C2F0E94AB07CF91089508950E9488
:100F700013250E94B6072FEF84E39CE021508040A8
:100F80009040E1F700C000000C94582C0F931F9381
:100F9000CF93DF93EC0161E00E9484078C01BE01D6
:100FA0000E944B158823A9F1BE01C8010E94A70623
:100FB000882379F1BE01C8010E94251D882349F1CB
:100FC000BE01C8010E94661D882319F1BE01C80137
:100FD0000E94911E8823E9F0BE01C8010E944318B7
:100FE0008823B9F08A81882369F001158CE51807F8
:100FF00031F00E3D1C4531F40E941E2B0AC00E94A8
:10100000B70707C0CE01DF91CF911F910F910C94CC
:101010004C0780E0DF91CF911F910F9108952CE351
:10102000829FC0011124FC0126E0729FE00DF11D9A
:101030001124E60FF11DEE0FFF1FE05BFE4F8591BF
:1010400094910895CF93DF930E940F080E94E908BE
:10105000EC01811522E5920770F5811541E59407B1
:1010600008F082C0C11580E2D807C0F4C11521E0A4
:10107000D20708F0AAC0C53AD10548F4C430D1055A
:1010800008F0A3C0C130D10509F49FC09CC0CE01B7
:10109000805E9109089708F498C095C0C11540E496
:1010A000D40708F490C0C11580E5D80708F03FC008
:1010B000DF70D06A8AC0811529E5920728F581156D
:1010C00048E5940708F06BC0C11583E5D80708F41C
:1010D00050C0C11524E5D20708F075C0CE01837059
:1010E000992721E030E002C0220F331F8A95E2F7F2
:1010F0008C2F8695869540E2849FC0011124E901DA
:10110000C82BD92BDA6861C081154AE5940708F429
:101110004BC090568115904208F055C08D2F8F71AD
:101120000E947D09DD27D0628F71D82B4EC0CE0181
:1011300054E0969587955A95E1F7282F23703C2F18
:10114000337081E090E002C0880F991F3A95E2F772
:101150009C68922BCF70C695C69540E2C49FE00173
:101160001124C82BD92B31C0D82FCC27C16FD06AFE
:101170002CC0CE018370992721E030E002C0220FFD
:10118000331F8A95E2F78C2F8695869540E2849FDF
:10119000C0011124E901C82BD92BDC6816C0D82F57
:1011A000CC27C06FD06A11C08F700E947D0994E077
:1011B000D695C7959A95E1F7CF70D0E0DC2FCC2774
:1011C000D069C82B02C0C0E0D0E0CE01DF91CF9142
:1011D00008958238910569F1B0F48133910509F4DD
:1011E0006DC048F48932910509F463C08A329105D3
:1011F00009F469C008958533910509F455C0893310
:101200009105B9F00895833E910569F138F4803E67
:101210009105B1F0823E910509F10895863E910550
:10122000A9F1873E9105B9F1843E910509F064C0AA
:1012300023C02091470720FD4FC021FD4DC00895D8
:101240008091470780FD44C08091480780FF44C0DB
:101250008091470784FD42C083EE4DC080914707CF
:1012600082FF38C0F5CF8091470782FD33C080915F
:10127000480780FD31C0ECCF8091480781FF32C024
:101280008091470784FD2AC087EE35C080914707CB
:1012900083FF26C0F5CF8091470783FD21C0809151
:1012A000480781FD1FC0ECCF8091470785FD1CC01A
:1012B0001DC08091470785FD19C016C08091470762
:1012C00086FD16C017C08091470786FD13C010C069
:1012D00089E311C082EE0FC080EE0DC080E00BC02C
:1012E00086EE09C084EE07C089E205C085E303C02D
:1012F0008AE201C081E390E008959091470792FF50
:101300000DC0282F2871283019F4877F846006C00B
:10131000282F2471243011F48B7F886093FF0DC037
:10132000282F2871283119F4877E846106C0282F60
:101330002471243111F48B7E88612091480720FFAD
:101340000DC0382F3871383019F4877F816006C09E
:10135000382F3171313011F48E7F886021FF0DC03C
:10136000282F2871283119F4877E816106C0282F23
:101370002171213111F48E7E886194FD877E08955C
:10138000E82FF0E0ED56FB4F80810895089580EA44
:101390008A95F1F7089508950C94CB090C94CC0923
:1013A0000C94BE060895CF93DF930E94430B809167
:1013B000E8018091E801811102C095E001C090E050
:1013C00090939E0485E0891B80939D04ADECB2E070
:1013D00042ED52E061E070E08D91E82FE295EF7010
:1013E000F0E021A18F70EB0102C0CC0FDD1F8A95C8
:1013F000E2F7CE019C2F9095922391A392A1892B85
:1014000082A34A175B0741F7A7ECB2E04DEC52E02C
:1014100061E070E08D91E82FE295EF70F0E021A19E
:101420008F70EB0102C0CC0FDD1F8A95E2F7CE0171
:101430009C2F9095922391A392A1892B82A34A1766
:101440005B0741F7E9E8F4E0A3E9B4E083E994E05D
:1014500011921D928E179F07D9F785E00E94ED0A21
:101460000E949807DF91CF910C944D0B0E94240BA2
:10147000882309F180919D0490E08D569B4F0E9436
:10148000600B811114C080912F038F5F80932F0315
:10149000863078F0E0919D04F0E0ED56FB4F80E05F
:1014A00090E01192019685309105D9F702C0109213
:1014B0002F030C94A20780919E0490E08D569B4FC1
:1014C0000E94810B0C94D2096F927F928F929F920F
:1014D000AF92BF92CF92DF92EF92FF920F931F9342
:1014E000CF93DF938DEC882E82E0982E09E814E0EC
:1014F0009EE8A92E94E0B92E712CCC24C394D12C53
:10150000F40181914F01C82FC295CF70D0E099A10D
:101510008F70760101C0EE0C8A95EAF7892F8E292B
:1015200089A38AA16E2C609486218AA30E94C70990
:10153000E7ECF2E040E050E020E03191A32FA295EB
:10154000AF70B0E090968C9190E03F7002C095959E
:1015500087953A95E2F780FD07C08C2D042E01C0D7
:10156000880F0A94EAF701C080E0282B4F5F5F4F95
:101570004630510511F789A1682269A28AA1E82A9B
:10158000EAA2F8018081281719F0208381E001C0C8
:1015900080E0782A0F5F1F4FA016B10609F0B0CF88
:1015A00060919E0470E06D567B4F272D45E089E8E1
:1015B00094E00E94EE0A0E94360A872DDF91CF91B7
:1015C0001F910F91FF90EF90DF90CF90BF90AF9061
:1015D0009F908F907F906F9008950895FF920F9342
:1015E0001F93CF93DF938C01F62ED72FC42F222386
:1015F00049F081E0809332030E94EF2B90933103F6
:1016000080933003809132038823C1F080913003AE
:10161000909131030E94072C069780F0EF2DFD2F4B
:10162000D8014C2F50E0CD01801B910B84179507FA
:101630001CF48D918193F7CF10923203DF91CF91FB
:101640001F910F91FF90089580913303811112C073
:101650008091D80080618093D8008AE18A95F1F763
:1016600000C08091D90080FD02C082E001C081E00D
:101670008093330381E090913303913009F080E04F
:1016800008950C94240B0E94410B8093E8010E9462
:10169000240B81110C94540B08950E94240B81118A
:1016A00002C00C945A0B089561E070E089EE91E05D
:1016B0000C94072061E070E089EE91E00C9410201A
:1016C000CF93DF93D82FC92F80E090E00E94E920CC
:1016D000892B99F4ED2FFC2F80E090E0DC01AB5CCE
:1016E000BC4F2C912193019685309105B9F78AE37F
:1016F00093E00E949E1981E001C080E0DF91CF91CC
:10170000089520E030E0FC014191CF01F901EB5C4C
:10171000FC4F40832F5F3F4F25303105A1F78AE30F
:1017200093E00C949519EF92FF920F931F93CF9330
:10173000DF93F62E472FE82FF0E0711106C0E85531
:10174000FC4F6491762F862F72C0272F30E0E8552A
:10175000FC4FE4910E2F10E056E0659FC00111246C
:10176000CFEFD0E0BE010E94ED325BEA5603C0012C
:10177000579F900D11248F0D911D8F0D911D982F46
:10178000990F890F7E01E21AF30AE09ED001E19ED3
:10179000B00DF09EB00D1124489FA0011124452FDB
:1017A00055277E01E41AF50AE09EA001E19E500D46
:1017B000F09E500D11247E01E81AF108E29EC0014E
:1017C000E39E900DF29E900D1124892F9927C81B3E
:1017D000D90BC09FC001C19F900DD09F900D1124C7
:1017E0006230710591F048F461157105E1F06130E6
:1017F0007105A9F48B2F752F19C06430710561F044
:1018000038F06630710579F00AC0892F7B2F0EC041
:101810008E2F7B2FE52F0AC08E2F792F02C0852FA8
:101820007E2FEB2F03C08B2F7E2FE92F6E2FDF91A2
:10183000CF911F910F91FF90EF90089520E030E03D
:10184000869F212D969F200D311D1124C9010895D9
:10185000BC018230910508F40895613E8EE178075D
:1018600048F49B0195E0369527959A95E1F748E075
:10187000420F01C04FEF91E0242F30E0290F311DBE
:1018800035952795229FF001239FF00DF00D11242F
:101890006E177F0718F44FEF420F04C02F3F39F047
:1018A00091E0920F491740F78FEF890F08958FEF5E
:1018B0000895482F982F46FD9095E92FEF739F705C
:1018C00046FD9F5FE295EF70EE0FF0E0E952FD4FAD
:1018D0002181299F802D212D112482958F702295A1
:1018E000207F822B3081982F930F892F47FD819580
:1018F00080580895E42FF0E0EE0FFF1FE458FE4FEC
:10190000408134EE439F412D1124E72FF0E050E059
:10191000445E5F4FDA01A21BB1099D01B7FF03C00E
:1019200031952195310993E0220F331F9A95E1F704
:10193000AF01421B530B9A0157FF02C020E030E079
:10194000279F212D1124722F0895E42FF0E0EE0F30
:10195000FF1FE458FE4F408134EE439F412D112478
:10196000E82FF0E050E0445E5F4FDA01A21BB109BE
:101970009D01B7FF03C031952195310993E0220FF6
:10198000331F9A95E1F7AF01421B530B9A0157FFA2
:1019900002C020E030E0582F259F212D1124822FF6
:1019A0000895E42FF0E0EE0FFF1FE458FE4F608132
:1019B000621B0895A22F50E0FA01EE0FFF1FE05CBA
:1019C000FE4F95AD905297FD9195440F551FFA012A
:1019D000E458FE4F3081232F30E02A1B3109290FB4
:1019E000311D97FD3A95620F0895EF920F931F9363
:1019F00093E0099F80011124159507956E2D600FC6
:101A00001F910F91EF9008950F931F93522F10E0A5
:101A1000F801EE0FFF1FE05CFE4FE5ADF0E0B09780
:101A20009F015203D001539FB00D1124000F111FCD
:101A3000F801E458FE4F008110E0005711094003FF
:101A40009001419F300D11242A0F3B1F37FF02C028
:101A500021583F4F220F232F221F330B620F1F915C
:101A60000F9108954095282F429F412D1124842FD6
:101A7000089522E8241B08F420E0620F0895EF92F5
:101A8000FF920F93970195E0099F200D311D1124BE
:101A90002F3F310519F010F02FEF30E02095382F4F
:101AA000320F08F43FEF832F0F91FF90EF900895CE
:101AB000EF92FF920F93E00EF11CF90137FF03C084
:101AC000F195E195F10924E0EE0FFF1F2A95E1F76A
:101AD000EF3FF10519F014F0EFEFF0E09A0157FF36
:101AE00003C031952195310994E0220F331F9A9557
:101AF000E1F72E173F070CF4F901EE0DFF1DEF3F44
:101B0000F10519F010F0EFEFF0E02E2F2095382FAF
:101B1000320F08F43FEF832F0F91FF90EF9008955D
:101B2000EF92FF920F93972F093438F4B701601B9F
:101B300071096F3F710519F010F06FEF70E0485FA9
:101B40005F4F4131510540F0A901485F5F4F41317E
:101B5000510510F06FEF70E06095482F460F08F4C4
:101B60004FEF842F37FF02C02D5F3F4F35952795EC
:101B7000359527956091A004620F792F0F91FF9002
:101B8000EF900895EF92FF920F939701201B310978
:101B90002F3F310519F010F02FEF30E0322F309544
:101BA000482F430F08F44FEF842F620F0F91FF90DF
:101BB000EF900895EF92FF920F939701201B310948
:101BC0002F3F310519F010F02FEF30E02095382F1E
:101BD000320F08F43FEF832F0F91FF90EF9008959D
:101BE000FC019B01009721F477FF2BC080E808954A
:101BF000AC0197FF04C044275527481B590BB90176
:101C0000640F751F37FD0CC0241B350BC901A5E0FF
:101C1000880F991FAA95E1F70E94013380E20CC05A
:101C2000CB0165E0880F991F6A95E1F7BA01621B45
:101C3000730B0E94013380E6861BF7FF03C081957A
:101C4000089580E00895FF920F931F93CF93DF9341
:101C5000F62E172FD82FC901C72FC01BBA010E941B
:101C6000F00D982F990F890F7C2F781B719F712D84
:101C700011246F2D8D2FDF91CF911F910F91FF9028
:101C80000895FF920F931F93CF93DF93F62ED72FD4
:101C9000182FC901C12FC01BBA010E94F00D982F47
:101CA000990F890FC81B2C2F219F212D1124822FC2
:101CB0006F2D7D2FDF91CF911F910F91FF90089590
:101CC000EF920F931F93CF93DF93D62F172FC82F29
:101CD000C9010E19070FBA010E94F00D702F781B71
:101CE000719F712D11246D2F8C2FDF91CF911F913A
:101CF0000F91EF900895EF920F931F93CF93DF937F
:101D0000D62FC72F182FC9010E19010FBA010E9433
:101D1000F00D081B202F219F212D1124822F6D2FC4
:101D20007C2FDF91CF911F910F91EF9008950F932A
:101D3000CF93DF93D72FC82FC901BA010E94F00DAE
:101D4000682F600F7D2F8C2FDF91CF910F91089519
:101D5000EF920F93CF93DF93D72FC82FC9010E199E
:101D6000BA010E94F00D602F681B7D2F8C2FDF9130
:101D7000CF910F91EF9008951F93CF93DF93FC01C4
:101D8000618140815FEF560FA1E0A60F9FEF940F96
:101D900081E0840FC62FD0E0941780F426E02C9FBA
:101DA000F0012D9FF00D1124E859FC4FE90FF11DB2
:101DB000208130E1230F08F42FEF2083242F30E01F
:101DC00076E07C9FF0017D9FF00D1124E859FC4FD7
:101DD000EF01C20FD31F788110E2710F08F47FEF7B
:101DE0007883863040F4E80FF11D708110E1710FA7
:101DF00008F47FEF7083AA3070F5B0E0941780F498
:101E000076E07A9FF0017B9FF00D1124E859FC4F9A
:101E1000E90FF11D70811DE0710F08F47FEF7083F1
:101E200076E07A9FF0017B9FF00D1124E859FC4F7A
:101E3000DF01A20FB31F7C9110E1710F08F47FEF57
:101E40007C93863040F4E80FF11D70811DE0710F26
:101E500008F47FEF7083561778F5652F70E09417BC
:101E600080F446E0469FF001479FF00D1124E859A9
:101E7000FC4FE90FF11D40815DE0450F08F44FEF85
:101E8000408396E0969FF001979FF00D1124E8594A
:101E9000FC4FDF01A20FB31F2C9130E1230F08F498
:101EA0002FEF2C93863040F4E80FF11D20813DE0A8
:101EB000230F08F42FEF2083DF91CF911F91089516
:101EC00045E050E06CE170E08FE994E00C9443361B
:101ED00045E050E06CE170E08FE994E00C946136ED
:101EE000EFE9F4E081E3808380910D0290910E028E
:101EF000A0910F0281839283A3838FE784830C9444
:101F0000680F80E008950F931F93CF93DF93C82F3E
:101F1000D62F8A010E94810F96E0C99FF0011124FB
:101F2000E05CFE4FED0FF11D90819F3F29F0F8011D
:101F3000E80FF11D90838F5FDF91CF911F910F917B
:101F40000895E091E502F091E6020994E091E10242
:101F5000F091E20209944F925F926F927F928F927A
:101F60009F92AF92BF92CF92DF92EF920F931F9307
:101F7000CF93DF932C013B01FC01C081CC0FCC0F30
:101F8000CC0FD8E0DC0FD53208F0D4E26091A30486
:101F900066958091A4049091A5040E941E0C182FB0
:101FA000CD1708F044C08C2E912CF401EC53FE4F59
:101FB0009081F20181818923C1F1F401EE0FFF1FAD
:101FC000E458FE4FC080D12CF0E7CF1AD108F401BD
:101FD000EE0FFF1FE05CFE4FA5ACB12C80E2A81A0B
:101FE000B108CC9C9001CD9C300D300D1124AA9CE1
:101FF000C001AB9C900D900D1124820F931F0E9485
:10200000280C082F6091A0047091A1048091A20473
:10201000E12E9501A601F30109950E94930B462F2D
:10202000282F672FC4010E94A60FCF5FB9CF81E090
:10203000D43208F080E0DF91CF911F910F91EF90A3
:10204000DF90CF90BF90AF909F908F907F906F90D8
:102050005F904F90089560E67EE00C94AB0F6BE7C5
:102060007EE00C94AB0F65EF7CE00C94AB0F68EA5C
:102070007EE00C94AB0FAF92BF92CF92DF92EF92C3
:10208000FF920F931F93CF93DF936C015B01FC01D1
:10209000C081CC0FCC0FCC0FD8E0DC0FD53208F0CC
:1020A000D4E26091A30466958091A4049091A50464
:1020B0000E941E0C182FCD1778F5EC2EF12CF7018D
:1020C000EC53FE4F9081F6018181892319F1F701CC
:1020D000EE0FFF1FE05CFE4F25AD30E020523109CE
:1020E000F701EE0FFF1FE458FE4F408150E04057CC
:1020F00051096091A0047091A1048091A204012F64
:10210000F50109950E94930B462F282F672FC701D1
:102110000E94A60FCF5FCFCF81E0D43208F080E0DD
:10212000DF91CF911F910F91FF90EF90DF90CF90B3
:10213000BF90AF90089563E27EE00C943B1061E4A1
:102140007EE00C943B1067E97EE00C943B10BF925C
:10215000CF92DF92EF92FF920F931F93CF93DF9373
:102160008C017B01FC01C081CC0FCC0FCC0FD8E0DF
:10217000DC0FD53208F0D4E26091A3046695669531
:102180008091A4049091A5040E941E0CB82ECD1736
:10219000F0F4CC2ED12CF601EC53FE4F9081F801D7
:1021A0008181892391F06091A0047091A1048091B4
:1021B000A2042B2D4C2FF70109950E94930B462F5B
:1021C000282F672FC6010E94A60FCF5FE0CF81E0C6
:1021D000D43208F080E0DF91CF911F910F91FF90F2
:1021E000EF90DF90CF90BF9008956AE77CE00C9469
:1021F000A71065EA7CE00C94A71061ED7CE00C94DC
:10220000A7106AED7CE00C94A7107F928F929F92AA
:10221000AF92BF92CF92DF92EF92FF920F931F93F4
:10222000CF93DF936C015B01FC01C081CC0FCC0F1D
:10223000CC0FD8E0DC0FD53208F0D4E26091A304D3
:10224000669566958091A4049091A5040E941E0C49
:10225000182F80E4810F0E94590C90E8F92EF80E97
:10226000812F0E94590C20E8722E780ECD1700F5B0
:102270008C2E912CF401EC53FE4F9081F60181815C
:102280008923A1F06091A0047091A1048091A2041F
:10229000E12E0C2F272D4F2DF50109950E94930B50
:1022A000462F282F672FC4010E94A60FCF5FDECFD5
:1022B00081E0D43208F080E0DF91CF911F910F913F
:1022C000FF90EF90DF90CF90BF90AF909F908F9056
:1022D0007F90089564E07DE00C940511AF92BF9269
:1022E000CF92DF92EF92FF920F931F93CF93DF93E2
:1022F0007C015B01FC01C081CC0FCC0FCC0FD8E07E
:10230000DC0FD53208F0D4E22091A30430E040E0A5
:1023100050E06FEF7FEF80E090E00E94153389017D
:10232000CD17E8F5CC2ED12CF601EC53FE4F908161
:10233000F7018181892389F19091A804915097FD3B
:1023400015C0292F092E000C330BF901E855FB4F5E
:102350008189C813F3CF220F331FF901E855FB4FD2
:10236000218D328D2017310748F701C09801609107
:10237000A304C9010E941E0CAC016091A0047091DD
:10238000A1048091A204F50109950E94930B462FA8
:10239000282F672FC6010E94A60FCF5FC1CF81E013
:1023A000D43208F080E0DF91CF911F910F91FF9020
:1023B000EF90DF90CF90BF90AF90089562E37DE003
:1023C0000C946E1169E37DE00C946E112F923F9294
:1023D0004F925F926F927F928F929F92AF92BF9235
:1023E000CF92DF92EF92FF920F931F93CF93DF93E1
:1023F000CDB7DEB729970FB6F894DEBF0FBECDBFBD
:102400008B834B013A01DB011C91110F110F110F4E
:10241000B8E0B10FB983B53210F0E4E2E983F0918E
:10242000A804FA838981181708F07BC0A12EB12C6B
:10243000F501EC53FE4F9081D40111968C918923C4
:1024400009F46DC02090A0043090A1044B80512C61
:10245000C501880F991FFC01E458FE4FFD83EC83F2
:10246000C501880F991F9C0123583E4F3F832E833F
:10247000FA814F1608F043C0E42CF12CAC81BD81E9
:10248000BC91EB2FF0E0F987E887F701E855FB4FA7
:10249000818128853985281B310939872887AE81B4
:1024A000BF81CC90D12C8185C81AD108F901EE9F4B
:1024B0009001EF9F300D300D1124CC9CC001CD9CBC
:1024C000900D900D1124820F931F0E94280C082F4D
:1024D000F701EE0FFF1FE855FB4F6091A304818DBC
:1024E000928D0E941E0C7C01960148855985B10190
:1024F000852DF30109951B014394582EB9CF2091E6
:10250000A204352D329F312D1124832FB1010E9459
:10251000930B462F282F672FC5010E94A60F1F5F20
:1025200081CF81E09981943208F080E029960FB63E
:10253000F894DEBF0FBECDBFDF91CF911F910F91F9
:10254000FF90EF90DF90CF90BF90AF909F908F90D3
:102550007F906F905F904F903F902F9008952091C3
:10256000A80431E0231B08F420E04FE35DE0BC0148
:10257000822F0C94E6112091A80431E0231B08F46B
:1025800020E048E55DE0BC01822F0C94E61120912B
:10259000A80431E0231B08F420E040E95DE0BC0121
:1025A000822F0C94E6112091A80431E0231B08F43B
:1025B00020E042EC5DE0BC01822F0C94E6112091FA
:1025C000A80431E0231B08F420E04AED5DE0BC01E3
:1025D000822F0C94E611DF92EF92FF920F931F93DC
:1025E000CF93DF938C01DC01CC91CC0FCC0FCC0FBF
:1025F000D8E0DC0FD53208F0D4E26091A0047091ED
:10260000A1048091A2040E94930BF62EE72ED82EEF
:10261000CD1798F4EC2FF0E0DF01AC53BE4F8C9156
:10262000D80111969C91982331F02D2D4F2D6E2DB0
:10263000CF010E94A60FCF5FEBCF81E0D43208F02C
:1026400080E0DF91CF911F910F91FF90EF90DF908D
:102650000895AF92BF92CF92DF92EF92FF920F93C5
:102660001F93CF93DF938C01FC01C081CC0FCC0F63
:10267000CC0FD8E0DC0FD53208F0D4E2E090A10412
:10268000F090A204D090A0046D2D7E2D8F2D0E947D
:10269000930BC62EB72EA82E6091A3046D0D7E2D30
:1026A0008F2D0E94930BF62EE72ED82ECD17B8F45F
:1026B0008C2F90E0FC01EC53FE4F3081F80121811A
:1026C000232359F030FF04C02D2D4F2D6E2D03C054
:1026D0002A2D4C2D6B2D0E94A60FCF5FE7CF81E0F6
:1026E000D43208F080E0DF91CF911F910F91FF90DD
:1026F000EF90DF90CF90BF90AF900895BF92CF92B0
:10270000DF92EF92FF920F931F93CF93DF936C01B1
:10271000FC01C081CC0FCC0FCC0FD8E0DC0FD53240
:1027200008F0D4E20091A104B090A2042091A30487
:1027300010E4129F112D1124CD1718F5EC2EF12C59
:10274000F701EC53FE4F9081F60181818923B9F0A6
:10275000F701EE0FFF1FE05CFE4F85AD82958F7095
:102760006091A004819F600D1124702F8B2D0E9419
:10277000930B462F282F672FC7010E94A60FCF5F0C
:10278000DBCF81E0D43208F080E0DF91CF911F9160
:102790000F91FF90EF90DF90CF90BF900895BF9280
:1027A000CF92DF92EF92FF920F931F93CF93DF931D
:1027B0007C01FC01C081CC0FCC0FCC0FD8E0DC0F2A
:1027C000D53208F0D4E2C090A104B090A2042091C8
:1027D000A30430E4D32E3D2D329F312D1124D32E6E
:1027E000CD1738F50C2F10E0F801EC53FE4F908117
:1027F000F70181818923D9F0F801EE0FFF1FE4581A
:10280000FE4F6081D69EB001112495E075956795C5
:102810009A95E1F78091A004680F7C2D8B2D0E9482
:10282000930B462F282F672FC8010E94A60FCF5F5A
:10283000D7CF81E0D43208F080E0DF91CF911F91B3
:102840000F91FF90EF90DF90CF90BF900895DF92AF
:10285000EF92FF920F931F93CF93DF938C01DC01D4
:10286000CC91CC0FCC0FCC0FD8E0DC0FD53208F0D8
:10287000D4E2E090A004F090A104D090A204609172
:10288000A3046695669566958091A4049091A5042D
:102890000E941E0C0E94590C805887FD8195880F5C
:1028A000282F3D2D239F212D1124822FB7010E9417
:1028B000930BF62EE72ED82ECD1798F4EC2FF0E0E0
:1028C000DF01AC53BE4F8C91D80111969C91982397
:1028D00031F02D2D4F2D6E2DCF010E94A60FCF5F11
:1028E000EBCF81E0D43208F080E0DF91CF911F91EF
:1028F0000F91FF90EF90DF900895E091E302F09147
:10290000E40209942F923F924F925F926F927F92CE
:102910008F929F92AF92BF92CF92DF92EF92FF92EF
:102920000F931F93CF93DF93CDB7DEB72B970FB6DF
:10293000F894DEBF0FBECDBF3C01DC010C91000F4F
:10294000000F000FB8E0B00FB987BD3310F0ECE313
:10295000E987D30112968C91882361F040E060E012
:1029600080E00E947D148CE3E8E6F3E0DF011D9235
:102970008A95E9F710E0F985EF2FF0E0FB87EA8709
:1029800086E0482ECE0101965C019AEA292E8A85BE
:102990009B85081719070CF060C0C8016AE070E059
:1029A0000E9401337B014C01489EF001499EF00DCD
:1029B0001124E859FC4FE60FF71F5080A5010E9433
:1029C000830F382E65018C2D8A19831508F032C0CB
:1029D000D601EC91F0E0EC53FE4F9081F301818140
:1029E000892321F1252D35E5231B08F420E0622DF4
:1029F000621B7091A104222D352D230F08F42FEFB7
:102A00003091A20482E0289F200D11242E5F239F85
:102A1000212D1124822F0E94930B462FD6019C91C9
:102A2000282F672F892F90E00E94A60FBFEFCB1AA7
:102A3000DB0AC9CF252D31E0231B08F420E0489C98
:102A4000C001499C900D112488599C4FFC01EE0D4A
:102A5000FF1D20830F5F1F4F9ACF81E099859C3324
:102A600008F080E02B960FB6F894DEBF0FBECDBF06
:102A7000DF91CF911F910F91FF90EF90DF90CF905A
:102A8000BF90AF909F908F907F906F905F904F908E
:102A90003F902F900895AF92BF92CF92DF92EF9226
:102AA000FF920F931F93CF93DF93CDB7DEB7289795
:102AB0000FB6F894DEBF0FBECDBF8B01FB01828144
:102AC000882349F0AE014F5F5F4F608181810E9492
:102AD000830FD82E01C0D12CC0903B03ED2CF12CDC
:102AE000C7018C0D911D099764F188E090E05C01AD
:102AF000AE18BF08B701645C7C4FA5018CE393E07E
:102B00000E947233B7016C5B7C4FA50184E493E0B3
:102B10000E947233A501440F551FB701660F771F3E
:102B20006C5A7C4F84E593E00E947233B701645B7A
:102B30007C4FA5018CE493E00E947233CA94C0924A
:102B40003B03F0903B03DE01119640E0842F8F0D94
:102B5000D41609F190E05D91252F30E0BC01655C51
:102B60007C4FF901EE0FFF1FE458FE4FE080FB01A0
:102B7000E182220F331FF901E05CFE4F25ADFB011E
:102B80002187518B880F991FFC01E55CFC4F128E49
:102B9000118E4F5FDBCF80933B0380919F048C7F2E
:102BA000883419F4C8010E94BC0E81E028960FB643
:102BB000F894DEBF0FBECDBFDF91CF911F910F9173
:102BC000FF90EF90DF90CF90BF90AF900895089561
:102BD0000C94E7150E94E8150C94E7154F925F924C
:102BE0006F927F928F929F92AF92BF92CF92DF921D
:102BF000EF92FF92CF93DF9360916403709165032E
:102C000080916603909167030E94162C6B017C01F2
:102C10000E94FB2B4B015C0160936403709365037E
:102C20008093660390936703A0913B03EBE3F3E08B
:102C30008A2F90E04FEF5FEF60E070E04C195D0984
:102C40006E097F09A91799F0218D328D2901612C18
:102C5000712C441555056605770510F4815004C0A4
:102C60002C0D3D1D328F218F9F5F3296EBCF8093CD
:102C70003B03D091A403D11108C0C0919F048C2FB5
:102C8000837019F0C695C69501C0C0E08091F1012E
:102C90008130E9F038F0823009F4D1C0833009F492
:102CA000DBC0EBC01092F2018092A4049092A504C4
:102CB000A092A604B092A70489E2EBE3F3E0A8EAAD
:102CC000B4E001900D928A95E1F781E0C2C0809155
:102CD000F501C8130DC020919F04237030E040918E
:102CE000F60150E081E02417350719F480E001C0B7
:102CF00081E081708093F4014C2F50E04A315105FE
:102D000008F08BC0FA01EA5AFF4F0C943433882341
:102D100009F483C040E060E080E00E947D147DC043
:102D200082EF91E00E94EB1279C082EF91E00E9465
:102D3000291374C082EF91E00E947E136FC082EF6E
:102D400091E00E94CF136AC082EF91E00E942714A5
:102D500065C082EF91E00E94F51060C082EF91E0C3
:102D60000E94F9105BC082EF91E00E949B1056C058
:102D700082EF91E00E949F1051C082EF91E00E948B
:102D80002B104CC082EF91E00E942F1047C082EFC1
:102D900091E00E94FD1042C082EF91E00E9401117B
:102DA0003DC082EF91E00E94331038C082EF91E085
:102DB0000E94A31033C082EF91E00E9437102EC012
:102DC00082EF91E00E946A1129C082EF91E00E9497
:102DD000821424C082EF91E00E94DE111FC082EFB6
:102DE00091E00E94E2111AC082EF91E00E94AF12BE
:102DF00015C082EF91E00E94BB1210C082EF91E0FB
:102E00000E94C7120BC082EF91E00E94D31206C04D
:102E100082EF91E00E94DF1201C080E09091F20108
:102E20009F5F9093F201811128C082E08093F101AD
:102E30008091F401811121C0CC2351F01EC0C093B8
:102E4000F50180919F0483708093F6010E94A10F89
:102E500083E08093F10111C06091A4047091A504F6
:102E60008091A6049091A7040E94162C60317105F0
:102E70008105910510F01092F101D11110C0DF9180
:102E8000CF91FF90EF90DF90CF90BF90AF909F9049
:102E90008F907F906F905F904F900C94EA15DF9128
:102EA000CF91FF90EF90DF90CF90BF90AF909F9029
:102EB0008F907F906F905F904F900895E091DF0228
:102EC000F091E00209951092A804E1ECF4E08FEF94
:102ED0009FEF8193919324E0E13DF207D1F71092A7
:102EE0003B03E4E5F3E08FEF9FEF8193919323E0C1
:102EF000E436F207D1F70E947E2A811104C00E94B5
:102F00001E2B0E94700F0E94600F80919F048C7F87
:102F100011F40C94700F0895EFE9F4E0908181E0D2
:102F2000892780831092F1010C94680F90919F047F
:102F3000892F869586958F5F8F7393708A3120F4E1
:102F4000880F880F892B02C0892F846080939F048B
:102F50001092F1010C94680F90919F04892F86952F
:102F60008695815C8F739370882321F0880F880F7A
:102F7000892B02C0892F846680939F041092F101EF
:102F80000C94680FEFE9F4E08181885F81830C94F1
:102F9000680FEFE9F4E08181885081830C94680F19
:102FA000EFE9F4E0228138E0230F08F42FEF2283C9
:102FB0000C94680FEFE9F4E0228138E0231B08F459
:102FC00020E022830C94680F2091A20438E0230FA4
:102FD00008F42FEF273918F42093A20403C086E9E0
:102FE0008093A2040C94680FEFE9F4E0238138E0A9
:102FF000231B08F420E023830C94680FEFE9F4E02E
:1030000024813AE0230F08F42FEF24830C94680FF7
:10301000EFE9F4E024813AE0231B08F420E0248364
:103020000C94680FEFE9F4E0880F880F908193709B
:10303000892B80831092F1010C94680F0895FC0194
:10304000EE0FFF1F8E0F9F1FFC01EF52FB4F61839E
:10305000408322830895E1EDF4E095E0ED33F90734
:1030600029F08183608342833396F7CF089564E229
:1030700070E081ED94E00C949F18882311F0FA0120
:1030800001C0FB0109941F93CF93DF93FB011281D1
:10309000111150C0EC010E94582A8272FE01E25CBC
:1030A000FC45E431F10520F4E059FF4F0C94343332
:1030B00011E040C00E948C173DC04CEA57E166E920
:1030C00077E104C046E957E16CEA77E10E943D18D8
:1030D00031C049EC57E162EC77E1F8CF42EC57E1BF
:1030E00069EC77E1F3CF4AED57E160ED77E1EECFA0
:1030F00040ED57E16AED77E1E9CF44EF57E164EE47
:1031000077E1E4CF44EE57E164EF77E1DFCF48E0C9
:1031100058E16EEF77E1DACF4EEF57E168E078E102
:10312000D5CF81E005C085E003C08CE001C08FE011
:103130000E941218812FDF91CF911F910895539A09
:103140002BB1277F3BB138604FB7F894FC01CB011E
:10315000880F991F680F791F6E0F7F1FE617F707FB
:1031600089F0819198E03BB9000000C087FF2BB93E
:10317000880F000000C000C000C02BB900C09A95A5
:1031800091F7ECCF4FBF8FE594E00197F1F700C0C6
:10319000000008950C94A9068091E801882309F4A1
:1031A00047C02091F801A22FA295AF70B0E0919690
:1031B0003C9191972F7081E090E0AC01022E01C00C
:1031C000440F0A94EAF7542F5095352391963C9377
:1031D000919792963C919297432B92964C9392970B
:1031E0004091F701E42FE295EF70F0E031A14F70CC
:1031F000042E01C0880F0A94EAF7982F9095932324
:1032000091A392A1892B82A390968C9190E002C009
:10321000959587952A95E2F7817020A130E002C04C
:10322000359527954A95E2F720FD09C090E008C042
:1032300084E98093F80185EF8093F701B2CF92E0A3
:10324000892B8093AA039091E80181E098279093BD
:10325000A603891B8093A5030895CF93E091AA0349
:103260005E2F550F550F2091F801E22FE295EF7078
:10327000F0E080A190E02F7002C0959587952A9587
:10328000E2F7817099274091F701E42FE295EF7002
:10329000F0E020A130E04F7002C0359527954A95A7
:1032A000E2F7F901E170FF2720FF02C0E2E0F0E061
:1032B000E82BF92BE52BE093AA03C091A603EF704E
:1032C000F0E0E951FD4F90818091A903890F80932F
:1032D000A90384306CF0EC2F0C2E000CFF0BE95589
:1032E000FC4F80818F5F808360E08C2F0E94CA1822
:1032F0008091A9038D3F6CF4EC2F0C2E000CFF0B7A
:10330000E955FC4F80818150808361E08C2F0E94C1
:10331000CA188091A903837887FF03C081508C6FFE
:103320008F5F8093A903CF910895E091A603F0E009
:10333000E955FC4F2081FC0120830895FF920F93F3
:103340001F93CF93DF93D091A5030D2F10E0095564
:103350001C4FFC01C081F8018081C81BFC2E1F148A
:1033600054F4FA94F80180818F5F808360E08D2FA0
:103370000E94CA18F4CF8C2FC7FD80E0C81BCC2355
:1033800051F0CF5FF80180818150808361E08D2F03
:103390000E94CA18F4CFDF91CF911F910F91FF9037
:1033A0000895EF92FF920F931F93CF93DF93EC0159
:1033B0007B0164E670E088E70E94C81E8C01EC0E79
:1033C000FD1ECE15DF0561F017FD0AC0FE018491D8
:1033D00064E670E00E941F1F8C012196892B89F3FF
:1033E0000E94A31FC801DF91CF911F910F91FF9001
:1033F000EF900895EDE3F5E080E092E0DF019C01BD
:103400001D9221503040E1F7F0934207E0934107CD
:103410008FEF9FEF9093D7038093D60308950E9478
:10342000BF068093D20380FD02C080E801C080E225
:103430008093D1030E94C21E6DE070E08FEB94E098
:103440000E94D119892B11F080E008958091D20358
:1034500063E070E081FD03C08CEB94E002C089EB77
:1034600094E00E94D119892B79F76DE070E08CEA25
:1034700094E00E94D119892B39F70E94FB2BDC01C3
:10348000CB01805A9541AF4FBF4F80933D0790933A
:103490003E07A0933F07B09340070E94FA1981E0CE
:1034A0008093D5038093D4031092D3030895209181
:1034B000D10336E0839FC0011124629F800D911DCE
:1034C0001124811522E0920714F080E090E0835CE3
:1034D0009A4F9093420780934107089520914107A6
:1034E00030914207275335404091D103642F70E05B
:1034F000C9010E94ED32481B463010F4240F311DE3
:10350000211582E0380710F020E030E0235C3A4FCC
:1035100030934207209341070895CF93DF938A3079
:1035200011F481E003C08D3029F480E0DF91CF9168
:103530000C94031BC62F682F80914107909142077E
:1035400026E0FC01ABEAB3E001900D922A95E1F789
:10355000603E30F026E0FC0111922A95E9F70AC09E
:10356000F6E06F9FB001112464537B4F46E050E0BA
:103570000E945C33C11135C0C0914107D091420710
:1035800046E050E0BE018BEA93E00E946533892B50
:10359000B1F1CD53D5409E0185E0369527958A95AA
:1035A000E1F781E090E0AC0102C0440F551F2A957D
:1035B000E2F72091D6033091D703242B352B2696A2
:1035C00045E0D695C7954A95E1F702C0880F991F47
:1035D000CA95E2F7822B932B9093D7038093D6035F
:1035E0000EC0E0914107F09142079F012A5F3F4FD3
:1035F0002E173F0709F2808180958193F9CFDF91E3
:10360000CF910C946E1ACF93E82F209141073091FF
:1036100042072D5335404091D103642F70E0C9011A
:103620000E94ED32481B842FEE2359F066E00E9481
:10363000E132C82FC150B0F060E080E20E948D1AE4
:10364000F9CFA901480F511D4115524018F080E0F3
:1036500020E030E0280F311D235C3A4F30934207C1
:1036600020934107CF910895FF920F931F93CF931B
:10367000DF93EC01F62EFC0101900020E9F78F01A9
:1036800001501109C017D10728F46F2D89910E94AC
:103690008D1AF8CFDF91CF911F910F91FF90089570
:1036A0000E94341B81E00C94031B0E94FB2BDC0165
:1036B000CB01805A9541AF4FBF4F80933D07909308
:1036C0003E07A0933F07B09340078091D403811138
:1036D0000BC062E070E08AEA94E00E94D119892B65
:1036E00019F481E08093D4038091D40308956F92FC
:1036F0007F928F929F92AF92BF92CF92DF92EF9282
:10370000FF920F931F93CF93DF932091D6033091B5
:10371000D7032115310509F4D4C08091D303811159
:10372000D0C061E070E0082F10E03B01082E02C01D
:10373000660C771C0A94E2F7A30142235323452B1E
:1037400011F48F5FF0CF9091D203980165E0220FC2
:10375000331F6A95E1F790FD12C08295880F80763D
:103760008093FB01220F232F221F330B31952093CF
:10377000FE01815E8093FC011092FF0112C045E0C2
:10378000369527954A95E1F7220F220F220F2093B5
:10379000FB011092FE01295F2093FC0183E08093DE
:1037A000FF0124E630E047E050E069EF71E088E790
:1037B0000E944F1F892B09F084C08091D20380FDA5
:1037C00023C0A80195E0440F551F9A95E1F7435C8B
:1037D0005A4F04E610E020E230E060E488E70E94FF
:1037E000761F892B09F06DC00E94551BE301C0951F
:1037F000D0958091D6039091D703C823D923D09335
:10380000D703C093D6035DC080E2E1EBF3E0DF01B4
:103810001D928A95E9F785E0000F111F8A95E1F75F
:10382000ABEFB2E047EF52E0992493942D91EA0177
:103830008991AE01B801680F711D635C7A4F30E069
:103840002F543C4FF90197E07F01E21AF30AA92CAB
:1038500001C0AA0CEA94EAF77B01B12CE701899137
:103860007E018A21892E8B18D82DD770CD2E0D2E52
:10387000000CDD08C82F01C0CC0FDA95EAF7D1940F
:10388000C194D108D7E0CD22DD2401C08695CA9429
:10389000EAF78C2BD0808D298083B39488E0B8120E
:1038A000DDCF915031969F3F79F6C2E0AF3FBC0724
:1038B00009F0BCCF04E610E020E230E041EB53E039
:1038C0008CCFDF91CF911F910F91FF90EF90DF9000
:1038D000CF90BF90AF909F908F907F906F90089502
:1038E0008091D403882369F062E070E088EA94E074
:1038F0000E94D119892B19F08091D4030895109258
:10390000D4039091D40381E0892708950F931F93E6
:103910008091D503882311F160E080E00E94571A5E
:103920000E94CA060E94771B8091D4038823B1F0BD
:103930000E94FB2B00913D0710913E0720913F070D
:1039400030914007DC01CB01801B910BA20BB30B24
:10395000B7FD04C01F910F910C94701C1F910F9123
:1039600008950F931F93CF93DF93C62FD42F122F59
:10397000FC0182818823C9F06093DA030E94EF2B57
:103980009093D9038093D80380E28C0F883008F09D
:1039900057C0C77081E001C0880FCA95EAF7DF9170
:1039A000CF911F910F910C9420238091DA0368131B
:1039B00030C08091D8039091D9030E94072C84369F
:1039C000910538F500E20D0FCD17B9F080E28C0FAC
:1039D000883040F4C77081E001C0880FCA95EAF7CB
:1039E0000E942723083028F581E09D2F977001C0A1
:1039F000880F9A95EAF70E942023812F0E940D23B9
:103A00000830F0F4D77081E001C0880FDA95EAF74A
:103A10000AC080E28C0F883098F4C77081E001C042
:103A2000880FCA95EAF7DF91CF911F910F910C94FF
:103A30002723812FDF91CF911F910F910C940D239C
:103A4000DF91CF911F910F9108959C01CB01233FEE
:103A50004CE53407F9F078F4283DFCE53F07B9F070
:103A6000293D4CE5340711F1273D3C4531F526E26F
:103A700041EE61EE1EC0253FFCE53F0799F070F076
:103A8000263F3C45D1F427E245EE66EE12C027E220
:103A900045EE0EC026E241EE60EE0BC027E245EE99
:103AA00064EE07C026E241EE62EE03C028E241E088
:103AB00065EE0E94B11C80E00895FC01828188239C
:103AC00019F01092DA03089581E00895CF93DF93FF
:103AD000EC01FB018281882309F41FC1C230FCE59F
:103AE000DF0708F41BC1C6319CE5D90738F09E01F9
:103AF0002A5F3C452930310508F010C10E94912A07
:103B00009093480780934707C031ECE5DE0709F43E
:103B1000C3C008F041C0C8308CE5D80709F49AC08A
:103B2000F0F4C430ECE5DE0709F487C068F4C23075
:103B30008CE5D80709F477C0C330DC4509F0E3C051
:103B400080914707826076C0C630ECE5DE0709F455
:103B50006EC008F07BC08091470788606BC0CC3096
:103B60008CE5D80709F485C068F4CA30ECE5DE07B7
:103B700009F474C008F079C00E94132580914707AA
:103B8000806858C0CE308CE5D80709F476C008F0BC
:103B90007FC0809147078BC0CB3FECE5DE0709F47F
:103BA0004FC018F5C3318CE5D80709F47DC078F40F
:103BB000C131ECE5DE0709F473C0C231DC4509F020
:103BC000A2C00E941325809147078F7733C0C5316B
:103BD0008CE5D80709F472C008F486C0CA3FDC45FA
:103BE00009F091C0809148073EC0CF3FFCE5DF0758
:103BF00009F45FC058F4CD3F9CE5D90709F444C0EF
:103C000008F43FC08091480782602DC0C130FDE5B7
:103C1000DF0709F475C008F45DC0C230DD4509F066
:103C200072C080E06EC080914707816003C08091C0
:103C3000470780618093470766C08091470711C09E
:103C4000809148078260809348075DC08091470754
:103C50008062F0CF809147078064ECCF8091470766
:103C600088608460E7CF8160EECF809147078E7FC8
:103C7000E1CF809147078D7FDDCF80914707877F18
:103C8000D9CF8091480718C0809148078D7FDBCF3E
:103C9000809147078F7ECECF809147078F7DCACF17
:103CA000809147078F7BC6CF80914707877F8B7FA7
:103CB000C1CF809148078D7F8E7FC5CF8091470708
:103CC00082FB222720F991E0922790FB82F990FB5A
:103CD00083F9B0CF80914807982F909591708E7F8F
:103CE000892B90FB81F9AFCF0E9413258091470764
:103CF00087FB222720F991E0922790FB87F99ACF42
:103D000081E00E94202B80914707909148070E94F4
:103D1000A22A0E94132580E001C081E0DF91CF91AB
:103D20000895CF93DF9386319C4541F5EB010E94C6
:103D3000582A982F8A81209100023091010288230D
:103D400079F09A7A81E009F480E08093DB039111A5
:103D500002C069E201C065E3C9010E945B2B0AC091
:103D60008091DB03811102C069E201C065E3C901F2
:103D70000E945D2B0E94392A80E001C081E0DF9122
:103D8000CF9108951092B9008CE08093B800089507
:103D9000EF92FF920F931F93CF93DF93182FEB01B6
:103DA0001092BC0084EA8093BC000E94EF2B7C013F
:103DB0008091BC0087FD0EC0CF3F8FEFD807C1F3C5
:103DC0000E94EF2B8E199F098C179D0788F38EEFA9
:103DD0009FEF2EC08091B900887F883041F080919C
:103DE000B900887F803119F08FEF9FEF21C01093C9
:103DF000BB0084E88093BC000E94EF2B8C01809173
:103E0000BC0087FD0CC0CF3F8FEFD807C1F30E94E5
:103E1000EF2B801B910B8C179D0788F3D8CF8091D7
:103E2000B900887F883111F08034F1F680E090E0AD
:103E3000DF91CF911F910F91FF90EF9008950F9315
:103E40001F93CF93DF93EB018093BB0084E88093B3
:103E5000BC000E94EF2B8C018091BC0087FD0EC03E
:103E6000CF3F8FEFD807C1F30E94EF2B801B910B40
:103E70008C179D0788F38EEF9FEF0CC02091B9003F
:103E8000287F81E090E0283211F480E090E0919565
:103E900081959109DF91CF911F910F910895CF9254
:103EA000DF92EF92FF920F931F93CF93DF936B01FB
:103EB0008A017901B9010E94C81EE6010C0D1D1D81
:103EC000C017D10761F424E92093BC00DF91CF91A2
:103ED0001F910F91FF90EF90DF90CF90089597FD85
:103EE000F2CFB70189910E941F1FEACFCF92DF92D4
:103EF000EF92FF920F931F93CF93DF93C62F6A0128
:103F00007901B8010E94C81E97FD11C0B8018C2F1D
:103F10000E941F1FE601EC0CFD1CCE15DF0539F0D9
:103F200097FD05C0B80189910E941F1FF6CF24E9B3
:103F30002093BC00DF91CF911F910F91FF90EF90E4
:103F4000DF90CF90089584E98093BC0008958EE1BE
:103F50004A9B02C08150E1F74A9BFECF08955A98D0
:103F600080E28A95F1F75A9A0895FC012AE02A9591
:103F7000F1F790E020E080E031E0261779F040E1B1
:103F80004A95F1F7880F4A9B02C08160932700C0D1
:103F9000000040E14A95F1F72F5FEFCF20E12A952D
:103FA000F1F729B100C0000030E13A95F1F722FBAA
:103FB000222720F992272081920F90830895EF9273
:103FC000FF920F931F93CF93DF931F92CDB7DEB76E
:103FD00019828C017C01E60EF11C0E151F0559F0AB
:103FE0000E94A71F68E0CE0101960E94B51FF8014C
:103FF00081938F01F2CF81E09981911180E00F9040
:10400000DF91CF911F910F91FF90EF9008959093C2
:10401000DE038093DD036093DC03529A5A9A08957D
:104020009093DE038093DD036093DC0352985A9AE9
:10403000EA9AE9E6F0E080818F7C80830895615000
:1040400091E001C0990F6A95EAF720E031E09923E9
:1040500061F0492F482319F05A9A232701C05A9832
:1040600040E24A95F1F79695F2CF222311F05A9A41
:1040700001C05A9880E28A95F1F75A980895FF9204
:104080000F931F93CF93DF93EC018C01060F111D4B
:10409000C017D10741F0F9900E94AF1F68E08F2D43
:1040A0000E941F20F5CFDF91CF911F910F91FF90BC
:1040B00008951F920F920FB60F9211240F931F9322
:1040C0002F933F934F935F936F937F938F939F9320
:1040D000AF93BF93EF93FF93CF93DF931F92CDB72F
:1040E000DEB719820E94A71F67E0CE0101960E94E9
:1040F000B51F382F369536953695932F9695957032
:10410000232F2570920F292F2370969596958770EF
:10411000920F891348C08981811145C08091DC03C9
:10412000831708F440C080E18A95F1F75A9A529AB1
:10413000A2E0AA95F1F700C00091DD031091DE0323
:10414000B8E03B9F000D111D11245A98F8016581BC
:10415000662321F0868197810E943F200E94AF1F35
:10416000F0E1FA95F1F75A9852985A9A80E18A95B7
:10417000F1F7D80112966C911297662369F01396A5
:104180008D919C9114970E94DF1FD801ED91FC91B5
:10419000811105C082E004C0D801ED91FC9188E056
:1041A00080830E94A71F0F90DF91CF91FF91EF9125
:1041B000BF91AF919F918F917F916F915F914F913F
:1041C0003F912F911F910F910F900FBE0F901F9055
:1041D00018950F931F93CF93DF932091DC0330E06A
:1041E000281739070CF471C09C0193E0220F331F8C
:1041F0009A95E1F7C091DD03D091DE03C20FD31F82
:10420000F894529A5A9845E04A95F1F70000982F91
:10421000969595708570890F982F937086958695E1
:10422000890F8901082B0E94AF1F84E08A95F1F75E
:1042300000C067E0802F0E941F2040E14A95F1F7FF
:1042400052985A9A4A9902C000C0FCCF87E090E089
:104250004A9B0EC0019751F4529A5A9AE881F9810B
:1042600081E08083789481E090E031C000C0F0CF9D
:104270006D81662381F08E819F810E94DF1F8111F5
:104280000AC0529A5A9AE881F98182E08083789430
:1042900082E090E01CC00E94A71F80E28A95F1F79F
:1042A0005A98529A40E14A95F1F76A81662321F0C3
:1042B0008B819C810E943F200E94AF1FE881F98181
:1042C0001082789480E090E002C084E090E0DF917A
:1042D000CF911F910F9108959093E4038093E3038E
:1042E0000895E091E303F091E403309721F0019009
:1042F000F081E02D099480E00895E091E303F091CE
:10430000E403309721F00280F381E02D09940895B1
:104310002091E1033091E2032817390771F090935F
:10432000E2038093E103E091E303F091E40330972B
:1043300021F00680F781E02D099408952091DF0394
:104340003091E0032817390771F09093E0038093D0
:10435000DF03E091E303F091E403309721F0008460
:10436000F185E02D0994089585B7806885BF85B7EC
:10437000806885BF089508950C94BB210C94BC21DE
:104380000C94BB210C94BB210E94B4210E94C0213B
:104390000C94BE210C94240B0E94E62B0E94D3099E
:1043A00080E00E940F1A0E94692C0E94CC180C9485
:1043B000C2219F92AF92BF92CF92DF92EF92FF9273
:1043C0000F931F93CF93DF93CDB7DEB72A970FB626
:1043D000F894DEBF0FBECDBF0E94640AC82E0E94B3
:1043E000CA21811111C08FEF89838A831B820E94A9
:1043F000EF2B8160782F9D838C8349815A816B815B
:104400008D810E947A2240C086EEA82E83E0B82ECD
:1044100000E010E0902E802F0E94C009E82EF501E8
:10442000D1905F01D82631F40F5F1F4F0A3011057C
:1044300089F7D9CF8091640481FD0E94C60980E08C
:10444000FF24F3949D2D9F21D1F08E839F82EF2036
:1044500081E009F480E088870E94EF2B8160782F4B
:104460009A8789874E815F8168858A850E947A2232
:10447000F801EA51FC4F8081F826F08205C08F5F79
:10448000FF0C8630F9F6D0CF0E942D190E94861CB1
:10449000C1100E94551B0E9471219091E50389175C
:1044A000B9F00E9471218093E5032A960FB6F89423
:1044B000DEBF0FBECDBFDF91CF911F910F91FF9057
:1044C000EF90DF90CF90BF90AF909F900C94AD078E
:1044D0002A960FB6F894DEBF0FBECDBFDF91CF9105
:1044E0001F910F91FF90EF90DF90CF90BF90AF9012
:1044F0009F900895CF93DF93CDB7DEB72B970FB67C
:10450000F894DEBF0FBECDBF4F83588769877A8787
:104510008B87DE01119686E0FD0111928A95E9F7FD
:1045200085E0FE01379601900D928A95E1F7498169
:104530005A816B817C818D819E810E94B2272B964E
:104540000FB6F894DEBF0FBECDBFDF91CF910895B7
:10455000FC01808191810E940B2A0895CF938823CA
:1045600071F1C82F8CEF8C0F813AD0F46C2F8091B1
:104570000002909101020E94252B882349F06C2FA4
:1045800080910002909101020E945D2B0E94392AC5
:104590006C2F80910002909101020E945B2B0CC055
:1045A00080E28C0F883058F4C77081E001C0880F1A
:1045B000CA95EAF70E945B2ACF910C94392ACF91D1
:1045C0000895882349F1682F8CEF860F813A38F4DB
:1045D00080910002909101020E945D2B0CC080E24C
:1045E000860F883050F4677081E001C0880F6A95AB
:1045F000EAF70E94612A0C94392A8BE5860F8330F2
:1046000020F480E090E00C948821685A673120F40F
:1046100080E090E00C949E210895CF93C82F0E94D3
:10462000AE22C93349F42FEF87EE93E0215080404A
:104630009040E1F700C000008C2FCF910C94E12254
:10464000882321F00E945B2A0C94392A089588233C
:1046500021F00E94612A0C94392A0895DF92EF928A
:10466000FF920F931F93CF93DF937C01D62FC72F19
:10467000FC01058102950F70128111110E94782AA8
:10468000DC2ED2948FE0D8228D2D90E08C309105D5
:1046900008F059C1FC01EC57FF4F0C9434338C2FB8
:1046A000807FCF70882311F0C295C07F112399F0CD
:1046B000CC2309F434C180E28D0F883010F0D11181
:1046C00004C08C2F0E945B2A03C08C2F0E946B2A8F
:1046D0000E94392A24C18D2F0E94E122CC2309F4A3
:1046E00032C180E28D0F883010F0D11104C08C2FC0
:1046F0000E94612A03C08C2F0E94712A0E94392ACD
:1047000022C19C2F907F8C2F8F70903211F0829558
:10471000807FD13051F4112321F0063008F013C10D
:104720000EC0053008F00FC11AC0112359F0002344
:1047300031F0F701958190FFF2C09F7095830E9440
:10474000202301C1002359F0D93309F0F9C0FFEF4C
:1047500027EE83E0F15020408040E1F7EFC00E9457
:104760002723F1C08C2F837009F047C01111EFC0CF
:10477000ED2FE295E695E770EE0FEE0F6D2F6F705F
:10478000862F90E0A0E0B0E0AC01BD010E2E04C089
:10479000440F551F661F771F0A94D2F7D4FF10C02D
:1047A0000FE010E020E030E004C0000F111F221FD6
:1047B000331FEA95D2F7009510952095309503C0E8
:1047C00000E010E09801C695C695C370CB01BA0110
:1047D000602B712B822B932BC23049F058F4C130DF
:1047E00019F00E948628B3C00E947428B0C00E94AD
:1047F0009828ADC00E947228AAC0112319F08C2FEE
:10480000817001C08695882309F4A1C0ED2FE2953F
:10481000E695E770EE0FEE0F6D2F6F70862F90E02C
:10482000A0E0B0E0AC01BD010E2E04C0440F551F46
:10483000661F771F0A94D2F7D4FF10C00FE010E074
:1048400020E030E004C0000F111F221F331FEA9543
:10485000D2F7009510952095309503C000E010E048
:104860009801C695C695C370CB01BA01602B712B18
:10487000822B932BC23049F058F4C13019F00E94BA
:104880004B2965C00E94392962C00E945D295FC022
:104890000E94AC285CC0CF70112339F08C2F0E948D
:1048A000D2288D2F0E94202352C08D2F0E942723B3
:1048B0008C2F0E94F3284BC0D13FA9F018F4D03FB1
:1048C00031F029C0D23FB1F0D33FD9F024C0112339
:1048D00039F00530C0F58C2F8F710E94182933C034
:1048E000063088F5F8CF112339F08C2F8F710E9494
:1048F000D22829C01123C9F38C2F8F710E94F3286D
:1049000022C0112329F08C2F8F710E94BD281BC05B
:104910000E94B82818C0112331F0002331F38D2FE5
:104920000E94AE2210C0002339F3D93349F49FEF1F
:10493000E7EEF3E09150E040F040E1F700C0000006
:104940008D2F0E94E12288EF8D0D843058F40E9453
:104950007121DF91CF911F910F91FF90EF90DF9028
:104960000C94AD07DF91CF911F910F91FF90EF90C5
:10497000DF9008950F931F93CF93DF93EC0168812D
:1049800079818A810E94162A8C010E946F290E94D7
:104990006028B801CE010E942E23DF91CF911F9194
:1049A0000F910895CF93DF93FC0190818181238142
:1049B0003481232B31F08F3F31F481E09F3F19F494
:1049C00003C081E001C080E080FD0EC0EF01CF0197
:1049D0000E94C607882341F0CE010E94BA24CE016E
:1049E000DF91CF910C948D07DF91CF9108958823AB
:1049F00021F00E946B2A0C94392A0895882321F013
:104A00000E94712A0C94392A08950E94782A0E94E3
:104A10007B2A0C94392A80910002909101020E9415
:104A20005F2B0C9405250E94682A0C940B25E92F16
:104A3000E295EF704E2F50E0FA013297EE30F1051B
:104A4000B0F4E057FF4F0C943433803F91F018F4EA
:104A5000883E68F40EC0843F51F40BC0883E48F095
:104A6000813F29F406C093FB882780F9089580E0F0
:104A7000089581E008950E940B2A0E941725089549
:104A8000CF93DF9300D000D01F92CDB7DEB70F9049
:104A90000F900F900F900F90DF91CF910895CF93CB
:104AA000DF9300D000D000D0CDB7DEB726960FB68A
:104AB000F894DEBF0FBECDBFDF91CF9108951F9355
:104AC000CF93DF93C091F10316E08091F203C817F2
:104AD00099F0D0E01C9FF0011D9FF00D1124ED50C6
:104AE000FC4F4081518162817381848195810E9454
:104AF0004F252196C770E9CFDF91CF911F9108957F
:104B0000409123045091240460912504709126045F
:104B100080912704909128040C944F250F931F93A4
:104B2000CF93DF938091280482958F7009F05DC048
:104B300080912504882309F458C08091F1031091D5
:104B4000F2036091230470912404C0912604D09153
:104B5000270491E06F3F09F090E0292F06E08117CC
:104B600009F443C0209721F07F3F21F030E003C0DB
:104B700031E001C0322F90E030FD34C0089FF001D9
:104B8000099FF00D1124DF01AD50BC4F11963C91EF
:104B90001197371327C03C91361324C012963C91CD
:104BA000129731111FC013964D915C9114974C1BB5
:104BB0005D0B44365105B0F4809128048F708061FC
:104BC00080932804E850FC4F80818F70806180833F
:104BD00083E294E00E94D224DF91CF911F910F9144
:104BE0000C945F2501968770BACFDF91CF911F910A
:104BF0000F9108959F92AF92BF92CF92DF92EF9262
:104C0000FF920F931F93CF93DF93CDB7DEB76197DA
:104C10000FB6F894DEBF0FBECDBF8C0185E0F80162
:104C2000DE011D9601900D928A95E1F7F801408111
:104C30005181E28090912304609124042091260404
:104C4000309127042115310531F06F3F31F481E0B7
:104C50009F3F19F403C081E001C080E0F82FF1709C
:104C60009F2E80FD2CC1F801A380B48083E2C82E62
:104C700084E0D82EF0902504F501E21BF30BFF2011
:104C800009F4EBC080912804E436F10508F0A7C0D0
:104C9000282F207F09F052C0561313C0491311C0AA
:104CA000FE2CE1100EC08F708061809328040E945A
:104CB0008025C6010E94D22480912804F8018583B2
:104CC0003EC1AB2831F05F3F31F481E04F3F19F432
:104CD00003C081E001C080E080FD03C081E08E253B
:104CE00002C080E090E0F82FF170FF2E80FF1CC022
:104CF0008091F1032091F20336E0821709F4FDC0A0
:104D000090E0389FF001399FF00D1124ED50FC4FD9
:104D10006181561306C06081461303C06281E612AA
:104D200003C001968770E9CFFE2CEE2009F407C17D
:104D30008091280481608093280466C0561312C0B5
:104D4000491310C0E1100EC0F8018583C8010E940C
:104D5000D22486E0F801A3E2B4E001900D928A9596
:104D6000E1F7C8C04D875E878D859E850E943B25F3
:104D7000882379F1EE2069F120912804822F829511
:104D80008F7090E0029774F0809123049091240436
:104D900098878F831986BB86AA862C87CE010796B3
:104DA0000E94D22486E0F801A3E2B4E001900D92C3
:104DB0008A95E1F70E948E250E9480250DC0561726
:104DC00029F14D875E878D859E850E943B25811147
:104DD0002CC0C8010E94D224FF24F394B0C0282F15
:104DE000207F69F77A2DB98AA88A6E2D89890E9459
:104DF000402583E294E00E94D22486E0F6011192DD
:104E00008A95E9F70E948025F12C99C04913D9CFE2
:104E1000E110D7CFF8018583C8010E94D22486E033
:104E2000F60111928A95E9F78AC0EE2091F220915D
:104E30002804822F82958F7090E002970CF4B2CFF5
:104E400080912304909124049A8389831B82BD82DC
:104E5000AC822E83CE010196A3CFE436F10510F586
:104E6000FE2CEE2009F4B5CF56130BC0491309C030
:104E700086E0F801A3E2B4E001900D928A95E1F793
:104E80005EC04D875E878D859E850E943B25811182
:104E900089CF80912804816080932804C8010E94F2
:104EA000D2244DC07A2DB98AA88A6E2D89890E9494
:104EB000402586E0F60111928A95E9F71BC0EE20A5
:104EC00009F487CF4D875E878D859E850E943B259F
:104ED000F82E882309F47DCF86E0F801A3E2B4E040
:104EE00001900D928A95E1F783E294E00E94A82256
:104EF0000E948E250E94802522C04D875E878D8569
:104F00009E850E940B2A292F22952F70223028F48B
:104F10009F7039F0811105C00BC0243028F49F70B8
:104F200049F4805E883020F0C8010E94D2249F2C72
:104F3000F92C05C0F8019581907F99F7F9CF8F2D55
:104F400061960FB6F894DEBF0FBECDBFDF91CF9153
:104F50001F910F91FF90EF90DF90CF90BF90AF9097
:104F60009F9008951F93CF93DF93CDB7DEB72C9713
:104F70000FB6F894DEBF0FBECDBF4F835887698749
:104F80007A878B879C87CE0107960E94FA25882313
:104F9000D1F09F8188852A853B85232B31F08F3F77
:104FA00031F481E09F3F19F403C081E001C080E04B
:104FB00080FD47C04F81588569857A858B859C85A2
:104FC0000E944F253EC086E0FE013796DE01119615
:104FD00001900D928A95E1F7FF81E8856A857B85CE
:104FE0006115710531F0EF3F31F481E0FF3F19F4B5
:104FF00003C081E001C080E080FD23C02091F20366
:1050000030E0C9010196877099274091F10350E083
:1050100084179507F1F1F983EA837D836C8396E029
:10502000929FD001939FB00D1124AD50BC4FFE0153
:10503000319601900D929A95E1F78093F2030E94C8
:105040005F2516E08091F1039091F203891771F1C9
:10505000189FC00111248D509C4F0E94FA2588236F
:1050600029F1E091F1031E9FF0011124ED50FC4F56
:105070004081518162817381848195810E944F2595
:105080008091F10390E00196877099278093F10356
:10509000D9CF0E9413251092F2031092F103E3E29C
:1050A000F4E086E0DF011D928A95E9F72C960FB6B1
:1050B000F894DEBF0FBECDBFDF91CF911F91089551
:1050C000089508950C9461280C9462280E94642825
:1050D000609355047093560480935704909358043A
:1050E0000C9405250C9466280F931F93009155048A
:1050F000109156042091570430915804602B712B65
:10510000822B932B1F910F910C9466280F931F9362
:105110000091550410915604209157043091580481
:1051200060237123822393231F910F910C9466288F
:105130000F931F930091550410915604209157042A
:105140003091580460277127822793271F910F9170
:105150000C9466280C9461280E94AA28609351043C
:105160007093520480935304909354040C94052537
:1051700060E070E0CB010C94AC280F931F9341E0EA
:1051800050E060E070E08A019B0104C0000F111F35
:10519000221F331F8A95D2F7C901B8011F910F91C1
:1051A0000C94AC280F931F9341E050E060E070E056
:1051B00004C0440F551F661F771F8A95D2F7809150
:1051C000510490915204A0915304B09154048A0167
:1051D0009B01082B192B2A2B3B2BC901B8011F91CE
:1051E0000F910C94AC280F931F9341E050E060E0C6
:1051F00070E004C0440F551F661F771F8A95D2F7D1
:10520000409550956095709580915104909152040D
:10521000A0915304B09154048A019B0108231923DF
:105220002A233B23C901B8011F910F910C94AC288C
:105230000F931F9341E050E060E070E004C0440F22
:10524000551F661F771F8A95D2F780915104909160
:105250005204A0915304B09154048A019B01082781
:1052600019272A273B27C901B8011F910F910C94D8
:10527000AC280F931F930091510410915204209178
:10528000530430915404602B712B822B932B1F916C
:105290000F910C94AC280F931F930091510410911F
:1052A00052042091530430915404602371238223CB
:1052B00093231F910F910C94AC280F931F9300918F
:1052C00051041091520420915304309154046027EA
:1052D0007127822793271F910F910C94AC28089572
:1052E000292F220F920F990F890FE82FE695E69547
:1052F000E695877051E001C0550F8A95EAF785E081
:10530000E89FF0011124E75DFB4F20E030E070E002
:105310004081CB01022E02C0969587950A94E2F750
:105320008170819584278523842781932F5F3F4F48
:105330002530310569F70895292F220F920F990F13
:10534000890F682F669566956695982F977085E00A
:10535000689FB001112440E050E080E0FB01E40FC1
:10536000F51FE75DFB4F208130E0092E02C0369526
:1053700027950A94E2F721703327042E01C0220FEB
:105380000A94EAF7822B4F5F5F4F4530510531F7A2
:105390000895BF92CF92DF92EF92FF920F931F93E7
:1053A000CF93DF938C01C0905104D0905204E090D1
:1053B0005304F09054048091550490915604A091A8
:1053C0005704B0915804C82AD92AEA2AFB2ACFE107
:1053D000D0E0D701C6010C2E04C0B695A7959795CD
:1053E00087950A94D2F780FD04C0219790F7B12CDD
:1053F00007C0BC2EB8018C2F0E9422080197A9F388
:105400008B2DDF91CF911F910F91FF90EF90DF9047
:10541000CF90BF900895CF93DF93EC010E94C929EC
:10542000BE010E942208DF91CF9108951F93CF9370
:10543000DF93EB019091F003992321F0CB010E94BF
:105440000B2A13C0882349F0CB010E94C929182FC9
:10545000682FCE010E94702904C0CB010E949C29B4
:10546000182FBE01812F0E942208DF91CF911F913A
:105470000895E0910002F09101028091630480831D
:10548000E0910002F0910102908180916204892BE9
:105490008083E0910002F09101029081809161048B
:1054A000892B808380910002909101020C947D21D0
:1054B00080916304089590916304892B8093630421
:1054C00008958095909163048923809363040895DF
:1054D00010926304089590916204892B8093620472
:1054E00008958095909162048923809362040895C1
:1054F00010926204089510926104089580E090E093
:105500000E945B3621E08C3E9E4F09F020E0822F06
:10551000089582E090E00C94533683E090E00C9480
:105520005336CF9384E090E00E945336C82F81E237
:1055300090E00E9453362C2F30E0A901582BCA016D
:10554000CF910895CF93C92F682F84E090E00E94F7
:1055500071366C2F81E290E0CF910C947136AB01E3
:10556000BC018FE090E00C948336AB01BC0183E179
:1055700090E00C94833660E070E0CB010C94B52A87
:1055800060E070E0CB010E94AF2A0C94BB2A6CEE65
:105590007EEF80E090E00E948F3660E082E090E055
:1055A0000E94713660E083E090E00E9471361092B4
:1055B000550410925604109257041092580460E05B
:1055C00084E090E00E94713660E081E290E00E9409
:1055D000713660E085E090E00E94713660E086E020
:1055E00090E00E9471366FEF87E090E00E94713684
:1055F00040E050E0BA0188E090E00E94833660E02D
:105600008DE090E00E94713640E050E0BA0188E100
:1056100090E00E94833660E087E190E00E9471365E
:1056200040E050E0BA018CE190E00E94833660E0F7
:1056300080E290E00E9471360C94C02A0C94C72A34
:10564000682F8EE090E00C947136662349F0FC01DF
:10565000329608962191621729F0E817F907D1F7D9
:1056600080E0089581E008959C01FC0132969FEF4F
:1056700080E04191461789F09F3F19F4411101C024
:10568000982F8F5F8630A9F79F3F39F0F901E90F16
:10569000F11D97FDFA956283089508959C012A5F94
:1056A0003F4FFC014281461301C0128201968217CE
:1056B0009307B9F708950C94342B0C944E2B029653
:1056C00026E0FC0111922A95E9F7089508950C94BB
:1056D000662B0C94662BCF930E94692B0E94640A60
:1056E0000E94672BC0E08C2F0E94C009811104C06A
:1056F000CF5FCA30C1F701C081E0CF9108950C940B
:10570000662B0C947F2B0E94812B80914D07843057
:1057100049F11092650420E488E190E00FB6F89416
:10572000A895809360000FBE2093600080E00E94E7
:10573000AD070E94812B83B7817F846083BF83B7CD
:10574000816083BF7894889583B78E7F83BF0FB6BF
:10575000F894A89580916000886180936000109211
:1057600060000FBE08950C94662B0E9413250E94C2
:1057700071210E94AD070C94B32B1F920F920FB6AC
:105780000F9211248F939F93AF93BF9380916504E1
:10579000811113C08091430790914407A091450760
:1057A000B09146074196A11DB11D80934307909388
:1057B0004407A0934507B0934607BF91AF919F91CF
:1057C0008F910F900FBE0F901F90189582E084BDAF
:1057D00093E095BD9AEF97BD80936E0008952FB723
:1057E000F8948091430790914407A0914507B091A8
:1057F00046072FBF08952FB7F89460914307709123
:10580000440780914507909146072FBF08959C015A
:105810004FB7F8948091430790914407A0914507B2
:10582000B09146074FBF821B930B0895CF92DF9232
:10583000EF92FF922FB7F894C0904307D09044079F
:10584000E0904507F09046072FBFA7019601261B61
:10585000370B480B590BCA01B901FF90EF90DF904D
:10586000CF90089578941F920F920FB60F92112443
:105870008F939F93AF93BF93809143079091440779
:10588000A0914507B09146070196A11DB11D8093D7
:10589000430790934407A0934507B0934607BF91F1
:1058A000AF919F918F910F900FBE0F901F90189501
:1058B00087E797E790930108809300089AE088E1D2
:1058C0000FB6F894A895809360000FBE9093600087
:1058D000FFCF0E947E2A811102C00E941E2B0E94CF
:1058E000892A809364040E94912A909348078093A8
:1058F00047070E948D2A682F70E080E090E00C94AA
:10590000722880916E04089508950895CF93DF93CF
:10591000EC010E94262E823011F0843039F581E0AE
:105920008093E9008FEF9091E800815095FD06C0CB
:1059300095ED9A95F1F700008111F5CF8091E8007F
:1059400085FF14C040E050E068E070E0CE010E94A6
:10595000432E8091E8008E778093E80088E0FE0176
:10596000A6E6B4E001900D928A95E1F7DF91CF9120
:105970000895089580914C07811109C00E94D42F89
:105980000E9431308091E20084608093E2000895AB
:1059900010924C070895089508950C94B52B42E099
:1059A00061EC81E00C944D2F80914F07833009F416
:1059B00060C030F4813071F0823009F499C00895EC
:1059C0008A3009F485C08B3009F46BC0893009F046
:1059D000A7C020C080914E07813A09F0A1C08091F4
:1059E000E800877F8093E8008091520790915307E9
:1059F000892B21F468E086E694E003C060E080E053
:105A000090E070E00E948E2E8091E8008B7780936A
:105A1000E800089580914E07813209F081C080919D
:105A2000520790915307892B09F07AC08091E800C2
:105A3000877F8093E8008091E80082FD05C0809117
:105A40004D078111F8CF6CC02091F3008091F200D6
:105A500090E0922B029729F48091F1008B7F8130A6
:105A600021F48091F10080936E048091E8008B779F
:105A700053C080914E07813A09F052C0809152077D
:105A800090915307892B09F04BC08091E800877FE4
:105A90008093E8008091E80080FFFCCF80910C02A9
:105AA00036C080914E078132D9F58091520790918E
:105AB0005307892BA9F58091E800877F8093E80040
:105AC0000E94822F8091500780930C020C94132522
:105AD00080914E07813221F58091E800877F809385
