:100000000C94D3020C941A030C941A030C94981AAF
:100010000C941A030C941A030C941A030C941A03EC
:100020000C941A030C941A030C94DA2B0C94AC2C39
:100030000C949B260C941A030C941A030C941A0328
:100040000C941A030C941A030C941A030C941A03BC
:100050000C941A030C9410270C941A030C941A0392
:100060000C941A030C941A030C941A030C941A039C
:100070000C941A030C941A030C941A030C941A038C
:100080000C941A030C941A030C941A030C941A037C
:100090000C941A030C941A030C941A030C941A036C
:1000A0000C941A030C941A030C941A03B113BA1388
:1000B000BF13C413C913CE13D313D813DD13E21324
:1000C000E713EC13F113F613FB13001405140A14D1
:1000D0000F14141419141E14231428142D1432147C
:1000E00037143C14DF15E215E715EE15F315F81576
:1000F000FD15021607160C161116161618161A16E6
:100100001C161F161F161F161F161F16FA1DFA1D86
:100110002D1E2D1E541E711F711F711F7E1E131F59
:10012000251F251FFC1FFC1F0E200E2005200E2062
:100130000E200E20FC1FFC1F0A200E200E200A207D
:10014000192D402D382E402D382E8C2DAF2D382EC8
:10015000062E152E29001E001F002000210022005F
:100160002B0034003600370013001C00E1000400AF
:100170001200080018000C00E000330014000D000D
:100180000E001B000000E300E20002512C000153AE
:100190003500270026002500240023002E000F0034
:1001A000150006000A0009002D00160011001700B6
:1001B0000B00070038001D0019001A001000050090
:1001C00000004C002A0003512800AE0029001E0048
:1001D0001F002000210022002B0014001A0008003C
:1001E00015001700E10004001600070009000A00CE
:1001F000E0001D001B000600190005000000E300E0
:10020000E20002512C0001003500270026002500E5
:10021000240023002D00130012000C0018001C0005
:100220002E0233000F000E000D000B0031003800CD
:10023000370036001000110000004C002A00035166
:1002400028000100005C3A003B003C003D003E00FD
:10025000010001004B004E0046001B01010001009F
:1002600031022F0030000601010050005200510001
:100270004F00190100000100010001000100010010
:10028000440043004200410040003F00450001009F
:100290004E004B00010001004D004F005100520084
:1002A00050004A0031004F00510052005000010040
:1002B00000000100010004510100010001000100E3
:1002C0000100010001000100010001000100010026
:1002D0000100010001000100010001000100010016
:1002E0000100010001000100010001000000010007
:1002F0000100045101000100A60001005600550054
:100300005400530001005700610060005F00460088
:10031000B20085005E005D005C004C0001006700DB
:100320005B005A0059002A000000630062000100CF
:1003300001000100A50000000000015C005CDF5C22
:10034000005201520000000000000000BD00A900A2
:100350000000000000000000BE00AA000000000035
:100360000000000000000100010001000100000089
:100370000000D25CD15CD05CCF5CCE5C00000000A1
:10038000D65CD55CD45CD35CCA5CC85CC65CCC5C17
:10039000C45CC35CCB5CC95CC75CCD5CC55C000065
:1003A0000000010001000100010000000001010146
:1003B0000101010101010202020202020202020322
:1003C00003030303030303040404040404040505F2
:1003D00005050506060606060707070707080808B5
:1003E00008090909090A0A0A0B0B0B0C0C0C0D0D64
:1003F0000D0E0E0E0F0F0F101011111112121313FC
:100400001414151516161717181819191A1A1B1B74
:100410001C1D1D1E1E1F20202122222324242526D0
:1004200026272829292A2B2C2D2D2E2F3031323208
:10043000333435363738393A3B3C3D3E3F40414214
:10044000434445464748494A4C4D4E4F50515354FA
:10045000555658595A5B5D5E5F61626465666869AE
:100460006B6C6D6F7072737577787A7B7D7E80822E
:10047000838587888A8C8E8F91939596989A9C9E77
:10048000A0A2A3A5A7A9ABADAFB1B3B5B7BABCBE87
:10049000C0C2C4C6C9CBCDCFD1D4D6D8DBDDDFE254
:1004A000E4E7E9EBEEF0F3F5F8FAFDFF1C034C008E
:1004B00069006C0079003500380047006C006F005F
:1004C000770045006E006300000016034F005200E5
:1004D0005600490053004500560041004E005300AD
:1004E00000000403090409023B00020100A0FA090C
:1004F0000400000103010100092111010001224053
:10050000000705810308000A090401000103000037
:100510000009211101000122320007058203200099
:100520000A120110010000000851FC5900000101ED
:1005300002000105010980A101850319012AB70004
:10054000150126B700950175108100C0050C090141
:10055000A101850419012AA002150126A002950116
:1005600075108100C005010906A101050719E029E0
:10057000E71500250195087501810295017508812F
:10058000010507190029FF150026FF0095067508CB
:10059000810005081901290595057501910295014C
:1005A00075039101C00011241FBECFEFDAE0DEBF5A
:1005B000CDBF04B603FE27C080912C0590912D0578
:1005C000A0912E05B0912F058730904BA740B04BDE
:1005D000D1F410922C0510922D0510922E05109238
:1005E0002F0514BE84B7877F84BF0FB6F894A895F3
:1005F00080916000886180936000109260000FBE5F
:10060000E0E0F8E3099512E0A0E0B1E0ECE6FFE5F8
:1006100002C005900D92AC3CB107D9F725E0ACECD7
:10062000B2E001C01D92AC32B207E1F70E9412297C
:100630000C94B42F0C9400000C943403811109C065
:10064000662319F08DE191E002C08CE191E00C94F9
:100650008F03813039F4662311F089EA01C08AEAF8
:100660000C94C01D0895089581E008959C013A9569
:1006700021153F4138F5DC01AA27B270AC014427AF
:1006800054709C012227387094FF0FC090FF02C065
:1006900080E101C080E0AB2B09F08062452B09F0BE
:1006A0008064232B69F080680BC0892F8170AB2B8D
:1006B00009F08260452B09F08460232B09F08860E3
:1006C000FB0109940895CF93DF93EC01805E9109BB
:1006D000089710F0209719F469EC7DE102C066ECF0
:1006E0007FE1CE010E9436038C2FDF91CF910C94D5
:1006F0002F1DCF93DF93EC010E947D1DCE01805E04
:100700009109089710F0209719F460ED7DE102C07F
:100710006DEC7FE1CE01DF91CF910C943603CF9346
:10072000DF93EC010E9463038FE39CE90197F1F7EB
:1007300000C00000CE01DF91CF910C94790381E0DD
:10074000089508950C94A1031F93CF93DF9300D0D5
:1007500000D01F92CDB7DEB749835A836B833091A7
:10076000750389819A81311114C0662359F02223BF
:1007700049F00E94A024182F682F89819A810E9435
:10078000472403C00E947324182F69817A81812F26
:1007900004C00E94A02469817A810F900F900F906D
:1007A0000F900F90DF91CF911F910C945A04FC0190
:1007B000262F408151816281738184810C94A4032E
:1007C000CF93DF93EC0160E00E94D703BE01DF917D
:1007D000CF910C94A2030E945725811102C00E9460
:1007E000FE250E9494140C9439060C943706089543
:1007F0000E94EA1F0E94F7032FEF84E39CE0215040
:1008000080409040E1F700C000000C9494270F93C3
:100810001F93CF93DF93EC0161E00E94D7038C011B
:10082000BE010E941C03882379F1BE01C8010E9409
:10083000DB17882349F1BE01C8010E942D188823C7
:1008400019F1BE01C8010E9458198823E9F0BE01C0
:10085000C8010E94C8158823B9F08A81882369F0ED
:1008600001158CE5180731F00F3D1C4531F40E944D
:10087000FE250AC00E94F80307C0CE01DF91CF9188
:100880001F910F910C949F0380E0DF91CF911F91F6
:100890000F91089508950C944A0481E008950C94F2
:1008A0004D04CF93C82F0E944B048C2F0E944F04FD
:1008B000CF9108952CE3829FC0011124FC0126E012
:1008C000729FE00DF11D1124E60FF11DEE0FFF1FC9
:1008D000EC5AFE4F859194910895CF93DF930E9437
:1008E0005A040E944E05EC01811521E5920780F51E
:1008F000811540E5940708F073C08F3B910580F4A3
:10090000883A910508F061C0853A910508F055C014
:100910008430910508F0BEC0019709F4BBC0B8C08F
:10092000C11580E2D80760F4C11521E0D20708F0B4
:10093000B1C0CE01805E9109089708F4ABC0A8C091
:10094000C11540E4D40708F4A3C0DF70D06AA2C088
:10095000C11584E5D80778F4C11523E5D20708F05E
:1009600071C0C11542E5D40708F056C0DC2FCC2772
:10097000C16FD06A8FC0C1158AE5D80778F4C11558
:1009800029E5D20708F074C0C11548E5D40708F47A
:100990007FC0DC2FCC27C06FD06A7CC0CE019056C0
:1009A0008115904208F074C08D2F8F710E94E2056E
:1009B000DD27D0628F71D82B6DC0C55AD0E0C959E0
:1009C000DD4FC881D0E0D06465C0C85AD0E0CC0FFC
:1009D000DD1FC75CDD4F0990D881C02DD4645AC09B
:1009E00054E0969587955A95E1F7282F23703C2F70
:1009F000337081E090E002C0880F991F3A95E2F7CA
:100A00009C68922BCF70C695C69540E2C49FE001CA
:100A10001124C82BD92B3EC0CE018370992721E029
:100A200030E002C0220F331F8A95E2F78C2F8695A3
:100A3000869540E2849FC0011124E901C82BD92B7F
:100A4000DC6828C0CE018370992721E030E002C025
:100A5000220F331F8A95E2F78C2F8695869540E208
:100A6000849FC0011124E901C82BD92BDA6812C078
:100A70008C2F8F700E94E20594E0D695C7959A95C9
:100A8000E1F7CF70D0E0DC2FCC27D069C82B02C0B3
:100A9000C0E0D0E0CE01DF91CF910895823891057A
:100AA00069F1B0F48133910509F46DC048F48932DD
:100AB000910509F463C08A32910509F469C008956B
:100AC0008533910509F455C089339105B9F008952E
:100AD000833E910569F138F4803E9105B1F0823E84
:100AE000910509F10895863E9105A9F1873E91058A
:100AF000B9F1843E910509F064C023C020911D0521
:100B000020FD4FC021FD4DC0089580911D0580FD41
:100B100044C080911E0580FF44C080911D0584FD66
:100B200042C083EE4DC080911D0582FF38C0F5CFD5
:100B300080911D0582FD33C080911E0580FD31C06E
:100B4000ECCF80911E0581FF32C080911D0584FD90
:100B50002AC087EE35C080911D0583FF26C0F5CFE2
:100B600080911D0583FD21C080911E0581FD1FC060
:100B7000ECCF80911D0585FD1CC01DC080911D0519
:100B800085FD19C016C080911D0586FD16C017C0D1
:100B900080911D0586FD13C010C089E311C082EE4F
:100BA0000FC080EE0DC080E00BC086EE09C084EE61
:100BB00007C089E205C085E303C08AE201C081E382
:100BC00090E0089590911D0592FF0DC0282F287187
:100BD000283019F4877F846006C0282F24712430C0
:100BE00011F48B7F886093FF0DC0282F2871283166
:100BF00019F4877E846106C0282F2471243111F4F2
:100C00008B7E886120911E0520FF0DC0382F387122
:100C1000383019F4877F816006C0382F3171313048
:100C200011F48E7F886021FF0DC0282F2871283194
:100C300019F4877E816106C0282F2171213111F4BA
:100C40008E7E886194FD877E0895E82FF0E0E15064
:100C5000FC4F80810895089580EA8A95F1F7089500
:100C600000C008950C942C0608950C9434060C943E
:100C700035060C943303F894E82FE295EF70F0E01A
:100C800031A1282F2F7081E090E001C0880F2A95B4
:100C9000EAF7982F9095932391A392A1892B82A391
:100CA0007894089508950F931F93CF93DF930E9434
:100CB000E1078091180280911802811102C095E02D
:100CC00001C090E090930A0485E0891B8093090499
:100CD00086E60E943B0687E90E943B0686EC0E945E
:100CE0003B0684E30E943B0685E30E943B06CAE67E
:100CF000D2E000E712E089910E943B060C171D0725
:100D0000D1F7E5EFF3E0AFEFB3E011921D9283E08E
:100D1000EF3FF807D1F785E00E948B070E94EB03B5
:100D2000DF91CF911F910F910C94EB070F931F93BD
:100D3000CF93DF9300D000D01F92CDB7DEB70E94D3
:100D4000C20760910A04882309F442C08E010F5F34
:100D50001F4F85E0F80111928A95E9F7862F90E000
:100D6000B80181509C4F0E949519811116C0809145
:100D7000CE028F5F8093CE02863030F1E09109047D
:100D8000F0E0E150FC4FD801CE01069611921D9281
:100D9000A817B907D9F711E018C01092CE02A09198
:100DA0000904B0E0A150BC4FF8019E012A5F3F4FFB
:100DB00010E081919C91981711F08C9311E011969D
:100DC000E217F307B1F701C010E00E94F5030DC070
:100DD00070E061507C4F8091090490E081509C4FFD
:100DE0000E94C5190E94520610E0812F0F900F90AB
:100DF0000F900F900F90DF91CF911F910F91089559
:100E00008F929F92AF92BF92CF92DF92EF92FF921A
:100E10000F931F93CF93DF9380E7A82E82E0B82E25
:100E2000C5EFD3E095E7E92E92E0F92E912C01E091
:100E300010E06501F5018081F894E82FE295EF70EC
:100E4000F0E021A18F70A80102C0440F551F8A95C0
:100E5000E2F7CA01922F982B91A392A18095892342
:100E600082A378940E943006EAE6F2E020E030E0C7
:100E7000812C4191A42FA295AF70B0E090968C91F7
:100E800090E04F7002C0959587954A95E2F780FDF6
:100E900007C0802F022E01C0880F0A94EAF701C014
:100EA00080E0882A2F5F3F4F2630310511F75FEF32
:100EB000A51AB50AF60180810E943B060E943206FF
:100EC0008881881619F0888281E001C080E0982A24
:100ED0002196EA14FB0409F0ACCF60910A0470E09B
:100EE00061507C4F292D45E085EF93E00E948C07EF
:100EF0000E949606992011F081E090E0DF91CF9159
:100F00001F910F91FF90EF90DF90CF90BF90AF9027
:100F10009F908F9008950895FF920F931F93CF9302
:100F2000DF938C01F62ED72FC42F222349F081E0C6
:100F30008093D1020E94CD269093D0028093CF025D
:100F40008091D1028823C1F08091CF029091D0028C
:100F50000E94E526069780F0EF2DFD2FD8014C2F3B
:100F600050E0CD01801B910B841795071CF48D91E7
:100F70008193F7CF1092D102DF91CF911F910F9102
:100F8000FF9008958091D202811112C08091D80003
:100F900080618093D8008AE18A95F1F700C0809142
:100FA000D90080FD02C082E001C081E08093D202BE
:100FB00081E09091D202913009F080E008950C9484
:100FC000C2070E94DF07809318020E94C2078111A6
:100FD0000C94891908950E94C207811102C00C94D3
:100FE0008F190895EF92FF920F931F93CF93DF9382
:100FF0008B01682F11110AC0442329F0E82FF0E07B
:10100000E455FC4F6491762F862F75C0212F30E078
:10101000E82FF0E0442321F0E455FC4FE491F0E0A8
:1010200046E0049FC0011124CFEFD0E0BE010E9432
:101030006C2E4BEA4603C001479F900D1124800F90
:10104000911D800F911D982F990F890FAE01421BA2
:10105000530B4E9FD0014F9FB00D5E9FB00D1124DA
:101060009B2F189FA0011124452F55278E01041B8B
:10107000150B0E9FA0010F9F500D1E9F500D1124A8
:101080007E01E81AF108E29E8001E39E100DF29EB7
:10109000100D1124212F3327C21BD30BCE9F90019B
:1010A000CF9F300DDE9F300D112462307105A9F005
:1010B00048F46115710569F061307105C9F48B2F31
:1010C000752F0DC06430710581F058F066307105E0
:1010D00079F47E2F8B2F932F0DC0832F7B2F9E2F84
:1010E00009C08E2F7B2F952F05C08E2F732F02C026
:1010F0007E2F852F692FDF91CF911F910F91FF9048
:10110000EF90089541E00E94F207089520E030E05A
:10111000869F212D969F200D311D1124C901089510
:10112000BC018230910508F40895613E8EE1780794
:1011300048F49B0195E0369527959A95E1F748E0AC
:10114000420F01C04FEF91E0242F30E0290F311DF5
:1011500035952795229FF001239FF00DF00D112466
:101160006E177F0718F44FEF420F04C02F3F39F07E
:1011700091E0920F491740F78FEF890F08958FEF95
:101180000895482F982F46FD9095E92FEF739F7093
:1011900046FD9F5FE295EF70EE0FF0E0E658FD4FE1
:1011A0002181299F802D212D112482958F702295D8
:1011B000207F822B3081982F930F892F47FD8195B7
:1011C00080580895E42FF0E0EE0FFF1FE05CFE4F23
:1011D000408134EE439F412D1124E72FF0E050E091
:1011E000445E5F4FDA01A21BB1099D01B7FF03C046
:1011F00031952195310993E0220F331F9A95E1F73C
:10120000AF01421B530B9A0157FF02C020E030E0B0
:10121000279F212D1124722F0895E42FF0E0EE0F67
:10122000FF1FE05CFE4F408134EE439F412D1124AF
:10123000E82FF0E050E0445E5F4FDA01A21BB109F5
:101240009D01B7FF03C031952195310993E0220F2D
:10125000331F9A95E1F7AF01421B530B9A0157FFD9
:1012600002C020E030E0582F259F212D1124822F2D
:101270000895622F0895E42FF0E0EE0FFF1FE05C69
:10128000FE4F6081621B0895E42FF0E0EE0FFF1F18
:10129000EC5FFE4F65AD621B0895A22F50E0FA018E
:1012A000EE0FFF1FEC5FFE4F95AD905297FD9195AD
:1012B000440F551FFA01E05CFE4F3081232F30E0D0
:1012C0002A1B3109290F311D97FD3A95620F0895A8
:1012D000EF920F931F9393E0099F800111241595BE
:1012E00007956E2D600F1F910F91EF9008950F934A
:1012F0001F93522F10E0F801EE0FFF1FEC5FFE4F1F
:10130000E5ADF0E0B0979F015203D001539FB00DBF
:101310001124000F111FF801E05CFE4F008110E066
:101320000057110940039001419F300D11242A0FED
:101330003B1F37FF02C021583F4F220F232F221F90
:10134000330B620F1F910F9108950F931F9310E0BD
:10135000F801EE0FFF1FE05CFE4F9081905797FD64
:101360009195000F111FF801EC5FFE4FE5ADF0E025
:10137000B097DF01AA0FBB1F8D010E0F1F1F2003A7
:10138000D001219FB00D1124E8E3F0E0E91BF10941
:1013900097FDF3959F01220F331F89010E0F1F1F29
:1013A00040039001419F300D11242A0F3B1F37FF4E
:1013B00002C021583F4F220F232F221F330B620FF1
:1013C0001F910F91089522E8241B08F420E0620F7A
:1013D0000895EF92FF920F93970195E0099F200DDA
:1013E000311D11242F3F310519F010F02FEF30E09F
:1013F0002095382F320F08F43FEF832F0F91FF9085
:10140000EF900895EF92FF920F93972F093438F4DD
:10141000B701601B71096F3F710519F010F06FEF94
:1014200070E0485F5F4F4131510540F0A901485FCE
:101430005F4F4131510510F06FEF70E06095482F1C
:10144000460F08F44FEF842F37FF02C02D5F3F4F48
:10145000359527953595279560910C04620F792F66
:101460000F91FF90EF900895EF92FF920F939701E5
:10147000201B31092F3F310519F010F02FEF30E01C
:10148000322F3095482F430F08F44FEF842F620F0F
:101490000F91FF90EF900895EF92FF920F939701B5
:1014A000201B31092F3F310519F010F02FEF30E0EC
:1014B0002095382F320F08F43FEF832F0F91FF90C4
:1014C000EF900895FC019B01009721F477FF2BC05A
:1014D00080E80895AC0197FF04C044275527481BB6
:1014E000590BB901640F751F37FD0CC0241B350B58
:1014F000C901A5E0880F991FAA95E1F70E94802EE7
:1015000080E20CC0CB0165E0880F991F6A95E1F776
:10151000BA01621B730B0E94802E80E6861BF7FFC8
:1015200003C08195089580E00895FF920F931F9363
:10153000CF93DF93F62E172FD82FC901C72FC01BCB
:10154000BA010E94620A982F990F890F7C2F781B8D
:10155000719F712D11246F2D8D2FDF91CF911F91D0
:101560000F91FF900895FF920F931F93CF93DF93F6
:10157000F62ED72F182FC901C12FC01BBA010E9408
:10158000620A982F990F890FC81B2C2F219F212D9C
:101590001124822F6F2D7D2FDF91CF911F910F91FD
:1015A000FF900895EF920F931F93CF93DF93D62F61
:1015B000172FC82FC9010E19070FBA010E94620A1E
:1015C000702F781B719F712D11246D2F8C2FDF913F
:1015D000CF911F910F91EF900895EF920F931F936A
:1015E000CF93DF93D62FC72F182FC9010E19010FE4
:1015F000BA010E94620A081B202F219F212D11246D
:10160000822F6D2F7C2FDF91CF911F910F91EF9043
:1016100008950F93CF93DF93D72FC82FC901BA0135
:101620000E94620A682F600F7D2F8C2FDF91CF916F
:101630000F910895EF920F93CF93DF93D72FC82F79
:10164000C9010E19BA010E94620A602F681B7D2F22
:101650008C2FDF91CF910F91EF9008950E94820817
:1016600008951F93CF93DF935FEF580FA1E0A80F6A
:101670004FEF460F91E0960FC82FD0E0461780F449
:1016800026E02C9FF0012D9FF00D1124E050FD4F1E
:10169000E40FF11D208130E1230F08F42FEF2083A8
:1016A000262F30E076E07C9FF0017D9FF00D112425
:1016B000E050FD4FEF01C20FD31F788110E2710F90
:1016C00008F47FEF7883963040F4E90FF11D7081C4
:1016D00010E1710F08F47FEF7083AA3070F5B0E06D
:1016E000461780F476E07A9FF0017B9FF00D11247D
:1016F000E050FD4FE40FF11D70811DE0710F08F403
:101700007FEF708376E07A9FF0017B9FF00D1124CC
:10171000E050FD4FDF01A20FB31F7C9110E1710F6C
:1017200008F47FEF7C93963040F4E90FF11D70814F
:101730001DE0710F08F47FEF7083581778F5A52F1F
:10174000B0E0461780F486E08A9FF0018B9FF00D91
:101750001124E050FD4FE40FF11D40815DE0450F85
:1017600008F44FEF408386E08A9FF0018B9FF00DD5
:101770001124E050FD4FDF01A20FB31F2C9130E187
:10178000230F08F42FEF2C93963040F4E90FF11D4E
:1017900020813DE0230F08F42FEF2083DF91CF91CC
:1017A0001F91089545E050E06CE170E08BE094E01B
:1017B0000C94402F45E050E06CE170E08BE094E049
:1017C0000C945E2FEBE0F4E085E380838091360299
:1017D00090913702A091380281839283A3838FE78F
:1017E00084830C94DA0B80E008950F931F93CF93BA
:1017F000DF93C82FD62F8A010E94F30B96E0C99F72
:10180000F0011124EC5FFE4FED0FF11D90819F3F21
:1018100029F0F801E80FF11D90838F5FDF91CF91E0
:101820001F910F910895E0918802F0918902099427
:10183000E0918402F091850209944F925F926F9239
:101840007F928F929F92AF92BF92CF92DF92EF9250
:101850000F931F93CF93DF932C013B01FC01C081B9
:101860008FE0C89FC02D1124DFE0DC0FD93408F0D1
:10187000D8E460910F046695809110049091110452
:101880000E948608182FCD1708F044C08C2E912C8A
:10189000F401E053FE4F9081F20181818923C1F16F
:1018A000F401EE0FFF1FE05CFE4FC080D12CF0E78B
:1018B000CF1AD108F401EE0FFF1FEC5FFE4FA5AC6D
:1018C000B12C80E2A81AB108CC9C9001CD9C300DBF
:1018D000300D1124AA9CC001AB9C900D900D1124D9
:1018E000820F931F0E949008082F60910C04709142
:1018F0000D0480910E04E12E9501A601F3010995D6
:101900000E942E0B462F282F672FC4010E94180C0F
:10191000CF5FB9CF81E0D83408F080E0DF91CF917C
:101920001F910F91EF90DF90CF90BF90AF909F905D
:101930008F907F906F905F904F90089562ED7AE066
:101940000C941D0C6DEE7AE00C941D0C68E679E0A9
:101950000C941D0C6AE17BE00C941D0CAF92BF92BD
:10196000CF92DF92EF92FF920F931F93CF93DF936B
:101970006C015B01FC01C0818FE0C89FC02D112468
:10198000DFE0DC0FD93408F0D8E460910F046695ED
:1019900080911004909111040E948608182FCD1791
:1019A00078F5EC2EF12CF701E053FE4F9081F60113
:1019B0008181892319F1F701EE0FFF1FEC5FFE4FC4
:1019C00025AD30E020523109F701EE0FFF1FE05C3A
:1019D000FE4F408150E04057510960910C047091D6
:1019E0000D0480910E04012FF50109950E942E0B24
:1019F000462F282F672FC7010E94180CCF5FCFCF2B
:101A000081E0D83408F080E0DF91CF911F910F91F1
:101A1000FF90EF90DF90CF90BF90AF90089565E971
:101A20007AE00C94AE0C63EB7AE00C94AE0C69E0B7
:101A30007BE00C94AE0CBF92CF92DF92EF92FF92BC
:101A40000F931F93CF93DF938C017B01FC01C08127
:101A50008FE0C89FC02D1124DFE0DC0FD93408F0DF
:101A6000D8E460910F04669566958091100490917A
:101A700011040E948608B82ECD17F0F4CC2ED12C7C
:101A8000F601E053FE4F9081F8018181892391F0A6
:101A900060910C0470910D0480910E042B2D4C2F3D
:101AA000F70109950E942E0B462F282F672FC6019C
:101AB0000E94180CCF5FE0CF81E0D83408F080E0BE
:101AC000DF91CF911F910F91FF90EF90DF90CF901A
:101AD000BF90089562EE78E00C941B0D6DE079E004
:101AE0000C941B0D69E379E00C941B0D6BE379E01A
:101AF0000C941B0D64E479E00C941B0D6DE479E00B
:101B00000C941B0D7F928F929F92AF92BF92CF92B7
:101B1000DF92EF92FF920F931F93CF93DF936C01AD
:101B20005B01FC01C0818FE0C89FC02D1124DFE064
:101B3000DC0FD93408F0D8E460910F0466956695FF
:101B400080911004909111040E948608182F80E45F
:101B5000810F0E94C10890E8F92EF80E812F0E9493
:101B6000C10820E8722E780ECD1700F58C2E912C2E
:101B7000F401E053FE4F9081F60181818923A1F0A9
:101B800060910C0470910D0480910E04E12E0C2FD5
:101B9000272D4F2DF50109950E942E0B462F282F3A
:101BA000672FC4010E94180CCF5FDECF81E0D834CC
:101BB00008F080E0DF91CF911F910F91FF90EF909F
:101BC000DF90CF90BF90AF909F908F907F900895BF
:101BD00067E779E00C94820D65EA79E00C94820D58
:101BE000AF92BF92CF92DF92EF92FF920F931F932B
:101BF000CF93DF937C015B01FC01C0818FE0C89F24
:101C0000C02D1124DFE0DC0FD93408F0D8E4209196
:101C10000F0430E040E050E06FEF7FEF80E090E0B5
:101C20000E94942E8901CD17E8F5CC2ED12CF60117
:101C3000E053FE4F9081F7018181892389F19091D2
:101C40001404915097FD15C0292F092E000C330B59
:101C5000F901EC5EFB4F8189C813F3CF220F331FCC
:101C6000F901EC5EFB4F218D328D2017310748F7CB
:101C700001C0980160910F04C9010E948608AC015F
:101C800060910C0470910D0480910E04F50109958A
:101C90000E942E0B462F282F672FC6010E94180C7A
:101CA000CF5FC1CF81E0D83408F080E0DF91CF91E1
:101CB0001F910F91FF90EF90DF90CF90BF90AF906A
:101CC000089563EE79E00C94F00D2F923F924F92BD
:101CD0005F926F927F928F929F92AF92BF92CF92BC
:101CE000DF92EF92FF920F931F93CF93DF93CDB7C5
:101CF000DEB729970FB6F894DEBF0FBECDBF8B833A
:101D00004B013A01DB011C918FE0189F102D11242B
:101D1000BFE0B10FB983B93410F0E8E4E983F09182
:101D20001404FA838981181708F07BC0A12EB12C06
:101D3000F501E053FE4F9081D40111968C918923D7
:101D400009F46DC020900C0430900D044B80512C90
:101D5000C501880F991FFC01E05CFE4FFD83EC83F9
:101D6000C501880F991F9C012F5B3E4F3F832E8337
:101D7000FA814F1608F043C0E42CF12CAC81BD81F0
:101D8000BC91EB2FF0E0F987E887F701EC5EFB4FA1
:101D9000818128853985281B310939872887AE81BB
:101DA000BF81CC90D12C8185C81AD108F901EE9F52
:101DB0009001EF9F300D300D1124CC9CC001CD9CC3
:101DC000900D900D1124820F931F0E949008082FF0
:101DD000F701EE0FFF1FEC5EFB4F60910F04818D4A
:101DE000928D0E9486087C01960148855985B10133
:101DF000852DF30109951B014394582EB9CF2091ED
:101E00000E04352D329F312D1124832FB1010E94F4
:101E10002E0B462F282F672FC5010E94180C1F5F1D
:101E200081CF81E09981983408F080E029960FB63F
:101E3000F894DEBF0FBECDBFDF91CF911F910F9100
:101E4000FF90EF90DF90CF90BF90AF909F908F90DA
:101E50007F906F905F904F903F902F9008952091CA
:101E6000140431E0231B08F420E049EE59E0BC01E2
:101E7000822F0C94650E2091140431E0231B08F48A
:101E800020E042E05AE0BC01822F0C94650E2091C4
:101E9000140431E0231B08F420E044E35AE0BC01C1
:101EA000822F0C94650E2091140431E0231B08F45A
:101EB00020E04CE45AE0BC01822F0C94650EDF92C6
:101EC000EF92FF920F931F93CF93DF938C01DC016E
:101ED0008C91CFE08C9FC02D1124DFE0DC0FD93432
:101EE00008F0D8E460910C0470910D0480910E0408
:101EF0000E942E0BF62EE72ED82ECD1798F4EC2F3D
:101F0000F0E0DF01A053BE4F8C91D80111969C9157
:101F1000982331F02D2D4F2D6E2DCF010E94180CDE
:101F2000CF5FEBCF81E0D83408F080E0DF91CF9134
:101F30001F910F91FF90EF90DF900895AF92BF92A5
:101F4000CF92DF92EF92FF920F931F93CF93DF9385
:101F50008C01FC01C0818FE0C89FC02D1124DFE0FF
:101F6000DC0FD93408F0D8E4E0900D04F0900E04B2
:101F7000D0900C046D2D7E2D8F2D0E942E0BC62E21
:101F8000B72EA82E60910F046D0D7E2D8F2D0E940F
:101F90002E0BF62EE72ED82ECD17B8F48C2F90E00E
:101FA000FC01E053FE4F3081F8012181232359F0D9
:101FB00030FF04C02D2D4F2D6E2D03C02A2D4C2D2A
:101FC0006B2D0E94180CCF5FE7CF81E0D83408F06A
:101FD00080E0DF91CF911F910F91FF90EF90DF9004
:101FE000CF90BF90AF900895BF92CF92DF92EF92C3
:101FF000FF920F931F93CF93DF936C01FC01C0817D
:102000008FE0C89FC02D1124DFE0DC0FD93408F029
:10201000D8E400910D04B0900E0420910F0410E458
:10202000129F112D1124CD1718F5EC2EF12CF7016C
:10203000E053FE4F9081F60181818923B9F0F701C9
:10204000EE0FFF1FEC5FFE4F85AD82958F706091A4
:102050000C04819F600D1124702F8B2D0E942E0B7C
:10206000462F282F672FC7010E94180CCF5FDBCFA8
:1020700081E0D83408F080E0DF91CF911F910F917B
:10208000FF90EF90DF90CF90BF900895BF92CF92D6
:10209000DF92EF92FF920F931F93CF93DF937C0118
:1020A000FC01C0818FE0C89FC02D1124DFE0DC0F50
:1020B000D93408F0D8E4C0900D04B0900E042091FB
:1020C0000F0430E4D32E3D2D329F312D1124D32E19
:1020D000CD1738F50C2F10E0F801E053FE4F90813A
:1020E000F70181818923D9F0F801EE0FFF1FE05C31
:1020F000FE4F6081D69EB001112495E075956795DD
:102100009A95E1F780910C04680F7C2D8B2D0E942D
:102110002E0B462F282F672FC8010E94180CCF5F67
:10212000D7CF81E0D83408F080E0DF91CF911F91C4
:102130000F91FF90EF90DF90CF90BF900895DF92C6
:10214000EF92FF920F931F93CF93DF938C01DC01EB
:10215000CC918FE0C89FC02D1124DFE0DC0FD93473
:1021600008F0D8E4E0900C04F0900D04D0900E0438
:1021700060910F0466956695669580911004909124
:1021800011040E9486080E94C108805887FD81952D
:10219000880F282F3D2D239F212D1124822FB70139
:1021A0000E942E0BF62EE72ED82ECD1798F4EC2F8A
:1021B000F0E0DF01A053BE4F8C91D80111969C91A5
:1021C000982331F02D2D4F2D6E2DCF010E94180C2C
:1021D000CF5FEBCF81E0D83408F080E0DF91CF9182
:1021E0001F910F91FF90EF90DF9008951F93CF9371
:1021F000DF93FC01E053FE4F20816223A9F0EC0144
:102200000E94272F182F0E94272F612F782F80914F
:102210000E040E942E0B462F282F672FCE01DF9130
:10222000CF911F910C94180CDF91CF911F910895BD
:10223000CF92DF92FF920F931F93CF93DF938C0186
:10224000FC01C281C1111DC060910F0420E1620F29
:1022500008F46FEF80911004909111040E94860899
:1022600065E070E00E946C2E892B59F50E94272FA3
:1022700068E470E00E94802EF80161810E94F610EF
:1022800020C0FC018081CFE08C9FC02D11249FE0F5
:10229000F92EFC0EF8E4FF1510F488E4F82ED0E0D7
:1022A000CF2CD12CCC15DD053CF4F8016181CE0199
:1022B0000E94F6102196F6CFC1E0F7E4FF1508F46E
:1022C000C0E08C2FDF91CF911F910F91FF90DF9095
:1022D000CF900895E0918602F091870209942F92A1
:1022E0003F924F925F926F927F928F929F92AF92A6
:1022F000BF92CF92DF92EF92FF920F931F93CF93F3
:10230000DF93CDB7DEB72B970FB6F894DEBF0FBEC5
:10231000CDBF5C01DC018C910FE0809F002D11246A
:10232000BFE0B00FB987BD3310F0ECE3E987D5010A
:1023300012968C91882361F040E060E080E00E947A
:102340006A118CE3E0E0F3E0DF011D928A95E9F782
:10235000F5018081811115C080913E0390913F036A
:102360000E94E52621E08931910508F420E02093C0
:102370003D03499730F00E94CD2690933F03809310
:102380003E0310E09985892F90E09B878A8786E03D
:10239000482EDE0111963D019AEA292E8A859B85F9
:1023A000081719070CF064C0C8016AE070E00E94C9
:1023B000802E7B014C01489EF001499EF00D1124B6
:1023C000E050FD4FE60FF71F5080A3010E94F50B70
:1023D000382E63018C2D8619831508F032C0D60182
:1023E000EC91F0E0E053FE4F9081F501818189236B
:1023F00021F1252D35E5231B08F420E0622D621B19
:1024000070910D04222D352D230F08F42FEF3091FC
:102410000E0482E0289F200D11242E5F239F212D82
:102420001124822F0E942E0B462FD6019C91282F1B
:10243000672F892F90E00E94180CBFEFCB1ADB0AA0
:10244000C9CF80913D03882381F0252D31E0231BE6
:1024500008F420E0489CC001499C900D1124805054
:102460009D4FFC01EE0DFF1D20830F5F1F4F96CF88
:1024700081E099859C3308F080E02B960FB6F894A4
:10248000DEBF0FBECDBFDF91CF911F910F91FF90A7
:10249000EF90DF90CF90BF90AF909F908F907F9004
:1024A0006F905F904F903F902F900895AF92BF92A2
:1024B000CF92DF92EF92FF920F931F93CF93DF9310
:1024C000CDB7DEB728970FB6F894DEBF0FBECDBFED
:1024D000E82ED62E142F0E94C207882309F476C056
:1024E000112349F0AE014F5F5F4F6D2D8E2D0E947D
:1024F000F50BF82E01C0F12CC090D3020F2D10E087
:10250000C8018C0D911D099764F188E090E05C0191
:10251000A01AB10AB8016C527D4FA50184ED92E07A
:102520000E94372FB80164527D4FA5018CED92E0D7
:102530000E94372FA501440F551FB801660F771F62
:1025400064517D4F8CEE92E00E94372FB8016C51A0
:102550007D4FA50184EE92E00E94372FCA94C0926D
:10256000D3021091D302DE01119640E0842F810F37
:10257000F41609F190E05D91252F30E0BC016D5219
:102580007D4FF901EE0FFF1FE05CFE4F0081FB0164
:102590000183220F331FF901EC5FFE4F25ADFB01D4
:1025A0002187518B880F991FFC01ED52FD4F128E30
:1025B000118E4F5FDBCF8093D30280910B048C7F11
:1025C000883521F46D2D8E2D0E94310B28960FB683
:1025D000F894DEBF0FBECDBFDF91CF911F910F9159
:1025E000FF90EF90DF90CF90BF90AF900895089547
:1025F0000C94F7120E94F8120C94F71208950C94A0
:10260000FE12CF93DF93FC01C081C1508FE0C89FC1
:10261000C02D1124DFE0DC0FD93408F0D8E46D2F91
:102620008C2F0E94FF126D2F8C2FDF91CF910C9475
:10263000FE124F925F926F927F928F929F92AF9213
:10264000BF92CF92DF92EF92FF92CF936091FC0204
:102650007091FD028091FE029091FF020E94772707
:102660006B017C010E945C274B015C016093FC02C2
:102670007093FD028093FE029093FF02A091D3021B
:10268000E3EDF2E08A2F90E04FEF5FEF60E070E063
:102690004C195D096E097F09A91799F0218D328DBA
:1026A0002901612C712C441555056605770510F438
:1026B000815004C02C0D3D1D328F218F9F5F3296BB
:1026C000EBCF8093D30280913C03811108C0C0916D
:1026D0000B048C2F837019F0C695C69501C0C0E01D
:1026E000809119028130E9F038F0823009F4EDC0B0
:1026F000833009F4FAC00AC110921A0280921004C1
:1027000090921104A0921204B092130489E2E3EDB6
:10271000F2E0A4E1B4E001900D928A95E1F781E046
:10272000DEC080911D02C8130DC020910B042370E0
:1027300030E040911E0250E081E02417350719F483
:1027400080E001C081E0817080931C024C2F50E03A
:102750004C31510508F095C0FA01EA5AFF4F0C942C
:10276000B32E882309F48DC040E060E080E00E9431
:102770006A1187C08AE192E00E945F0F83C08AE1FC
:1027800092E00E949E0F7EC08AE192E00E94F40FC8
:1027900079C08AE192E00E94461074C08AE192E01A
:1027A0000E949F106FC08AE192E00E946A0D6AC089
:1027B0008AE192E00E946E0D65C08AE192E00E947B
:1027C0000F0D60C08AE192E00E94130D5BC08AE1A8
:1027D00092E00E949E0C56C08AE192E00E94A20CF8
:1027E00051C08AE192E00E94720D4CC08AE192E0F1
:1027F0000E94760D47C08AE192E00E947A0D42C0A5
:102800008AE192E00E947E0D3DC08AE192E00E9442
:10281000A60C38C08AE192E00E94170D33C08AE10D
:1028200092E00E94AA0C2EC08AE192E00E94E80D7C
:1028300029C08AE192E00E94EC0D24C08AE192E076
:102840000E9418111FC08AE192E00E946F111AC005
:102850008AE192E00E94610E15C08AE192E00E9436
:102860002F0F10C08AE192E00E943B0F0BC08AE15B
:1028700092E00E94470F06C08AE192E00E94530F47
:1028800001C080E090911A029F5F90931A0281111B
:1028900029C082E08093190280911C02811122C01C
:1028A000CC23E1F00E94FA128AE192E0CF91FF90EE
:1028B000EF90DF90CF90BF90AF909F908F907F90E0
:1028C0006F905F904F900C940113C0931D02809104
:1028D0000B04837080931E020E94130C83E080938C
:1028E000190214C0CC2391F0DDCF609110047091D7
:1028F000110480911204909113040E947727603193
:1029000071058105910510F010921902CF91FF9089
:10291000EF90DF90CF90BF90AF909F908F907F907F
:102920006F905F904F900895E0918202F091830242
:10293000099510921404EDE2F4E08FEF9FEF81937C
:10294000919324E0ED33F207D1F71092D302ECEE2D
:10295000F2E08FEF9FEF8193919322E0EC3FF2073B
:10296000D1F70E945725811104C00E94FE250E94C4
:10297000E20B0E94D20B80910B048C7F11F40C941B
:10298000E20B089520910B0491E0922790930B04A1
:102990001092190281110C94DA0B089581E00C94C5
:1029A000C21490910B04937091F0811102C0946055
:1029B00007C08C3110F09C6603C0880F880F982BDD
:1029C00090930B041092190261110C94DA0B089584
:1029D00061E00C94D114682F90910B049695969514
:1029E0009F5F9C3110F4892F01C081E00C94D114B9
:1029F00081E00C94EB14682F90910B0496959695BA
:102A0000915011F0892F01C08BE10C94D11481E019
:102A10000C94FB1490910B04937061F080930C0460
:102A200060930D04493708F048E740930E042111E4
:102A30000C94DA0B0895ABE0B4E01196EC91119789
:102A4000F0E0282F13964C91139712966C91CF01BA
:102A500008960C940A1581E00C941B15ABE0B4E0C9
:102A60001196EC911197F0E0282F13964C91139743
:102A700012966C91CF0108970C940A1581E00C9482
:102A80002E15EBE0F4E0628128E0620F08F46FEFAE
:102A90009181282F4381892F90E00C940A1581E0C1
:102AA0000C944115EBE0F4E0628128E0621B08F42D
:102AB00060E09181282F4381892F90E00C940A15C2
:102AC00081E00C945215EBE0F4E0438128E0420FE2
:102AD00008F44FEF9181282F6281892F90E00C94A8
:102AE0000A1581E00C946315EBE0F4E0438128E0E3
:102AF000421B08F440E09181282F6281892F90E0E9
:102B00000C940A1581E00C94741520910F043AE09E
:102B1000230F08F42FEF20930F0481110C94DA0B8C
:102B2000089581E00C94851520910F043AE0231B51
:102B300008F420E020930F0481110C94DA0B08951F
:102B400081E00C9494150895FC01EE0FFF1F8E0F89
:102B50009F1FFC01E35CFB4F618340832283089548
:102B6000EDE3F4E095E0E531F90729F08183608336
:102B700042833396F7CF089568E470E08DE394E0E4
:102B80000C942416882311F0FA0101C0FB0109946A
:102B90001F93CF93DF93FB011281111150C0EC0101
:102BA0000E942F258272FE01E35CFC45E431F105B1
:102BB00020F4EE58FF4F0C94B32E11E040C00E9459
:102BC000CE143DC047E055E168EF74E104C048EF22
:102BD00054E167E075E10E94C21531C04EE355E152
:102BE0006BE275E1F8CF4BE255E16EE375E1F3CFAF
:102BF00040E655E16FE475E1EECF4FE455E160E664
:102C000075E1E9CF42E855E161E775E1E4CF41E7DD
:102C100055E162E875E1DFCF40EA55E161E975E130
:102C2000DACF41E955E160EA75E1D5CF81E005C031
:102C300085E003C08DE001C081E10E94E814812F8E
:102C4000DF91CF911F910895539A2BB1277F3BB10C
:102C500038604FB7F894FC01CB01880F991F680FBB
:102C6000791F6E0F7F1FE617F70789F0819198E0B3
:102C70003BB9000000C087FF2BB9880F000000C0DF
:102C800000C000C02BB900C09A9591F7ECCF4FBFA0
:102C90008FE594E00197F1F700C0000008950C94CF
:102CA0001E0380911802882309F447C02091200256
:102CB000A22FA295AF70B0E091963C9191972F70A2
:102CC00081E090E0AC01022E01C0440F0A94EAF7C3
:102CD000542F5095352391963C93919792963C9121
:102CE0009297432B92964C93929740911F02E42F18
:102CF000E295EF70F0E031A14F70042E01C0880F13
:102D00000A94EAF7982F9095932391A392A1892B87
:102D100082A390968C9190E002C0959587952A9514
:102D2000E2F7817020A130E002C0359527954A95E1
:102D3000E2F720FD09C090E008C085EF80932002F3
:102D400084E980931F02B2CF92E0892B80934503E0
:102D50009091180281E0982790934103891B8093FA
:102D600040030895CF93E09145035E2F550F550F13
:102D700020912002E22FE295EF70F0E080A190E038
:102D80002F7002C0959587952A95E2F78170992753
:102D900040911F02E42FE295EF70F0E020A130E0B7
:102DA0004F7002C0359527954A95E2F7F901E17019
:102DB000FF2720FF02C0E2E0F0E0E82BF92BE52B33
:102DC000E0934503C0914103EF70F0E0E657FD4FFB
:102DD000908180914403890F8093440384307CF078
:102DE000EC2F0C2E000CFF0BEE5BFC4F80818F5FF5
:102DF000808360E08C2F0E944F1621E001C020E00C
:102E0000809144038D3F74F4EC2F0C2E000CFF0BCB
:102E1000EE5BFC4F80818150808361E08C2F0E94AB
:102E20004F1621E080914403082E000C990B64E0BA
:102E300070E00E94802E80934403822FCF910895EA
:102E4000E0914103F0E0EE5BFC4F2081FC01208328
:102E50000895FF920F931F93CF93DF93D091400378
:102E60000D2F10E00E5B1C4FFC01C081F80180812A
:102E7000C81BFC2E80E01F145CF4FA94F8018081DA
:102E80008F5F808360E08D2F0E944F1681E0F3CF2B
:102E90009C2FC7FD90E0C91BCC2359F0CF5FF801F0
:102EA00080818150808361E08D2F0E944F1681E0E8
:102EB000F3CF882339F0DF91CF911F910F91FF90CD
:102EC0000C94061CDF91CF911F910F91FF900895F4
:102ED0000F931F93CF93DF93C42FD22FFC018281D6
:102EE0008823C9F0409348030E94CD26909347035E
:102EF0008093460380E28C0F883008F057C0C7707B
:102F000081E001C0880FCA95EAF7DF91CF911F9148
:102F10000F910C94C91D80914803481330C08091D3
:102F20004603909147030E94E5268436910538F5C3
:102F300010E21D0FCD17B9F080E28C0F883040F4FD
:102F4000C77081E001C0880FCA95EAF70E94D01DC2
:102F5000183028F581E09D2F977001C0880F9A9551
:102F6000EAF70E94C91D802F0E94C01D1830F0F49E
:102F7000D77081E001C0880FDA95EAF70AC080E2D5
:102F80008C0F883098F4C77081E001C0880FCA9513
:102F9000EAF7DF91CF911F910F910C94D01D802FF4
:102FA000DF91CF911F910F910C94C01DDF91CF91B4
:102FB0001F910F9108950F939C01CB01243F4CE585
:102FC000340731F188F4293DFCE53F07D9F02A3D6B
:102FD0004CE5340779F1283D3C45A9F506E221EEA0
:102FE00041EE68ED7CE52BC0263FFCE53F07E1F0B4
:102FF000A8F0273F3C4539F507E225EE46EE67EF9E
:103000007CE51DC007E225EE45EE69ED7CE517C0C5
:1030100006E221EE40EE64EF7CE511C007E225EE0A
:1030200044EE65EF7CE50BC006E221EE42EE66EF72
:103030007CE505C008E221E045EE6AED7CE50E94F2
:10304000681780E008C0FC018281882319F0109283
:10305000480301C081E00F910895CF93DF93EC0105
:10306000FB018281882309F41FC1C230FCE5DF0720
:1030700008F41BC1C6319CE5D90738F09E012B5FCF
:103080003C452930310508F010C10E946A25909313
:103090001E0580931D05C031ECE5DE0709F4C3C0B1
:1030A00008F041C0C8308CE5D80709F49AC0F0F4A4
:1030B000C430ECE5DE0709F487C068F4C2308CE563
:1030C000D80709F477C0C330DC4509F0E3C080912C
:1030D0001D05826076C0C630ECE5DE0709F46EC0DF
:1030E00008F07BC080911D0588606BC0CC308CE5FA
:1030F000D80709F485C068F4CA30ECE5DE0709F4A6
:1031000074C008F079C00E94EA1F80911D05806894
:1031100058C0CE308CE5D80709F476C008F07FC0DF
:1031200080911D058BC0CC3FECE5DE0709F44FC054
:1031300018F5C3318CE5D80709F47DC078F4C131A6
:10314000ECE5DE0709F473C0C231DC4509F0A2C02A
:103150000E94EA1F80911D058F7733C0C5318CE531
:10316000D80709F472C008F486C0CB3FDC4509F0EB
:1031700091C080911E053EC0C115FDE5DF0709F431
:103180005FC058F4CE3F9CE5D90709F444C008F469
:103190003FC080911E0582602DC0C230FDE5DF0773
:1031A00009F475C008F45DC0C330DD4509F072C094
:1031B00080E06EC080911D05816003C080911D0577
:1031C000806180931D0566C080911D0511C08091AE
:1031D0001E05826080931E055DC080911D05806282
:1031E000F0CF80911D058064ECCF80911D05886033
:1031F0008460E7CF8160EECF80911D058E7FE1CFA7
:1032000080911D058D7FDDCF80911D05877FD9CFF2
:1032100080911E0518C080911E058D7FDBCF8091A7
:103220001D058F7ECECF80911D058F7DCACF8091E9
:103230001D058F7BC6CF80911D05877F8B7FC1CFFA
:1032400080911E058D7F8E7FC5CF80911D0582FBED
:10325000222720F991E0922790FB82F990FB83F9D5
:10326000B0CF80911E05982F909591708E7F892BFD
:1032700090FB81F9AFCF0E94EA1F80911D0587FB6B
:10328000222720F991E0922790FB87F99ACF81E0DD
:103290000E94002680911D0590911E050E947B25AD
:1032A0000E94EA1F80E001C081E0DF91CF91089584
:1032B000CF93DF9386319C4541F5EB010E942F258A
:1032C000982F8A812091290230912A02882379F04F
:1032D0009A7A81E009F480E080934903911102C059
:1032E00069E201C065E3C9010E943B260AC08091E2
:1032F0004903811102C069E201C065E3C9010E946E
:103300003D260E94102580E001C081E0DF91CF9131
:10331000089561E070E081E292E00C94461A61E069
:1033200070E081E292E00C944F1ACF93DF93D62F96
:10333000C72F80E090E00E94281B892B11F5ED2F0C
:10334000FC2F80E090E0DC01A15BBC4F2C9121932D
:10335000019685309105B9F784E593E00E9429171D
:103360000E945C27DC01CB010296A11DB11D809358
:103370004B0390934C03A0934D03B0934E0381E015
:1033800001C080E0DF91CF910895CF93DF93D62FD6
:10339000C72F60914B0370914C0380914D03909126
:1033A0004E030E943F27ED2FFC2F80E090E02191FB
:1033B000DC01A15BBC4F2C93019685309105B9F7D8
:1033C00084E593E0DF91CF910C9420178EE14A9B26
:1033D00002C08150E1F74A9BFECF08955A9880E2DF
:1033E0008A95F1F75A9A0895FC012AE02A95F1F797
:1033F00090E020E080E031E0261779F040E14A9546
:10340000F1F7880F4A9B02C08160932700C000003B
:1034100040E14A95F1F72F5FEFCF20E12A95F1F7D0
:1034200029B100C0000030E13A95F1F722FB2227D4
:1034300020F992272081920F90830895EF92FF92B6
:103440000F931F93CF93DF931F92CDB7DEB71982EF
:103450008C017C01E60EF11C0E151F0559F00E942F
:10346000E61968E0CE0101960E94F419F8018193F3
:103470008F01F2CF81E09981911180E00F90DF916F
:10348000CF911F910F91FF90EF9008959093570364
:103490008093560360935503529A5A9A08959093D5
:1034A0005703809356036093550352985A9AEA9AA9
:1034B000E9E6F0E080818F7C80830895615091E09F
:1034C00001C0990F6A95EAF720E031E0992361F095
:1034D000492F482319F05A9A232701C05A9840E2ED
:1034E0004A95F1F79695F2CF222311F05A9A01C02E
:1034F0005A9880E28A95F1F75A980895FF920F93AF
:103500001F93CF93DF93EC018C01060F111DC017A1
:10351000D10741F0F9900E94EE1968E08F2D0E94CA
:103520005E1AF5CFDF91CF911F910F91FF90089513
:103530001F920F920FB60F9211240F931F932F9388
:103540003F934F935F936F937F938F939F93AF932B
:10355000BF93EF93FF93CF93DF931F92CDB7DEB767
:1035600019820E94E61967E0CE0101960E94F419C3
:10357000382F369536953695932F96959570232F3F
:103580002570920F292F2370969596958770920F2C
:10359000891348C08981811145C0809155038317E3
:1035A00008F440C080E18A95F1F75A9A529AA2E055
:1035B000AA95F1F700C00091560310915703B8E0A7
:1035C0003B9F000D111D11245A98F8016581662357
:1035D00021F0868197810E947E1A0E94EE19F0E107
:1035E000FA95F1F75A9852985A9A80E18A95F1F72C
:1035F000D80112966C911297662369F013968D91FB
:103600009C9114970E941E1AD801ED91FC91811192
:1036100005C082E004C0D801ED91FC9188E0808370
:103620000E94E6190F90DF91CF91FF91EF91BF912A
:10363000AF919F918F917F916F915F914F913F914A
:103640002F911F910F910F900FBE0F901F90189503
:103650000F931F93CF93DF932091550330E02817EA
:1036600039070CF471C09C0193E0220F331F9A9527
:10367000E1F7C0915603D0915703C20FD31FF894BE
:10368000529A5A9845E04A95F1F70000982F96957E
:1036900095708570890F982F937086958695890F00
:1036A0008901082B0E94EE1984E08A95F1F700C089
:1036B00067E0802F0E945E1A40E14A95F1F7529828
:1036C0005A9A4A9902C000C0FCCF87E090E04A9B1A
:1036D0000EC0019751F4529A5A9AE881F98181E01B
:1036E0008083789481E090E031C000C0F0CF6D819C
:1036F000662381F08E819F810E941E1A81110AC06B
:10370000529A5A9AE881F98182E08083789482E023
:1037100090E01CC00E94E61980E28A95F1F75A9861
:10372000529A40E14A95F1F76A81662321F08B8134
:103730009C810E947E1A0E94EE19E881F981108214
:10374000789480E090E002C084E090E0DF91CF9137
:103750001F910F91089590935D0380935C030895EA
:10376000E0915C03F0915D03309721F00190F081CE
:10377000E02D099480E00895E0915C03F0915D03F1
:10378000309721F00280F381E02D09940895209173
:103790005A0330915B032817390771F090935B034C
:1037A00080935A03E0915C03F0915D03309721F020
:1037B0000680F781E02D09940895209158033091F7
:1037C00059032817390771F09093590380935803D0
:1037D000E0915C03F0915D03309721F00084F18566
:1037E000E02D099408950E94D92660937103709387
:1037F0007203809373039093740360936D037093CB
:103800006E0380936F039093700308950E94D926EE
:1038100060937103709372038093730390937403A6
:103820006093690370936A0380936B0390936C03B6
:10383000089585B7806885BF85B7806885BF08957E
:103840000C94C20708950C94221C0C94221C0C9416
:10385000251C0C94221C0C94291C0C94221C0E94E4
:10386000191C85E595E20E94A5270E942D1C0C9449
:103870002B1C0E94C4260E9436270E9453060E94D9
:10388000AA270E9451160C94271C9F92AF92BF92B8
:10389000CF92DF92EF92FF920F931F93CF93DF931C
:1038A000CDB7DEB72A970FB6F894DEBF0FBECDBFF7
:1038B0000E94231C0E94221C0E94000781110E946A
:1038C000F31B8FE5A82E83E0B82E00E010E0902EC9
:1038D000802F0E942506D82EF501C1905F01C826D1
:1038E000B1F40F5F1F4F0A30110589F78FEF8983FD
:1038F0008A831B820E94CD268160782F9D838C83D2
:1039000049815A816B818D810E94F51C38C080915C
:10391000E90381FD0E942B06F12CEE24E3948C2D0B
:103920008E2139F10E94201CDE20882399F0FE822E
:103930009F8281E0D11001C080E088870E94CD265F
:103940008160782F9A8789874E815F8168858A8513
:103950000E94F51CF801E15AFC4F8081E826E082C4
:1039600041E0D11001C040E06F2D892D0E94561218
:1039700006C0F394EE0CF6E0FF12D1CFB2CF0E9456
:1039800019130E94B21681110E94061C0E94B01BDE
:1039900090915E038917B9F00E94B01B80935E037B
:1039A0002A960FB6F894DEBF0FBECDBFDF91CF9140
:1039B0001F910F91FF90EF90DF90CF90BF90AF904D
:1039C0009F900C9451042A960FB6F894DEBF0FBE58
:1039D000CDBFDF91CF911F910F91FF90EF90DF90BE
:1039E000CF90BF90AF909F900895DF92EF92FF929B
:1039F0000F931F93CF93DF93CDB7DEB72B970FB6FF
:103A0000F894DEBF0FBECDBFF42E052F162FE72E84
:103A1000D82E61110E944F25FE01319686E0DF010C
:103A20001D928A95E9F77E2D4F2D502F612F8D2DF8
:103A30009E810E9489222B960FB6F894DEBF0FBE9E
:103A4000CDBFDF91CF911F910F91FF90EF90DF904D
:103A50000895FC01808191810E94E2240895CF9312
:103A6000882309F448C0C82F8CEF8C0F813AD0F41A
:103A70006C2F8091290290912A020E9405268823AA
:103A800049F06C2F8091290290912A020E943D26D4
:103A90000E9410256C2F8091290290912A020E9489
:103AA0003B260CC080E28C0F883058F4C77081E050
:103AB00001C0880FCA95EAF70E943225CF910C9475
:103AC0001025EBE5EC0FE33040F4F0E0E853FD4F58
:103AD000808190E0CF910C94C71BC85AC73158F42D
:103AE000EC2FF0E0EE0FFF1FE656FD4F8081918135
:103AF000CF910C94DD1BCF910895882349F1682F55
:103B00008CEF860F813A38F48091290290912A0235
:103B10000E943D260CC080E2860F883050F467700A
:103B200081E001C0880F6A95EAF70E9438250C945D
:103B300010258BE5860F833020F480E090E00C9414
:103B4000C71B685A673120F480E090E00C94DD1BBD
:103B500008951F93CF93DF93182FEB010E942F1D21
:103B6000209741F08FE99FE00197F1F700C0000036
:103B70002197F6CF812FDF91CF911F910C947D1D5E
:103B8000893319F06AE070E002C060E570E00C94DF
:103B9000A91D882321F00E9432250C941025089538
:103BA000882321F00E9438250C9410250895CF9287
:103BB000DF92EF92FF920F931F93CF93DF93DC017D
:103BC000C62F972F12962C91129715964C911597F8
:103BD000342F32953F70172F12951F70C12ED12CA4
:103BE0008CE0C816D10408F07CC1F601EA57FF4FFB
:103BF0000C94B32E872F807F9F70D92F882311F0CC
:103C0000D295D07F222399F0DD2309F451C180E2BF
:103C10008C0F883010F0C11104C08D2F0E94322506
:103C200003C08D2F0E9442250E94102541C18C2F78
:103C30000E947D1DDD2309F454C180E28C0F883081
:103C400010F0C11104C08D2F0E94382503C08D2FA4
:103C50000E9448250E94102544C1872F807F9F70B5
:103C6000803211F4892F03C0892F8295807FC13063
:103C700051F4222321F0363008F033C10DC0353025
:103C800008F02FC10EC0222351F0332329F040FF4A
:103C90000FC14F7015964C930E94C91D22C131115E
:103CA0000DC10E94D01D1DC1872F869586958370FA
:103CB00019F0813091F015C1222319F0862F9370ED
:103CC00002C080E090E0DF91CF911F910F91FF90B3
:103CD000EF90DF90CF900C94C71B222319F0862F12
:103CE000937002C080E090E0DF91CF911F910F911F
:103CF000FF90EF90DF90CF900C94DD1B872F8370A7
:103D000009F045C02111F0C0862F829586958770F5
:103D1000880F880F462F4F7050E060E070E0082E4B
:103D200004C0440F551F661F771F0A94D2F7C4FFC3
:103D300010C00FE010E020E030E004C0000F111FC1
:103D4000221F331F8A95D2F7009510952095309544
:103D500003C000E010E0980196959695E92FE37076
:103D6000CB01BA01602B712B822B932BE23049F0EF
:103D700058F4E13019F00E945D23B6C00E944B2335
:103D8000B3C00E946F23B0C00E944923ADC022235C
:103D900019F0872F817001C08695882309F4A4C08B
:103DA0008C2F829586958770880F880F4C2F4F70C7
:103DB00050E060E070E0082E04C0440F551F661FFD
:103DC000771F0A94D2F7C4FF10C00FE010E020E084
:103DD00030E004C0000F111F221F331F8A95D2F755
:103DE000009510952095309503C000E010E09801F3
:103DF00096959695E92FE370CB01BA01602B712B54
:103E0000822B932BE23049F058F4E13019F00E94F4
:103E100022246AC00E94102467C00E94342464C017
:103E20000E94832361C0D72FDF70222339F08D2FAA
:103E30000E94A9238C2F0E94C91D56C0862F0E9464
:103E4000D01D8D2F0E94CA234FC0613FA9F018F4E6
:103E5000603F31F029C0623FB1F0633FD9F024C028
:103E6000222339F03530E8F5892F8F710E94EF2336
:103E700038C03630B0F5F8CF222339F0892F8F7152
:103E80000E94A9232EC02223C9F3892F8F710E947B
:103E9000CA2327C0222329F0872F8F710E949423E1
:103EA00020C00E948F231DC0222331F0332331F321
:103EB0008C2F0E942F1D15C0332339F3C93341F4D1
:103EC0009FEF27EE83E0915020408040E1F704C04F
:103ED0008FE39CE90197F1F700C000008C2F0E944E
:103EE0007D1D1850143060F40E94B01BDF91CF91FB
:103EF0001F910F91FF90EF90DF90CF900C945104A1
:103F0000DF91CF911F910F91FF90EF90DF90CF90B5
:103F100008950F931F93CF93DF93EC01688179810C
:103F20008A810E94ED248C010E9446240E9437233E
:103F3000B801CE010E94D71DDF91CF911F910F9143
:103F40000895CF93DF93FC01908181812381348197
:103F5000232B31F08F3F31F481E09F3F19F403C0F0
:103F600081E001C080E080FD0EC0EF01CF010E9422
:103F70000704882341F0CE010E94891FCE01DF9102
:103F8000CF910C94E003DF91CF910895882321F025
:103F90000E9442250C9410250895882321F00E9448
:103FA00048250C941025089580E090E00E94C71BDE
:103FB00080E090E00E94DD1B0E944F250E94522568
:103FC0000C9410258091290290912A020E943F268C
:103FD0000C94D41F0E943F250C94E21FE92FE29518
:103FE000EF704E2F50E0FA013297EE30F105B0F449
:103FF000EE56FF4F0C94B32E803F91F018F4883E9C
:1040000068F40EC0843F51F40BC0883E48F0813FF5
:1040100029F406C093FB882780F9089580E008956D
:1040200081E008950E94E2240E94EE1F0895CF933C
:10403000DF9300D000D01F92CDB7DEB70F900F9066
:104040000F900F900F90DF91CF910895CF93DF9352
:1040500000D000D000D0CDB7DEB726960FB6F894CA
:10406000DEBF0FBECDBFDF91CF9108951F93CF93D9
:10407000DF93C091760316E080917703C81799F01B
:10408000D0E01C9FF0011D9FF00D1124E858FC4F5B
:104090004081518162817381848195810E942620B3
:1040A0002196C770E9CFDF91CF911F91089540917C
:1040B000A8035091A9036091AA037091AB0380916A
:1040C000AC039091AD030C9426200F931F93CF93D4
:1040D000DF938091AD0382958F7009F05DC0809170
:1040E000AA03882309F458C08091760310917703BE
:1040F0006091A8037091A903C091AB03D091AC0368
:1041000091E06F3F09F090E0292F06E0811709F454
:1041100043C0209721F07F3F21F030E003C031E021
:1041200001C0322F90E030FD34C0089FF001099F9C
:10413000F00D1124DF01A858BC4F11963C91119746
:10414000371327C03C91361324C012963C91129726
:1041500031111FC013964D915C9114974C1B5D0B50
:1041600044365105B0F48091AD038F708061809327
:10417000AD03E358FC4F80818F708061808388EAB3
:1041800093E00E94A11FDF91CF911F910F910C949A
:10419000362001968770BACFDF91CF911F910F9192
:1041A00008959F92AF92BF92CF92DF92EF92FF92CB
:1041B0000F931F93CF93DF93CDB7DEB761970FB601
:1041C000F894DEBF0FBECDBF8C0185E0F801DE01A3
:1041D0001D9601900D928A95E1F7F8014081518179
:1041E000E2809091A8036091A9032091AB033091E4
:1041F000AC032115310531F06F3F31F481E09F3F71
:1042000019F403C081E001C080E0F82FF1709F2E07
:1042100080FD2CC1F801A380B48088EAC82E83E019
:10422000D82EF090AA03F501E21BF30BFF2009F44E
:10423000EBC08091AD03E436F10508F0A7C0282F4C
:10424000207F09F052C0561313C0491311C0FE2C31
:10425000E1100EC08F7080618093AD030E945720E3
:10426000C6010E94A11F8091AD03F80185833EC164
:10427000AB2831F05F3F31F481E04F3F19F403C0C8
:1042800081E001C080E080FD03C081E08E2502C096
:1042900080E090E0F82FF170FF2E80FF1CC080912D
:1042A00076032091770336E0821709F4FDC090E091
:1042B000389FF001399FF00D1124E858FC4F6181BF
:1042C000561306C06081461303C06281E61203C024
:1042D00001968770E9CFFE2CEE2009F407C180918A
:1042E000AD0381608093AD0366C0561312C04913BD
:1042F00010C0E1100EC0F8018583C8010E94A11F03
:1043000086E0F801A8EAB3E001900D928A95E1F702
:10431000C8C04D875E878D859E850E9412208823A8
:1043200079F1EE2069F12091AD03822F82958F7093
:1043300090E0029774F08091A8039091A903988768
:104340008F831986BB86AA862C87CE0107960E948A
:10435000A11F86E0F801A8EAB3E001900D928A95CA
:10436000E1F70E9465200E9457200DC0561729F1E1
:104370004D875E878D859E850E94122081112CC0FD
:10438000C8010E94A11FFF24F394B0C0282F207FF2
:1043900069F77A2DB98AA88A6E2D89890E9417201B
:1043A00088EA93E00E94A11F86E0F60111928A95A7
:1043B000E9F70E945720F12C99C04913D9CFE11099
:1043C000D7CFF8018583C8010E94A11F86E0F601BE
:1043D00011928A95E9F78AC0EE2091F22091AD03FF
:1043E000822F82958F7090E002970CF4B2CF80916B
:1043F000A8039091A9039A8389831B82BD82AC8212
:104400002E83CE010196A3CFE436F10510F5FE2CE4
:10441000EE2009F4B5CF56130BC0491309C086E04E
:10442000F801A8EAB3E001900D928A95E1F75EC029
:104430004D875E878D859E850E941220811189CFD0
:104440008091AD0381608093AD03C8010E94A11FDC
:104450004DC07A2DB98AA88A6E2D89890E941720AD
:1044600086E0F60111928A95E9F71BC0EE2009F467
:1044700087CF4D875E878D859E850E941220F82EFE
:10448000882309F47DCF86E0F801A8EAB3E0019023
:104490000D928A95E1F788EA93E00E94291D0E9417
:1044A00065200E94572022C04D875E878D859E859E
:1044B0000E94E224292F22952F70223028F49F7029
:1044C00039F0811105C00BC0243028F49F7049F4E5
:1044D000805E883020F0C8010E94A11F9F2CF92C1B
:1044E00005C0F8019581907F99F7F9CF8F2D6196DE
:1044F0000FB6F894DEBF0FBECDBFDF91CF911F91F5
:104500000F91FF90EF90DF90CF90BF90AF909F9072
:1045100008951F93CF93DF93CDB7DEB72C970FB6D7
:10452000F894DEBF0FBECDBF4F83588769877A8767
:104530008B879C87CE0107960E94D1208823D1F0DB
:104540009F8188852A853B85232B31F08F3F31F46D
:1045500081E09F3F19F403C081E001C080E080FD4D
:1045600047C04F81588569857A858B859C850E94D7
:1045700026203EC086E0FE013796DE0111960190AE
:104580000D928A95E1F7FF81E8856A857B85611543
:10459000710531F0EF3F31F481E0FF3F19F403C0C2
:1045A00081E001C080E080FD23C02091770330E0EE
:1045B000C9010196877099274091760350E08417CE
:1045C0009507F1F1F983EA837D836C8396E0929FEE
:1045D000D001939FB00D1124A858BC4FFE01319615
:1045E00001900D929A95E1F7809377030E9436200F
:1045F00016E08091760390917703891771F1189FE7
:10460000C001112488589C4F0E94D120882329F191
:10461000E09176031E9FF0011124E858FC4F408181
:10462000518162817381848195810E9426208091CD
:10463000760390E001968770992780937603D9CF0F
:104640000E94EA1F1092770310927603E8EAF3E0E3
:1046500086E0DF011D928A95E9F72C960FB6F89453
:10466000DEBF0FBECDBFDF91CF911F91089508959A
:1046700008950C9438230C9439230E943B236093B3
:10468000DA037093DB038093DC039093DD030C94D7
:10469000D41F0C943D230F931F930091DA031091C4
:1046A000DB032091DC033091DD03602B712B822B27
:1046B000932B1F910F910C943D230F931F93009107
:1046C000DA031091DB032091DC033091DD036023DA
:1046D0007123822393231F910F910C943D230F93F9
:1046E0001F930091DA031091DB032091DC033091DA
:1046F000DD0360277127822793271F910F910C9468
:104700003D230C9438230E9481236093D603709339
:10471000D7038093D8039093D9030C94D41F60E0FF
:1047200070E0CB010C9483230F931F9341E050E082
:1047300060E070E08A019B0104C0000F111F221F7E
:10474000331F8A95D2F7C901B8011F910F910C94BC
:1047500083230F931F9341E050E060E070E004C0BA
:10476000440F551F661F771F8A95D2F78091D60395
:104770009091D703A091D803B091D9038A019B01EE
:10478000082B192B2A2B3B2BC901B8011F910F9124
:104790000C9483230F931F9341E050E060E070E09E
:1047A00004C0440F551F661F771F8A95D2F74095A6
:1047B0005095609570958091D6039091D703A09104
:1047C000D803B091D9038A019B01082319232A2316
:1047D0003B23C901B8011F910F910C9483230F93C0
:1047E0001F9341E050E060E070E004C0440F551FAB
:1047F000661F771F8A95D2F78091D6039091D703D1
:10480000A091D803B091D9038A019B0108271927E9
:104810002A273B27C901B8011F910F910C948323CC
:104820000F931F930091D6031091D7032091D803C3
:104830003091D903602B712B822B932B1F910F91F9
:104840000C9483230F931F930091D6031091D703E9
:104850002091D8033091D9036023712382239323BD
:104860001F910F910C9483230F931F930091D603F4
:104870001091D7032091D8033091D9036027712775
:10488000822793271F910F910C9483230895292F3A
:10489000220F920F990F890FE82FE695E695E6957E
:1048A000877051E001C0550F8A95EAF785E0E89FCF
:1048B000F0011124E255FC4F20E030E070E040812F
:1048C000CB01022E02C0969587950A94E2F781707B
:1048D000819584278523842781932F5F3F4F25303F
:1048E000310569F70895292F220F920F990F890F2B
:1048F000682F669566956695982F977085E0689FF6
:10490000B001112440E050E080E0FB01E40FF51F0E
:10491000E255FC4F208130E0092E02C036952795E4
:104920000A94E2F721703327042E01C0220F0A9463
:10493000EAF7822B4F5F5F4F4530510531F70895FD
:10494000BF92CF92DF92EF92FF920F931F93CF937C
:10495000DF938C01C090D603D090D703E090D803AA
:10496000F090D9038091DA039091DB03A091DC03EE
:10497000B091DD03C82AD92AEA2AFB2ACFE1D0E088
:10498000D701C6010C2E04C0B695A79597958795BB
:104990000A94D2F780FD04C0219790F7B12C07C08C
:1049A000BC2EB8018C2F0E946D040197A9F38B2DAA
:1049B000DF91CF911F910F91FF90EF90DF90CF90FB
:1049C000BF900895CF93DF93EC010E94A024BE0115
:1049D0000E946D04DF91CF9108951F93CF93DF93D1
:1049E000EB0190917503992321F0CB010E94E22401
:1049F00013C0882349F0CB010E94A024182F682FF0
:104A0000CE010E94472404C0CB010E947324182FBA
:104A1000BE01812F0E946D04DF91CF911F910895F7
:104A2000E0912902F0912A028091E8038083E091CD
:104A30002902F0912A0290818091E703892B8083DB
:104A4000E0912902F0912A0290818091E603892B5E
:104A500080838091290290912A020C94BC1B809142
:104A6000E80308959091E803892B8093E803089563
:104A700080959091E80389238093E803089510922C
:104A8000E80308959091E703892B8093E703089545
:104A900080959091E70389238093E703089510920E
:104AA000E70308951092E603089580E0089580E0FA
:104AB00090E00E94582F21E08B3E9E4F09F020E0AD
:104AC000822F089582E090E00C94502F83E090E0D4
:104AD0000C94502FCF9384E090E00E94502FC82F69
:104AE00081E290E00E94502F2C2F30E0A901582B3A
:104AF000CA01CF910895CF93C92F682F84E090E029
:104B00000E946E2F6C2F81E290E0CF910C946E2F5B
:104B1000AB01BC018FE090E00C94802FAB01BC0195
:104B200083E190E00C94802F60E070E0CB010C9466
:104B30008E2560E070E0CB010E9488250C949425BE
:104B40006BEE7EEF80E090E00E948C2F60E082E0D0
:104B500090E00E946E2F60E083E090E00E946E2F54
:104B60001092DA031092DB031092DC031092DD0343
:104B700060E084E090E00E946E2F60E081E290E0CF
:104B80000E946E2F60E085E090E00E946E2F60E052
:104B900086E090E00E946E2F6FEF87E090E00E9429
:104BA0006E2F40E050E0BA0188E090E00E94802F34
:104BB00060E08DE090E00E946E2F40E050E0BA018E
:104BC00088E190E00E94802F60E087E190E00E9401
:104BD0006E2F40E050E0BA018CE190E00E94802FFF
:104BE00060E080E290E00E946E2F40E050E0BA0169
:104BF00088E190E00E94802F0C9499250C94A025C8
:104C0000682F8EE090E00C946E2F662349F0FC0133
:104C1000329608962191621729F0E817F907D1F723
:104C200080E0089581E008959C01FC0132969FEF99
:104C300080E04191461789F09F3F19F4411101C06E
:104C4000982F8F5F8630A9F79F3F39F0F901E90F60
:104C5000F11D97FDFA956283089508959C012A5FDE
:104C60003F4FFC014281461301C012820196821718
:104C70009307B9F708950C9414260C942E260296E7
:104C800026E0FC0111922A95E9F7089508950C9405
:104C900046260C944626CF930E9449260E94000780
:104CA0000E944726C0E08C2F0E942506811104C077
:104CB000CF5FCA30C1F701C081E0CF9108950C9455
:104CC00046260C945F2680912305843049F10E948A
:104CD000612680E00E9451041092EA0320E488E1FA
:104CE00090E00FB6F894A895809360000FBE2093D3
:104CF000600083B7817F846083BF83B7816083BF97
:104D00007894889583B78E7F83BF0FB6F894A89563
:104D100080916000886180936000109260000FBEF7
:104D200008950C9446260E94EA1F0E94B01B0E9420
:104D300051040C9491261F920F920FB60F921124DA
:104D40008F939F93AF93BF938091EA03811113C018
:104D50008091150590911605A0911705B091180541
:104D60004196A11DB11D8093150590931605A09342
:104D70001705B0931805BF91AF919F918F910F9038
:104D80000FBE0F901F90189582E084BD93E095BDF3
:104D90009AEF97BD80936E0008952FB7F894809195
:104DA000150590911605A0911705B09118052FBF14
:104DB00008952FB7F89460911505709116058091AC
:104DC0001705909118052FBF08959C014FB7F894CF
:104DD0008091150590911605A0911705B0911805C1
:104DE0004FBF821B930B0895CF92DF92EF92FF92F9
:104DF0002FB7F894C0901505D0901605E0901705D0
:104E0000F09018052FBFA7019601261B370B480B02
:104E1000590BCA01B901FF90EF90DF90CF90089530
:104E200078941F920F920FB60F9211248F939F9335
:104E3000AF93BF938091150590911605A09117052A
:104E4000B09118050196A11DB11D80931505909391
:104E50001605A0931705B0931805BF91AF919F91C8
:104E60008F910F900FBE0F901F90189510921905FB
:104E700010921A0510921B0510921C050895CF92EE
:104E8000DF92EF92FF926B017C010E94C2078111B9
:104E90000EC00E94D926C61AD70AE80AF90AC0929B
:104EA0001905D0921A05E0921B05F0921C05FF909F
:104EB000EF90DF90CF9008950F931F930E94C20749
:104EC000882321F01F910F910C94D9260E94D92696
:104ED0000091190510911A0520911B0530911C05B0
:104EE000600F711F821F931F1F910F910895CF9222
:104EF000DF92EF92FF926B017C010E94C207882330
:104F000041F0C701B601FF90EF90DF90CF900C9475
:104F1000F4260E945C276C197D098E099F09FF9079
:104F2000EF90DF90CF90089587E797E7909301087F
:104F3000809300089AE088E10FB6F894A8958093D2
:104F400060000FBE90936000FFCF9093CD028093DE
:104F5000CC0208950E945725811102C00E94FE25AF
:104F60000E9462258093E9030E946A2590931E05A2
:104F700080931D050E946625682F70E080E090E018
:104F80000E9449236091D6037091D7038091D80382
:104F90009091D9030C9481238091F303089508958F
:104FA000CF93DF9300D01F92CDB7DEB7909123054A
:104FB000943019F589837B836A8382E08093E900CA
:104FC0008FEF9091E800815095FD06C095ED9A9580
:104FD000F1F700008111F5CF8091E80085FF0DC049
:104FE00040E050E063E070E0CE0101960E94CE29DF
:104FF0008091E8008E778093E8000F900F900F90DB
:10500000DF91CF910895BC0184E00C94D027BC01BE
:1050100083E00C94D027CF93DF9321E02093E90025
:105020002FEF3091E800215035FD06C035ED3A955F
:10503000F1F700002111F5CF2091E80025FF14C001
:10504000EC0140E050E068E070E00E94CE298091E1
:10505000E8008E778093E80088E0FE01ABEEB3E0D5
:1050600001900D928A95E1F7DF91CF91089580919B
:105070002205811109C00E945F2B0E94BC2B8091E8
:10508000E20084608093E200089510922205089562
:1050900008950895089542E061EC81E00E94D82AC5
:1050A00042E261EC82E00C94D82A8091250583309D
:1050B00009F460C030F4813071F0823009F499C095
:1050C00008958A3009F485C08B3009F46BC08930AB
:1050D00009F0A7C020C080912405813A09F0A1C041
:1050E0008091E800877F8093E80080912805909167
:1050F0002905892B21F468E08BEE93E003C060E082
:1051000080E090E070E00E94192A8091E8008B779F
:105110008093E800089580912405813209F081C0D0
:105120008091280590912905029708F07AC0809116
:10513000E800877F8093E8008091E80082FD05C049
:10514000809123058111F8CF6CC02091F3008091EC
:10515000F20090E0922B029729F48091F1008B7F6E
:10516000813021F48091F1008093F3038091E80075
:105170008B7753C080912405813A09F052C0809109
:10518000280590912905892B09F04BC08091E800F2
:10519000877F8093E8008091E80080FFFCCF8091BA
:1051A000350236C0809124058132D9F580912805D9
:1051B00090912905892BA9F58091E800877F80933C
:1051C000E8000E940D2B80912605809335020C94F7
:1051D000EA1F80912405813221F58091E800877FC4
:1051E0008093E8000E940D2B809127058093F403A3
:1051F000089580912405813AA1F48091E800877F89
:105200008093E8008091E80080FFFCCF8091F40358
:105210008093F1008091E8008E778093E8000C94F1
:105220000D2B089584B7877F84BF0FB6F894A89597
:1052300080916000886180936000109260000FBED2
:1052400090E080E80FB6F89480936100909361003D
:105250000FBE0E942F1C0E945F2B0E94BC2B8091CE
:10526000E20084608093E20078940E94512E0E94B4
:10527000391C8BE292E00E94AB1B809123058530A4
:10528000A9F480912305853079F40E9463268091EA
:1052900021058823B1F30E944B26882391F30E94B5
:1052A000B8290E94EA1FEDCF0E9493260E94451C58
:1052B0000E94231C0E94221CE0CF0C945F29292FFE
:1052C000332723303105C9F060F42130310581F0F6
:1052D0002230310509F044C08BE390E026EE34E043
:1052E00043C021323105E1F02232310549F138C0A5
:1052F00082E190E021E235E037C0992781309105C5
:1053000049F028F0029761F5ECEAF4E005C0E2EE1E
:10531000F4E002C0EAECF4E0849190E09F0124C044
:105320006115710541F061307105D1F489E090E0BB
:1053300021E135E019C089E090E028EF34E014C0A5
:105340006115710541F06130710551F482E390E01F
:1053500023E335E009C080E490E025E635E004C0B1
:1053600080E090E020E030E0FA013183208308956E
:1053700080E189BD82E189BD09B400FEFDCF809145
:10538000D8008F7D8093D8008091E0008260809368
:10539000E0008091E00081FDFCCF0895CF92DF9284
:1053A000EF92FF920F931F93CF93DF93EC018B014A
:1053B0007A010E942C2B811133C0E114F10439F0E1
:1053C000F70180819181081B190BC80FD91FC12CCF
:1053D000D12C0115110519F18091E80085FD16C049
:1053E0008091E8008E778093E800E114F10449F0A1
:1053F000F70180819181C80ED91ED182C08285E0DB
:105400000FC00E942C2B882321F30AC0899180931E
:10541000F10001501109FFEFCF1ADF0ADACF80E067
:10542000DF91CF911F910F91FF90EF90DF90CF9080
:10543000089520912A0530912B052617370748F04B
:105440006115710539F42091E8002E772093E8006A
:1054500001C0B901FC0120E06115710579F180916D
:1054600023058823F1F18530F1F18091E80083FD77
:105470003CC08091E80082FD2EC08091E80080FF52
:10548000EBCF2091F3008091F20090E0922B611518
:10549000710551F08830910538F421912093F10085
:1054A000615071090196F3CF21E0089709F020E0DF
:1054B0008091E8008E778093E800CECF2111CFCF86
:1054C0000AC080912305882361F0853061F08091C6
:1054D000E80083FD0AC08091E80082FFF2CF80E0FF
:1054E000089582E0089583E0089581E00895209171
:1054F0002A0530912B052617370748F061157105ED
:1055000039F42091E8002E772093E80001C0B9011A
:10551000FC0120E06115710591F18091230588233C
:1055200009F440C0853009F43FC08091E80083FD54
:105530003DC08091E80082FD2FC08091E80080FF8F
:10554000E9CF2091F3008091F20090E0922B611559
:10555000710559F08830910540F424912093F100B1
:105560003196615071090196F2CF21E0089709F058
:1055700020E08091E8008E778093E800CBCF211166
:10558000CCCF0AC080912305882361F0853061F07B
:105590008091E80083FD0AC08091E80082FFF2CF8D
:1055A00080E0089582E0089583E0089581E0089501
:1055B000982F973068F59093E900981739F070911B
:1055C000EC002091ED005091F00003C0242F762FC5
:1055D00050E021FD02C09F5FECCF3091EB003E7F99
:1055E0003093EB003091ED003D7F3093ED00309132
:1055F000EB0031603093EB007093EC002093ED00F2
:105600005093F0002091EE0027FDE5CF80E0089553
:105610008F708093E90081E008958091240587FFD1
:1056200011C08091E80082FD05C0809123058111A1
:10563000F8CF11C08091E8008B770BC080912305D3
:10564000882349F08091E80080FFF8CF8091E8003E
:105650008E778093E80008952091E4003091E50072
:1056600095E64091EC00842F817040FF23C080912B
:10567000E80080FD1DC080912305882399F08530C6
:1056800099F08091EB0085FD11C04091E4005091AC
:10569000E5002417350729F3915011F09A01E1CF65
:1056A00084E0089582E0089583E0089581E00895FC
:1056B00080E008954091E80042FFDDCF08950E9408
:1056C000CD2B0E94D52BE0EEF0E0808181608083BD
:1056D000E8EDF0E080818F77808319BCA7EDB0E022
:1056E0008C918E7F8C9380818F7E80831092220597
:1056F00008950F931F93CF93DF930E94CD2B0E94A9
:10570000D52BC8EDD0E088818F7788838881806829
:10571000888388818F7D888319BC1092230510921D
:105720001F05109221051092200500EE10E0F801EF
:1057300080818B7F808388818160888342E060E004
:1057400080E00E94D82AE1EEF0E080818E7F8083A5
:10575000E2EEF0E0808181608083808188608083D8
:10576000F80180818E7F8083888180618883DF91CA
:10577000CF911F910F910895E8EDF0E080818F7E29
:105780008083E7EDF0E080818160808384E082BFE8
:1057900081E0809322050C94792BE8EDF0E0808184
:1057A0008E7F80831092E20008951092DA001092AA
:1057B000E10008951F920F920FB60F9211242F93BC
:1057C0003F934F935F936F937F938F939F93AF9389
:1057D000BF93EF93FF938091E10082FF0BC0809114
:1057E000E20082FF07C08091E1008B7F8093E1009F
:1057F0000E94502E8091DA0080FF1FC08091D80057
:1058000080FF1BC08091DA008E7F8093DA00809148
:10581000D90080FF0DC080E189BD82E189BD09B456
:1058200000FEFDCF81E0809323050E94372805C04C
:1058300019BC109223050E9445288091E10080FF49
:1058400019C08091E20080FF15C08091E2008E7F38
:105850008093E2008091E20080618093E200809179
:10586000D80080628093D80019BC85E0809323051E
:105870000E9449288091E10084FF30C08091E200BD
:1058800084FF2CC080E189BD82E189BD09B400FE9E
:10589000FDCF8091D8008F7D8093D8008091E1006A
:1058A0008F7E8093E1008091E2008F7E8093E20002
:1058B0008091E20081608093E20080911F0588233F
:1058C00011F084E007C08091E30087FD02C081E011
:1058D00001C083E0809323050E944A288091E10063
:1058E00083FF29C08091E20083FF25C08091E10001
:1058F000877F8093E10082E08093230510921F054B
:105900008091E1008E7F8093E1008091E2008E7FA4
:105910008093E2008091E20080618093E20042E0A7
:1059200060E080E00E94D82A8091F0008860809337
:10593000F0000E944828FF91EF91BF91AF919F9195
:105940008F917F916F915F914F913F912F910F9028
:105950000FBE0F901F9018951F920F920FB60F92C7
:1059600011242F933F934F935F936F937F938F9364
:105970009F93AF93BF93CF93DF93EF93FF93C09128
:10598000E900CF708091EC00D82FD17080FDD0E875
:105990001092E9008091F000877F8093F000789466
:1059A0000E94F02C1092E9008091F00088608093B2
:1059B000F000CD2BCF70C093E900FF91EF91DF9104
:1059C000CF91BF91AF919F918F917F916F915F9197
:1059D0004F913F912F910F900FBE0F901F901895F0
:1059E0001F93CF93DF93CDB7DEB7AA970FB6F89486
:1059F000DEBF0FBECDBFE4E2F5E08091F100819300
:105A000025E0EC32F207C9F70E9455288091E800A2
:105A100083FF2EC18091240590912505492F50E0E8
:105A20004A30510508F024C1FA01E056FF4F0C94AA
:105A3000B32E803821F0823809F01AC108C0809155
:105A4000200590912105992389F082600FC08091F3
:105A500028058F70873008F00BC18093E900809192
:105A6000EB0085FB882780F91092E9009091E8000F
:105A7000977F9093E8008093F1001092F100D1C0DD
:105A8000282F2D7F09F0F4C0882319F0823061F0AF
:105A9000EFC080912605813009F0EAC0933009F00B
:105AA00080E0809321052EC08091260581112AC0B7
:105AB000809128058F702FEF280F263008F0D8C06E
:105AC0008093E9002091EB0020FF1CC0933021F46B
:105AD0008091EB00806214C09091EB0090619093F4
